:020000040020DA
:1000000002200D729000F4D912000D747810EC4D9E
:100010004E4F70047CA57DA5C3EC13FCED13FDEEE3
:1000200013FEEF13FF5010EC64CCFCED644CFDEEBE
:10003000644EFEEF64CEFFD8DF9000F4D912000DBD
:10004000B5EE547FFE229000F4D9EEF0EFA3F0A3BA
:1000500074A5F0A3F0220000000000001000800052
:1000600000805F9B34FB00000000000000000000E7
:100070000227824C000000000227C8BE0227C81ECB
:100080000223847F022691232207FF2202222C8B47
:1000900002215F8202245ECDC0E0F5E0C0E0900066
:1000A000F531E06401700975E00215E070FC802410
:1000B0009000F531E06402700975E01415E070FC01
:1000C00080129000F531E06403700975E03015E0AE
:1000D00070FC8000D0E0E5E0D0E02230303030002D
:1000E00000000000000000000000002202248CEB51
:1000F00000000000220000000000000000000000DE
:1001000000000000000000000000000000000000EF
:1001100000000000000000000000000000000000DF
:1001200000000000000000000000000000000000CF
:100130000000000000000000000000000000004D72
:10014000414749430227CB20E09028FE00F10309F4
:100150000000F3010AF40401000004F203090001A5
:10016000F3023506F40619110E19110FF2030900F6
:1001700004F3023510F41035061901000900173593
:1001800006190017090104F203090006F3023509F4
:10019000F40909656E09006A090100F20309000902
:1001A000F3023508F408350619110E090106F203A9
:1001B000090100F3022508F4084156524350204338
:1001C00054F203090102F3022504F4044D4348509C
:1001D000F203090311F30109F4020001FFE08D2885
:1001E000FE90F103090000F3010AF4040100000588
:1001F000F203090001F3023503F40319110CF203B1
:10020000090004F3023510F4103506190100090045
:10021000173506190017090104F203090006F30255
:100220003509F40909656E09006A090100F203093C
:100230000009F3023508F408350619110E09010604
:10024000F203090100F3022508F408415652435015
:10025000205447F203090102F3022504F4044D433C
:100260004850F203090311F30109F4020002FF50A0
:10027000DCD955E405D2AF9FA98FE54A7DFE4353F3
:10028000534942DB91001053DC4218A20016962419
:1002900047C62361BAD94B4D1E4353534942DCD55F
:1002A000001350DB6216962447C62361BAD94B4D22
:1002B0001E4353534941DCD80042DB60000142DC5D
:1002C00055000042DCE9000253DBC60CA500B39BDD
:1002D0007234BEECD4A8F44341884353534942DC02
:1002E000D3001350DB50B39B7234BEECD4A8F4435C
:1002F00041884353534941DCD70042DB4E00015350
:10030000DB7E1CA7007E3B07FF1C51492FB3398AB7
:100310004C4353534942DBA2001350DC617E3B0740
:10032000FF1C51492FB3398A4C4353534941DBA435
:100330000042DC5F000142DB9D000042DBA50002C1
:10034000605ADBE8F027DCD9DB9100100001F007F0
:10035000DC42DCD500130001DB62DCD8DB6000F797
:100360000D10F005DC55DCE900022111F007DBC6B9
:10037000DCD300130001DB50DCD7DB4E00F70D109F
:10038000F007DB7EDBA200130001DC61DBA4DC5F95
:1003900000F70D10F005DB9DDBA50002211148DC04
:1003A000570000DBE800A000A841ED540044ED4EEA
:1003B0000000000047ED5820434C43433A2041EDF4
:1003C0005F8241ED55006042ED60FF00FF010202D7
:1003D00003030404050506060707080809090A0AB5
:1003E0000B0B0C0C0D0D0E0E260F290F10101711F4
:1003F0001A121D1323142415FF16FF17FF18FF19D7
:10040000FF1AFF1BFF1CFF1DFF1EFF1F58C4A90082
:10041000A3000100A8000100C5000100F3000100D5
:10042000F7000100FA000141ECA70041ECCE0042C8
:10043000F2B300F041F2B10041F2B00041F2AB0082
:1004400041F2AA0041F2A90042F117000043F0A7CF
:1004500000000043F20100000043F20400000041EC
:10046000F2C00141D0CC0041D0CF0141D2040041C3
:10047000D2050041D2000041D0C03341CB9F0042A1
:10048000CBA5000042E0040A1842E018000245E053
:100490002902D200292A42E04D000542E13A292AE8
:1004A00044E0594D43485042E138000445E03702EA
:1004B000D400242A42E063000542E008242A44E0F4
:1004C00065424D383342E006000445E02402D60080
:1004D000252A42E04B000542E136252A44E055300A
:1004E00030303042E134000445E01F02D800272AB2
:1004F00042E03E000542E12A272A46E04F425442AC
:100500004D383342E128000645E01A02DA00262A77
:1005100042E03C000542E126262A46E045313030E3
:1005200030303342E124000645E03202DC00282A64
:1005300042E05D000542E002282A44E05F303030AE
:100540003042E000000445E04002DE00232A42E1A0
:1005500022000542E016232A48E12C00000000009A
:1005600000000042E014000845E11B02E0002A2AD6
:1005700042E00A000542E0302A2A48E00C00000070
:10058000000100000042E02E000860AAE069F027A8
:10059000E004E01800020001F007E029E04D00054A
:1005A0000001E13AE059E13800F70A01F007E037CD
:1005B000E06300050001E008E065E00600F70A01DD
:1005C000F007E024E04B00050001E136E055E1349E
:1005D00000F70A01F007E01FE03E00050001E12AF4
:1005E000E04FE12800060001F007E01AE03C0005BA
:1005F0000001E126E045E12400060001F007E032B9
:10060000E05D00050001E002E05FE00000F70A01A4
:10061000F007E040E12200050001E016E12CE014C3
:1006200000080001F007E11BE00A00050001E030CE
:10063000E00CE02E0008000148E1130000E0690032
:10064000D000E050E2B8C2EA3379AFA9CD83244CA0
:10065000E0874353534942E30A001053E2E09AF221
:100660000045106CF2B716219670445CB7435353A3
:100670004942E37C001350E27745106CF2B7162133
:100680009670445CB74353534941E3910042E37A87
:10069000025842E306000042E392000244E2B40141
:1006A00000002942E308000453E37E18F6003F6A85
:1006B000776644F021B57749B64B4353534942E23C
:1006C00075001350E2A33F6A776644F021B577497D
:1006D000B64B4353534941E29A0042E27300014250
:1006E000E394000042E29B000253E2871AF900788B
:1006F0006D43F61088DE94A345D12D4353534942F0
:10070000E2A1001350E2F6786D43F61088DE94A360
:1007100045D12D4353534941E2B30042E29F0001CA
:1007200042E29D000042E2C80002606EE30CF02746
:10073000E2B8E30A00100001F007E2E0E37C0013F6
:100740000001E277E391E37A00F71F11F005E30679
:10075000E39200022111F025E2B4E3080004001145
:10076000F007E37EE27500130001E2A3E29AE27370
:1007700000F70D10F005E394E29B00022110F00752
:10078000E287E2A100130001E2F6E2B3E29F00F784
:100790000D10F005E29DE2C80002211148E26B0055
:1007A00000E30C00F000FA50E795E4A5815029978A
:1007B000F0FC1A44D5044353534942E7C800105390
:1007C000E81802C20032A23EF5B468DFDB483927E0
:1007D000984353534942E792001350E7B832A23E80
:1007E000F5B468DFDB483927984353534941E79410
:1007F0000042E7B6000153E82B18C400EDFDAD231D
:10080000D3EEDAE5276CE3954353534942E7A5005D
:100810001350E7CCEDFDAD23D3EEDAE5276CE3957D
:100820004353534941E7A70042E7CA000142E84663
:10083000000042E7A80002603CE7DCF027E795E70C
:10084000C800100001F007E818E79200130001E764
:10085000B8E794E7B600F70E01F007E82BE7A5002C
:10086000130001E7CCE7A7E7CA00F70D10F005E891
:1008700046E7A80002211148E83E0000E7DC00C07E
:1008800000C541F5310041DA88006030DA8BA8E21A
:10089000DCA8E292A8E2CCA8E27EA8E2B9A8E267CE
:1008A000A8E2A3A8E24DA8E240A8E1F6A8E230A899
:1008B000E1E2A8E21DA8E1CBA8E207A8E1B141D995
:1008C000890041D98A0041D98B0041D98C0141D995
:1008D0008D0041D98E0041EDA20044EDA30000003F
:1008E0000042F01B001842F017011842F0270028C0
:1008F00042F029012842F013022842F0070328425F
:10090000F025002942F011012942F005022942F0A8
:100910000B032942F009042942F003052942F01F84
:10092000002A42F00D012A42F015042A42F01D056A
:100930002A42F00FA62A42F02BC92A42F019292B8D
:1009400042F0232A2B42F0213A2B50F19D00000067
:100950000000000000000000000000008742E4AA40
:10096000000245E3A80A0300002A42E4580005609B
:1009700020E4624254353531315F53444B0000006E
:100980000000000000000000000000000000000067
:1009900000000042E49B000A45E48C020500012AA5
:1009A00042E4A6000542E4A8000042E3A600024596
:1009B000E3DB020700042A42E482000548E48408DD
:1009C00000000A02010D0042E4A4000845E496027A
:1009D0000900A62A42E4B1000541E3960042E3B1D2
:1009E000000145E491020B00C92A42E4AE00054132
:1009F000E4B00042E3AF0001606EE3E0F027F01BDB
:100A0000E4AA00020001F007E3A8E4580005000191
:100A1000F01FE462E49B00201B11F007E48CE4A6C5
:100A200000050001F00DE4A8E3A600020001F007B4
:100A3000E3DBE48200050001F015E484E4A400088F
:100A40000001F007E496E4B100050001F00FE39621
:100A5000E3B100010001F007E491E4AE00050001FC
:100A6000F02BE4B0E3AF0001000148E45A0000E3DA
:100A7000E00001000B42E4A2000245E49D201200C8
:100A8000052A42E397000544E3990100FFFF42E491
:100A90004E000442E4AC000042E3AD00026028E3F3
:100AA000B3F027F017E4A200020001F007E49DE391
:100AB0009700050001F01DE399E44E00040000F0EA
:100AC00005E4ACE3AD0002201148E4500000E3B3BC
:100AD0000010001341F2F40043F2F900010341F267
:100AE000F10041F2F20041F2F30041F0BF0050EAA0
:100AF00022666DD038E26F4AA483CCD0C9434353F9
:100B00004942E9AD001053E9B21832001803A62893
:100B10005ED8EC911C48A3AC4353534942EA1D00F4
:100B20001350EA471803A6285ED8EC911C48A3ACE2
:100B30004353534941EA1F0042EA45000142EA1388
:100B4000000042EA20000253EA320435004F84F6E6
:100B500010761AD4BD4941E4184353534942E9AFD2
:100B6000001350EA034F84F610761AD4BD4941E4CD
:100B7000184353534941E9B10042EA010001603C86
:100B8000E9C5F027EA22E9AD00100001F007E9B25B
:100B9000EA1D00130001EA47EA1FEA4500F70D10BD
:100BA000F005EA13EA2000022111F007EA32E9AF6A
:100BB00000130001EA03E9B1EA0100F70D1048EA69
:100BC000150000E9C50030003544E23D0033000166
:100BD0000041F53D00C2D530F707B2D563F0FF05FF
:100BE000F030E70DB2D5F404008463F0FF05F08027
:100BF000018430D502F40422BC000BBE0029EF8D25
:100C0000F084FFADF022E4CCF875F008EF2FFFEE92
:100C100033FEEC33FCEE9DEC984005FCEE9DFE0FA0
:100C2000D5F0E9E4CEFD22EDF8F5F0EE008420D217
:100C30001CFEADF075F008EF2FFFED33FD40079877
:100C40005006D5F0F222C398FD0FD5F0EA22C2D5A6
:100C5000EC30E709B2D5E4C39DFDE49CFCEE30E73F
:100C600016B2D5E4C39FFFE49EFE12200BF8C3E446
:100C70009DFDE49CFC800412200BF830D507C3E4F2
:100C80009FFFE49EFE22F8EB700C09E5F027C7F504
:100C9000F019E837C72289828A831410E707F59391
:100CA000E802000B1FF593E4740193F5F0E493223E
:100CB000BB000B09C5F027F7C5F01937F722F8EB91
:100CC00089828A831410E707F593E802000B09F57F
:100CD0009374019325F0F5F0E4933822EB7006E964
:100CE000F802200D1689828A831410E706F5930214
:100CF000000D9CF59302200D23EB7006E9F802200D
:100D00000D3389828A831410E706F59302000DD90A
:100D1000F59302200D3CE6FB08E6F908E6FA08E642
:100D2000CBF822E493F8740193F9740293FA7403F4
:100D300093FB22E6FB08E6FA08E6F922E493FB744B
:100D40000193FA740293F9220227A30CE493A3F807
:100D50005407240CC8C333C4540F4420C883400430
:100D6000F456800146F6DFE4800C010204081020EE
:100D7000408090200148E47E019360CCA3FF543F63
:100D800030E509541FFEE493A360010ECF54E0B494
:100D9000E029E493FBA3E493FAA3E493F9A3E49397
:100DA000C083C08212000AE3759320D082D083A34F
:100DB00009E970010ADFE7DEE580BB54C025E06089
:100DC0002B4089E493A3FAE493A3F8E493A3C8C562
:100DD00082C8CAC583CA759300F0759320A3C8C59D
:100DE00082C8CAC583CADFE3DEE1808AE493A3F840
:100DF000E493A34003F68001F208DFF402200D76AD
:100E0000A895D10004D104A8AECE0001B701A890E6
:100E10009300019E47A8B84100019E69A8B85800F8
:100E2000019EBAA890BA00019ED1A88699000158E7
:100E30007DA890E10002BA8CA7FBD90003D495A845
:100E4000931C000140AEA7AD3E00032D73A84314D0
:100E50000003EBF7A6C8BD00047A35A8C2B90003A9
:100E600024C2A8AEEA0000100FA827220002830BBC
:100E7000A8C2CA000396B6A8C2DB00039797A8B41D
:100E8000BD000486D1A8BFCE00044D67A85F7400E2
:100E900001B5AAA84EDE00017A0AA80BCA000361B8
:100EA00014A8C58700008D66A7A130000288E1A8BC
:100EB000762D0003B920A83148000151A2A88D5712
:100EC0000004E099A7F62200026772A6ED0B00016C
:100ED000BE52A80EF5000320A2A8BE290002CB0135
:100EE0000006EA020007EA00EA0100080000090023
:100EF00000000A0005000000000A000500000100D3
:100F000005000201000C656E00000D656E00001109
:100F100000060000AABB000E000143686174626F06
:100F20006172640000040002000A00030000000077
:100F3000000000000000DECAFADEDECADEAFDECA54
:100F4000CAFE3F65098601000A0004781D35330D8D
:100F50000D1305447F5024405030000220404014BF
:100F6000080016200A1016201E0F0F5555160A5499
:100F70000B0412000010120700000319FF40F07F5D
:100F800040000077015E00F001E000C8204E000044
:100F900048393024201812600000000000000000D2
:100FA0000000535050424D38335F4D53504B323058
:100FB0000000000000000000000000000000000031
:100FC0000000000000000000000022222222222255
:100FD00022222222222222222222000000000000BD
:100FE0000000000000000000000000000000000001
:100FF00000000000000000000000000000000000F1
:1010000000002A2B0225439502267FFB06FF0227BC
:10101000050103220227BBDD0227631402265318B1
:10102000022613EA0226E4550226B453022507C617
:10103000022110F0022252240227850D0225A1E48C
:1010400002240CB10223CC490226F9D50221AF0EAD
:101050000226FF810223BBF9022687F602274419E4
:101060000226BE0602276D380226968F0227813E91
:101070000226619E02261EDB02268A480226B2450F
:101080000225A11A0225881B022789480224D6506E
:10109000424D38335F4D53504B323000000000C199
:1010A0000300000020011001130114C10100000021
:1010B000000000000000000000424C455F424D3837
:1010C0003353444B0000000D0A0D0AE49000C5188C
:1010D000F09000C514F0A3F0A3F09000DB46E064AC
:1010E0000160101223765F701EA2904003D380012E
:1010F000C340149000D499E07002A3E06006E4FFBE
:101100001222A61D7FFF22122375EFC39000D4AFD9
:101110007005E094108003E09411FF9000D4AEE0DD
:101120009400FE9000D4CFE0FDC3EF9DFFEE94004D
:101130009000C512F0A3EFF09000624EE0FF64064D
:101140007003011EAFEF640C7003011EAF9000C569
:1011500012E07002A3E07003011EAF9000DA42E0DB
:10116000600764016003011EAF1227AC2BEF600320
:10117000011EAF9000D48612237567240C122375CC
:101180000DE0FEA3E0122375411223750DE060030C
:10119000011EA49000D4D0E020E0030112289000AA
:1011A000E979E060030112281223765F9000C51BE5
:1011B00070057409F080037412F012201F35EFF0EF
:1011C0009000C51C1223753C1223750DE4F0A37426
:1011D00099F09000C51B12237559E582240712234C
:1011E000750DEDF09000C51C122376DC2408122347
:1011F000750D740DF09000D4C312237559E5822447
:10120000091223750DEDF09000C51C12237577248B
:101210000A1223750DE4F07F0712000451E49000D8
:10122000D9A1F09000DA25F09000D4C4E060030169
:101230001391122375187AC57B197D1012201F5A3D
:101240009000D4BEE0700301138E9000C519E064D5
:101250009C600301138E9000C51504F012237518CD
:101260007AC57B197D117C0012201EFA7AC57B1A83
:101270007D1212201F5A9000C519E0FF9000D9A1DD
:10128000E06F60221223769D70079000C515F080F4
:10129000299000D9A1EFF09000C51AE09000D4DCAD
:1012A0001223768480149000C51AE0FF9000D4DCED
:1012B000E06F6006EFF01224F5DC9000C515E064E5
:1012C00001600301140FA3E0600301140F9000C537
:1012D0001B122376A59000C51BF012237640C39FF6
:1012E0004003011378E4A3F09000C51CE0FD122335
:1012F00076BE5063122375189000C51EE02410FBC3
:101300009000C51DE03400FA7C00EB2DFDEC3A1294
:10131000201EDC9000D51DE02410FDE433FC90007D
:10132000C51EE02DFD9000C51DE03CFC9000C51CD5
:10133000E07A002DFDEA3CFC7AC57B1A122784E195
:101340009000C51AE0FF9000C519E0B507099000AC
:10135000C51CE004F080919000C51CE06403701887
:101360009000D51DE0FF9000C51D122376709000FF
:10137000C51BE004F00112DA122376406F700301FE
:10138000140FE49000C515F09000C51880297FFF68
:1013900022122375EF70259000C51504122375FCE9
:1013A00070111223769D70079000C515F08004120D
:1013B0002376859000D9A174FFF080539000D4BEAD
:1013C000E0604C122375187AC57B1B7D117C0012DE
:1013D0002784E19000C51BE054F8F09000C5157417
:1013E00001122375FC54F812237648FEB5070890C5
:1013F00000D4D0E030E0181223769D70079000C52D
:1014000015F0800BEE44079000D9A112237684904A
:1014100000C515E07003011EAFA3E0606012000478
:101420008A1223752D1223750DE4F0A3740B122379
:1014300075FCFB12237502EBF07F0812000451903B
:1014400000D4D0E054FEF0E4FF1222A61D9000620A
:101450005CE06076122375DA6005EF6409706BE476
:101460009000DB42F01200048A122374E2741EF032
:101470009000C51BE0FCA3E0FD7F0780499000625F
:101480004EE0FF640D6043EF6404603EEF64036070
:10149000399000DA3CE0640460309000624EE06411
:1014A0000A6027EF640C60221200048A1223752D53
:1014B0001223750DE4F0A3740B122375FCFB1223A9
:1014C0007502EBF07F08120004519000C512E0FE97
:1014D000A3E09000D48612237632A3A31223758F43
:1014E000A3A3E475F01012000B099000F51EE09024
:1014F00000C514F06003011CBE122375EF70089044
:1015000000C51704F0800C9000D4BEE0540F90008A
:10151000C517F09000E963E06059122375DA6005A1
:10152000EF6409704E9000D4B5122375712409122E
:1015300023750DEFF09000D4ABE0FF12237594E516
:101540008224081223750DEFF09000D49DE0540F13
:101550006401700A9000D4A8E09000D488F01223AF
:101560007594E58224091223750DE09000E98DF051
:1015700001180CE49000C51CF09000D4E5E004F0E4
:101580001223757124091223750D122375BC900066
:10159000D4EDE02FF09000D4B8E0FBA3E09000C5BC
:1015A0001DCBF0A3EBF09000D482E0F4607EE00469
:1015B000F09000D485E0FEEFC39E400C9000C5176C
:1015C000E09000D485F0801E9000D49BE0FF900056
:1015D000C517E0FEC39F40089000D49BEEF0800644
:1015E0009000D483EEF09000D482E06414703D74D7
:1015F000FFF09000D49BE0700A9000D485E090004A
:10160000D49BF09000D483E0700A9000D49BE090CB
:1016100000D483F09000D49BE0FF9000D485E02FAD
:10162000FF9000D483E02F9000D488F09000C51D77
:10163000E0FFA3E09000D4EA122375B99000D4F340
:10164000E4F0A3EFF09000D4EDE0FF12237594E5F1
:101650008224081223750DEFF09000C51B7408F06A
:101660009000612AE070030117519000D4BEE0FFA2
:101670009000C51F122375EE700712237603011721
:101680002B9000C51FE0FD7C00C3122376AF4020E5
:10169000122376039000D206E004F0122376AD50B8
:1016A0000301172B12237603E49000D206F0807B0F
:1016B000ED64074C701F122376039000D495E0046C
:1016C000F0E0D3122376BF406212237603E4900049
:1016D000D495F080569000C51FE0FD7C0064067034
:1016E00021122376039000D496E004F0E0D3940412
:1016F000748094804035122376B6E49000D496F03E
:101700008029D3ED9405EC64809480501E122376DA
:10171000B69000D498E004F0E09406748094804081
:101720000A122376B6E49000D498F09000D49CE09E
:1017300060199000C51FE0122376BE400E9000D4C1
:101740009CE014F09000C51BE014F09000D4E9EF89
:10175000F0122375C5A3E0FD8F82122375222DFDA3
:10176000ED30E0149000C513E0240F12201EB69057
:1017700000C513E0240E8016122375189000C513BF
:10178000E0240E12201EB69000C513E0240DFD903B
:1017900000C512E012201F419000C517E0FB900029
:1017A000D4E5E0FE2BFD9000C519E02DFDA3E02D52
:1017B000540FFDC2AF9000E980E054F04401F09076
:1017C00000D488E09000E98BF09000E98DEEF09075
:1017D00000D4EDE09000E98EF0EB540FFFA3E0544D
:1017E000F04FF0AF05EF540FC454F0FFE0540F4F2B
:1017F000F09000DB4AA3E09000E98AF0122375180C
:101800007CE97D807B1012001210D2AF1223765F2C
:101810006003011A329000C517E025E02402FF9012
:1018200000C51FF07E00D39410748094805055EF53
:1018300094047480948050061200048A80289000DA
:10184000C51F122376AD50061200049D801890002B
:10185000C51FE0D39410748094805006120004B029
:1018600080041204EF80EE122376F3EFF09000C5AF
:101870001712237559E58224081223750DEDF0EF38
:101880002409807312201F35EFF09000C51FE0FF80
:10189000C39401FDED541FD39400E49400400AEF7B
:1018A0009401C413540704800C9000C51FE0C39436
:1018B00001C4135407FF1204875F9000C51C122354
:1018C000757724081223750DEE122375BA1223754D
:1018D00094E58224081223750DE0FCA3E012237620
:1018E00038EFF09000C51C12237567240812237589
:1018F0000DE0FEA3E02401FFE43E9000C524F0A328
:10190000EFF09000C51C1223753C1223750DE4F016
:10191000A37429F09000C51FE0C394011223755AE7
:10192000E58224071223750DEDF09000C516E090B6
:1019300000C51C600C122375671223750BE4F08040
:101940000B122375671223750B7401F0E49000C528
:101950001EF0122375BE9000C51EE0FEC39F40031B
:10196000011A26EE700A9000C522F0A304F0806BE5
:10197000122375181223759C12201EDC1223759CED
:10198000CD2401CD12201F419000C519E0FEA3E037
:10199000FDEDFF9000C520EEF0A3EFF09000C52014
:1019A000E0FEA3E07802CEC313CE13D8F9FFEE54C5
:1019B00001FEEF2401FFE43EFE9000C520F0A3EFFE
:1019C000F09000C523E02401122375A3CD2FFFED75
:1019D0003ECF2402CF3400F0A3EFF09000C51EE00C
:1019E00025E0A3F0FB122375181223759CFC7A00E6
:1019F000122376E7EA38FA12201EFA1223759CCDDC
:101A00002401CD3400FC9000C51FE02401FBE43329
:101A1000FA122376E7E83AFA122784E19000C51E0D
:101A2000E004F00119529000C51C1223768D1200BB
:101A30000451122375C5A3E0FD8F82122375222D58
:101A4000FDED30E0269000D48612237549E5822D05
:101A5000F582E5833CF583759300E41223766612E4
:101A60002375CEE475F00112000B09122375D860BE
:101A700008EF64096003011BC09000625CE0700322
:101A8000011BC09000E944E0FF7003011BC09000FF
:101A9000C51BE0FE122375731223750BEE1223751E
:101AA00093E58224071223750DEFF09000644C74C7
:101AB00001F0122375631223750BE0700412237773
:101AC000041223756324091223750DE0FF12237598
:101AD00094E58224091223750DE0FED39F4004EEA5
:101AE0009F80231223756324091223750DE0F404EB
:101AF000FF9000D486E0FCA3E08C8375930024095A
:101B00001223750DE02F0490006F51F09000F05DEE
:101B1000E0FD600C122375BE9000D4F7122376709E
:101B20009000D4EEE025E0FEE433122376F3CE12EB
:101B30002375EE70109000DB42E06017122376F2FE
:101B4000740FF0800E9000DB42E06007122376F203
:101B50007464F0ED606A9000D486122375672409DE
:101B60001223750DE0FF60589000C51CE0FCA3E057
:101B7000FDC39000D4F8E09D9000D4F7E09C404075
:101B80009000D4C2EFF01200048A9000C51E122308
:101B900074E6741F12201F13E49000D4F7F0A3F032
:101BA0009000DB42E0601914F0E06406701212004D
:101BB000048A9000C51E122374E6740B12201F13B2
:101BC0009000E8FBE0FF7E0064036005EF640970AD
:101BD00008E49000DB15F0800AEF4E70069000DB01
:101BE0001504F09000D4861223753C1223750D74F1
:101BF00001F09000C51712237559E58224051223C0
:101C0000750DED12237666122375CEE0FEA3E0FF7C
:101C10009000D499EE122376719000D499E0FEA33F
:101C2000E0FF7DB17C00120011589000D4E8EF1263
:101C3000237666FFF5828E8312237551122377185F
:101C400012237573240C1223750DE0FAA3E0F582BC
:101C50008A837593001223758FE582240C122375F5
:101C60000DE0FFA3E09000D486122375B99000D454
:101C70008B122376709000EFDE12000D74E4FFEDFE
:101C80005402FDE4FCED60321223765F602C90007C
:101C9000D4C3E060259000E963E0701E9000D4ECAE
:101CA000E06402700F9000624EE0640D7006122333
:101CB0003C838006E49000D4F9F0D2AF805112202A
:101CC0001F4D122375DA6005EF6409703F900062C2
:101CD0005CE060261200048A9000C51BEEF0A3EFC2
:101CE000F0122375411223750DE4F0A374941223AE
:101CF0007501740C12201F2480129000612AE0608C
:101D00000B9000683BE060041227AC487FFF2290F4
:101D100000D4ECE06003011E6CC2AF9000D48404D8
:101D2000F09000D207E004122375BD9000D480E04B
:101D30002FF0D2AF9000D47E122376DC240C122335
:101D4000750D12237549A3A3122377187DB17C006A
:101D5000120011589000D4F1EFF09000624EE06450
:101D60000D6011C2AF9000625AE4F0A374C8F0D2C3
:101D7000AF011E649000D4C4E0FF7E00F4700F90A9
:101D800000D4EEE0FD9000D480E0C39D5028EFF435
:101D90004E7003011E399000D207E0C39416748080
:101DA000948050129000D4EEE0FF9000D480E0C305
:101DB0009F5003011E39122375DA6005EF64097024
:101DC000449000DB42E060079000E963E0703690E9
:101DD00000625CE060101200048A122374E2740155
:101DE00012201F2480079000E963E06077C2AF9063
:101DF00000625A740CF0A37480F0D2AF9000D4EC5F
:101E00007401F0805FC2AFE49000625AF0A3F0D298
:101E1000AF9000DB42E0600E9000E963E060079065
:101E200000DB427402F09000D4E8E09000D490F01F
:101E30009000D4EC7402F0802B122375D86005EF6B
:101E4000640970149000612AE09000625A600D7479
:101E500001F0A3742CF0800A9000625AE4F0A3749D
:101E6000C8F0D2AFE49000D484F080439000D4EC6A
:101E7000E0FF7E006401701AC2AF9000D207E00458
:101E8000F09000C517E0FD9000D480E02DF0D2AFB7
:101E9000801DEF64024E70179000D480F09000D245
:101EA00007F0800B12201F4D9000C51874FFF090B2
:101EB00000C518E0FF22FD9000C512E03400FC7A56
:101EC000C57B19122784E19000D486E0FEA3E0F5DB
:101ED000828E83759300E0FEA3E0FF22FC7AC57B2F
:101EE00019122784E19000D486E0FEA3E0F5828EEB
:101EF00083759300E0FEA3E0FF22122784E19000A7
:101F0000D486E0FEA3E0F5828E83759300E0FEA305
:101F1000E0FF22F09000C51EE0FCA3E0FD7F071269
:101F200000045122F09000C51BE0FCA3E0FD7F07F8
:101F300012000451221200048A9000C51CEEF0A386
:101F4000223400FC7AC57B1A122784E122E4FF12B6
:101F500022A61DE49000D9A1F0227C00122784E182
:101F6000229000C8A2122286BF9000C8A5F0A3F05C
:101F7000A3F07EC87FA41227A9F87EC87FA81227E5
:101F8000AA169000C8A3E060046401701B7AC87BA5
:101F9000A57D0212201FF030E408A3E06402700265
:101FA000803B9000C488803F9000C8A3E06402702A
:101FB0003E9000C8A2E0FF7AC87BA6E4FD1225D2BD
:101FC000437AC87BA77D0112201FF030E4159000F2
:101FD000C8A6E064026006A3E0640270069000C830
:101FE000A880049000C489E0FFE4FD12272BB522ED
:101FF0009000C8A2E0FF1225D2439000C8A4E022BE
:10200000227F0122229000C809EFF0A3ECF0ED122C
:1020100021D2369000C809E01221D032AF82900060
:10202000C80EF0A3EFF09000C80A1221D0C924070F
:102030001221CFF2E024F6604824FE60030120C79D
:102040009000C810EE1221D3AB24091221CFF2E088
:10205000FEA3E0FF12274D709000C8121221D34E4C
:1020600050028001C340057E007F01229000C8120B
:10207000E0FF9000C80AE0FCA3E0FD1222E7CE805A
:102080003B9000C80A1221D0C924051221CFF212B8
:1020900021D23E24191221CFF2ED1221D0BA24060A
:1020A0001221CFF21221D258241A1221CFF2EFF0CE
:1020B0009000C8091221D24F1223FA839000C80C55
:1020C000EEF0A3EFF0802F9000C80A1221D0C924AF
:1020D000051221CFF21221D23E24191221CFF2EDA6
:1020E0001221D0BA24061221CFF21221D258241A7A
:1020F0001221CFF2EFF09000C80CE0FEA3E0FF2227
:102100000226D5FB0227C9E8020404FD020407F5F4
:102110000227C5C4022797300227C7ED0224FA5FC1
:10212000022601F90226621F022490FB9000C6AF2E
:102130001221D36E1221D233AB07AA061221D18706
:10214000940AEE940040030121C8EB240A1221D125
:1021500083940AEE94005070EB24141221D18394DE
:102160000AEE94005062EB241E1221D183940AEEF1
:1021700094005054EB24281221D1839408EE94004B
:102180005046EB24301221D1839408EE940050384D
:10219000EB24381221D1839430EE9400502AEB24A2
:1021A000681221D1839410EE9400501CEB24781215
:1021B00021D1839430EE9400500EEB24A81221D14B
:1021C000839430EE940040057E007F03227FD87E0A
:1021D0000012257D469000EF131221D0D87004FE26
:1021E0007F01221221D4DC9000C6AFE0FCA3E0FD09
:1021F0007BD87A001200112FE4FEFF2201030008B1
:102200000E12010A4254353531315F303032030449
:10221000010100029000C86EEEF0A3EFF07EC87FCF
:10222000707B06E4FD1200004F122284E3FD1222AF
:102230008400E0FEA3E08EF012000E902320000147
:10224000279700022CDB00032B1D00042BDD00056B
:102250002C240006372200072C2800082C700009C7
:102260002C8F000A2D7510012D8110022DCC10032A
:102270002DDD10042EDA1005372210072E47100826
:102280002DF1100A2D71100B3722100C3722100D72
:102290003722100F37221015372210162F1C101D51
:1022A0002F48101E2F6B20013018300137223002CA
:1022B000303F3003372230043096300530F3300C95
:1022C000315B300D31D3300E326B300F328A30102B
:1022D000328A3011328A3012328A3013328A301404
:1022E000328A3015328A3016328A3017328A3018E4
:1022F000328A3019328A301A328A301B328A301CC4
:10230000328A301D328A301E355340013722400256
:102310003582500136BB500237225003000036E9A7
:1023200012228409FF1222862E122283C5122284D1
:1023300089E5822405122283C51222870312228492
:102340001DA3A3E0FF9000C88DF01222841DA3A35B
:10235000A3E09000C88EF012203A969000C88CEF4F
:10236000F09000C876E060046401703C9000C8778B
:10237000E06402702374051222842512228603125F
:1023800022870A12201F611222868A9000C87A6072
:10239000030124D1F00124F29000C877E06003012A
:1023A00024F2A3740701244C9000C876E0FC640278
:1023B0007069A3E06402702DA37406122285A7FD44
:1023C000540FFF9000C879E054F04FFF1222843977
:1023D000FEEF540F4E9000C879F0AF05AD04122007
:1023E0001F610124F29000C877E060030124F2A38A
:1023F0007408122285A79000C879F01227ABB7EFB6
:1024000060030124F212228448122285B77410F06E
:10241000E4FB7D0E1227726C0124F21222866A649C
:10242000037030A3E0FD7C0064027013A3740B12F0
:102430002285A71222842DFBEE540F4B0124EDEDD3
:102440004C60030124F29000C878740C122285A716
:102450000124EDEF640470479000C877E0FB7A0038
:102460006402701F740D1222842512228603EF5419
:1024700003A3122284AA9000C87AF0543F12228744
:1024800011804EEB4A706B122285A154039000C854
:1024900079122284AA9000C879F0543FF0805390BA
:1024A00000C876E06405704AA3E0FB7A006402701D
:1024B00025A374101222842612228603EF5403A34C
:1024C0001222853AFEEF543F4E9000C87A122287BE
:1024D000117401F0801CEB4A7018122285A154037C
:1024E0009000C8791222853AFEEF543F4E9000C802
:1024F00079F0122285AE64026003EF70159000C877
:1025000076E06406600C7EC87F781222BD1C12241F
:1025100077DF9000C877E0640260030126D5900061
:10252000C893F0A3F07F0912266E1E122516EF90B5
:1025300000C893122284CA602C9000C88DE075F008
:1025400010A4FFAEF01222870AEF4DFF9000C8954D
:10255000EEF0A3EFF0FD12228448AB0512228504B1
:102560007D170136E51226B3187EC87F70122287C8
:102570000A7B0112234B2C122285D67CC87D7090D9
:1025800000C876E0FB9000C8A67401F01222B35692
:102590009000C876E0600764016003012655900052
:1025A000C471E054076011122284481222862074FC
:1025B00002F07D09122764227D017F05122561AF9B
:1025C0007EC87F9012277E6E9000C890E030E5159F
:1025D000122285D61226F46FEF640270081222854B
:1025E000D61226CBBE9000C890E030E31D122285A3
:1025F000D67CC87D95122751379000C895A3E0304E
:10260000E108122285D612276B76122285D67D012B
:10261000122717A29000C876E060030137227EC817
:102620007F9112277E9B7EC87F9212277EF59000B5
:10263000C891E020E503013722A3E020E30912223C
:1026400086C670030137229000C88D122284D17D86
:102650000102240AE512228636702B7EC87F8F1273
:102660002783819000C88FE030E7067F021226EEB4
:10267000F37D017F06122561AF1227ABB7EF700320
:102680000137220131539000C876E06403701B903B
:1026900000C471E020E40301372212228448122290
:1026A000862004F07D0A022764221222866A6404CE
:1026B0006008EF640560030137229000C876E0648B
:1026C0000470081222871B02272E827EC87F707D2D
:1026D000100226E6D79000C877E060030137221287
:1026E000228636706D122285D69000C45BE06F7032
:1026F000519000C46DE0704A9000C45AE0FF640538
:102700006040EF603DE4FD7F011224BC4A9000C8A8
:102710008F122284CA602B7EC87F91122756FD90AB
:1027200000C891E0FF131313540170161227C8DB81
:10273000EF6401700D1227C8F0EF70067F011227B9
:10274000B94C7F0212203ADC6003013722FD7F067C
:1027500080411222866A64046005EF6405700812E5
:1027600022871B02270FE69000C876E0600764010D
:10277000600301372212203A74FF12203ADC600312
:102780000137227F011226BCD4EF4E6003013722AD
:10279000FD7F05022561AF122284091222872224BF
:1027A0000C122283C512228489E582240812228316
:1027B000C5122287039000C86EA3E08E8375930034
:1027C0002409122283C5E0640160030137229000CE
:1027D000C8927408F09000C89B122286F5122286D7
:1027E0003660030129B1122285FB122713049000E1
:1027F000C88DEFF0122285AE1227AFA89000C88CCA
:10280000EFF064046055E025E025E0245EF582E405
:1028100034C4122286FC640370419000C89FF0A368
:102820007402F09000C877E0540FFF9000C8A1E058
:1028300054F04FFFF09000C88D1222843EFEEF54FA
:102840000F4E9000C8A1F078A27CC87D017B017A70
:10285000C8799F1222864D1226C8459000C88DE087
:10286000640860657EC87F927CC87D931227A3862A
:102870009000C88DE02493F582E434C8122286FCCF
:10288000FF540F9000C890F0EF54F0C4540F900024
:10289000C88FF0A3E0FF1227BD4D9000C891EFF064
:1028A0001227C91AEF7EC87F8E70061227A3E08018
:1028B0000412277D8D122285AE7CC87D8E12267F64
:1028C000091222871B1226F418122285AE122777CE
:1028D000489000C46DE0700C9000C877E0FD7F0464
:1028E0001224BC4A9000C8787415F09000C877E0B4
:1028F0009000C87912203AA712228409122285FC7E
:10290000E4FB7D0712234B2C12228409122287221A
:10291000240F122283C5E0701B9000C89FF0122282
:1029200085FB7CC87D9F1227455D9000C89FE030E5
:10293000E73E80381222840912228722240F1222B5
:1029400083C5E0541F640170271222848FE582241E
:1029500010122283C5E05440644060149000C86E99
:10296000A3E0122285FC7D801226E6D7122285750F
:102970007EC87F9E122783AD9000C89EE030E4049D
:10298000122285757EC87F9D1227BD759000C89D57
:10299000122284E18C83759300240A122283C5E0FD
:1029A000FCA3E0FD9000C89BE0FAA3E0FB0226B781
:1029B000FE9000C876E06003012B0F9000C8787489
:1029C00011122284088E83759300240D122283C570
:1029D000E0640870079000C879048010122285AE68
:1029E00012277CACEF6009E49000C87912203AA766
:1029F00012228448122284E38C83759300240812E7
:102A00002283C5E0FB7D1E122792AA12203A74127F
:102A100027938CEF704C9000C45AE06405703D120F
:102A2000228409122285FC122713049000C89FEF0C
:102A3000F0FB122284487D06122792AA12228448B3
:102A40007D0712203A69122284487D0512203A69D6
:102A5000122284489000C87712203AD37F0C1226A5
:102A60006E1E122284098E83759300240D12228318
:102A7000C5E012000E682B0B022A92042A9C082A39
:102A800092102A921F2A92222A92232A922A000026
:102A90002AEA122285AE12275AD0806F9000C89F72
:102AA000E4F0A304F07EC87F9F122723089000C89B
:102AB0009FE0FAA3E0FB4A9000C8776010122284DE
:102AC000E12402FDE43CFC1225BB5A8008E0FDE451
:102AD000FF1226E7E89000C45AE0602F6402602BE2
:102AE0009000C48B12203A8D8021122285AE1226CE
:102AF000B1719000C45AE0600C640260089000C498
:102B00008A12203A8D7F0B12266E1E022450F1127B
:102B100022868A60030137227F0E012CD71222837E
:102B2000D5A3A3A3122283D9E0600301372290002A
:102B3000C87AF0A3F0A3F09000C87AF09000C87AA9
:102B4000E0FFC3942074809480502E122283F812E8
:102B500022856D8C837593002407122283C5E5823C
:102B6000122283C4E070099000C87AE004F0800962
:102B70009000C87AE004F080C39000C87AE0FF2497
:102B800002FCE433A3F0A3CCF0122283F8A3A31237
:102B9000228729E4A3F0FE12257D469000C8781212
:102BA0002284CA70030137229000C878E0FEA3E0B7
:102BB000FF122283F81222856D2407FDE43CFC12EB
:102BC000203AB19000C87BE0FEA3E0FF7B017AC809
:102BD000797612246F289000C87801354A12228431
:102BE00009FF122283DDA3A3A312228489A3A312C7
:102BF00022870370121222866A64016005EF640363
:102C000070057F04012CD79000C877E0600301377E
:102C1000229000C876E06007640260030137227FDB
:102C200005012CD70225108178767CC87D017BA117
:102C30007A0079DB7E007F1012000A339000C8868C
:102C40007404F07EC87F867CC87D761227ACBA12E9
:102C50002284092402FDE43EFC9000C886E0FB903B
:102C600000C8A674C8F0A37476F07F010227623C06
:102C70009000C477E0FFE4FD12272BB51227A214C1
:102C8000EF70067F0F12266E1E7F010227C005120D
:102C90002284092404FFE43EFE12203AE3F0FB12F2
:102CA0002284487D06122792AA122284487D0712A8
:102CB000203A82122284487D0512203A8212228410
:102CC00048122283F8A3A312203AD31227A214EFAA
:102CD00060030137227F0F02266E1E122284098EA6
:102CE00083759300240E122283C5E09000C88AF0F9
:102CF000E4FD7F021224BC4A122285F47CC87D8B3D
:102D0000122704529000C88AE064019000C87670CF
:102D1000237409122284088E8375930024081222DA
:102D200083C5E09000C877F07D017F011227634AD8
:102D30007D01802D740A122284088E8375930024ED
:102D400008122283C5E09000C877F0E4FDFF122747
:102D50006A11E49000C46FF07D01FF1227634AE41A
:102D6000FD7F01122561AF7EC87F761222BD1C80D7
:102D70000002261C7412228409122285FC0224936C
:102D8000AD122284E3FD12228400A3A3A3E0640712
:102D9000701312228412E5822404122283C5A3E058
:102DA000FD0226DC4A122284E3FD12228400A3A342
:102DB000A3E06405600301372212228412E5822415
:102DC00004122283C5A3E0FD0226DD64122283D50E
:102DD0001222858AAA06F97B01022458AA122283AC
:102DE000D5A3A3A3122283D9A3E0FDE4FF0227B752
:102DF00044122283D5A3A3E0FF7AC87B767D01121B
:102E000025D24312228636700412261C74122283A5
:102E1000D5A3A3A3122283D9A3E0700C9000C47899
:102E2000E0FFE4FD12272BB57EC87F7712277E6E68
:102E30009000C877E020E403013722122283D5A353
:102E4000A3E0FF0226CBBE122283D51222858AFF81
:102E50009000C876EEF0A3EFF0122283DDA3E064C9
:102E600001701D9000C876122283D9A3A3E0FF90C1
:102E700000C470E06F7003013722EFF00226F418EF
:102E80009000C876122283D9A3E064026003013760
:102E9000229000C878122285F37CC87D78122762C0
:102EA000729000C878E06401701B1227C9BBEF6400
:102EB0000C70129000C876122283D9A3A3E0FF7D84
:102EC000011225DD059000C876122283FCE0FF7513
:102ED0009300A3A3E0FD0226DF3A12228409FF1229
:102EE0002283DDA3A3E0F91222848AA3A3A3E0FF37
:102EF000A3E09000C877CFF0A3EFF0AF019000C837
:102F000077E0FAA3E0FBF5828A831222869C7C009C
:102F1000122284A21222860F0226747C12228409B5
:102F2000FF122283DD1222856D12228692FAA3ED12
:102F3000F0FB1222848FA3A3E0FF8B8212228497DE
:102F40001222860E022674F812228409FF122283AE
:102F5000DD1222856D12228692A3EDF08F828E8380
:102F600012228416A3E0FD0226953612228409243B
:102F700002FFE43E12228516122283DDA3E06402E2
:102F8000701F9000C876122283D9E0FD122285F4CA
:102F9000ED6F600D9000C46DE070067F041224BCDC
:102FA0004A12228730122283DDA3E06402703812B5
:102FB00022848FE0FF7CC87D781226C1349000C83F
:102FC00078E0FF122717067EC87F79122756FD90FA
:102FD00000C879E030E30C1227C8F0EF64017003F9
:102FE000013722E4FF802D9000C876122283D9A3F6
:102FF000E0640160030137221227C8DBEF70030190
:1030000037221227C8F0EF60030137227F01122711
:10301000B94C7F0102271EE312228409FF1222838A
:10302000DD1222856D12228692A3ED1222848EA3D8
:10303000A3E0FFEC541EFCED5402FD02274D3312B9
:103040002284092402FFE43E12228516122283DD27
:10305000E0FF9000C45BE0B507151227C9BBEF6421
:103060000D700C9000C876122283D912203ABC123F
:10307000228730122283DDA3A3E0700A1222848FFC
:10308000E0FFE4FD800C9000C876122283D9E0FFB7
:103090007D010226E054122284091222862E122279
:1030A00083C512228729122450F11222868A6003D6
:1030B000013722122283D5A3A3E0FF7CC87D7712BB
:1030C00026C134122285AE12271706122283D5128A
:1030D000203A587B017D0212234B2C9000C46DE0F6
:1030E0006003013722122283D5A3A3E0FD7F0402EF
:1030F00024BC4A122284092402FFE43E12228517CE
:103100009000C876122283FC1222869A7B01122636
:103110007F829000C876122283FC1222869A1226A1
:10312000E0B29000C876122283D9E0FF9000C45B21
:10313000E0B507151227C9BBEF640D700C9000C8ED
:1031400076122283D912203ABC1227ABB7EF700354
:103150000137227D027F010224DB1E122284092412
:1031600002FFE43E9000C87AF0A3EFF0A37404F0ED
:103170009000C87AE0FEA3E0FF122283DD122287CE
:1031800029A37403F0E49000C879F09000C8781285
:1031900022848EA3A3E060169000C8797401F01217
:1031A00027ABB7EF60087D027F011224DB1E900081
:1031B000C87A122283D9A3E060079000C87874010E
:1031C000F09000C87CE0FF7E007B017AC87976022F
:1031D000246F289000C87A7406122283D4122285A4
:1031E0008A1222862E122283C5E0FEA3E0FF900001
:1031F000C87AE0FD7C00EF2D122039FD7003013705
:10320000229000C878E0FEA3E0FF122283DD742044
:10321000F0122284E3FD12228400A3A3E0FB122219
:10322000841DA3A3A3122283FCEBF0EF2401FFE48F
:10323000122283F61222856DFD12203AB19000C849
:103240007AE0122283E5122285542406122283C5D5
:103250001222849DE5822404122283C512203A1E84
:103260001227C48F9000C87801354A122284E3FDEA
:1032700012228400122284191222860EF582122252
:1032800084971222860E02266E9C9000C87C7405DC
:1032900012228408FF122283DDE0FCA3E08CF012EE
:1032A000000E903349301034EF30113504301234B1
:1032B0007E30133494301434AA301534C0301632B2
:1032C000E3301733333018335F301933A8301A33F3
:1032D000BE301B3452301C3468301D3537301E0070
:1032E0000037229000C87D74081222848E12228535
:1032F0008A8E837593002406122283C51220388992
:10330000700301372212228592122283BFE4122019
:10331000375B122285582408122283C51222849D0D
:10332000E5822406122283C512203A1E12203ACAD0
:1033300001354A122039207003013722122283B04E
:1033400074011220385101354A122038C07003012F
:103350003722122283B07402122037F101354A74E9
:103360000D122283D01222858A8E83759300240B3E
:10337000122283C512203889700301372212228558
:1033800092122283BF74031220375B1222855824C5
:103390000D122283C51222849DE582240B12228302
:1033A000C512203A3701354A1220394870030137D7
:1033B00022122283B07404122038E801354A7405C1
:1033C000122283D0A3A3A3122283D91222858AFFBB
:1033D0009000C87CE0FD7C00EF2DFFEC3EFEA3E0FA
:1033E0002F122039FD7003013722122285921222FA
:1033F00083BF7405F0122284E3FD12228400A3A38C
:10340000E0FE1222841DA3A3A3122283FCEEF0EFA0
:10341000122283E51222856DFD9000C87DE0FB122B
:103420000012109000C87CE02401FFE433FEA3E00A
:103430007C002FFFEC3E122283EA122285542405E1
:10344000122283C51222849DA3A3A312203A37011E
:10345000354A122039207003013722122283B074BA
:10346000061220385101354A1220382970030137DD
:1034700022122283B074091220372301354A122008
:1034800038297003013722122283B0740A122037C0
:103490002301354A122039A87003013722122283F2
:1034A000B0740B1220397001354A1220394870036C
:1034B000013722122283B0740C122038E801354AF9
:1034C0009000C87CE024041222850D12257D4690D0
:1034D00000C878122284CA7003013722122283B0F6
:1034E000740DF07B04122039D012203ACA805B128E
:1034F0002038C07003013722122283B074071220D3
:1035000037F180469000C87CE024031222850D121A
:10351000257D469000C878122284CA7003013722A4
:10352000122283B07408F07B03122039D0122529AF
:10353000659000C8788013122039A87003013722E3
:10354000122283B0740E12203970E0FEA3E0FF0255
:1035500026738312228409FF122283DDA3A3122281
:10356000843EFD1222848F122286719000F19BE02E
:10357000600301372212228448122284FE7D10014A
:1035800036E57EC87F777B03E4FD1200004F1222F0
:1035900083D512203A5812203AE3122284088E83EF
:1035A0007593002405122283C5E0FF7E00700B9006
:1035B00000C87704F0A3F00136A7EF64014E707ADB
:1035C000122283D5A3A3E0FF12203A96A907900008
:1035D000C876E9F0E4A3F0A3E054F04401FFF01250
:1035E0002284E3FD8C837593002404122283C5E0BA
:1035F000FE540FC454F0FBEF540F4B9000C878F00A
:10360000EE1222854CFFA3E0543F4FFFF0122284BC
:103610001DA3A3A3122284B8FF9000C879F0E95437
:1036200007FEEF54F84E122284081222862E122230
:1036300083C5E0FF12272E82806D9000C86E122293
:1036400085572405122283C5E064026003013722F6
:103650009000C877F0A3E054F0FFF0122284A2E5B6
:10366000822404122283C5E0FE540FC454F0FDEFFF
:10367000540F4D9000C878F0EE1222854CFFA3E065
:10368000543F4FFFF0122284A2A3A3A3122284B8B6
:10369000FF9000C879F09000C876E05407FEEF5420
:1036A000F84E9000C879F078A27CC87D017B017A41
:1036B000C879771222864D02277C5212228409FF94
:1036C000122283DDA3A31222843EFD1222848F12D4
:1036D000228671F09000F19BE0704712228448121C
:1036E0002284FE7D10022668A7122283D5E0FEA365
:1036F000E0FFEE14702CEF24F2600280251222838A
:10370000D5A3A312000DD9E92403F9E43AFA120073
:103710000AB164027D0270047F018002E4FF122777
:10372000634A22F0EF2401FFE433CF2DCF3CFE901B
:1037300000C86EE0FCA3E02402FDE43CFC7B021226
:103740000012109000C876E0FEA3E0FFA3E0FCA307
:10375000E0FD122529659000C87822F09000C86E1F
:10376000E0FCA3E0FDF5828C83759300A3A3E0FE4B
:103770008D828C83759300A3A3A3E0FCA3E0F58264
:103780008C83759300EEF0EF2401FFE433FE90008C
:10379000C878E0FCA3E02FFFEC3EFE9000C86EE08E
:1037A000FCA3E0F5828C83759300A3A3A3E0FCA3A4
:1037B000E0FD9000C87DE0FB120012109000C87C74
:1037C000E02401FFE433FEA3E07C002FFFEC3EFE8B
:1037D0009000C878E0FCA3E02FFFEC3EFE9000C80C
:1037E0006EE0FCA3E0F5828C83759300A3A3A3E0B5
:1037F00022F0EF2401FFE433CF2DCF3CFE9000C830
:103800006EE0FCA3E02402FDE43CFC7B031200120A
:10381000109000C876E0FEA3E0FFA3E0FCA3E0FD6B
:10382000122529659000C878229000C87CE0240207
:10383000FFE433CF2401CF3400FE9000C876F0A31C
:10384000EFF012257D469000C878EEF0A3EFF04E21
:1038500022F0EF2401FFE433CF2DCF3CFE9000C8CF
:103860006EE0FCA3E02402FDE43CFC7B08120012A5
:10387000109000C876E0FEA3E0FFA3E0FCA3E0FD0B
:10388000122529659000C87822E0FEA3E0FF900091
:10389000C87CE0FD7C00EF2DFFEC3EFEA3E02FFF97
:1038A000EC3ECF2401CF3400FE9000C876F0A3EFA9
:1038B000F012257D469000C878EEF0A3EFF04E227E
:1038C0009000C87CE02403FFE433CF2401CF340010
:1038D000FE9000C876F0A3EFF012257D469000C858
:1038E00078EEF0A3EFF04E22F0EF2401FFE433CFA7
:1038F0002DCF3CFE9000C86EE0FCA3E02402FDE466
:103900003CFC7B06120012109000C876E0FEA3E09B
:10391000FFA3E0FCA3E0FD122529659000C87822F2
:103920009000C87CE02408FFE433CF2401CF3400AA
:10393000FE9000C876F0A3EFF012257D469000C8F7
:1039400078EEF0A3EFF04E229000C87CE02406FF52
:10395000E433CF2401CF3400FE9000C876F0A3EF0B
:10396000F012257D469000C878EEF0A3EFF04E22CD
:10397000F0EF2401FFE433CF2DCF3CFE9000C86E62
:10398000E0FCA3E02402FDE43CFC7B0212001210E8
:103990009000C876E0FEA3E0FFA3E0FCA3E0FD12E8
:1039A0002529659000C878229000C87CE02402FF99
:1039B000E433CF2401CF3400FE9000C876F0A3EFAB
:1039C000F012257D469000C878EEF0A3EFF04E226D
:1039D000EF2401FFE433CF2DCF3CFE9000C86EE012
:1039E000FCA3E02402FDE43CFC120012109000C88D
:1039F00076E0FEA3E0FFA3E0FCA3E0FD22FFEC3EA7
:103A0000CF2401CF3400FE9000C876F0A3EFF0126F
:103A1000257D469000C878EEF0A3EFF04E22E0FA44
:103A2000A3E0FB1200112F9000C876E0FEA3E0FF98
:103A3000A3E0FCA3E0FD22E0FAA3E0FB1200112FBB
:103A40009000C876E0FEA3E0FFA3E0FCA3E0FD1237
:103A50002529659000C87822A3A3E0FF7CC87D706B
:103A6000122770827EC87F70229000C89FE0FB12F0
:103A70002792AA22E4FDFF12276A11E49000C46F86
:103A8000F0229000C876E0FB122792AA22E0FFE421
:103A9000FD12272BB5227CC87D70122770827EC84C
:103AA0007F701227130422F07EC87F781222BD1C7B
:103AB000229000C87AE0FB1200121022A3E0FF124D
:103AC00027BD39E4FD1225DD052212252965900068
:103AD000C87822E0FB7D08122792AA221226BCD4C5
:103AE000EF4E22122713049000C876EF229000C6F2
:103AF00041EEF0A3EFF07EC67F447B20E4FD120090
:103B0000004F122225761222243DE012000E683B5F
:103B100073013BFB023CAB033CEE043D31053D78B9
:103B2000063E42073F440841680942D00A46340B2A
:103B30003F440C46D90D478F0E47D60F47F2104829
:103B40003F1148771248DC1348F714495215496D64
:103B5000164C2D174C52184D21194DBB1A4DF91BFF
:103B60003F441C41681D4E401E4E5F1F4E77400073
:103B7000004EA71222240F70501227B314122224D1
:103B8000797003014EA7122225761222243D1222BB
:103B900026EA1222244A122226F4122224AC1222ED
:103BA00026D6EC12222515122225BF1222260A1231
:103BB0002225D4122226FB122225FC122226FB905B
:103BC00000C64404F0A3EF801312222435122224ED
:103BD000727003014EA7740112222642122225752B
:103BE0001222243DA3A3E0FD12222523CDF0A3ED54
:103BF0001222240E9000C6480147D2122224351208
:103C00002224727003014EA7740212222642F09001
:103C100000C6411222248624061222241AFD1222F2
:103C20002523CDF0ED122224ABE582240A122224B2
:103C30001A9000C64812204EBB122224D6240A1223
:103C400022241A6003014EA71222255A1222241F91
:103C5000FEA3E0FF4E600412267383122227CDFFDD
:103C6000AEF012204ED81222255F122225BFED128F
:103C700022255F1222241FFEA3E0FF4E60081222BD
:103C800027CD12204EE3122227D7122225FD122221
:103C9000241F7003014EA7EE1222244A1222241F71
:103CA000122224E4AD82FC0226730612222435126D
:103CB0002224727003014EA71222253C1222241FD7
:103CC00012222495600A9000C66412222439E4F07E
:103CD00012222435A3A3E070081222260A12270913
:103CE0008C740512222426122225220147D2122288
:103CF0002435122224727003014EA71222253C1291
:103D000022241F12222495600A9000C664122224E5
:103D100039E4F012222435A3A3E070081222260A07
:103D20001227098C7403122224261222252201470D
:103D3000D212222435122224727003014EA71222BD
:103D4000253C1222241F12222495600A9000C6648A
:103D500012222439E4F012222435A3A3E0700812C1
:103D600022260A1227098C9000C6447404122224C9
:103D70002A122225220147D212222435122224722D
:103D80007003014EA79000EF0EE0FFA3E09000C685
:103D900088CFF0A3EFF0E4A3F01222279E9000C694
:103DA0008AE0C39B4003013E299000C688E0FEA341
:103DB000E0FF1222243DA3E0122227692464F58249
:103DC000E434C6122226F4122224ACE0FFEC25E0F3
:103DD00025E02465F582E434C61222258B9000C6C6
:103DE000881222248624081222241A1222276924E7
:103DF00066F582E434C6122226F4122224ACE5824F
:103E0000240A1222241AFFEC25E025E02467F5821B
:103E1000E434C61222258B9000C6881222262E90EA
:103E200000C68AE004F0013D9912222456A3E0FD69
:103E30009000C68E74C6F0A37464F0E4A3F002246C
:103E4000D78512222435122224727003014EA71244
:103E50002225761222243D122225CA1222241F6D09
:103E60006003014EA7741A122224A5A31222252151
:103E7000122224ACE582242D1222241A9000C64777
:103E800012204EBB9000C64112222486242D1222FD
:103E9000241A6003014EA7122224AD122226D590C7
:103EA00000C643E0FD1222261E122225BFED12227B
:103EB0002612122226FBED1222254E1222241FFE6C
:103EC000A3E0FF4E6004122673839000C643E01205
:103ED00022261E1222241FFEA3E07802C333CE3313
:103EE000CED8F9FF12204ED81222254E122225BF1D
:103EF000ED1222254E1222241FFEA3E04E70030174
:103F00004EA7ED1222254E1222241FFEA3E0FFED44
:103F10001222261EF583759300A3E025E025E0FB21
:103F20009000C642E02405FD9000C641E03400FC4C
:103F3000120012101222260A1222254EF5837593C2
:103F4000000142A17EC67F647B13E4FD1200004F96
:103F500012222435122224727003014EA7E0FF12B0
:103F6000222594F5837593007401F0A37403F01275
:103F70002224F6122225A1E0640C7018759300A388
:103F8000A3A3E0FD1227729D9000C6771222249E03
:103F90007018800012222435A3A3A3E0FF12277615
:103FA0005D9000C677EEF0A3EFF09000C677E0706A
:103FB00002A3E07061122224F6122225A0E0640818
:103FC000701212222463A3E09000C68F122227757C
:103FD0000225F493122224F6122225A0E0641C701C
:103FE0001212222463A3E09000C68F1222277502CA
:103FF00025E4BB122224F6122225A0E0640C600303
:10400000014EA712222463A3E0FD9000C68F122266
:1040100027760225E56D9000C6647401F012222710
:1040200029A3E0FF1222243DA3A3E09000C66A1258
:104030002224ACA3A3A3E0FFA3E09000C66BCFF0C3
:10404000A3EFF09000C677122224882405122224C0
:104050001A9000C676F09000C6707401122224AC4B
:10406000E58224081222241A9000C671F09000C63E
:1040700077122224DC24091222241AFF9000C6722F
:10408000F07E007006A37404F08022EF64024E708C
:10409000099000C6737406F080139000C677122250
:1040A00024DA240B1222241A9000C673F09000C662
:1040B00073E0FF7E0012257D469000C67412222414
:1040C0009E7003014EA79000C674E0FEA3E0FF902F
:1040D00000C673E012204EE39000C677122225F14D
:1040E00024091222241AFFED240BFDE43CFC90006D
:1040F000C674E0FAA3E0FB1224D51B122224F612A8
:104100002225A0E06408701312222463122227499A
:104110009000C68FF01225F4938046122224F612E6
:104120002225A0E0641C70289000C677122224DAB1
:1041300024051222241A9000C676F08D82122224C1
:1041400061122227499000C68FF01225E4BB80112E
:1041500012222456122227499000C68FF01225E51C
:104160006D9000C674014D1912222435122224725A
:104170007003014EA712222435A3A3E0FF9000C6CE
:1041800043E0122225D41222241F6F6003014EA7A0
:104190009000C6447406122226099000C645F0120B
:1041A00022254E1222241FFCA3E0FD12222611120A
:1041B00022241F75F004A4FFED2FFFEC35F09000D2
:1041C000C664F0FCA3EFF0FD7EC67F467B041200C0
:1041D00012109000C6411222248624091222241AA9
:1041E00060079000C64A7401F0122224ADE58224D3
:1041F000151222241A60079000C64D7401F0900039
:10420000C64112222486240F1222241A601112227F
:1042100024ADE58224111222241A9000C651F01216
:104220002224F6122225F524111222241A12222504
:104230002D24121222241A122224D52413122224ED
:104240001AFAA3E0FB74C6122226947453F01224C7
:10425000D3E412204ECF122224D624161222241A7E
:104260006003014EA71222260A12222612122224CD
:104270001F04F0122226111222241FFD1222260AE8
:104280001222261E1222241FFAA3E06D7001EA609A
:104290001E9000C664E475F00412000B099000C67D
:1042A00064E0FCA3E0122225A1E0FD0226D35B120C
:1042B0002225491222241FFEA3E0FF4E7003014E67
:1042C000A71226738312222549122226FBA3F0226D
:1042D00012222435122224727003014EA7122224C6
:1042E0003512222491701A122224451222241F1200
:1042F0002224F5F5821222246B1222269B7412804E
:10430000259000C66412222439E06401701E122236
:1043100024451222241F122224F5F5821222246B36
:104320001222269B7413F0E4FB0144B9122224F6F6
:10433000122225F524111222241A6401600301447B
:10434000731222252E24131222241AFFC0071222D0
:10435000252E24141222241A122224D524151222C6
:10436000241A1222268C7466F0D0071224D3E41289
:1043700022248224091222241A60030144141222E6
:1043800024ADE582240B1222241A122226746066C0
:1043900012222482240C1222241A122227DE6056B2
:1043A000122224ADE582240D1222241A122227E8BB
:1043B000604412222482240E1222241A122227F28E
:1043C0006034122224ADE582240F1222241A122214
:1043D00027FC60221222248224101222241A122284
:1043E00027885012122224ADE58224111222241AA9
:1043F00012222793507D122224451222241F1222BA
:1044000024F5F5821222246B1222269B7429F07B5C
:10441000070144B91222248224091222241A6402B8
:104420007051122224ADE582240B1222241A12228A
:104430002674602212222482240C1222241A1222B0
:1044400026A36012122224ADE582240E1222241A21
:1044500012222806701D122224451222241F122225
:1044600024F5F5821222246B1222269B7429F07BFC
:104470000780469000C64112222486240B12222473
:104480001A640170389000C64804122224ACE582F8
:10449000240C1222241AFEA3E064024E601F122292
:1044A00024451222241F122224F5F5821222246BA5
:1044B0001222269B7429F07B040227B2C612222402
:1044C000451222241F122224F5F5821222246BA306
:1044D000E0FDE49000C68EF0FB1227B2C69000C645
:1044E00064E0FEA3E0FF1222243D7401F0122224B6
:1044F000F6122225F524171222241A640170659001
:1045000000C64B04122224ACE582240A1222241A8B
:10451000640170509000C643122225931222241F7A
:10452000FEA3E0FF64037003EE64017037EF6403E1
:104530007003EE6401702D122227D71222244A1232
:1045400022241F122224E4122226DE8D828C831262
:10455000222413FD122227031222241AFAA3E0FBBD
:10456000122670949000C644740712222643F090DD
:1045700000C64112222486122224189000C6461238
:104580002224ACA3A3A3E09000C647F09000C6414C
:10459000122224DC24121222241A9000C64E122267
:1045A00024ACE58224131222241A9000C64FF07E18
:1045B000C67F5112204EA81222255A1222241FFE15
:1045C000A3E0FF4E604E1222271312222723C39F1F
:1045D0005020122224F6F5821222246B1222275236
:1045E0007001EA600D1222262A9000C677E004F0DE
:1045F00080D89000C677E06F601A1222243512220C
:1046000025E01222246B122227307CC67D487B1ABB
:1046100012001210122225761222243DA312222605
:10462000E91222253D122226F41222240EFFEC125A
:104630002225802212222435122224727003014E78
:10464000A7A37408122226099000C645F01222245E
:10465000F68C83759300122224189000C646F060F1
:1046600003014E9FEF1222253D1222241F12222702
:104670003A1222243D7401F0759300E582240A1257
:1046800022241A64016003014E9F122227D71222AE
:1046900025941222241FFCA3E064037003EC640140
:1046A0006003014E9F9000C643E0FD1222244A128F
:1046B00022241FFFED122226361222241FFD122271
:1046C00024E5122226DE122227031222241AFAA33C
:1046D000E0FB12267094014E9F12222435122224F0
:1046E000727003014EA7122225761222243D122257
:1046F00025CA1222241F6D6003014EA774091222DD
:1047000024A5E58224161222241A9000C6611222E2
:1047100024ACE58224091222241A60079000C647BF
:104720007401F09000C6411222248624151222241E
:104730001A60079000C64A7401F0122224ADE58287
:10474000240F1222241A600F122224D624111222BE
:10475000241A9000C64EF0122224F6122225F524C7
:10476000111222241A1222252D24121222241A1286
:104770002224D524131222241AFAA3E0FB9000C6A7
:104780008F74C6F0A37450F01224D3E4014E9F122C
:10479000222435122224727003014EA712222435DE
:1047A000122224919000C641700D1222245AA3E0D7
:1047B000FD7B120227B48B1222245AA3E0FDE4FBF6
:1047C0001227B48B9000C644740C1222242A1222A1
:1047D0002521F0014E9F12222435122224727003EB
:1047E000014EA7A3740D1222242A12222521F001C2
:1047F0004E9F12222435122224727003014EA712FA
:1048000022243512222491700D12222456A3E0FD99
:104810007B120227B69E9000C66412222439E4F06F
:1048200012222456A3E0FDE4FB1227B69E9000C698
:104830004474101222242A12222521F0014E9F12C4
:10484000222435122224727003014EA7A374111280
:1048500022242A1222252112204EC512222435A3F9
:10486000A3A3E06003014EA7122225381222241FC1
:104870001222273A014E3912222435122224727054
:1048800003014EA71222243512222491701D1222F8
:1048900024451222241F122225A9122224CDA3A3CB
:1048A000A3E0FB9000C68E7412802C9000C6447466
:1048B0000E1222242A1222252112204EC512222451
:1048C000451222241F122225A9122224CDA3A3A31C
:1048D000E0FBE49000C68EF00227AB0612222435DE
:1048E000122224727003014EA7740F122223EA9041
:1048F00000C647F0014E9F12222435122224727006
:1049000003014EA712222435122224917020122274
:1049100024451222241F122225A9122224CDA3A34A
:10492000A3E0FB9000C68E7412F00227AB24122283
:104930002456A3E0FDE49000C68EF0FB1227AB24C2
:104940009000C64474121222242A12222521F0015A
:104950004E9F12222435122224727003014EA77436
:1049600013122223EA9000C647F0014E9F12222420
:1049700035122224727003014EA71222243512220E
:104980002491701A122224451222241F122224F587
:10499000F5821222246B122226B774128023900013
:1049A000C66412222439E0701E12222445122224E9
:1049B0001F122224F5F5821222246B122226B774CC
:1049C00014F0E4FB014B54122224F6122225F524A4
:1049D000101222241A64016003014B0E1222252EAC
:1049E00024121222241AFFC0071222252E24131289
:1049F00022241A122224D524141222241A12222626
:104A00008C7466F0D0071224D3E412222482240985
:104A10001222241A6003014AAF122224ADE5822437
:104A20000B1222241A122226746066122224822477
:104A30000C1222241A122227DE6056122224ADE51F
:104A400082240D1222241A122227E8604412222402
:104A500082240E1222241A122227F26034122224F7
:104A6000ADE582240F1222241A122227FC602212A2
:104A700022248224101222241A1222278850121271
:104A80002224ADE58224111222241A1222279350E7
:104A90007D122224451222241F122224F5F58212AF
:104AA00022246B122226B77429F07B07014B541283
:104AB00022248224091222241A6402705112222410
:104AC000ADE582240B1222241A12222674602212CF
:104AD000222482240C1222241A122226A3601212EB
:104AE0002224ADE582240E1222241A1222280670F6
:104AF0001D122224451222241F122224F5F58212AF
:104B000022246B122226B77429F07B07804690007E
:104B1000C64112222486240A1222241A6401703803
:104B20009000C64704122224ACE582240B122224F2
:104B30001AFEA3E064024E601F12222445122224B2
:104B40001F122224F5F5821222246B122226B7743A
:104B500029F07B040227BB72122224D624161222CB
:104B6000241A640170069000C64A04F012222445FB
:104B70001222241F122224F5F5821222246BA3E0B4
:104B8000FDE49000C68EF0FB1227BB729000C64475
:104B9000740A1222256B1222243D12222521122290
:104BA00024ACE58224111222241A9000C64DF09004
:104BB00000C641122224DC24121222241A9000C6BC
:104BC0004EF07EC67F5012204EA81222255A122285
:104BD000241FFEA3E0FF4E7003014EA712222713ED
:104BE00012222723C39F5020122224F6F58212227C
:104BF000246B122227527001EA600D1222262A909D
:104C000000C677E004F080D89000C677E06F7003AC
:104C1000014EA712222435122225E01222246B1203
:104C20002227307CC67D477B1A02001210122224F4
:104C300035122224727003014EA7A3740B12222690
:104C400043F0122224D6122224189000C646F00106
:104C50004E9F12222435122224727003014EA71295
:104C600022243512222491703C122224451222243F
:104C70001FFFC007122225761222243DA3A3E0FDC8
:104C80001222240FFAA3E0FB9000C641A3E0240601
:104C9000FFE43E9000C836F0A3EFF0A37412F0D00A
:104CA0000702254575122225761222243D1222265E
:104CB000E912222680122226F4F09000C6447416CF
:104CC000122224A912222521F0122224D6122224F3
:104CD00018FEA3E0FF9000C647EEF0A3EFF0122508
:104CE0007D469000C6491222249E7003014EA77E85
:104CF000C67F49122228102406FDE43AFC12222421
:104D0000CD122227AFF583759300A3E0FB120012AA
:104D10001012204ECF9000C649E0FEA3E0FF014DE7
:104D2000B712222435122224727003014EA7A374F5
:104D3000171222256B1222243DA3A3A3E0FCA3E0BB
:104D4000FD9000C646ECF0A3ED122224ACE58224CF
:104D5000151222241A9000C64AF0E49000C648F0CA
:104D6000A3F0D3ED9400EC940040399000C64112BA
:104D700022243B122226D512257D469000C64812D9
:104D800022249E7003014EA77EC67F48122228105F
:104D90002405FDE43AFC122224CDA3A3A3A3E0FB47
:104DA0001200121012204EEB9000C648E0FEA3E065
:104DB000FF4E7003014EA702267383122224351280
:104DC0002224727003014EA712222435122224914C
:104DD000600A9000C66412222439E4F0122224569C
:104DE000A3E0FD1227B6B69000C644741412222424
:104DF0002A12222521F0014E9F122224351222244C
:104E0000727003014EA7A374151222242A122225C0
:104E100021F012204EEB12222435A3A3A3E060035D
:104E2000014EA7122225381222241F122224956037
:104E3000769000C664E0FEA3E01222243DE4F02256
:104E40001222243512222472605DA37418122223C8
:104E5000EBFFA3E09000C647CFF0A3EFF080401235
:104E600022243512222472603EA374191222242AAD
:104E700012222521F0802812222435122224726069
:104E800026E0FF122226361222241FFD12279E97AB
:104E90009000C64474401222242A12222522F07E59
:104EA000C67F4412279DF7227CC67D667B111200C7
:104EB00012107EC67F4412279DF722F07EC67F44E3
:104EC00012279DF722F07EC67F4412279DF7227E8F
:104ED000C67F4412279DF72212257D469000C643C7
:104EE000E0FD22FBE4FD1200004F227EC67F44124B
:104EF000279DF7229000C53CEEF0A3EFF01220D0E2
:104F0000B9E0FEA3E064204E70339000DAC2E060A6
:104F100003015B2112205BAC1220D0D17005FE7F13
:104F2000A080047E007F287D067C0012000F9DABD0
:104F300007AA0612205B897401F0015B211220D0C0
:104F4000B1E0FEA3E064374E701390011D80E05481
:104F5000EFF0E054BFF012205BAC015B211220D0D7
:104F6000B11220D8BD600301505F1220D8F5700344
:104F70000150239000DAC2E0640670101220D3447E
:104F8000FE1220D16F1227B3F50150231220D8CD85
:104F900070221220D2D61220D16F1227B3F5122020
:104FA0005BBE1220D9A01220D1D41227B9BA122088
:104FB000D2CB80739000DAC21220D5EC7009122097
:104FC000D3687407F08060ED64084C70091220D338
:104FD000687408F080519000DAC2E0FD7C0064093A
:104FE00070091220D3687406F0803CED64024C70A6
:104FF0000A1220D24C1220D6CB802C9000DAC2E0CC
:10500000FD7C00640370061220D280801AED6404D7
:105010004C70091220D3687402F0800B9000DB42C0
:10502000E0600412205BBE9000624EE06403700EEC
:1050300012205B977B287A00E4FD7F1A8015900090
:10504000624EE06401701112205B977B287A00E4C5
:10505000FD7F19FE120004FC1220D788015B21128B
:1050600020D3B41220D0B9E0FCA3E0642F4C70131D
:105070001220D0DF24061220D0C0E0FF1227BA96FB
:10508000015B211220D0B1E0FEA3E064334E704EEC
:105090009000C53C1220D1C675930024071220D081
:1050A000C0E0FE1220D17C24081220D0C0E07C0099
:1050B0002400FFEC3EFE9000C53EF0A3EFF0900010
:1050C000DB4AE0FCA3E0FD9000D517ECF0A3EDF087
:1050D000C3EF9DFFEE9CA3F0A3EFF00155C112209A
:1050E000D3B41220D0B9E0FCA3E064344C600301D7
:1050F00055A19000C53EF0A31220D0DE2406122058
:10510000D0C0E0600301550B9000D998E07002A375
:10511000E06003015B889000E90F1220D3A69000A5
:10512000D996E09FFF9000D995E09E9000C543F08E
:10513000A3EFF09000DAD1E0FEA3E0FF9000C545B8
:10514000EEF0A3EFF09000E961E0FCA3E0FDC3EF17
:105150009DFFEE9C9000C545F0A3EFF09000C54385
:105160001220D3A6EE64809480400A7DE27C041273
:10517000000F9D801A9000C5431220D3A6E49FFF24
:10518000E49EFE7DE27C0412000F9D12000CE1AB58
:1051900007AA06A905A8049000C545E0FEA3E0FF04
:1051A000EE3395E0FDFC12000B75A312000DB590D7
:1051B00000E95FE0FEA3E0FFE4FCFD1220D131C076
:1051C00006C0079000E965E0FEA3E0FBAA06E4F94B
:1051D000F8D007D00612000B821220D131EC3390A8
:1051E00000C54B401E1220D0E91220D68BC006C04D
:1051F000071220D1391220D83BD007D00612000563
:10520000C8803812000D7412000CE19000C54B12DA
:10521000000DB59000C54B1220D0E91220D68BC0EE
:1052200006C0071220D1391220D83BD007D0061271
:105230000005C81220D13112000CE19000C54B12BC
:10524000000DB51220D2A39000C54B12000D9C1288
:10525000000B751220D29BEC4D4E4F700301531B77
:10526000EC3340099000C53F7401F080171220D242
:10527000A312000CE19000C54712000DB59000C5C7
:105280003F7402F09000C542742C1220D7B3701105
:105290009000DA25E054C064C070209000C54280C0
:1052A00017EF64024E70149000D4C8E09000C5421D
:1052B00030E005742CF080037430F09000C542E0BB
:1052C00064309000C547701E1220D28D1220D68BFC
:1052D000C006C0071220D2A3AD07AC06D007D00687
:1052E0007B8D7A20801C1220D28D1220D68BC00696
:1052F000C0071220D2A3AD07AC06D007D0067B6E44
:105300007A23120005C8EE1220D9BFEFF09000C535
:1053100040E475F00112000B0980051220D7FCF063
:105320009000DA3BE0700301552C9000E92C12202C
:10533000D3A69000E924E09FFF9000E923E09E902F
:1053400000C54FF0A3EFF09000C53FE0640170137B
:10535000A3E0FEA3E0FF9000C54FEE8FF012000B1C
:105360000980121220D3A29000C550E09FF0900057
:10537000C54FE09EF09000C54F1220D3A6EE64808A
:1053800094809000C53F500C7402F0C3E49FFFE48A
:105390009EA380107401F09000C54FE0FFA3E09041
:1053A00000C540CFF0A3EFF0C39000C541E09403E7
:1053B0009000C540E09400500BE4F0A3F09000D9B9
:1053C0008EF080299000D98EE004F09000DB42E05E
:1053D000FF701A9000D98EE02FFFE433FEC3EF94E4
:1053E00003EE6480948050051220D7FCF09000C535
:1053F000401220D4516006E49000D98EF0E4900071
:10540000C551F01220D613701BD3EF94E8EE94032D
:1054100040129000C5407C037DE81220D6D57F0065
:105420007E0480249000D4C4E0702AD39000C5414B
:10543000E094789000C540E0940040197C007D78AD
:105440001220D6D57F807E0012000F9D9000C5529D
:10545000EEF0A3EFF09000C551E0FF6064C2AF90A2
:1054600000C53FE0F9640270089000F066EFF0803C
:105470000A9000C551E09000F072F0D2AF9000C5E4
:1054800052E0FEA3E0FF9000C540E0FCA3E0FDD3A6
:105490009FEC9E400DED9FFFEC9E1220D7FDEFF09C
:1054A000801F1220D3A29000C553E09FFF9000C53B
:1054B00052E09E1220D7FDEFF0E964039000C53F53
:1054C000F09000DB42E0606414F0E0705F120004D2
:1054D0008A9000C551EEF0A3EFF01220D0B9E4F0AD
:1054E000A374171220D0DE24061220D0C07401F05D
:1054F0009000C5511220D8A51200045112205BCC97
:10550000E4FD7F21FE1200050F80219000D998E074
:10551000FFA3E0CF1220D9BFEFF09000C53C1220CE
:10552000D1551220D0C0E09000C53FF01220D3A288
:10553000947FEE94004019EF947EFFEE94001220C9
:10554000D9C6EFF09000C540E4F0A3747EF0800669
:10555000E41220D9C6F09000C53FE0FD640170055B
:10556000A3A3E080089000C540A3E0F4049000C528
:105570003EF09000C53EE07003015B219000D99899
:10558000E07002A3E070079000D98EF0800C7B28B9
:105590007A007F347E00120004FC9000C53E015A60
:1055A000F11220D3B41220D0B9E0FCA3E064114C76
:1055B000702B1220D0DF24061220D0C0E0640370CC
:1055C000071225E409015B219000C53C1220D1554A
:1055D0001220D0C0E0FF1222EAB5015B211220D0D8
:1055E000B11220D8B570439000DAC2E060046401C3
:1055F000700F1220D4E4700301574D1227AAE880DF
:105600001F1220D303C31220D4A950028016EF64C6
:10561000054E70030158BDEF64064E6003015B2127
:105620009000DAC27404F0015B211220D0B1E0FED8
:10563000A3E0FF64104E700C1220D5996003015B4B
:1056400021015AD1EF4E703F1220D4E4700712208E
:10565000D78F015B219000DAC2E070061227AAE81A
:10566000801E1220D30364056005EF6407700712E3
:1056700020D76CF0800AEF64084E70041220D3E04B
:105680001220D79E015B211220D0B1E0FEA3E0FFE3
:1056900064014E702F1220D8D570221220D70970C5
:1056A000061220D65F8012ED64024C9000DAC270C0
:1056B000057408F080037403F01220D3AD1220D6D5
:1056C000AB015B21EF640B4E70709000D4D7E07893
:1056D00091600A1220D7BD12046C5280081220D7A4
:1056E000BD1200050F12276D9C9000C53C1220D101
:1056F000551220D0C0E0FF9000DA25E0FEEFB5069D
:10570000139000DA2AE06407600A9000DB42E07040
:1057100003015B211220D4E4700280319000DAC2D0
:10572000E0700B1227AAE89000DAC20159D21220C9
:10573000D8F56003015B210159D21220D0B1E0FEFF
:10574000A3E0640D4E704E1220D4E4700B9000DA8A
:10575000C0E04402F0015B219000DAC2E0701C124C
:10576000205BB37F011220D0CD7005FA7BA08004AE
:105770007A007B10E4FD7F19015AB61220D6B96079
:105780000DEF64026008EF64066003015B21900086
:10579000DAC2015AD11220D3B41220D0B9E0FCA34E
:1057A000E0643D4C60030158329000D499E07002EF
:1057B000A3E06003015B211220D0DF24061220D079
:1057C000C0E070289000D4D7E06016FB7A00789192
:1057D000E290006F78F01220D7BF120410B6015B80
:1057E000217B057A001220D7BF015AB79000C53C33
:1057F0001220D1551220D0C0E064016003015B216A
:105800001200048A9000C53EEEF0A3EFF01220D003
:10581000B9E4F0A3740D1220D0DE24061220D0C00B
:105820007401F09000C53E1220D8A5120004510169
:105830005B211220D3B41220D0B91220D7646003A8
:105840000158EE1220D0DF24071220D0C01220D041
:10585000D924081220D0C01220D55F9000DAC2E00F
:1058600070629000EFE2E0603D1220D267B507065B
:105870001220D273601D12205BC51220D0D170059A
:10588000FA7BA080047A007B2812205B897405F0E3
:10589000015B211220D9A01220D1D41227B9BA124B
:1058A00020D2CB015B2112205BC51220D0D1700524
:1058B000FA7BA080047A007B2812205BA21220D6FB
:1058C0005F015B211220D303640970071220D47E8C
:1058D000015B219000EFE2E0600DEF64064E70077F
:1058E0001220D8E50159B51220D65F0159B59000B4
:1058F000C53C1220D1C61220D0BB1220D8ED701F9B
:105900001220D17C24071220D0C01220D175240887
:105910001220D0C01220D6C21227B9BA015B2112C0
:1059200020D0B11220D79660030159BC9000DABB99
:10593000E06021E4F07F881227BA541220D0D170A1
:1059400005FA7BA080047A007B2812205BA212203B
:10595000D79E80619000DAC2E0705A9000DAC0E011
:1059600030E12012205BB37F011220D0CD7005FA08
:105970007BA080047A007B10E4FD7F19FE120004F6
:10598000FC80321220D267B507061220D273602540
:105990007F881227BA541220D0D17005FA7BA080DC
:1059A000047A007B28E4FD7F21FE120004FC9000B5
:1059B000DAC27406F01220D3AD015B211220D0B1FF
:1059C0001220D64770241220D3036409700A900075
:1059D000DAC57402F0015B21EF4E70041227AAE8C9
:1059E0009000DAC27408F0015B211220D3B41220B7
:1059F000D0B9E0FCA3E064174C703C1220D0DF2447
:105A0000061220D0C0E06006E49000DB42F01220D5
:105A1000D1611227B3F59000C53C1220D155122058
:105A2000D0C0E07003015B2112205BCC1220D6E8CD
:105A30001200050F015B211220D0B11220D64F7049
:105A4000181220D7819000DAC2E06003015B2112B6
:105A500027AAE89000DAC280781220D0B1E0FEA335
:105A6000E064354E70171227C6B61227BEFD122508
:105A70003249122708931220D58B015B211220D0C6
:105A8000B1E0FEA3E064394E704C9000DAC2E070E1
:105A90002C1227C6B67F191226C32D1220D24C1203
:105AA00020D6CB1220D0D17005FA7BA080047A00DA
:105AB0007B10E4FD7F1AFE120004FC80641220D6E5
:105AC000B9600AEF64026005EF640670549000DA72
:105AD000C27403F0804B1220D3B41220D0B9E0FC82
