:020000040020DA
:1000000002200D7F9000F50312000D747810EC4D66
:100010004E4F70047CA57DA5C3EC13FCED13FDEEE3
:1000200013FEEF13FF5010EC64CCFCED644CFDEEBE
:10003000644EFEEF64CEFFD8DF9000F50312000D92
:10004000B5EE547FFE229000F503EEF0EFA3F0A38F
:1000500074A5F0A3F0220000000000001000800052
:1000600000805F9B34FB00000000000000000000E7
:100070000227626E000000000227A3C30227A780A8
:1000800002237606022676D52207FF2202222C5171
:1000900002214921022449D7C0E0F5E0C0E09000E8
:1000A000F562E06401700975E00215E070FC8024DF
:1000B0009000F562E06402700975E01415E070FCD0
:1000C00080129000F562E06403700975E03015E07D
:1000D00070FC8000D0E0E5E0D0E02230303030002D
:1000E00000000000000000000000002202237198C0
:1000F00000000000220000000000000000000000DE
:1001000000000000000000000000000000000000EF
:1001100000000000000000000000000000000000DF
:1001200000000000000000000000000000000000CF
:100130000000000000000000000000000000004D72
:10014000414749430227AA90E09028FE00F10309A5
:100150000000F3010AF40401000004F203090001A5
:10016000F3023506F40619110E19110FF2030900F6
:1001700004F3023510F41035061901000900173593
:1001800006190017090104F203090006F3023509F4
:10019000F40909656E09006A090100F20309000902
:1001A000F3023508F408350619110E090106F203A9
:1001B000090100F3022508F4084156524350204338
:1001C00054F203090102F3022504F4044D4348509C
:1001D000F203090311F30109F4020001FFE08D2885
:1001E000FE90F103090000F3010AF4040100000588
:1001F000F203090001F3023503F40319110CF203B1
:10020000090004F3023510F4103506190100090045
:10021000173506190017090104F203090006F30255
:100220003509F40909656E09006A090100F203093C
:100230000009F3023508F408350619110E09010604
:10024000F203090100F3022508F408415652435015
:10025000205447F203090102F3022504F4044D433C
:100260004850F203090311F30109F4020002FF50A0
:10027000DCE755E405D2AF9FA98FE54A7DFE4353E5
:10028000534942DB9F001053DC5018A200169624FD
:1002900047C62361BAD94B4D1E4353534942DCE351
:1002A000001350DB7016962447C62361BAD94B4D14
:1002B0001E4353534941DCE60042DB6E000142DC41
:1002C00063000042DCF7000253DBD40CA500B39BB3
:1002D0007234BEECD4A8F44341884353534942DC02
:1002E000E1001350DB5EB39B7234BEECD4A8F44340
:1002F00041884353534941DCE50042DB5C00015334
:10030000DB8C1CA7007E3B07FF1C51492FB3398AA9
:100310004C4353534942DBB0001350DC6F7E3B0724
:10032000FF1C51492FB3398A4C4353534941DBB227
:100330000042DC6D000142DBAB000042DBB3000297
:10034000605ADBF6F067DCE7DB9F00100001F04746
:10035000DC50DCE300130001DB70DCE6DB6E00F751
:100360000D10F045DC63DCF700022111F047DBD40F
:10037000DCE100130001DB5EDCE5DB5C00F70D1067
:10038000F047DB8CDBB000130001DC6FDBB2DC6D0F
:1003900000F70D10F045DBABDBB30002211148DCA8
:1003A000650000DBF600A000A841EDC50044EDBFEC
:1003B0000000000047EDC920434C43433A2041ED83
:1003C000D08241EDC6006042EDD1FF00FF01020284
:1003D00003030404050506060707080809090A0AB5
:1003E0000B0B0C0C0D0D0E0E260F290F10101711F4
:1003F0001A121D1323142415FF16FF17FF18FF19D7
:10040000FF1AFF1BFF1CFF1DFF1EFF1F58C4AA0081
:10041000A3000100A8000100C5000100F3000100D5
:10042000F7000100FA000141DF8F0041DFB6004212
:10043000F2D000F041F2CE0041F2CD0041F2C8000E
:1004400041F2C70041F2C60042F134000043F0A37C
:1004500000000043F21E00000043F22100000041B2
:10046000F2DD0141D0D90041D0DC0141D21100417F
:10047000D2120041D20D0041D0CD3341CBAC00426D
:10048000CBB2000042E0040A1842E018000245E046
:100490002902D200292A42E04D000542E13A292AE8
:1004A00044E0594D43485042E138000445E03702EA
:1004B000D400242A42E063000542E008242A44E0F4
:1004C00065424D383342E006000445E02402D60080
:1004D000252A42E04B000542E136252A44E055300A
:1004E00030303042E134000445E01F02D800272AB2
:1004F00042E03E000542E12A272A46E04F425442AC
:100500004D383342E128000645E01A02DA00262A77
:1005100042E03C000542E126262A46E045313030E3
:1005200030303342E124000645E03202DC00282A64
:1005300042E05D000542E002282A44E05F303030AE
:100540003042E000000445E04002DE00232A42E1A0
:1005500022000542E016232A48E12C00000000009A
:1005600000000042E014000845E11B02E0002A2AD6
:1005700042E00A000542E0302A2A48E00C00000070
:10058000000100000042E02E000860AAE069F06768
:10059000E004E01800020001F047E029E04D00050A
:1005A0000001E13AE059E13800F70A01F047E0378D
:1005B000E06300050001E008E065E00600F70A01DD
:1005C000F047E024E04B00050001E136E055E1345E
:1005D00000F70A01F047E01FE03E00050001E12AB4
:1005E000E04FE12800060001F047E01AE03C00057A
:1005F0000001E126E045E12400060001F047E03279
:10060000E05D00050001E002E05FE00000F70A01A4
:10061000F047E040E12200050001E016E12CE01483
:1006200000080001F047E11BE00A00050001E0308E
:10063000E00CE02E0008000148E1130000E0690032
:10064000D000E050E2B8C2EA3379AFA9CD83244CA0
:10065000E0874353534942E30A001053E2E09AF221
:100660000045106CF2B716219670445CB7435353A3
:100670004942E37C001350E27745106CF2B7162133
:100680009670445CB74353534941E3910042E37A87
:10069000025842E306000042E392000244E2B40141
:1006A00000002942E308000453E37E18F6003F6A85
:1006B000776644F021B57749B64B4353534942E23C
:1006C00075001350E2A33F6A776644F021B577497D
:1006D000B64B4353534941E29A0042E27300014250
:1006E000E394000042E29B000253E2871AF900788B
:1006F0006D43F61088DE94A345D12D4353534942F0
:10070000E2A1001350E2F6786D43F61088DE94A360
:1007100045D12D4353534941E2B30042E29F0001CA
:1007200042E29D000042E2C80002606EE30CF06706
:10073000E2B8E30A00100001F047E2E0E37C0013B6
:100740000001E277E391E37A00F71F11F045E30639
:10075000E39200022111F065E2B4E3080004001105
:10076000F047E37EE27500130001E2A3E29AE27330
:1007700000F70D10F045E394E29B00022110F047D2
:10078000E287E2A100130001E2F6E2B3E29F00F784
:100790000D10F045E29DE2C80002211148E26B0015
:1007A00000E30C00F000FA50E795E4A5815029978A
:1007B000F0FC1A44D5044353534942E7C800105390
:1007C000E81802C20032A23EF5B468DFDB483927E0
:1007D000984353534942E792001350E7B832A23E80
:1007E000F5B468DFDB483927984353534941E79410
:1007F0000042E7B6000153E82B18C400EDFDAD231D
:10080000D3EEDAE5276CE3954353534942E7A5005D
:100810001350E7CCEDFDAD23D3EEDAE5276CE3957D
:100820004353534941E7A70042E7CA000142E84663
:10083000000042E7A80002603CE7DCF067E795E7CC
:10084000C800100001F047E818E79200130001E724
:10085000B8E794E7B600F70E01F047E82BE7A500EC
:10086000130001E7CCE7A7E7CA00F70D10F045E851
:1008700046E7A80002211148E83E0000E7DC00C07E
:1008800000C541F5620042F019000041F01B004133
:10089000E8FD0041DA96006030DA99A8C27EA8C26D
:1008A00034A8C26EA8C220A8C25BA8C209A8C245CB
:1008B000A8C1EFA8C1E2A8C198A8C1D2A8C184A8C4
:1008C000C1BFA8C16DA8C1A9A8C15341D996004113
:1008D000D9970041D9980041D9990141D99A00414D
:1008E000D99B0041EE130044EE140000000042F0DA
:1008F0005B001842F057011842F067002842F06987
:10090000012842F053022842F047032842F06500D4
:100910002942F051012942F045022942F04B0329B6
:1009200042F049042942F043052942F05F002A427F
:10093000F04D012A42F055042A42F05D052A42F0AA
:100940004FA62A42F06BC92A42F059292B42F06384
:100950002A2B42F0613A2B50F1BA0000000000004F
:100960000000000000000000008742E4AA000245E9
:10097000E3A80A0300002A42E45800056020E4626C
:100980004254353531315F53444B000000000000C4
:100990000000000000000000000000000000000057
:1009A00042E49B000A45E48C020500012A42E4A6C9
:1009B000000542E4A8000042E3A6000245E3DB0292
:1009C0000700042A42E482000548E4840800000A83
:1009D00002010D0042E4A4000845E496020900A6C5
:1009E0002A42E4B1000541E3960042E3B10001452B
:1009F000E491020B00C92A42E4AE000541E4B000D4
:100A000042E3AF0001606EE3E0F067F05BE4AA0050
:100A1000020001F047E3A8E45800050001F05FE49C
:100A200062E49B00201B11F047E48CE4A600050063
:100A300001F04DE4A8E3A600020001F047E3DBE487
:100A40008200050001F055E484E4A400080001F0F0
:100A500047E496E4B100050001F04FE396E3B100EE
:100A6000010001F047E491E4AE00050001F06BE401
:100A7000B0E3AF0001000148E45A0000E3E00001E8
:100A8000000B42E4A2000245E49D201200052A4228
:100A9000E397000544E3990100FFFF42E44E0004A0
:100AA00042E4AC000042E3AD00026028E3B3F0672B
:100AB000F057E4A200020001F047E49DE39700052F
:100AC0000001F05DE399E44E00040000F045E4AC61
:100AD000E3AD0002201148E4500000E3B300100031
:100AE0001341F3110043F31600010341F30E0041DB
:100AF000F30F0041F3100041F0DC0050EA27666D6F
:100B0000D038E26F4AA483CCD0C94343534942E969
:100B1000B2001053E9B71832001803A6285ED8ECCB
:100B2000911C48A3AC4353534942EA22001350EAB4
:100B30004C1803A6285ED8EC911C48A3AC43535331
:100B40004941EA240042EA4A000142EA1800004210
:100B5000EA25000253EA370435004F84F610761A6E
:100B6000D4BD4941E4184353534942E9B4001350FA
:100B7000EA084F84F610761AD4BD4941E41843536D
:100B8000534941E9B60042EA060001603CE9CAF077
:100B900067EA27E9B200100001F047E9B7EA22004E
:100BA000130001EA4CEA24EA4A00F70D10F045EA86
:100BB00018EA2500022111F047EA37E9B4001300D2
:100BC00001EA08E9B6EA0600F70D1048EA1A000043
:100BD000E9CA0030003544E23D003300010041F530
:100BE0006E00C2D530F707B2D563F0FF05F030E7ED
:100BF0000DB2D5F404008463F0FF05F08001843069
:100C0000D502F40422BC000BBE0029EF8DF084FF56
:100C1000ADF022E4CCF875F008EF2FFFEE33FEECD8
:100C200033FCEE9DEC984005FCEE9DFE0FD5F0E9FF
:100C3000E4CEFD22EDF8F5F0EE008420D21CFEADEE
:100C4000F075F008EF2FFFED33FD4007985006D503
:100C5000F0F222C398FD0FD5F0EA22C2D5EC30E7BE
:100C600009B2D5E4C39DFDE49CFCEE30E716B2D595
:100C7000E4C39FFFE49EFE12200C05C3E49DFDE447
:100C80009CFC800412200C0530D507C3E49FFFE4D0
:100C90009EFE22F8EB700C09E5F027C7F5F019E885
:100CA00037C72289828A831410E707F593E8020088
:100CB0000B1FF593E4740193F5F0E49322BB000B52
:100CC00009C5F027F7C5F01937F722F8EB89828AB2
:100CD000831410E707F593E802000B09F5937401FC
:100CE0009325F0F5F0E4933822EB7006E9F8022042
:100CF0000D2389828A831410E706F59302000D9C68
:100D0000F59302200D30EB7006E9F802200D4089C2
:100D1000828A831410E706F59302000DD9F5930239
:100D2000200D49E6FB08E6F908E6FA08E6CBF822CA
:100D3000E493F8740193F9740293FA740393FB2219
:100D4000E6FB08E6FA08E6F922E493FB740193FA5D
:100D5000740293F9220227824DE493A3F8540724E6
:100D60000CC8C333C4540F4420C8834004F45680D5
:100D70000146F6DFE4800C01020408102040809058
:100D8000200148E47E019360CCA3FF543F30E50985
:100D9000541FFEE493A360010ECF54E0B4E029E4B5
:100DA00093FBA3E493FAA3E493F9A3E493C083C071
:100DB0008212000AE3759320D082D083A309E970E0
:100DC000010ADFE7DEE580BB54C025E0602B4089E7
:100DD000E493A3FAE493A3F8E493A3C8C582C8CA32
:100DE000C583CA759300F0759320A3C8C582C8CA8D
:100DF000C583CADFE3DEE1808AE493A3F8E493A32A
:100E00004003F68001F208DFF402200D83A875BBD1
:100E10000004D104A88E820001B701A8703300013C
:100E20009E47A897AB00019E69A897C200019EBA91
:100E3000A8705A00019ED1A866630001587DA87071
:100E4000810002BA8CA7DC5B0003D495A872BC00B9
:100E50000140AEA790B900032D73A8237E0003EBD9
:100E6000F7A6AD7400047A35A8A1FA000324C2A83D
:100E70008E9E0000100FA8A20B000396B6A8A21C1D
:100E800000039797A89457000486D1A89F66000492
:100E90004D67A83FEB0001B5AAA82F8B00017A0A85
:100EA000A8066800036114A8A4E600008D66A78563
:100EB000F8000288E1A855E50003B920A8116B00ED
:100EC0000151A2A86CD00004E099A73D4900026737
:100ED00072A6CE390001BE52A7EC04000320A2A8DE
:100EE0009DD40002CB01A7FBFA00010E513F65091A
:100EF0008601000A0004781D35330D0D1305447F6B
:100F00005024405030000220404014080016200AAF
:100F10001016201E0F0F5555160A540B0412000010
:100F200010120700000319FF40F07F400000770116
:100F30005E00F001E000C8204E0000483930242057
:100F40001812600000000000000000000053505024
:100F5000424D38335F4D53504B323000000000009B
:100F60000000000000000000000000000000000081
:100F700000000000002222222222222222222222FB
:100F800022222222220000000000000000000000B7
:100F90000000000000000000000000000000000051
:100FA0000000000000424D38335F4D53504B32304B
:100FB00000000000C1030000002001100113011413
:100FC000C101000000000000000000000000424CD1
:100FD000455F424D383353444B00005000480000F9
:100FE00001F406FF022705010300000D0A0D0A2A7D
:100FF0002B12219761E0FFE4FD12279697122464DB
:10100000637F0022022528D8022663599000EAEB6C
:1010100002000DF902279B730227438B02263569D4
:101020000225F5A20226C635022697680224F0D6CC
:101030000221089202223D4B022764D7022588DF55
:10104000022400000221FDFF0226DA570221C17AA4
:101050000226DFAE02239CC102266CBB022724C4F9
:101060000226A11C02274DB102267B590227618D61
:10107000022644F20226000002266F0D022695C3C6
:101080000225881502256E490227693C0224BD1BF2
:10109000E49000C519F09000C515F0A3F0A3F090FE
:1010A00000DB54E06401601012234A55701EA290C8
:1010B0004003D38001C340149000D4A6E07002A383
:1010C000E06006E4FF12229A6A7FFF22122349DDC4
:1010D000C39000D4BC7005E094108003E09411FF2D
:1010E0009000D4BBE09400FE9000D4DCE0FDC3EFA0
:1010F0009DFFEE94009000C513F0A3EFF090006206
:101100004EE0FF64067003011EB5EF640C7003012E
:101110001EB59000C513E07002A3E07003011EB578
:101120009000DA50E0600764016003011EB51227E9
:101130008BA8EF6003011EB59000D493122349558C
:10114000240C122348FBE0FEA3E01223492F1223B4
:1011500048FBE06003011EAA9000D4DDE020E0031C
:101160000111ED9000E97CE060030111ED12234ACA
:10117000559000C51C70057409F080037412F012BC
:10118000201F3BEFF09000C51D1223492A1223486F
:10119000FBE4F0A37499F09000C51C12234947E5C5
:1011A000822407122348FBEDF09000C51D12234A4C
:1011B000D02408122348FB740DF09000D4D01223E1
:1011C0004947E5822409122348FBEDF09000C51D34
:1011D00012234965240A122348FBE4F07F0712001A
:1011E0000451E49000D9AEF09000DA32F09000D4CF
:1011F000D1E06003011356122349067AC57B1A7D9C
:101200001012201F609000D4CBE0700301135390A4
:1012100000C51AE0649C60030113539000C51604D6
:10122000F0122349067AC57B1A7D117C0012201F1B
:10123000007AC57B1B7D1212201F609000C51AE04A
:10124000FF9000D9AEE06F602212234A9A70079097
:1012500000C516F080299000D9AEEFF09000C51BB4
:10126000E09000D4E912234A7A80149000C51BE074
:10127000FF9000D4E9E06F6006EFF01224E00F90D9
:1012800000C516E0640160030113D4A3E06003010C
:1012900013D49000C51C12234AA29000C51CF01262
:1012A000234A36C39F400301133DE4A3F09000C5D9
:1012B0001DE0FD12234AB25063122349069000C577
:1012C0001FE02410FB9000C51EE03400FA7C00EB08
:1012D0002DFDEC3A12201EE29000D52AE02410FDEC
:1012E000E433FC9000C51FE02DFD9000C51EE03CDE
:1012F000FC9000C51DE07A002DFDEA3CFC7AC57B20
:101300001B122764AB9000C51BE0FF9000C51AE0DC
:10131000B507099000C51DE004F080919000C51D3F
:10132000E0640370189000D52AE0FF9000C51E12FB
:10133000234A669000C51CE004F001129F12234A64
:10134000366F70030113D4E49000C516F09000C509
:101350001980297FFF22122349DD70259000C516D0
:1013600004122349EA701112234A9A70079000C5AB
:1013700016F0800412234A7B9000D9AE74FFF080EF
:10138000539000D4CBE0604C122349067AC57B1CF5
:101390007D117C00122764AB9000C51CE054F8F06E
:1013A0009000C5167401122349EA54F812234A3EEC
:1013B000FEB507089000D4DDE030E01812234A9A09
:1013C00070079000C516F0800BEE44079000D9AE70
:1013D00012234A7A9000C516E07003011EB5A3E0FF
:1013E00060601200048A1223491B122348FBE4F0B8
:1013F000A3740B122349EAFB122348F0EBF07F0899
:10140000120004519000D4DDE054FEF0E4FF1222FB
:101410009A6A9000625CE06076122349C86005EF2A
:101420006409706BE49000DB50F01200048A122310
:1014300048D0741EF09000C51CE0FCA3E0FD7F07BF
:1014400080499000624EE0FF640D6043EF640460E9
:101450003EEF640360399000DA4AE0640460309043
:1014600000624EE0640A6027EF640C602212000400
:101470008A1223491B122348FBE4F0A3740B1223A6
:1014800049EAFB122348F0EBF07F08120004519068
:1014900000C513E0FEA3E09000D49312234A28A3D2
:1014A000A31223497DA3A3E475F01012000B099049
:1014B00000F54BE09000C515F06003011CC4122339
:1014C00049DD70089000C51804F0800C9000D4CB62
:1014D000E0540F9000C518F09000E966E0605912E2
:1014E0002349C86005EF6409704E9000D4C21223EE
:1014F000495F2409122348FBEFF09000D4B8E0FFC5
:1015000012234982E5822408122348FBEFF0900061
:10151000D4AAE0540F6401700A9000D4B5E09000A2
:10152000D495F012234982E5822409122348FBE076
:101530009000E990F0011815E49000C51DF09000AE
:10154000D4F2E004F01223495F2409122348FB126D
:101550002349AA9000D4FAE02FF09000D4C5E0FB14
:10156000A3E09000C51ECBF0A3EBF09000D48FE079
:10157000F4607EE004F09000D492E0FEEFC39E4061
:101580000C9000C518E09000D492F0801E9000D41A
:10159000A8E0FF9000C518E0FEC39F40089000D46B
:1015A000A8EEF080069000D490EEF09000D48FE08A
:1015B0006414703D74FFF09000D4A8E0700A9000AD
:1015C000D492E09000D4A8F09000D490E0700A90FB
:1015D00000D4A8E09000D490F09000D4A8E0FF9050
:1015E00000D492E02FFF9000D490E02F9000D4958B
:1015F000F09000C51EE0FFA3E09000D4F71223494D
:10160000A79000D500E4F0A3EFF09000D4FAE0FF3B
:1016100012234982E5822408122348FBEFF0900050
:10162000C51C7408F09000612AE0700301175A90FD
:1016300000D4CBE09000C520122349DC703090002C
:10164000D4FBE0C39405FFE49400FEC39000D4995A
:10165000E09F9000D498E09E500D12234AAA700794
:1016600012234A20011716122349F10117161223DB
:101670004B0C7E00C312234A834022122349F1906F
:1016800000D213E004F0E0D312234A835003011781
:1016900016122349F1E49000D213F08079EF640729
:1016A0004E701F122349F19000D4A2E004F0E0D361
:1016B00012234AB34060122349F1E49000D4A2F00F
:1016C000805412234B0C7E0064067021122349F1D2
:1016D0009000D4A3E004F0E0D3940474809480409C
:1016E0003512234A20E49000D4A3F08029D3EF944C
:1016F00005EE64809480501E12234A209000D4A5E9
:10170000E004F0E0940674809480400A12234A209A
:10171000E49000D4A5F09000D4F5E0C39432748036
:101720009480500C12234AAA700612234A2080206B
:101730009000D4A9E060199000C520E012234AB2BD
:10174000400E9000D4A9E014F09000C51CE014F005
:101750009000D4CBE09000D4F6F0122349B3A3E07C
:10176000FD8F82122349102DFDED30E0149000C54D
:1017700014E0240F12201EBC9000C514E0240E803B
:1017800016122349069000C514E0240E12201EBC38
:101790009000C514E0240DFD9000C513E012201F39
:1017A000479000C518E0FB9000D4F2E0FE2BFD90BE
:1017B00000C51AE02DFDA3E02D540FFDC2AF90002F
:1017C000E983E054F04401F09000D495E09000E902
:1017D0008EF09000E990EEF09000D4FAE09000E9ED
:1017E00091F0EB540FFFA3E054F04FF0AF05EF542E
:1017F0000FC454F0FFE0540F4FF09000DB58A3E00B
:101800009000E98DF0122349067CE97D837B10125C
:10181000001210D2AF12234A556003011A3B900008
:10182000C518E025E02402FF9000C520F07E00D31B
:101830009410748094805057EF9404748094805076
:10184000061200048A802A9000C520E0D312234AA1
:101850008350061200049D80189000C520E0D394A8
:1018600010748094805006120004B080041204EFBB
:1018700080EE12234AE7EFF09000C5181223494783
:10188000E5822408122348FBEDF0EF240980711251
:10189000201F3BEFF012234B0CC39401FDED541FAE
:1018A000D39400E49400400AEF9401C41354070455
:1018B000800C9000C520E0C39401C4135407FF12AC
:1018C00004875F9000C51D12234965240812234830
:1018D000FBEE122349A812234982E5822408122331
:1018E00048FBE0FCA3E012234A2EEFF09000C51D58
:1018F000122349552408122348FBE0FEA3E02401EB
:10190000FFE43E9000C525F0A3EFF09000C51D1246
:1019100023492A122348FBE4F0A37429F09000C560
:1019200020E0C3940112234948E58224071223488A
:10193000FBEDF09000C517E09000C51D600C122370
:101940004955122348F9E4F0800B1223495512231C
:1019500048F97401F0E49000C51FF0122349AC90DF
:1019600000C51FE0FEC39F4003011A2FEE700A90CE
:1019700000C523F0A304F0806B122349061223490B
:101980008A12201EE21223498ACD2401CD12201F83
:10199000479000C51AE0FEA3E0FDEDFF9000C521D1
:1019A000EEF0A3EFF09000C521E0FEA3E07802CEB8
:1019B000C313CE13D8F9FFEE5401FEEF2401FFE468
:1019C0003EFE9000C521F0A3EFF09000C524E02476
:1019D0000112234991CD2FFFED3ECF2402CF3400D9
:1019E000F0A3EFF09000C51FE025E0A3F0FB122369
:1019F00049061223498AFC7A0012234ADBEA38FAA4
:101A000012201F001223498ACD2401CD3400FC90FE
:101A100000C520E02401FBE433FA12234ADBE83A54
:101A2000FA122764AB9000C51FE004F001195B9027
:101A300000C51D12234A8A12000451122349B3A380
:101A4000E0FD8F82122349102DFDED30E02690003D
:101A5000D49312234937E5822DF582E5833CF58343
:101A6000759300E412234A5C122349BCE475F0012B
:101A700012000B09122349C66008EF6409600301D4
:101A80001BC99000625CE07003011BC99000E9472C
:101A9000E0FF7003011BC99000C51CE0FE12234942
:101AA00061122348F9EE12234981E58224071223AB
:101AB00048FBEFF09000644C7401F012234951127E
:101AC0002348F9E0700412234AF8122349512409EB
:101AD000122348FBE0FF12234982E58224091223E6
:101AE00048FBE0FED39F4004EE9F80231223495120
:101AF0002409122348FBE0F404FF9000D493E0FC97
:101B0000A3E08C837593002409122348FBE02F0483
:101B100090006F51F09000F024E0FD600C1223491A
:101B2000AC9000D50412234A669000D4FBE025E077
:101B3000FEE43312234AE7CE122349DC70109000F2
:101B4000DB50E0601712234AE6740FF0800E90001D
:101B5000DB50E0600712234AE67464F0ED606A909F
:101B600000D493122349552409122348FBE0FF6057
:101B7000589000C51DE0FCA3E0FDC39000D505E032
:101B80009D9000D504E09C40409000D4CFEFF0122F
:101B900000048A9000C51F122348D4741F12201F0E
:101BA00019E49000D504F0A3F09000DB50E0601938
:101BB00014F0E0640670121200048A9000C51F122F
:101BC0002348D4740B12201F199000E8FBE0FF7E1D
:101BD0000064036005EF64097008E49000DB23F003
:101BE000800AEF4E70069000DB2304F09000D4933F
:101BF0001223492A122348FB7401F09000C51812E1
:101C0000234947E5822405122348FBED12234A5C51
:101C1000122349BCE0FEA3E0FF9000D4A6EE1223FD
:101C20004A679000D4A6E0FEA3E0FF7DB17C0012DD
:101C30000011589000D4F5EF12234A5CFFF5828E14
:101C4000831223493F12234B1312234961240C12A0
:101C50002348FBE0FAA3E0F5828A83759300122300
:101C6000497DE582240C122348FBE0FFA3E09000AD
:101C7000D493122349A79000D49812234A66900067
:101C8000EF8712000D74E4FFED5402FDE4FCED60FB
:101C90002F12234A5560299000D4D0E06022900092
:101CA000E966E0701B12234AAA700F9000624EE0B2
:101CB000640D7006122327128006E49000D506F00A
:101CC000D2AF805112201F53122349C86005EF6420
:101CD00009703F9000625CE060261200048A900068
:101CE000C51CEEF0A3EFF01223492F122348FBE4AA
:101CF000F0A37494122348EF740C12201F2A801250
:101D00009000612AE0600B9000683BE060041227BD
:101D10006DC17FFF229000D4F9E06003011E72C202
:101D2000AF9000D49104F09000D214E00412234943
:101D3000AB9000D48DE02FF0D2AF9000D48B122363
:101D40004AD0240C122348FB12234937A3A31223A1
:101D50004B137DB17C00120011589000D4FEEFF0BF
:101D60009000624EE0640D6011C2AF9000625AE4D0
:101D7000F0A374C8F0D2AF011E6A9000D4D1E0FF86
:101D80007E00F4700F9000D4FBE0FD9000D48DE055
:101D9000C39D5028EFF44E7003011E3F9000D214F3
:101DA000E0C394167480948050129000D4FBE0FF3E
:101DB0009000D48DE0C39F5003011E3F122349C8F9
:101DC0006005EF640970449000DB50E0600790000C
:101DD000E966E070369000625CE060101200048AF0
:101DE000122348D0740112201F2A80079000E96650
:101DF000E06077C2AF9000625A740CF0A37480F078
:101E0000D2AF9000D4F97401F0805FC2AFE49000CB
:101E1000625AF0A3F0D2AF9000DB50E0600E900069
:101E2000E966E060079000DB507402F09000D4F5A2
:101E3000E09000D49DF09000D4F97402F0802B1251
:101E40002349C66005EF640970149000612AE09090
:101E500000625A600D7401F0A3742CF0800A9000A7
:101E6000625AE4F0A374C8F0D2AFE49000D491F0C9
:101E700080439000D4F9E0FF7E006401701AC2AF85
:101E80009000D214E004F09000C518E0FD9000D45A
:101E90008DE02DF0D2AF801DEF64024E70179000E0
:101EA000D48DF09000D214F0800B12201F539000BC
:101EB000C51974FFF09000C519E0FF22FD9000C520
:101EC00013E03400FC7AC57B1A122764AB9000D46F
:101ED00093E0FEA3E0F5828E83759300E0FEA3E01D
:101EE000FF22FC7AC57B1A122764AB9000D493E0E2
:101EF000FEA3E0F5828E83759300E0FEA3E0FF224F
:101F0000122764AB9000D493E0FEA3E0F5828E83A9
:101F1000759300E0FEA3E0FF22F09000C51FE0FCF7
:101F2000A3E0FD7F071200045122F09000C51CE0E1
:101F3000FCA3E0FD7F0712000451221200048A90E6
:101F400000C51DEEF0A3223400FC7AC57B1B1227CE
:101F500064AB22E4FF12229A6AE49000D9AEF02228
:101F60007C00122764AB221222671012000E681F39
:101F70008B181F94201FCB401FD4481FA8501FB39D
:101F8000581F9D701FBE7800001FDD122266CA74A4
:101F900011F0804C122266CA7436F080437402122B
:101FA0002266CB74A7F080387401122268EE746F39
:101FB000F0802D7402122268EE7428F080229000C6
:101FC000C4EF7403F0A374FDF08015122266CA7486
:101FD00053F0800C122266CA741DF080037F002229
:101FE0001222669ECEC313CE13D8F9FFC39000C44D
:101FF000F0E09F9000C4EFE09E7F0050027F01223E
:10200000227F0122229000C7CD12258A459000C769
:10201000CCEFF004FF9000C7D2F07E001204CF4C4A
:102020009000C7D3EEF0A3EFF01200048A9000C72F
:10203000D0EEF0A3EFF08E83759300122589B2E401
:10204000F07422122589E12406122589B4E4F09067
:1020500000C7CFE014601914601F14602514602BB2
:1020600014603124057034122589D17413F0802B4B
:10207000122589D17412F08022122589D17415F0AD
:102080008019122589D17414F08010122589D17419
:1020900017F08007122589D17416F09000C7CCE0A4
:1020A000FB601D9000C7D4E02401FF9000C7D3E07F
:1020B0003400FE9000C7CDE0FCA3E0FD120012103A
:1020C0009000C7D2E0FF9000C7D0E0FCA3E0FD8CF9
:1020D000837593002407122589B4EFF09000C7D3CD
:1020E000E0FEA3E0FF122589FAE582240812258983
:1020F000B4EEF0A3EFF07F0812000451E4FEFF22DB
:102100000226B77E0227A950020404FD020407F547
:102110000227A523022776F70227A7570224E49275
:102120000225B9DB02264573022475339000C537BA
:10213000EFF0C37480948040061226A20B40057E07
:10214000007F03229000C537E0FF1226A203501B38
:102150001226A22C1226A1F855801226A23DFEF8C6
:10216000EF088002C313D8FC0121F09000C537129C
:1021700026A1FF4021D3EF1226A21950191226A141
:10218000E855901226A23DC39408FEF8EF0880029D
:10219000C313D8FC805A9000C5371226A2144025DC
:1021A000D3EF1226A225501DE0C394101226A1ECF5
:1021B00055A01226A23DC39410FEF8EF088002C37A
:1021C00013D8FC802B9000C5371226A2204029127C
:1021D00026A20B5023E0C394181226A1EC55B0128E
:1021E00026A23DC39418FEF8EF088002C313D8FC62
:1021F0008D828C83759300F0E4FEFF2201030406B8
:102200000E12010A4254353531315F303032030449
:10221000010100059000C868EEF0A3EFF07EC87FD2
:102220006A7B06E4FD1200004F1222790FFD122294
:102230007848E0FEA3E08EF012000E902314000117
:1022400027B500022D5B00032BA000042C600005C5
:102250002CA70006364F00072CAB00082CF3000912
:102260002D12000A2DEF10012DFB10022E46100337
:102270002E5710042F541005364F10072EC110088A
:102280002E6B100A2DEB100B364F100C364F100D25
:10229000364F100F364F1015364F10162F96101D53
:1022A0002FC2101E2FE5200130923001364F300230
:1022B00030B93003364F3004311030053174300CF2
:1022C00031DC300D3254300E32F4300F3313301015
:1022D00033133011331330123313301333133014DC
:1022E00033133015331330163313301733133018BC
:1022F000331330193313301A3313301B3313301C9C
:102300003313301D3313301E35E14001364F400288
:10231000000036161222785112227A9F24041222CB
:10232000780D122278D1E58224051222780D12222E
:102330007B3A12227865A3A3E0FF9000C887F012D1
:10234000227865A3A3A3E09000C888F0122039D1B9
:102350001226F0139000C886EFF09000C870E0607D
:10236000046401703C9000C871E06402702374053D
:102370001222787712227A3C12227B411225F50331
:1023800012227AB99000C87460030124DFF001249E
:10239000F59000C871E060030124F5A374070124DF
:1023A000419000C870E0FC64027065A3E0640270B4
:1023B0002A740612227A75FD540FFF9000C873E04C
:1023C00054F04FFF1222788BFEEF540F12227B48FD
:1023D000AF05AD041225F5030124F59000C871E0A6
:1023E00060030124F5740812227A759000C873F016
:1023F00012278B51EF60030124F51222787012220C
:1024000079D37410F0E4FB7D0D122752B40124F54A
:1024100012227AA664037030A3E0FD7C006402708F
:1024200013A3740B12227A761222787FFBEE540FDC
:102430004B0124F0ED4C60030124F59000C8727448
:102440000C12227A760124F0EF6404705B9000C8CD
:1024500071E0FB7A006402702C740D1222787712FE
:10246000227A3CEF5403FFA31222793DFFF0900043
:10247000C888E09000C874122279ABA37402F0A35C
:102480007411F0805AEB4A706C1222792AFFF09096
:1024900000C888E0540733333354F8FEEF54C712B2
:1024A000227B48543FF0804D9000C870E064057076
:1024B00044A3E0FB7A006402702AA374101222780D
:1024C0007812227A3CEF5403FFA31222793D1222A4
:1024D0007A0E9000C874F0A37402F0A37411F07423
:1024E00001F08011EB4A700D1222792A12227A0E25
:1024F0009000C873F012227A0764026003EF703014
:102500009000C870E0640660277EC87F7212229D2A
:10251000BF12227870E4FB7D2112276CA71222786B
:1025200070122279D374A0F0E4FB7D21122752B4FB
:102530009000C871E0640260030126F39000C88D2A
:10254000F0A3F07F09122651F31225010F9000C865
:102550008D122278F6602C9000C887E075F010A4E8
:10256000FFAEF012227B41EF4DFF9000C88FEEF0DE
:10257000A3EFF0FD12227870AB051222794B7D1685
:102580000136121226536D7EC87F6A12227B417B70
:102590000112233AA412227A2D7CC87D6A9000C8C9
:1025A00070E0FB9000C8B17401F01222BAEF900005
:1025B000C870E06007640160030126739000C47274
:1025C000E0540760111222787012227A507402F0DF
:1025D0007D08122744997D017F05122548C67EC8D3
:1025E0007F8A12275F719000C88AE030E5151222B9
:1025F0007A2D1226D5F5EF6402700812227A2D1278
:1026000026AD409000C88AE030E31D12227A2D7C6E
:10261000C87D8F1227316C9000C88FA3E030E1088D
:1026200012227A2D12274C2112227A2D7D01122698
:10263000F59D9000C870E0600301364F7EC87F8B27
:1026400012275F9E7EC87F8C12275FF89000C88B90
:10265000E020E50301364FA3E020E30912227AFDD2
:10266000700301364F9000C887122278FD7D010269
:1026700023F54312227A5E702B7EC87F891227636E
:10268000A39000C889E030E7067F021226D0787D4B
:10269000017F06122548C612278B51EF70030136C1
:1026A0004F0131D49000C870E06403701B9000C4E7
:1026B00072E020E40301364F1222787012227A5021
:1026C00004F07D090227449912227AA66404600866
:1026D000EF6405600301364F9000C870E064047039
:1026E0000812227B4F02270EEC7EC87F6A7D100203
:1026F00026C8B79000C871E0600301364F12227AF5
:102700005E706D12227A2D9000C45BE06F70519064
:1027100000C46EE0704A9000C45AE0FF6405604057
:10272000EF603DE4FD7F011224A3219000C88912CF
:102730002278F6602B7EC87F8B122738219000C844
:102740008BE0FF131313540170161227A835EF64A2
:1027500001700D1227A84AEF70067F01122798B664
:102760007F02122039F2600301364FFD7F0680415F
:1027700012227AA664046005EF6405700812227BB9
:102780004F0226ECF59000C870E06007640160031A
:1027900001364F12203985FF122039F260030136CD
:1027A0004F7F0112269FEAEF4E600301364FFD7FF7
:1027B00005022548C61222785112227A9F240C1253
:1027C00022780D122278D1E58224081222780D1287
:1027D000227B3A9000C868A3E08E83759300240999
:1027E0001222780DE06401600301364F9000C88C1E
:1027F0007408F09000C89512227B2C12227A5E6039
:10280000030129D912227A251226F0139000C887D5
:10281000EFF012227A0712278F5C9000C886EFF043
:1028200064046059E025E025E0245FF582E434C4C7
:1028300012227B33640370459000C899F0A37402A0
:10284000F09000C871E0540FFF9000C89BE054F076
:102850004FFFF09000C88712227890FEEF540F4E81
:102860009000C89BF078AD7CC87D017B017AC87967
:10287000997E007F0312000A331226A9C79000C870
:1028800087E0640860657EC87F8C7CC87D8D1227D8
:1028900082A89000C887E0248DF582E434C8122213
:1028A0007B33FF540F9000C88AF0EF54F0C4540FEC
:1028B0009000C889F0A3E0FF12279CF89000C88B15
:1028C000EFF01227A874EF7EC87F88700612278366
:1028D00002800412275EBD12227A077CC87D88120E
:1028E0002659C512227B4F1226D59E12227A071234
:1028F0002756D19000C46EE0700C9000C871E0FDC6
:102900007F041224A3219000C8727415F09000C8AF
:1029100071E09000C873122039A51222785112225A
:102920007A26E4FB7D0712233AA412227851122260
:102930007A9F240F1222780DE0701B9000C899F046
:1029400012227A257CC87D99122726089000C89902
:10295000E030E73E80381222785112227A9F240F0D
:102960001222780DE0541F64017027122278D7E5F7
:102970008224101222780DE05440644060149000CC
:10298000C868A3E012227A267D801226C8B71222D8
:1029900079BC7EC87F98122763CF9000C898E0303A
:1029A000E404122279BC7EC87F9712279D209000F4
:1029B000C8971222790D8C83759300240A1222780D
:1029C0000DE0FCA3E0FD9000C895E0FAA3E0FB1247
:1029D000269B7BE4FF02278DBE9000C870E0600359
:1029E000012B699000C8727411122278508E837581
:1029F0009300240D1222780DE0640870079000C83F
:102A00007304801012227A0712275DDCEF6009E45C
:102A10009000C873122039A5122278701222790F03
:102A20008C8375930024081222780DE0FB7D1D1223
:102A300027724A122039851227732CEF703C9000C0
:102A4000C45AE06405702D1222785112227A26129F
:102A50002039E7FB12227870122039F9122278709F
:102A60009000C8991220399C122278709000C87189
:102A7000122039DE7F0C122651F3122278518E83F8
:102A8000759300240D1222780DE012000E682B655C
:102A9000022AAD042B06052AB8082AAD102AAD1F5C
:102AA0002AAD222AAD232AAD2A00002B4012227A19
:102AB0000712273B47012B659000C899E4F0A30457
:102AC000F07EC87F99122702E49000C899E0FAA32B
:102AD000E0FB4A9000C87160101222790D2402FDBB
:102AE000E43CFC1225A18F8008E0FDE4FF1226C91A
:102AF000C89000C45AE0606D640260699000C48CA4
:102B000012203993805F1222785112227A261220E5
:102B100039E79000C45CE0F4604B9000C899E0FB9A
:102B20006408604112227870122039F912227870FC
:102B30009000C899122279497D0612264CFB802507
:102B400012227A0712269DE99000C45AE0600C64B4
:102B50000260089000C48B122039931225FE2C7F4E
:102B60000B122651F302243D8612227AB96003012A
:102B7000364F9000C45AE0640360209000C89974F6
:102B8000171222785012227AC11222780DE090009A
:102B9000C89AF07EC87F9912229DBF7F0E012D57E3
:102BA0001222781DA3A3A312227821E0600301362C
:102BB0004F9000C874F0A3F0A3F09000C874F09098
:102BC00000C874E0FFC3942074809480502E1222B9
:102BD0007840122279A38C837593002407122278FF
:102BE0000DE5821222780CE070099000C874E004B0
:102BF000F080099000C874E004F080C39000C874AD
:102C0000E0FF2402FCE433A3F0A3CCF012227840CE
:102C1000A3A312227B56E4A3F0FE12256374900056
:102C2000C872122278F6700301364F9000C872E025
:102C3000FEA3E0FF12227840122279A32407FDE4CC
:102C40003CFC122039AF9000C875E0FEA3E0FF7B8A
:102C5000017AC8797012245BAB9000C8720135D834
:102C600012227851FF12227825A3A3A3122278D131
:102C7000A3A312227B3A701212227AA66401600585
:102C8000EF640370057F04012D579000C871E06068
:102C90000301364F9000C870E060076402600301D2
:102CA000364F7F05012D5702253B5078707CC87D3B
:102CB000017BA17A0079DB7E007F1012000A33903D
:102CC00000C8807404F07EC87F807CC87D701227A5
:102CD0008C36122278512402FDE43EFC9000C8801C
:102CE000E0FB9000C8B174C8F0A37470F07F0102DB
:102CF0002742B39000C478E0FFE4FD12270BD712FF
:102D0000278136EF70067F0F122651F37F010227CD
:102D10009F9D122278512404FFE43EFE1226F013F8
:102D20009000C870EFF0FB122278707D06122772B7
:102D30004A122278709000C8701220399C122278B2
:102D40007012227840A3A3122039DE12278136EFB9
:102D5000600301364F7F0F022651F3122278518E05
:102D600083759300240E1222780DE09000C884F041
:102D7000E4FD7F021224A32112227A357CC87D85CE
:102D80001226E2AB9000C884E064019000C8707025
:102D90002074091222785012227AC11222780DE092
:102DA0009000C871F07D017F01122743C17D018031
:102DB0002A740A1222785012227AC11222780DE067
:102DC0009000C871F0E4FDFF12274ABCE49000C4F3
:102DD00070F07D01FF122743C1E4FD7F01122548F9
:102DE000C67EC87F7012229DBF80000225FE2C1275
:102DF00022785112227A260224793D1222790FFD7F
:102E000012227848A3A3A3E0640770131222785A11
:102E1000E58224041222780DA3E0FD0226BDCD1226
:102E200022790FFD12227848A3A3A3E06405600372
:102E300001364F1222785AE58224041222780DA31B
:102E4000E0FD0226BEE71222781D122279E4AA06CE
:102E5000F97B01022443B41222781DA3A3A31222FA
:102E60007821A3E0FDE4FF022796AE1222781DA38D
:102E7000A3E0FF7AC87B707D011225B63D12227A4D
:102E80005E70041225FE2C1222781DA3A3A3122229
:102E90007821A3E0700C9000C479E0FFE4FD1227D4
:102EA0000BD77EC87F7112275F719000C871E02038
:102EB000E40301364F1222781DA3A3E0FF0226ADE2
:102EC000401222781D122279E4FF9000C870EEF0C3
:102ED000A3EFF012227825A3E06401701D9000C8D2
:102EE0007012227821A3A3E0FF9000C471E06F70FC
:102EF0000301364FEFF00226D59E9000C8701222D3
:102F00007821A3E06402600301364F9000C872127A
:102F1000227A347CC87D72122742E99000C872E0A0
:102F20006401701B1227A923EF640C70129000C873
:102F30007012227821A3A3E0FF7D011225644C903A
:102F400000C87012227844E0FF759300A3A3E0FD4F
:102F50000226C0BD12227851FF12227825A3A3E0D9
:102F6000F9122278D2A3A3A3E0FFA3E09000C871D6
:102F7000CFF0A3EFF0AF019000C871E0FAA3E0FB3F
:102F8000F5828A8312227AD37C00122278EA1222F6
:102F900079DC0226585112227851FF12227825122C
:102FA0002279A312227AC9FAA3EDF0FB122278D774
:102FB000A3A3E0FF8B82122278DF122279DB0226A4
:102FC00058CD12227851FF12227825122279A312AD
:102FD000227AC9A3EDF08F828E831222785EA3E05D
:102FE000FD02267A00122278512402FFE43E1222CA
:102FF000795D12227825A3E06402701F9000C870EA
:1030000012227821E0FD12227A35ED6F600D9000DA
:10301000C46EE070067F041224A32112227B5D128D
:10302000227825A3E064027038122278D7E0FF7C72
:10303000C87D721226A37E9000C872E0FF1226F4AB
:10304000B37EC87F73122738219000C873E030E345
:103050000C1227A84AEF6401700301364FE4FF8089
:103060002D9000C87012227821A3E0640160030152
:10307000364F1227A835EF700301364F1227A84AA2
:10308000EF600301364F7F01122798B67F010226B9
:10309000FD2B12227851FF12227825122279A312D9
:1030A000227AC9A3ED122278D6A3A3E0FFEC541E26
:1030B000FCED5402FD02272DE0122278512402FF7C
:1030C000E43E1222795D12227825E0FF9000C45B75
:1030D000E0B507151227A923EF640D700C9000C806
:1030E0007012227821122039BA12227B5D122278C6
:1030F00025A3A3E0700A122278D7E0FFE4FD800C3C
:103100009000C87012227821E0FF7D010226C1D70D
:10311000122278518E8375930024041222780D12A6
:10312000227B5612243D8612227AB9600301364F63
:103130001222781DA3A3E0FF7CC87D711226A37E16
:1031400012227A071226F4B31222781DA3A3E0FFFD
:10315000122039D17B017D0212233AA49000C46E63
:10316000E0600301364F1222781DA3A3E0FD7F0427
:103170000224A321122278512402FFE43E12227974
:103180005E9000C8701222784412227AD17B01121C
:103190002662E09000C8701222784412227AD1127E
:1031A00026C2359000C87012227821E0FF9000C43A
:1031B0005BE0B507151227A923EF640D700C900092
:1031C000C87012227821122039BA12278B51EF7061
:1031D0000301364F7D027F010224C1E9122278519A
:1031E0002402FFE43E9000C874F0A3EFF0A374043F
:1031F000F09000C874E0FEA3E0FF122278251222AE
:103200007B56A37403F0E49000C873F09000C8727A
:10321000122278D6A3A3E060169000C8737401F060
:1032200012278B51EF60087D027F011224C1E990C3
:1032300000C87412227821A3E060079000C872745D
:1032400001F09000C876E0FF7E007B017AC87970BB
:1032500002245BAB9000C87474061222781C122200
:1032600079E48E8375930024041222780DE0FEA386
:10327000E0FF9000C874E0FD7C00EF2D1220392A99
:10328000700301364F9000C872E0FEA3E0FF1222E7
:1032900078257420F01222790FFD12227848A3A31A
:1032A000E0FB12227865A3A3A312227844EBF0EF8F
:1032B0002401FFE41222783E122279A3FD12203964
:1032C000AF9000C874E01222782D122279DB8A8335
:1032D00075930024061222780D122278E5E58224E7
:1032E000041222780D1220394B1227A3EE9000C849
:1032F000720135D81222790FFD12227848122278F5
:1033000061122279DBF582122278DF122279DB0248
:103310002652719000C876740512227850FF12224E
:103320007825E0FCA3E08CF012000E9033D2301030
:10333000357D301135923012350C30133522301472
:1033400035383015354E3016336C301733BC3018E5
:1033500033E830193431301A3447301B34E0301C34
:1033600034F6301D35C5301E0000364F9000C8774A
:103370007408122278D6122279E48E837593002481
:10338000061222780D122037B6700301364F122232
:1033900079F812227807E41220368812227B6724FB
:1033A000081222780D122278E5E58224061222788E
:1033B0000D1220394B122039C80135D81220384D52
:1033C000700301364F122277F874011220377E0104
:1033D00035D8122037ED700301364F122277F8747A
:1033E000021220371E0135D8740D122278181222CD
:1033F00079E48E83759300240B1222780D12203706
:10340000B6700301364F122279F81222780774033E
:103410001220368812227B67240D1222780D122288
:1034200078E5E582240B1222780D122039640135EB
:10343000D812203875700301364F122277F87404C1
:10344000122038150135D8740512227818A3A3A3C9
:1034500012227821122279E4FF9000C876E0FD7CE8
:1034600000EF2DFFEC3EFEA3E02F1220392A70035F
:1034700001364F122279F8122278077405F01222D1
:10348000790FFD12227848A3A3E0FE12227865A3EB
:10349000A3A312227844EEF0EF1222782D122279A3
:1034A000A3FD9000C877E0FB120012109000C876D0
:1034B000E02401FFE433FEA3E07C002FFFEC3E128A
:1034C000227832122279DB8A837593002405122236
:1034D000780D122278E5A3A3A3122039640135D810
:1034E0001220384D700301364F122277F8740612FD
:1034F00020377E0135D812203756700301364F121F
:103500002277F87409122036500135D81220375628
:10351000700301364F122277F8740A1220365001D8
:1035200035D8122038D5700301364F122277F8743F
:103530000B1220389D0135D81220387570030136E2
:103540004F122277F8740C122038150135D89000EC
:10355000C876E0240412227954122563749000C8BE
:1035600072122278F6700301364F122277F8740D2A
:10357000F07B04122038FD122039C8805B122037FE
:10358000ED700301364F122277F874071220371EB0
:1035900080469000C876E0240312227954122563F5
:1035A000749000C872122278F6700301364F12220E
:1035B00077F87408F07B03122038FD1225128090F2
:1035C00000C8728013122038D5700301364F1222C2
:1035D00077F8740E1220389DE0FEA3E0FF02265714
:1035E0005812227851FF12227825A3A31222789034
:1035F000FD122278D7A3A3A3E0540F4D9000F1A9A8
:10360000F09000F1B8E070471222787012227945EC
:103610007D0F02264CFB1222781DE0FEA3E0FFEE98
:1036200014702CEF24F2600280251222781DA3A3CF
:1036300012000DD9E92403F9E43AFA12000AB16440
:10364000027D0270047F018002E4FF122743C12241
:10365000F0EF2401FFE433CF2DCF3CFE9000C8688B
:10366000E0FCA3E02402FDE43CFC7B02120012100B
:103670009000C870E0FEA3E0FFA3E0FCA3E0FD1211
:103680002512809000C87222F09000C868E0FCA368
:10369000E0FDF5828C83759300A3A3E0FE8D828C00
:1036A00083759300A3A3A3E0FCA3E0F5828C83754C
:1036B0009300EEF0EF2401FFE433FE9000C872E0C7
:1036C000FCA3E02FFFEC3EFE9000C868E0FCA3E006
:1036D000F5828C83759300A3A3A3E0FCA3E0FD9087
:1036E00000C877E0FB120012109000C876E02401B9
:1036F000FFE433FEA3E07C002FFFEC3EFE9000C809
:1037000072E0FCA3E02FFFEC3EFE9000C868E0FCF6
:10371000A3E0F5828C83759300A3A3A3E022F0EFCE
:103720002401FFE433CF2DCF3CFE9000C868E0FCBD
:10373000A3E02402FDE43CFC7B0312001210900085
:10374000C870E0FEA3E0FFA3E0FCA3E0FD12251299
:10375000809000C872229000C876E02402FFE43313
:10376000CF2401CF3400FE9000C870F0A3EFF01218
:103770002563749000C872EEF0A3EFF04E22F0EFD4
:103780002401FFE433CF2DCF3CFE9000C868E0FC5D
:10379000A3E02402FDE43CFC7B0812001210900020
:1037A000C870E0FEA3E0FFA3E0FCA3E0FD12251239
:1037B000809000C87222E0FEA3E0FF9000C876E08F
:1037C000FD7C00EF2DFFEC3EFEA3E02FFFEC3ECF93
:1037D0002401CF3400FE9000C870F0A3EFF0122552
:1037E00063749000C872EEF0A3EFF04E229000C810
:1037F00076E02403FFE433CF2401CF3400FE9000B1
:10380000C870F0A3EFF0122563749000C872EEF058
:10381000A3EFF04E22F0EF2401FFE433CF2DCF3C95
:10382000FE9000C868E0FCA3E02402FDE43CFC7BC1
:1038300006120012109000C870E0FEA3E0FFA3E0A3
:10384000FCA3E0FD122512809000C872229000C8EF
:1038500076E02408FFE433CF2401CF3400FE90004B
:10386000C870F0A3EFF0122563749000C872EEF0F8
:10387000A3EFF04E229000C876E02406FFE433CF99
:103880002401CF3400FE9000C870F0A3EFF01225A1
:1038900063749000C872EEF0A3EFF04E22F0EF24B4
:1038A00001FFE433CF2DCF3CFE9000C868E0FCA3BD
:1038B000E02402FDE43CFC7B02120012109000C8E0
:1038C00070E0FEA3E0FFA3E0FCA3E0FD1225128060
:1038D0009000C872229000C876E02402FFE433CF43
:1038E0002401CF3400FE9000C870F0A3EFF0122541
:1038F00063749000C872EEF0A3EFF04E22EF240143
:10390000FFE433CF2DCF3CFE9000C868E0FCA3E07D
:103910002402FDE43CFC120012109000C870E0FE8E
:10392000A3E0FFA3E0FCA3E0FD22FFEC3ECF2401D7
:10393000CF3400FE9000C870F0A3EFF0122563743E
:103940009000C872EEF0A3EFF04E22E0FAA3E0FB85
:103950001200112F9000C870E0FEA3E0FFA3E0FC6E
:10396000A3E0FD22E0FAA3E0FB1200112F9000C8B3
:1039700070E0FEA3E0FFA3E0FCA3E0FD12251280AF
:103980009000C87222E4FDFF12274ABCE49000C4F4
:1039900070F022E0FFE4FD12270BD722E0FB7D054B
:1039A0001227724A22F07EC87F7212229DBF229097
:1039B00000C874E0FB1200121022A3E0FF12279C43
:1039C000E4E4FD1225644C22122512809000C87296
:1039D000227CC87D6A122750CA7EC87F6A22E0FB1B
:1039E0007D071227724A221226F0139000C899EF21
:1039F000F02212269FEAEF4E227D061227724A22FB
:103A00009000C654EEF0A3EFF07EC67F577B20E413
:103A1000FD1200004F122220E012221FA7E0120028
:103A20000E683A86013B0E023BBE033C01043C4457
:103A3000053C8B063D55073E5708407B0941E30A8C
:103A400045470B3E570C45EC0D46A20E46E90F4785
:103A50000510475211478A1247EF13480A14486568
:103A6000154880164B40174B65184C34194CCE1A2C
:103A70004D0C1B3E571C407B1D4D531E4D721F4D60
:103A80008A4000004DBA12221F797050122792AE60
:103A900012221FE37003014DBA122220E012221FEE
:103AA000A71222225412221FB41222225E122220B6
:103AB0001612222240EC1222207F122221291222E9
:103AC00021741222213E1222226512222166122224
:103AD00022659000C65704F0A3EF801312221F9FA7
:103AE00012221FDC7003014DBA7401122221AC12A4
:103AF0002220DF12221FA7A3A3E0FD1222208DCDDA
:103B0000F0A3ED12221F789000C65B0146E5122259
:103B10001F9F12221FDC7003014DBA740212222172
:103B2000ACF09000C65412221FF0240612221F840B
:103B3000FD1222208DCDF0ED12222015E582240AFF
:103B400012221F849000C65B12204DCE122220400C
:103B5000240A12221F846003014DBA122220C412CB
:103B6000221F89FEA3E0FF4E60041226575812223E
:103B70002337FFAEF012204DEB122220C912222172
:103B800029ED122220C912221F89FEA3E0FF4E60F8
:103B9000081222233712204DF6122223411222212D
:103BA0006712221F897003014DBAEE12221FB41250
:103BB000221F891222204EAD82FC022656DB1222E1
:103BC0001F9F12221FDC7003014DBA122220A61281
:103BD000221F8912221FFF600A9000C67712221F3F
:103BE000A3E4F012221F9FA3A3E070081222217405
:103BF0001226E73E740512221F901222208C0146E5
:103C0000E512221F9F12221FDC7003014DBA1222FF
:103C100020A612221F8912221FFF600A9000C67779
:103C200012221FA3E4F012221F9FA3A3E070081228
:103C30002221741226E73E740312221F90122220C2
:103C40008C0146E512221F9F12221FDC7003014DDA
:103C5000BA122220A612221F8912221FFF600A9088
:103C600000C67712221FA3E4F012221F9FA3A3E035
:103C70007008122221741226E73E9000C657740481
:103C800012221F941222208C0146E512221F9F123D
:103C9000221FDC7003014DBA9000EF7FE0FFA3E02C
:103CA0009000C69BCFF0A3EFF0E4A3F0122223080C
:103CB0009000C69DE0C39B4003013D3C9000C69B25
:103CC000E0FEA3E0FF12221FA7A3E0122222D324CA
:103CD00077F582E434C61222225E12222016E0FF1B
:103CE000EC25E025E02478F582E434C6122220F5A4
:103CF0009000C69B12221FF0240812221F84122259
:103D000022D32479F582E434C61222225E122220C4
:103D100016E582240A12221F84FFEC25E025E02408
:103D20007AF582E434C6122220F59000C69B122256
:103D300021989000C69DE004F0013CAC12221FC007
:103D4000A3E0FD9000C6A174C6F0A37477F0E4A3CD
:103D5000F00224BE5012221F9F12221FDC700301AA
:103D60004DBA122220E012221FA712222134122261
:103D70001F896D6003014DBA741A1222200FA3121D
:103D800022208B12222016E582242D12221F8490DD
:103D900000C65A12204DCE9000C65412221FF024A5
:103DA0002D12221F846003014DBA12222017122205
:103DB000223F9000C656E0FD1222218812222129BE
:103DC000ED1222217C12222265ED122220B812224D
:103DD0001F89FEA3E0FF4E6004122657589000C6CC
:103DE00056E01222218812221F89FEA3E07802C326
:103DF00033CE33CED8F9FF12204DEB122220B81269
:103E0000222129ED122220B812221F89FEA3E04EA2
:103E10007003014DBAED122220B812221F89FEA3B1
:103E2000E0FFED12222188F583759300A3E025E0E1
:103E300025E0FB9000C655E02405FD9000C654E047
:103E40003400FC1200121012222174122220B8F544
:103E5000837593000141B47EC67F777B13E4FD1226
:103E600000004F12221F9F12221FDC7003014DBA67
:103E7000E0FF122220FEF5837593007401F0A37415
:103E800003F0122220601222210BE0640C701875DE
:103E90009300A3A3A3E0FD122752E59000C68A1267
:103EA0002220087018800012221F9FA3A3A3E0FF06
:103EB0001222FFD19000C68AEEF0A3EFF09000C668
:103EC0008AE07002A3E07061122220601222210AAF
:103ED000E06408701212221FCDA3E09000C6A21267
:103EE0002222DF0225D463122220601222210AE05E
:103EF000641C701212221FCDA3E09000C6A21222F1
:103F000022DF0225C74B122220601222210AE06420
:103F10000C6003014DBA12221FCDA3E0FD9000C634
:103F2000A2122222E00225C7FD9000C6777401F09C
:103F300012222293A3E0FF12221FA7A3A3E0900066
:103F4000C67D12222016A3A3A3E0FFA3E09000C623
:103F50007ECFF0A3EFF09000C68A12221FF2240554
:103F600012221F849000C689F09000C6837401124B
:103F7000222016E582240812221F849000C684F0B5
:103F80009000C68A12222046240912221F84FF9024
:103F900000C685F07E007006A37404F08022EF64F2
:103FA000024E70099000C6867406F080139000C619
:103FB0008A12222044240B12221F849000C686F00D
:103FC0009000C686E0FF7E00122563749000C687CD
:103FD000122220087003014DBA9000C687E0FEA3AC
:103FE000E0FF9000C686E012204DF69000C68A12CF
:103FF00022215B240912221F84FFED240BFDE43CE7
:10400000FC9000C687E0FAA3E0FB1224BBE6122274
:1040100020601222210AE06408701312221FCD12C0
:104020002222B39000C6A2F01225D4638046122249
:1040300020601222210AE0641C70289000C68A12B7
:10404000222044240512221F849000C689F08D820C
:1040500012221FCB122222B39000C6A2F01225C753
:104060004B801112221FC0122222B39000C6A2F070
:104070001225C7FD9000C687014C2C12221F9F12EB
:10408000221FDC7003014DBA12221F9FA3A3E0FF81
:104090009000C656E01222213E12221F896F600353
:1040A000014DBA9000C6577406122221739000C6C3
:1040B00058F0122220B812221F89FCA3E0FD122220
:1040C000217B12221F8975F004A4FFED2FFFEC3530
:1040D000F09000C677F0FCA3EFF0FD7EC67F597B21
:1040E00004120012109000C65412221FF02409126C
:1040F000221F8460079000C65D7401F01222201711
:10410000E582241512221F8460079000C6607401A6
:10411000F09000C65412221FF0240F12221F846058
:104120001112222017E582241112221F849000C64A
:1041300064F0122220601222215F241112221F84B7
:1041400012222097241212221F841222203F2413AD
:1041500012221F84FAA3E0FB74C6122221FE7466A9
:10416000F01224B97812204DE212222040241612B7
:10417000221F846003014DBA122221741222217C75
:1041800012221F8904F01222217B12221F89FD12A4
:104190002221741222218812221F89FAA3E06D7055
:1041A00001EA601E9000C677E475F00412000B0966
:1041B0009000C677E0FCA3E01222210BE0FD02266E
:1041C000B4DE122220B312221F89FEA3E0FF4E703C
:1041D00003014DBA12265758122220B3122222652B
:1041E000A3F02212221F9F12221FDC7003014DBA7E
:1041F00012221F9F12221FFB701A12221FAF1222BF
:104200001F891222205FF58212221FD51222220559
:10421000741280259000C67712221FA3E0640170FB
:104220001E12221FAF12221F891222205FF5821256
:10423000221FD5122222057413F0E4FB0143CC1295
:104240002220601222215F241112221F8464016047
:104250000301438612222098241312221F84FFC0D8
:104260000712222098241412221F841222203F2495
:104270001512221F84122221F67479F0D00712241D
:10428000B97812221FEC240912221F846003014313
:104290002712222017E582240B12221F84122221CA
:1042A000DE606612221FEC240C12221F84122223CD
:1042B00048605612222017E582240D12221F841214
:1042C000222352604412221FEC240E12221F841259
:1042D00022235C603412222017E582240F12221F51
:1042E0008412222366602212221FEC241012221F45
:1042F00084122222F2501212222017E58224111277
:10430000221F84122222FD507D12221FAF12221F73
:10431000891222205FF58212221FD51222220574F3
:1043200029F07B070143CC12221FEC240912221F23
:10433000846402705112222017E582240B12221F7E
:1043400084122221DE602212221FEC240C12221F72
:10435000841222220D601212222017E582240E12EE
:10436000221F8412222370701D12221FAF12221FDF
:10437000891222205FF58212221FD5122222057493
:1043800029F07B0780469000C65412221FF0240BB0
:1043900012221F84640170389000C65B0412222030
:1043A00016E582240C12221F84FEA3E064024E60F4
:1043B0001F12221FAF12221F891222205FF58212C4
:1043C000221FD5122222057429F07B040227926055
:1043D00012221FAF12221F891222205FF5821222A1
:1043E0001FD5A3E0FDE49000C6A1F0FB1227926068
:1043F0009000C677E0FEA3E0FF12221FA77401F031
:10440000122220601222215F241712221F846401CD
:1044100070659000C65E0412222016E582240A12FE
:10442000221F84640170509000C656122220FD1293
:10443000221F89FEA3E0FF64037003EE640170375E
:10444000EF64037003EE6401702D122223411222E7
:104450001FB412221F891222204E122222488D825E
:104460008C8312221F7DFD1222226D12221F84FADC
:10447000A3E0FB122654699000C65774071222214C
:10448000ADF09000C65412221FF012221F8290003D
:10449000C65912222016A3A3A3E09000C65AF0909A
:1044A00000C65412222046241212221F849000C6F5
:1044B0006112222016E582241312221F849000C666
:1044C00062F07EC67F6412204DBB122220C41222ED
:1044D0001F89FEA3E0FF4E604E1222227D1222228F
:1044E0008DC39F502012222060F58212221FD51208
:1044F0002222BC7001EA600D122221949000C68A2B
:10450000E004F080D89000C68AE06F601A12221F83
:104510009F1222214A12221FD51222229A7CC67D86
:104520005B7B1A12001210122220E012221FA7A396
:1045300012222253122220A71222225E12221F7858
:10454000FFEC122220EA2212221F9F12221FDC708F
:1045500003014DBAA37408122221739000C658F0CB
:10456000122220608C8375930012221F829000C655
:1045700059F06003014DB2EF122220A712221F89C9
:10458000122222A412221FA77401F0759300E58263
:10459000240A12221F8464016003014DB2122223F7
:1045A00041122220FE12221F89FCA3E06403700343
:1045B000EC64016003014DB29000C656E0FD12228A
:1045C0001FB412221F89FFED122221A012221F897F
:1045D000FD1222204F122222481222226D12221F87
:1045E00084FAA3E0FB12265469014DB212221F9FE8
:1045F00012221FDC7003014DBA122220E012221F8A
:10460000A71222213412221F896D6003014DBA7452
:10461000091222200FE582241612221F849000C660
:104620007412222016E582240912221F846007904A
:1046300000C65A7401F09000C65412221FF02415CF
:1046400012221F8460079000C65D7401F0122220C0
:1046500017E582240F12221F84600F1222204024AB
:104660001112221F849000C661F0122220601222D3
:10467000215F241112221F84122220972412122259
:104680001F841222203F241312221F84FAA3E0FB6E
:104690009000C6A274C6F0A37463F01224B9780126
:1046A0004DB212221F9F12221FDC7003014DBA125D
:1046B000221F9F12221FFB9000C654700D12221F52
:1046C000C4A3E0FD7B120227942512221FC4A3E09D
:1046D000FDE4FB122794259000C657740C12221F8C
:1046E000941222208BF0014DB212221F9F12221F22
:1046F000DC7003014DBAA3740D12221F9412222004
:104700008BF0014DB212221F9F12221FDC70030199
:104710004DBA12221F9F12221FFB700D12221FC0C2
:10472000A3E0FD7B12022796209000C67712221F7D
:10473000A3E4F012221FC0A3E0FDE4FB12279620A1
:104740009000C657741012221F941222208BF00181
:104750004DB212221F9F12221FDC7003014DBAA31B
:10476000741112221F941222208B12204DD8122273
:104770001F9FA3A3A3E06003014DBA122220A2123F
:10478000221F89122222A4014D4C12221F9F1222A5
:104790001FDC7003014DBA12221F9F12221FFB70F3
:1047A0001D12221FAF12221F891222211312222052
:1047B00037A3A3A3E0FB9000C6A17412802C900045
:1047C000C657740E12221F941222208B12204DD82D
:1047D00012221FAF12221F89122221131222203708
:1047E000A3A3A3E0FBE49000C6A1F002278AA012D5
:1047F000221F9F12221FDC7003014DBA740F122278
:104800001F549000C65AF0014DB212221F9F12226F
:104810001FDC7003014DBA12221F9F12221FFB7072
:104820002012221FAF12221F8912222113122220CE
:1048300037A3A3A3E0FB9000C6A17412F002278A5D
:10484000BE12221FC0A3E0FDE49000C6A1F0FB123F
:10485000278ABE9000C657741212221F941222207B
:104860008BF0014DB212221F9F12221FDC70030138
:104870004DBA741312221F549000C65AF0014DB263
:1048800012221F9F12221FDC7003014DBA12221F39
:104890009F12221FFB701A12221FAF12221F8912B1
:1048A00022205FF58212221FD5122222217412804B
:1048B000239000C67712221FA3E0701E12221FAFA2
:1048C00012221F891222205FF58212221FD5122286
:1048D00022217414F0E4FB014A67122220601222A4
:1048E000215F241012221F8464016003014A2112F7
:1048F000222098241212221F84FFC007122220981F
:10490000241312221F841222203F241412221F84F7
:10491000122221F67479F0D0071224B97812221FDE
:10492000EC240912221F8460030149C212222017BD
:10493000E582240B12221F84122221DE60661222DD
:104940001FEC240C12221F841222234860561222CC
:104950002017E582240D12221F8412222352604464
:1049600012221FEC240E12221F841222235C6034B8
:1049700012222017E582240F12221F84122223669E
:10498000602212221FEC241012221F84122222F213
:10499000501212222017E582241112221F841222A3
:1049A00022FD507D12221FAF12221F891222205F8A
:1049B000F58212221FD5122222217429F07B0701D1
:1049C0004A6712221FEC240912221F8464027051CC
:1049D00012222017E582240B12221F84122221DECC
:1049E000602212221FEC240C12221F841222220D9C
:1049F000601212222017E582240E12221F84122236
:104A00002370701D12221FAF12221F891222205FF5
:104A1000F58212221FD5122222217429F07B0780F1
:104A2000469000C65412221FF0240A12221F8464EA
:104A30000170389000C65A0412222016E582240B19
:104A400012221F84FEA3E064024E601F12221FAFD9
:104A500012221F891222205FF58212221FD51222F4
:104A600022217429F07B0402279B08122220402473
:104A70001612221F84640170069000C65D04F012B5
:104A8000221FAF12221F891222205FF58212221FDD
:104A9000D5A3E0FDE49000C6A1F0FB12279B08908F
:104AA00000C657740A122220D512221FA7122220F4
:104AB0008B12222016E582241112221F849000C638
:104AC00060F09000C65412222046241212221F8445
:104AD0009000C661F07EC67F6312204DBB1222207B
:104AE000C412221F89FEA3E0FF4E7003014DBA12CB
:104AF00022227D1222228DC39F502012222060F597
:104B00008212221FD5122222BC7001EA600D1222ED
:104B100021949000C68AE004F080D89000C68AE014
:104B20006F7003014DBA12221F9F1222214A1222D6
:104B30001FD51222229A7CC67D5A7B1A02001210BF
:104B400012221F9F12221FDC7003014DBAA3740BA7
:104B5000122221ADF01222204012221F829000C6A4
:104B600059F0014DB212221F9F12221FDC70030167
:104B70004DBA12221F9F12221FFB703C12221FAF40
:104B800012221F89FFC007122220E012221FA7A3B2
:104B9000A3E0FD12221F79FAA3E0FB9000C654A304
:104BA000E02406FFE43E9000C84BF0A3EFF0A374AE
:104BB00012F0D00702252AB8122220E012221FA7E5
:104BC00012222253122221EA1222225EF09000C603
:104BD000577416122220131222208BF0122220402A
:104BE00012221F82FEA3E0FF9000C65AEEF0A3EF50
:104BF000F0122563749000C65C1222200870030135
:104C00004DBA7EC67F5C1222237A2406FDE43AFC6C
:104C10001222203712222319F583759300A3E0FB9B
:104C20001200121012204DE29000C65CE0FEA3E0DC
:104C3000FF014CCA12221F9F12221FDC7003014D7C
:104C4000BAA37417122220D512221FA7A3A3A3E090
:104C5000FCA3E0FD9000C659ECF0A3ED1222201653
:104C6000E582241512221F849000C65DF0E49000B6
:104C7000C65BF0A3F0D3ED9400EC940040399000B3
:104C8000C65412221FA51222223F122563749000DF
:104C9000C65B122220087003014DBA7EC67F5B12EC
:104CA00022237A2405FDE43AFC12222037A3A3A391
:104CB000A3E0FB1200121012204DFE9000C65BE034
:104CC000FEA3E0FF4E7003014DBA02265758122290
:104CD0001F9F12221FDC7003014DBA12221F9F1268
:104CE000221FFB600A9000C67712221FA3E4F01275
:104CF000221FC0A3E0FD122796389000C6577414F7
:104D000012221F941222208BF0014DB212221F9FFB
:104D100012221FDC7003014DBAA3741512221F94D6
:104D20001222208BF012204DFE12221F9FA3A3A35C
:104D3000E06003014DBA122220A212221F89122222
:104D40001FFF60769000C677E0FEA3E012221FA747
:104D5000E4F02212221F9F12221FDC605DA3741850
:104D600012221F55FFA3E09000C65ACFF0A3EFF028
:104D7000804012221F9F12221FDC603EA374191272
:104D8000221F941222208BF0802812221F9F1222B1
:104D90001FDC6026E0FF122221A012221F89FD12D3
:104DA000277DF99000C657744012221F94122220CA
:104DB0008CF07EC67F5712277D59227CC67D797B79
:104DC00011120012107EC67F5712277D5922F07EE5
:104DD000C67F5712277D5922F07EC67F5712277D46
:104DE00059227EC67F5712277D592212256374905F
:104DF00000C656E0FD22FBE4FD1200004F227EC6F5
:104E00007F5712277D59229000DA50E06007640135
:104E10006003015AE612221A356003015AE2122297
:104E2000198E6003015AE29000D9AEE0FF9000DADB
:104E300032E06F6003015A041222199ED39400EEEF
:104E40009400502D9000F029E0C394C874809480A1
:104E50004003015A009000E966E07003015A009097
:104E600000E8FBE0FD64036008ED64096003015A9B
:104E700000D3EF9400EE9400500301595A12221906
:104E80003EE49000F029F09000F023E060269000CE
:104E9000F026E030E007122217E5015168122218CF
:104EA000837006122218D380081222179212221938
:104EB000480151689000F01EE05402600C9000F030
:104EC00039E0640360030151D2122216F524041262
:104ED0002216A1E0640160030151CE9000DB50E096
:104EE000601E122216D62405122216A1E0FD1222FF
:104EF00016D62408122216A1E0C39D9000F027F0D8
:104F00009000F03BE0FF60571222170424051222A4
:104F100016A1E0FED39F500FE4122219409000F03A
:104F20003BE0C39EF0803812221879122218FEA3AB
:104F3000A3C083C082E0FEA3E0FFC006C0079000CC
:104F4000F03B12205AE7C3D0E09FFFD0E09E75935C
:104F500000D082D083F0A3EFF0E49000F03BF01299
:104F6000221AB77003A3E0F460030151D29000F05D
:104F70002DE060499000F024E06006122218836062
:104F80001212221ABE122217E412205AF812221903
:104F90001B800E122218837008122218D312205A76
:104FA000F812221AB77003A3E0F470030151D290F3
:104FB00000F02DE014F01222193E0151D29000E9C8
:104FC00066E0700301516E122219226008EF640935
:104FD000600301516E122216F52405122216A1E07B
:104FE000FD122216D62408122216A1E0C39DFF90BE
:104FF00000F027E0FE6F700301516EE49000C4CE14
:10500000F0C3EF9E9000F025F070030151031222CF
:105010001ABE122219DEC394807480948050699065
:1050200000D495E0FEEF9E50089000F026E030E0BE
:105030000C122219E6E412221872F0803C12221699
:10504000E62405122216A1E0FF9000F025E0FEEF15
:10505000C39E4009EEFF12205B18E4801C12221749
:10506000121222186BEF122219DE122217BC24052D
:10507000122216A1E0FEC3EF9E9000F025F09000F2
:10508000F0347401F00151159000F025E0F404FFB4
:105090009000C4CDF0E49000F025F0122217042413
:1050A00005122216A1E0FEEFC39E50319000C4CD40
:1050B00012205AE79000C4CEEFF09000D48B122259
:1050C000179FA3A3E0FCA3E0C39410FDEC9400FCA5
:1050D000C3ED9FFEEC12221870CEF080389000F0E5
:1050E00027E0FF122217042405122216A1E0FEC3B6
:1050F000EF9E9000F027F0E412221872F0122219AD
:1051000040801212221879F5828E831222171F1204
:1051100022186BEFF012221879FF9000F02F122264
:10512000181B2409122216A1E0FF9000F03FE4F0C2
:10513000A3EFF09000F01CE07002A3E070030151B7
:10514000D29000F026E054FE12221882700612223D
:1051500018D3801412221792122219489000C4CE3C
:10516000E07A002DFDEA3CFC12205B3E806490005A
:10517000F026E054FEF09000D4CFE0FF601512223C
:1051800017042409122216A1E0B507079000F023A6
:105190007440F09000E966E060139000DB50E0603E
:1051A0000C122218837006122217E580171222179C
:1051B00012C39410FFEE9400FE8D828C83759300D1
:1051C0001222194812205B3E1222191B800412275A
:1051D000074712221AB77003A3E0F47003015AE6DE
:1051E0009000D4CFE0FF601E12221704240912227F
:1051F00016A1E0B507109000D4CFE09000D4FCF0E9
:10520000E49000D4CFF0E49000F039F09000F03753
:10521000E0A3F09000F023E060429000F026E02050
:10522000E0061222188370109000F027E004F0903E
:1052300000F0377401F0803D9000F01CE0FEA3E028
:10524000FF9000D52AE0FD7C00120011589000F07C
:1052500037EFF09000F027E02FF08019122216E6C9
:105260002405122216A1E0FF9000F027E02FF09015
:1052700000F037EFF09000F024E070091222197D61
:105280009000F03AF09000E97CE070639000DADE84
:10529000E030E05B9000625CE0600A7D0A7F85128E
:1052A000273ED3803F9000E966E060439000DADE5D
:1052B000E05403640370389000D4FFE0FF9000D402
:1052C000FCE06F702A1200048A9000C4CD122218EC
:1052D0001B2404122216A1E4F0A3743412221695A2
:1052E00012205B06C2AF9000DADE7404F0D2AF90F9
:1052F00000D49B122216F92404122216A1E0702079
:1053000012221696E060199000D49B122216EC121D
:1053100022169FE4122216D52407122216A1E4F0C9
:105320009000F023E0FF70119000D49BE0FDA3E01B
:105330009000F031CDF0A3EDF09000D48BE0FCA311
:10534000E09000D49B12221AC5122217A3E0FDA3FD
:10535000E09000D496CDF0A3EDF09000612AE060DB
:105360000A9000683BE070030154EE9000E966E0AB
:1053700070030154EEEF60030154EE122216E6248E
:1053800009122216A1E0FF547F60030154EE900140
:105390001E02E0FDA3E09000E96ACDF0A3EDF0A3CA
:1053A000EFF09000E95CE0FEEF6E60030154EE90D8
:1053B00000F033E0F920E7030154EE122219A8901F
:1053C00000E95AE0FAA3E0FBC39DEA9C400DEB9D87
:1053D000FEEA9C12221A2ECEF0801B9000E95A128F
:1053E0002218109000E96BE09FFF9000E96AE09EB0
:1053F00012221A2EEFF0C39000C4CDE094804052E8
:105400009000E95AE0FEA3E0FFEE30E71E9000E9CD
:105410006BE02401FD9000E96AE03400FCC374FFF6
:105420009FCF74FF9ECF2DCF3C80219000E95BE0A1
:105430002401FF9000E95AE03400FE122219A8C3AB
:1054400074FF9DCD74FF9CCD2FFFED3E12221A2ECE
:10545000EFF0E9547F9000F033F09000C4CDE0FA13
:10546000A3E0FBC39480EA940C40030154EE900047
:10547000E97CE060799000E935E0FF7E009000E98A
:1054800094E0FCA3E0FD12000AF7C39000DACCE040
:105490009FFF9000DACBE09ECFC3941ECF9400FE16
:1054A0009000C4CFF0A3EFF02430FFE43EFED3EB36
:1054B0009FEA9E501CC3E09430FF9000C4CFE0945C
:1054C00000FEC39000C4CEE09F9000C4CDE09E508B
:1054D000179000F01BE004F0E0D3940374809480F4
:1054E000400C12276DC18000E49000F01BF090008A
:1054F000625CE060379000E9587401F09000DB5383
:10550000E06029122217379000E986122219EF90E5
:1055100000E98B122219FD122216E6240912221626
:10552000A1E0FF9000E988E4F0A3EFF09000E966C5
:10553000E070030157579000DB53E06059E4F0C27C
:10554000AF9000DA47E0FFA3E09000E9A91222172C
:10555000629000E9AB122219EF9000E9B0CFF0A3FE
:10556000EFF09000DA52E0FF9000E9AFF0D2AF1216
:105570002217042409122216A1E0FD9000E9ADE4EF
:10558000F0A3EDF09000E9A0E0FEEFB50608E4FD21
:105590007F8212273ED39000E97CE07003015757C9
:1055A0009000DA4FE070030157579000D9B5E070D2
:1055B00003015757E412221A2EF012221A94900077
:1055C000D9B012205B301222188F12000D9C90006F
:1055D000D9A8E0FEA3E0FFE4FCFD1222188B120024
:1055E0000D9CC000C001C002C0039000DACB1220A5
:1055F0005B30D003D002D001D0001222188B1200F1
:105600000D74C3EF9400FFEE9419FEED9400FDECD1
:105610009400FC9000C4CF12000DB59000D9B8E002
:10562000FEA3E0FF7DE27C0412000F9D9000C4D336
:1056300012000DB5122219579000D9B6E0FEA3E072
:10564000FFE4FCFD12000B759000C4D312221893E6
:1056500012221953D312000D0540169000C4CE74C7
:1056600001F0A312000D74AB07AA069000C4D3800A
:10567000269000C4CF12221953C312000D055029E1
:105680009000C4CE7402F09000C4D312000D74AB2D
:1056900007AA069000C4CF12000D74C3EF9BFFEE63
:1056A0009A9000C4D7F0A3EFF09000DB1FE024D461
:1056B000600C24FC701F122218B97B538006122242
:1056C00018B97B5B7A00120005C89000C4D7EEF0D1
:1056D000A3EFF08008E49000C4D7F0A3F09000C4DA
:1056E000D712221810947FEE94004003E4802E908D
:1056F00000C4CEE064017011D3EF947FEE940050AB
:10570000219000C4D7A3E080149000C4D7E0FEA38A
:10571000E0FFD39480EE94005008EFF4049000C4AE
:10572000CDF01200048A9000C4D9EEF0FCA3EFF093
:10573000FD9000C4D9122216F92404122216A1E405
:10574000F0A37436F09000C4CDE0FB12221696EB65
:10575000F07F08120004519000DA37E06403600320
:105760000158399000F025E060030158399000F0AD
:1057700023E06003015839122217AB2409122216C4
:10578000A112221A5DCE122217BA240C122216A1DF
:10579000122216F92404122216A1E07003015839CE
:1057A000122216D62409122216A1E0F99000F03F29
:1057B000A3E069700301583912221879FFE9C394F4
:1057C00001FDE494009000F03F122216D224091249
:1057D0002216A1ED122216F4240C122216A1122276
:1057E00017AF2405122216A1E0FB122217BC2408D1
:1057F000122216A1E0C39BFD122216D62408122203
:1058000016A1E0FFC3ED9FFF9000F025F09000D4BB
:1058100095E0FEEFD39E40169000F025E0D39480F3
:10582000748094804004E4F08004122219E6900011
:10583000F0417406F0A37440F0122219DF605F1289
:105840002217042405122216A1E0C39F401D122036
:105850005B189000D48BE0FFA3E09000F02FCFF016
:10586000A3EFF0E49000F025F0802D122219DF1252
:105870002217AB2405122216A1E0FEC3EF9E900072
:10588000F025F08D821222171D1222186BEFF09076
:1058900000F02FECF0A3EDF012221ABEF0229000DF
:1058A000F034E0601F1222191B9000F034F09000D9
:1058B000E97CE07003015AE69000F03FE475F001E6
:1058C00002000B099000DA37E06409701C12000432
:1058D0008A9000C4CD1222167A7402122216D524A0
:1058E00007122216A112205B0612221879F5828E69
:1058F000831222171FFFC39000D4A7E09FFF9000E0
:10590000D4A6E09EFEF0A3EFF012205B4C1222160C
:10591000E02405122216A112221770601A9000D5F9
:1059200006E01222172F400F122218EBCEC313CE1F
:1059300013D8F9122217C6122216F52404122216C1
:10594000A1E4122216D5240C122216A1E0FFA3E036
:105950009000D48BCF12221917229000DA37E0FF83
:105960007E0064097002806B9000E8FBE0FD640338
:105970006005ED64097065EF64074E9000C4CB705C
:10598000057450F080037406F09000E966E060341E
:105990009000C4CBE0FF9000F029E0D39F40259019
:1059A00000F023E04410122217E412205B5512226B
:1059B0001917EFF47002EEF4602E122219E6A3E03C
:1059C00004F0802490011D9BE0540F64037002805A
:1059D0000274FF9000C4C9F0A3F0800C1222196C6D
:1059E00012205B55F0A3EFF09000C4C9E0F47003FF
:1059F000A3E0F47003015AE69000F029E004F022DD
:105A00000225EB84E49000F024F09000D49DE0FFA8
:105A10009000D4F5E0D39F5003015AE69000DA37A6
:105A2000E0640970261200048A9000C4CB1222168A
:105A30007A7403122216D52407122216A1E4F090DC
:105A400000C4CB12221A55120004511222187912E6
:105A50002218FDA3A312221AA99000D4A7E09DF05A
:105A60009000D4A6E09C122216D52405122216A17D
:105A700012221A894003EE9FF01222199E12205B17
:105A80004C122216E02405122216A1122217706071
:105A90001A9000D506E01222172F400F122218EBA1
:105AA000CEC313CE13D8F9122217C6122216F5242C
:105AB00004122216A1E412221695E4122216D5240D
:105AC00007122216A1E4122216D5240C122216A1C6
:105AD000122216AC2409122216A112221A5DA3CE9C
