:020000040000FA
:10000000022344021DBAE4FEFF2222021EDC222249
:10001000222222021E082222222222021EEAFFFFA0
:10002000FFFFFF021EB1FFFFFFFFFF021EE9FFFF00
:10003000FFFFFF021EDBE4F518F516F517F5192290
:1000400002237A8E838F82EB6005EDF0A3DBFB2227
:1000500075A50002234485A53C75A50312E32F85F1
:100060003CA522021EEA904741E0FCA3E0FAECFF27
:10007000EAFE122D8D122D96EC540FFEED540FC496
:10008000F8540FC868FBEEC454F048FAEC54F0FE84
:10009000ED54F0FFEE122DB3EFC4540F48122D862D
:1000A000122D96EC5433FEED54337802C333CE3325
:1000B000CED8F9FBAA06EC54CCFEED54CC7802CE97
:1000C000C313CE13D8F9122D86122D96EC5455FE7B
:1000D000ED545525E0FBEE33FAEC54AAFEED54AA9C
:1000E000FFEEC313FEEF13122D8674FF904741F00D
:1000F000A3F02285A54075A50112F5DE8540A52255
:10010000C2AFE4F5A512C00012018D00002275A552
:1001100001023630E4F5A5020040C2AFE4F5A512B5
:100120004388120188000022C2AFE4F5A51243EC17
:10013000120188000022C2AFE4F5A51242E91201C3
:1001400088000022C2AFE4F5A51243B31201880073
:100150000022C2AFE4F5A5124283120188000022FA
:10016000C2AFE4F5A51243EF120188000022E4F5C6
:10017000A5900011120253AE02AF017C107D007BEE
:100180001212323812018D22900011EFF0900010FF
:10019000E0F5A522E0FCA3E0FDA3E0FEA3E0FF2242
:1001A000E0F8A3E0F9A3E0FAA3E0FB227401FF3337
:1001B00095E0FEFDFCA3A3A3E0CF2FF0E58215821E
:1001C00070021583E0CE3EF0E58215827002158341
:1001D000E0CD3DF0E582158270021583E0CC3CF065
:1001E000227401FF3395E0FEFDFCA3A3A3E02FFFE3
:1001F000F0E582158270021583E03EFEF0E582157F
:100200008270021583E03DFDF0E5821582700215D3
:1002100083E03CFCF022ECF0A3EDF0A3EEF0A3EFC2
:10022000F022A8828583F0D083D082120239120294
:1002300039120239120239E473E493A3C583C5F07D
:10024000C583C8C582C8F0A3C583C5F0C583C8C52A
:1002500082C822E0FBA3E0FAA3E0F922F8E0FBA3C6
:10026000A3E0F925F0F0E582158270021583E0FA2B
:1002700038F022F8E0FBA3A3E025F0F9F0E58215C1
:100280008270021583E038FAF022EBF0A3EAF0A3C3
:10029000E9F022E709F608DFFA8046E709F208DF0D
:1002A000FA803E88828C83E709F0A3DFFA8032E38C
:1002B00009F608DFFA8078E309F208DFFA8070882F
:1002C000828C83E309F0A3DFFA806489828A83E069
:1002D000A3F608DFFA805889828A83E0A3F208DF58
:1002E000FA804C80D280FA80C680D4806980F28007
:1002F00033801080A680EA809A80A880DA80E2802D
:10030000CA803389828A83ECFAE493A3C8C582C881
:10031000CCC583CCF0A3C8C582C8CCC583CCDFE9EB
:10032000DEE7800D89828A83E493A3F608DFF9EC87
:10033000FAA9F0EDFB2289828A83ECFAE0A3C8C512
:1003400082C8CCC583CCF0A3C8C582C8CCC583CC39
:10035000DFEADEE880DB89828A83E493A3F208DFA8
:10036000F980CC88F0EF60010E4E60C388F0ED2478
:1003700002B4040050B9F582EB2402B4040050AF7B
:1003800023234582239002E373BB010689828A837B
:10039000E0225002E722BBFE02E32289828A83E444
:1003A0009322BB010CE58229F582E5833AF583E0CF
:1003B000225006E92582F8E622BBFE06E92582F8EE
:1003C000E222E58229F582E5833AF583E49322BBB4
:1003D000010FF8E58229F582E5833AF583E028F0FC
:1003E000225009C58229F8E58226F622BBFE09C5FE
:1003F0008229F8E22582F222F8EA2583F583E9933F
:100400002822BB010689828A83F0225002F722BB90
:10041000FE01F322F8BB010DE58229F582E5833A5E
:10042000F583E8F0225006E92582C8F622BBFE05D6
:10043000E92582C8F222EF8DF0A4A8F0CF8CF0A4B9
:1004400028CE8DF0A42EFE22BC000BBE0029EF8D1D
:10045000F084FFADF022E4CCF875F008EF2FFFEE4A
:1004600033FEEC33FCEE9DEC984005FCEE9DFE0F58
:10047000D5F0E9E4CEFD22EDF8F5F0EE8420D21CB3
:10048000FEADF075F008EF2FFFED33FD40079850FB
:1004900006D5F0F222C398FD0FD5F0EA22C2D5ECC2
:1004A00030E709B2D5E4C39DFDE49CFCEE30E715CE
:1004B000B2D5E4C39FFFE49EFE120448C3E49DFD51
:1004C000E49CFC800312044830D507C3E49FFFE49A
:1004D0009EFE22C5F0F8A3E028F0C5F0F8E58215ED
:1004E0008270021583E038F022A3F8E0C5F025F011
:1004F000F0E582158270021583E0C838F0E822BB6F
:10050000010A89828A83E0F5F0A3E022500687F091
:1005100009E71922BBFE07E3F5F009E319228982F6
:100520008A83E493F5F074019322BB0110E58229DC
:10053000F582E5833AF583E0F5F0A3E0225009E97E
:100540002582F886F008E622BBFE0AE92582F8E259
:10055000F5F008E222E5832AF583E993F5F0A3E9B3
:100560009322BB010DC58229C582C5833AC583028A
:1005700004D35011C58229F808E5F026F618F5F0E5
:10058000E58236F622BBFE11C58229F808E225F085
:10059000F5F0F218E23582F222F8E58229F582E5DB
:1005A000832AF58374019325F0F5F0E4933822BB98
:1005B000010A89828A83F0E5F0A3F0225006F70948
:1005C000A7F01922BBFE06F3E5F009F31922F8BBE8
:1005D0000111E58229F582E5833AF583E8F0E5F03B
:1005E000A3F0225009E92582C8F608A6F022BBFE36
:1005F00009E92582C8F2E5F008F222EF2BFFEE3A76
:10060000FEED39FDEC38FC22C3EF9BFFEE9AFEEDC8
:1006100099FDEC98FC22E88FF0A4CC8BF0A42CFC84
:10062000E98EF0A42CFC8AF0EDA42CFCEA8EF0A458
:10063000CDA8F08BF0A42DCC3825F0FDE98FF0A4E7
:100640002CCD35F0FCEB8EF0A4FEA9F0EB8FF0A4DE
:10065000CFC5F02ECD39FEE43CFCEAA42DCE35F01A
:10066000FDE43CFC2275F008758200EF2FFFEE33AD
:10067000FECD33CDCC33CCC58233C5829BED9AEC15
:1006800099E58298400CF582EE9BFEED9AFDEC997F
:10069000FC0FD5F0D6E4CEFBE4CDFAE4CCF9A88289
:1006A00022B800C1B90059BA002DEC8BF084CFCE2E
:1006B000CDFCE5F0CBF97818EF2FFFEE33FEED33EC
:1006C000FDEC33FCEB33FB10D703994004EB99FBB3
:1006D0000FD8E5E4F9FA227818EF2FFFEE33FEED9C
:1006E00033FDEC33FCC933C910D7059BE99A4007A9
:1006F000EC9BFCE99AF90FD8E0E4C9FAE4CCFB22C0
:1007000075F010EF2FFFEE33FEED33FDCC33CCC888
:1007100033C810D7079BEC9AE899400AED9BFDEC93
:100720009AFCE899F80FD5F0DAE4CDFBE4CCFAE4D2
:10073000C8F922EF4BFFEE4AFEED49FDEC48FC22E2
:10074000EB9FF5F0EA9E42F0E99D42F0EC6480C830
:1007500064809845F022EB9FF5F0EA9E42F0E99D17
:1007600042F0E89C45F022E8600FECC313FCED1367
:10077000FDEE13FEEF13FFD8F122E8600FEFC33355
:10078000FFEE33FEED33FDEC33FCD8F122BB010D5F
:10079000E58229F582E5833AF5830201945007E961
:1007A0002582F802092ABBFE07E92582F8020936EC
:1007B000E58229F582E5833AF583020942BB010D02
:1007C000E58229F582E5833AF5830202165007E9AE
:1007D0002582F8020952BBFE07E92582F80207E1EB
:1007E00022ECF208EDF208EEF208EFF222A42582E4
:1007F000F582E5F03583F58322E6FB08E6FA08E6A4
:10080000F922EBF608EAF608E9F622E493FB740114
:1008100093FA740293F922BB010DE58229F582E572
:10082000833AF5830202535007E92582F80207F95B
:10083000BBFE07E92582F802095EE58229F582E51B
:10084000833AF58302080BBB0120E58229F582E596
:10085000833AF583D0F0D0E0F8D0E0F9D0E0FAD0D8
:10086000E0FBE8C0E0C0F002028A5018E92582F8F7
:10087000D083D082D0E0F9D0E0FAD0E0FBC082C0D3
:1008800083020802BBFE18E92582F8D083D082D00B
:10089000E0F9D0E0FAD0E0FBC082C0830209672211
:1008A000D083D082F8E4937012740193700DA3A3E7
:1008B00093F8740193F5828883E4737402936860FB
:1008C000EFA3A3A380DFD083D082F8E493701274E7
:1008D0000193700DA3A393F8740193F5828883E4C8
:1008E00073740293B5F0067403936860E9A3A3A33D
:1008F000A380D88A838982E473E5752582F582E531
:10090000743583F583B574048582752210AF06852E
:100910008275F57422858275F574D2AF22E575254E
:1009200082F582E5743583F58322E6FC08E6FD084E
:10093000E6FE08E6FF22E2FC08E2FD08E2FE08E22D
:10094000FF22E493FC740193FD740293FE740393FD
:10095000FF22ECF608EDF608EEF608EFF622E2FBD1
:1009600008E2FA08E2F922EBF208EAF208E9F222D8
:100970007D80E4FEFFC083C0821201A01209E9D08D
:1009800082D083E0CCF0A3E0CDF0A3E0CEF0A3E0F2
:10099000CFF0227D80E4FEFFC082C0831201A0D090
:1009A00083D0821209E90202167D80E4FEFFC08333
:1009B000C0821201A0120BF6D082D083E0CCF0A34B
:1009C000E0CDF0A3E0CEF0A3E0CFF0227D80E4FE06
:1009D000FFC082C0831201A0D083D082120BF60226
:1009E0000216020D1CE86480F8E933E83360110454
:1009F00060F0ED33EC337009E8FCE9FDEAFEEBFF53
:100A0000220460DED3EB9FEA9EE99DE8C2E78CF00A
:100A1000C2F795F0400CE8CCF8E9CDF9EACEFAEB54
:100A2000CFFB120CE785D0F05804700320D5B3E853
:100A30000470075002B2D5020D2692D5EC0460F77F
:100A4000E4CCC0E0C398F8603B94186008400DD037
:100A5000E0FB020CFEE4FBFAC9FC8028E830E40667
:100A6000E4C9FBE4CAFCE830E305E4C9CACBFCE80E
:100A700054076010F8C3E913F9EA13FAEB13FBEC1F
:100A800013FCD8F130F52FC3E49CFCEF9BFFEE9AEA
:100A9000FEED99FDD0E0FBEF4E4D4C701222DB03D2
:100AA000020D23EC2CFCEF33FFEE33FEED33FDEDB6
:100AB00030E7EB020CFEEF2BFFEE3AFEED39FDD0F6
:100AC000E0FB50130BBB0003020D26ED13FDEE13EC
:100AD000FEEF13FFEC13FC020CFE020D26EC5D048E
:100AE0006005E859047003020D1C120CE7580460FD
:100AF000F6EC4860F2EC7004FDFEFF22C860DB24D7
:100B000081C85009C39860025006020D239850CA4C
:100B1000F582E9294B4A7005AB82020D1275F0008F
:100B20007C1A7880C3EF9BEE9AED99400DC3EF9B42
:100B3000FFEE9AFEED99FDE842F0DC23ACF0D0E048
:100B4000FFD0E0FED0E0FDAB8220E7101BEB60BAE7
:100B5000EC2CFCEF33FFEE33FEED33FD020CFEE830
:100B600003F830E705C0F075F000EF2FFFEE33FE1D
:100B7000ED33FD40B830E7C280AA75F020800E75D5
:100B8000F010800575F0087D007E007F003392D55F
:100B900030D503120D31EC334010EF33FFEE33FE4E
:100BA000ED33FDEC33FCD5F0ED22E5F0247EA2D54B
:100BB00013CC92E7CDCEFF22EDD2E7CD33EC3392CA
:100BC000D524814006E4FFFEFDFC22FCE4CFCECD1F
:100BD000CC24E0501174FF80EDC3CC13CCCD13CDE9
:100BE000CE13CECF13CF0470F030D5DE020D31021C
:100BF0000D1CE86480F8E933E83360110460F0ED1F
:100C000033EC337009E8FCE9FDEAFEEBFF220460F7
:100C1000DED3EB9FEA9EE99DE8C2E78CF0C2F79530
:100C2000F0400CE8CCF8E9CDF9EACEFAEBCFFB12B4
:100C30000CE785D0F05804700320D5B3E8047007A2
:100C40005002B2D5020D2692D5EC0460F7E4CCC078
:100C5000E0C398F8603B94186008400DD0E0FB02B8
:100C60000CFEE4FBFAC9FC8028E830E406E4C9FB8A
:100C7000E4CAFCE830E305E4C9CACBFCE8540760E9
:100C800010F8C3E913F9EA13FAEB13FBEC13FCD8E1
:100C9000F130F52FC3E49CFCEF9BFFEE9AFEED993B
:100CA000FDD0E0FBEF4E4D4C701222DB03020D2312
:100CB000EC2CFCEF33FFEE33FEED33FDED30E7EBD4
:100CC000020CFEEF2BFFEE3AFEED39FDD0E0FB50BB
:100CD000130BBB0003020D26ED13FDEE13FEEF1305
:100CE000FFEC13FC020CFEE9D2E7C933E833F892BB
:100CF000D5EDD2E7CD33EC33FC5002B2D522EC3047
:100D0000E7100FBF000C0EBE00080DBD00040BEB7A
:100D10006014A2D5EB13FCED92E7FD2274FFFCFDFD
:100D2000FEFF22E480F8A2D574FF13FC7D80E480EE
:100D3000EFC3E49FFFE49EFEE49DFDE49CFC22E4FF
:100D4000903558F0A3F090352EF0F5A890395974ED
:100D500002F075A5037E267F13FB7DE07C461232F0
:100D6000387E267F157B027DE07C4E12323890263D
:100D700013E0B4AA0CA3E0B455071230767C44808B
:100D800011902615E0B4AA0FA3E0B4550A123076EC
:100D90007C4C1230818010903B7B74FFF07E3B7F57
:100DA0007C7B10FD12004375A50175A5011272BD73
:100DB00075A501903E3A7406F075A50312ECE07536
:100DC000A5012000089039587403F08000758E0149
:100DD000120019121B491200361229CF122B75125C
:100DE000344175A50112F59F12FC2275A50175A568
:100DF0000112367175A501781FE630E20D120EBDA5
:100E0000741012305D7410120EE6781FE6543060D4
:100E100019120EBD7410F0781FE6FFE5642407F583
:100E200082E43563F583EF120EE6781FE630E33C8B
:100E30001222788E638F6412306F2404123066742D
:100E40000212306E2406123066740E12305DE41207
:100E5000306E2408123066740312306E240912308A
:100E6000667403F0AD64AC63FF12224530000E12CD
:100E7000368F1236851233721236AD8006781FE631
:100E800054C0F612365D12365312366775A501123C
:100E9000F40D75A501C288C28AE490BD13F090BD1F
:100EA00003F090BD1B740FF090BD0AE4F0A3741F13
:100EB000F090BD037401F0E490BD0CF02212227892
:100EC0008E638F648F828E83E5822404F582E435FD
:100ED00083F5837402F08F828E83E5822406F58287
:100EE000E43583F58322F0AD64AC637F03122245C1
:100EF0002290B001748BF0A37401F0A37490F09071
:100F0000B005E04410F0E4902612F000902612E0C4
:100F100004F0E0B40AF5903962E07021FB7A60FDDC
:100F2000FFFE12326A7B007A18E4FDFF7EC01232A7
:100F30006A1238ED9039627401F012334975A40CCD
:100F400075A50312F8F575A501758E0190A710E03F
:100F500054EFF0E58E20E30690B8337401F090B8BA
:100F600025E054FEF053A1FE00000000D20020A0B6
:100F700002C20090A4F77481F0120D3F75A887E4B7
:100F800090B203F012213B75A50312EBAA75A501DF
:100F900030001E904022E0600975A50312F9AB7580
:100FA000A501903FE4E0600975A50212AB6B75A541
:100FB00001E490BD0CF07873E254F7F2E51870C4C8
:100FC00075A50312C40312D9F375A50175A5031203
:100FD000F1ED75A50190395AE020E01175A50312D5
:100FE000CC4A902611EFF075A501EF7097E51870C7
:100FF00093E58754FC4401F58700008087FFFFFFDD
:1010000035353035203130325F424C444B330200AD
:101010000200752A0190BF3374FFF090BF12E0F513
:1010200029A3E0F528304B7B78BBE6FE08E6F58285
:101030008E83E030E21E90BE27E030E01790BE00C5
:10104000120222FFFFFFFF90BE13E04420F0904504
:101050007B7401F07881E664011846701190BA2320
:10106000F07431F090B4697422F0E4F608F6785226
:10107000E220E73B902E0AE0FF30E13354F5646153
:10108000702D90BE27E030E01190BE00120222FFCA
:10109000FFFFFF90BE13E04420F0902E0AE0448052
:1010A000F0800C30260953A4FEC212C226C21F785B
:1010B000C1E625E024D2F582E43445F583E0FEA3C1
:1010C000E0FF78D3EEF608EFF62406F582E43EF56D
:1010D00083E528F0EF2407F582E43EF583E529F067
:1010E000304F7953A4FE904014E0FF6580FEEF5E20
:1010F00090B847F0904015E0FF6590FEEF5E90B825
:1011000046F0904016E0FF65A0FEEF5E90B845F017
:10111000904017E0FF65B0FEEF5E90B844F090405D
:1011200047E064016003021206F01222789024D690
:10113000EEF0A3EFF02404F582E43EF5837408F0AA
:10114000EF2405F582E43EF5837401F09024D6E0A7
:10115000FCA3E0FD7F08122245021206904014E035
:101160005580FF90401CE06F702A904015E055902C
:10117000FF90401DE0B50F1C904016E055A0FF9079
:10118000401EE0B50F0E904017E055B0FF90401F95
:10119000E06F6072904047E06401706AF01222785C
:1011A0009024D8EEF0FCA3EFF0FD9024D8E0FEA34D
:1011B000E0FF2404F582E43EF5837408F0EF240593
:1011C000F582E43EF5837402F07F081222459040D8
:1011D00014E0FF6580FEEF5E90B847F0904015E0A8
:1011E000FF6590FEEF5E90B846F0904016E0FF6518
:1011F000A0FEEF5E90B845F0904017E0FF65B0FEAE
:10120000EF5E90B844F0204D0302164F902E69E037
:1012100020E20302149AE52964207002F52A90B4B2
:1012200039E0540F600AE0540F640160030214783F
:10123000E4F52B902E6EE0FCA3E0FD2419F582E48A
:101240003CF583E0606890B363E030E76FE0547F83
:10125000F0752B0190B439E030E61590B43BE044D2
:1012600080F0ED241AF582E43CF5837401F08018D7
:1012700090B43BE0547FF0902E6EE0FEA3E0241A81
:10128000F582E43EF583E4F0902E6FE0241BFF909E
:101290002E6EE03400FE7C167D467B061232827E86
:1012A000177F4B7C167D467B06123282800E90B3F0
:1012B00063E030E707E0547FF0752B01E52B700306
:1012C000021456902E69E04408F0902E6EE0FEA3C2
:1012D000E0240DF582E43EF583E07879F290BE28B3
:1012E000E0FCA3E0FDA3E0FEA3E0FF7801120767A6
:1012F00078801207E17880E2FE08E2FF08E2FC084D
:10130000E2FD7B407A00122DBB787CEEF208EFF212
:101310007879E2FD7C007F107E00122E45787EEE0B
:10132000F208EFF27879E2FFD39400400D787FE283
:1013300024FEF218E234FFF2802EEF702B902E6E16
:10134000E0FEA3E02424F582E43EF583A3E025E05B
:10135000FF0582D5820215831582E033FEEF24FE5D
:10136000787FF2EE34FF18F2787CE2FE08E2FF08A4
:10137000E2FC08E2FDC39FEC9E401CED9FFFEC9E4B
:10138000FE902E6EE0FCA3E0242EF582E43CF58373
:10139000EEF0A3EFF08046902E6EE0FCA3E0FD247B
:1013A00024F582E43CF583A3E025E0FF0582D582A5
:1013B0000215831582E033FE787FE22FFF18E23EAC
:1013C000FE787CE2FA08E2FBC3EF9BFFEE9AFEEDAB
:1013D000242EF582E43CF583EEF0A3EFF0902E6E20
:1013E000E0FCA3E0FD2424F582E43CF583A3E025A2
:1013F000E0FF0582D5820215831582E033FEED24DD
:101400002EF582E43CF583E0FCA3E0D39FEC9E4004
:1014100015902E6EE0FEA3E0242EF582E43EF583C7
:10142000E4F0A37406F0902E6EE0FEA3E0242EF507
:1014300082E43EF583E0FEA3E0FF787AEEF208EF67
:10144000F218E2FDC31390175AF0EEC313EF139096
:101450001759F002164F902E6EE0FEA3E0240BF514
:1014600082E43EF583E4F0A304F090BA23E0548CC8
:10147000F0E0440CF002164F902E6EE0FEA3E02444
:101480000BF582E43EF583E4F0A304F090BA23E088
:10149000548CF0E0440CF002164F902EB1E0FCA307
:1014A000E0FDEC5401FEED54BF64034E60030216F0
:1014B0004F90B439E0540F6015E0540F6406600E8D
:1014C000E0540F64026007E0540FFFBF011C902E30
:1014D000B2E04404F090B438E0FEA3E0FBEEEBFF92
:1014E000901644EEF0A3EFF08042902DC0E0FEA3F2
:1014F000E0FFC3902DBFE09FFF902DBEE09E4F7098
:101500002B902DBDE070257859E2700EEC4401AFB0
:101510000D902EB1F0A3EFF08012902EC0E070027B
:10152000A3E06008902EC0E4F0A304F0902EB2E097
:1015300020E60302164FE4F52B902DC3E030E010B7
:1015400090B363E030E70CE0547FF0752B0180032B
:10155000752B01E52B70030215EC902EC87401F079
:1015600090B439E0540F6007E0540F64067069903E
:101570002EBDE0600214F07E177F4B7C167D467B0B
:101580000612328290B439E030E60990B43BE04470
:1015900080F0800790B43BE0547FF0902EB2E0449E
:1015A00010F0902EC67403F090B86EE4F0A374505F
:1015B000F090B44E7416F0A37446F090BF22E0444D
:1015C00030F0E490BA2BF07412F090B4697422F009
:1015D00078F8E64402F6802B902EB2E04408F090B2
:1015E000BA23E0548CF0E0440CF08017E4902EC84D
:1015F000F0902EB2E04408F090BA23E0548CF0E072
:10160000440CF0902EC8E0604690B439E0540F903E
:101610003364F090B439E0544090336CF07E337F03
:10162000667C167D467B0612328290B438E0543FC9
:10163000903365F07E337F6D7C167D4CE024FAFBA1
:1016400012328290B8B3E0240BF40490338CF03063
:1016500046517859E2704C902EB1E05401FEA3E05F
:1016600054BF64034E703C902EC1E024FFFF902EC7
:10167000C0E034FF4F6010902EC3E024FFFF902E97
:10168000C2E034FF4F701C90BA23E0548CF090BA43
:101690002BE0548CF090BA23E0440CF090BA2BE08D
:1016A000440CF0E52A601378D3E6FC08E6FD7F02DF
:1016B00012244378C1E6045407F622AA07A905902C
:1016C0004102E0FDA3E09024FACDF0A3EDF0E4A305
:1016D000F0A3F09024FAE0FCA3E0FD4C70030218A4
:1016E0004DED2404F582E43CF583E06B60030218C1
:1016F0002C9024FAE0A3E02406F582E43CF583E094
:1017000069600302182CED2405F582E43CF583E0C2
:101710006A6007EAF4600302180B9024FAE0FCA365
:10172000E0FDF5828C83E0F8A3E0F58288834583B1
:10173000601F8D828C83A3A3E0FEA3E0FF8D828CCB
:1017400083E0FCA3E0F5828C83A3A3EE8FF0120468
:10175000D39024FCE07002A3E0704D9024FAE0FEE8
:10176000A3E0FFF5828E83E0FDA3E0904102CDF07F
:10177000A3EDF09041E6E0FDA3E08F828E83CDF0F3
:10178000A3EDF09024FAE0FFA3E09041E6CFF0A3B0
:10179000EFF0904102E0FFA3E09024FACFF0A3EF36
:1017A000F0E4A3F0A3F080589024FAE0FEA3E0F563
:1017B000828E83E0FEA3E0FF9024FCE0FCA3E0F532
:1017C000828C83EEF0A3EFF09041E6E0FEA3E0FF11
:1017D0009024FAE0FCA3E0FDF5828C83EEF0A3EF09
:1017E000F09041E6ECF0A3EDF09024FCE0FEA3E0E5
:1017F000F5828E83E0FFA3E09024FACFF0A3EFF010
:10180000EAF470030216D3220216D39024FAE0FE03
:10181000A3E0FFA3EEF0A3EFF0F5828E83E0FFA339
:10182000E09024FACFF0A3EFF00216D39024FAE070
:10183000FEA3E0FFA3EEF0A3EFF0F5828E83E0FFBE
:10184000A3E09024FACFF0A3EFF00216D3228E315A
:101850008F328F828E83E5822404F582E43583F50E
:1018600083E024FE601F14700302196C14700302DD
:1018700019A2240360030219CE7B007A04E4FD7FE1
:10188000021222EF22904102E0FEA3E0FF4E70031D
:101890000219568F828E83A3A374FFF5F01204D32E
:1018A000904102E0FEA3E0F5828E83A3A3E0FEA3B5
:1018B000E04E60030219561222788E318F32904129
:1018C00002E0FEA3E0FF2405F582E43EF583E0FD9F
:1018D000E5322404F582E43531F583EDF0EF24069A
:1018E000F582E43EF583E0FFE5322405F582E43538
:1018F00031F583EFF0904102E0FEA3E02404F5828D
:10190000E43EF583E0FFAD32AC3112224590410256
:10191000E0FEA3E0FFF5828E83E0FCA3E08C33F5CC
:10192000349041E6E0FDA3E08F828E83CDF0A3EDFD
:10193000F0904102E0FFA3E09041E6CFF0A3EFF08A
:10194000904102E533F0A3E534F04533600302181B
:10195000A080030218A0904102E07002A3E0606E34
:101960007B007A04E4FD7F021222EF22E532240696
:10197000FFE43531FAA9077B019000011203A2FFB1
:101980009000021203A2FD90000312052AFBAAF0A8
:10199000E5322406F582E43531F583E0F54012198D
:1019A000CF22E5322406FFE43531FAA9077B019006
:1019B00000011203A2FF9000021203A2FDE53224EF
:1019C00006FBE435318B82F583E0FB1216BB228FD8
:1019D0003C8D3D8A3E8B3FE53F453E7003021B48F0
:1019E000904102E07002A3E070231222789024F468
:1019F000EEF0A3EFF09024F4E0FCA3E0FD2404F566
:101A000082E43CF5837401F07F06122245AB40ADC1
:101A10003DAF3C1216BB904102E0FFA3E09024F6DC
:101A2000CFF0A3EFF0E4A3F0A3F09024F6E0FEA340
:101A3000E0FF4E60478F828E83A3A3E0FEA3E0FF0A
:101A4000C3953FEE953E50349024F6E0FCA3E0FDB4
:101A5000C3E53F9FF53FE53E9EF53EA3ECF0A3EDC9
:101A6000F09024F6E0FEA3E0F5828E83E0FFA3E091
:101A70009024F6CFF0A3EFF080B080AE9041E6E086
:101A8000FEA3E0FFF5828E83A3A3E53EF0A3E53F2E
:101A9000F0EF2404F582E43EF583E540F0EF240501
:101AA000F582E43EF583E53CF0EF2406F582E43E62
:101AB000F583E53DF09024F8E0FEA3E0FF4E7011C1
:101AC0009041E6E0FDA3E0904102CDF0A3EDF0806F
:101AD000109041E6E0FDA3E08F828E83CDF0A3ED70
:101AE000F09041E6E0FEA3E0FFF5828E83E0FDA3E7
:101AF000E09024F8CDF0A3EDF09024F6E0FCA3E014
:101B0000FD8F828E83ECF0A3EDF0ED4C60248D828E
:101B10008C83A3A3C083C082C3A3E0953FFF05824B
:101B2000D5820215831582E0953ED082D083F0A342
:101B3000EFF09024F8E0FEA3E0FF9041E6EEF0A382
:101B4000EFF04E700312001622782174C4F208746C
:101B50005CF2E4FF75F00AEFA42466F582E5F03448
:101B6000C4AD82FC75F00AEFA4245CF582E5F03484
:101B7000C4F583ECF0A3EDF075F00AEFA4245EF554
:101B800082E5F034C4F5837404F00FBF3FC6E490DF
:101B9000C6D2F0A3F0A37404F0781D74C0F20874E8
:101BA00000F2E4FF75F00EEFA4240EF582E5F034A8
:101BB000C0AD82FC75F00EEFA42400F582E5F03490
:101BC000C0F583ECF0A3EDF075F00EEFA42402F560
:101BD00082E5F034C0F5837403F00FBF3FC6E49094
:101BE000C372F0A3F0A37403F0781F74C3F20874F7
:101BF00080F2E4FFEF75F016A42496F582E434C376
:101C0000AD82FCEF75F016A42480F582E434C3F5B0
:101C100083ECF0A3EDF0EF75F016A42482F582E4D6
:101C200034C3F5837402F00FBF09C9E490C446F0D1
:101C3000A3F0A37402F0782374C6F20874DCF2E413
:101C4000FF75F046EFA42422F582E5F034C7AD829B
:101C5000FC75F046EFA424DCF582E5F034C6F5838C
:101C6000ECF0A3EDF075F046EFA424DEF582E5F08C
:101C700034C6F5837401F00FBF07C6E490C8C6F000
:101C8000A3F0A304F022AA07A9057846E2FC08E223
:101C90008C1AF51BE4F51CF51DE51B451A700302B3
:101CA0001DB9E51B2404F582E4351AF583E06B6069
:101CB00003021DA2E51B2406F582E4351AF583E034
:101CC000696003021DA2E51B2405F582E4351AF5BF
:101CD00083E06A6007EAF46003021D8B851B82853E
:101CE0001A83E0FCA3E0FD4C6019851A83851B82F2
:101CF000A3A3E0FEA3E0FF8D828C83A3A3EE8FF06D
:101D00001204D3E51D451C703B851B82851A83E0B8
:101D1000FFA3E07846CFF208EFF27840E2FF08E256
:101D2000851B82851A83CFF0A3EFF018E51AF2081D
:101D3000E51BF27846E2FE08E28E1AF51BE4F51C7C
:101D4000F51D803C851B82851A83E0FFA3E0851D7D
:101D500082851C83CFF0A3EFF07840E2FF08E28594
:101D60001B82851A83CFF0A3EFF018E51AF208E57D
:101D70001BF2851D82851C83E0FEA3E08E1AF51BF5
:101D8000EAF47003021C9922021C99851A1C851B17
:101D90001D851B82851A83E0FEA3E08E1AF51B02C7
:101DA0001C99851A1C851B1D851B82851A83E0FEE4
:101DB000A3E08E1AF51B021C9922C0D0C0E0302689
:101DC0001E30200A0000000000000000000053A4A4
:101DD000DF90B203E0547FF090B207E020E7F9C053
:101DE000F0C092C083C082C085C08475D00875924F
:101DF00000121012300F41D084D085D082D083D011
:101E000092D0F0D0E0D0D032C0D0C0E0C0F0C092CC
:101E1000C083C082C085C08475D00875920012321C
:101E2000F7200503300E11D084D085D082D083D026
:101E300092D0F0D0E0D0D03275D000C0A5C000C0A4
:101E400001C002C003C004C005C006C00775A501DB
:101E5000200E2F745CC0E0741EC0E03212253AD010
:101E600007D006D005D004D003D002D001D000D0D6
:101E7000A5D084D085D082D083D092D0F0D0E0D0CD
:101E8000D022748BC0E0741EC0E03212281ED0072E
:101E9000D006D005D004D003D002D001D000D0A508
:101EA000D084D085D082D083D092D0F0D0E0D0D072
:101EB00022C0D0C0E0C0F0C092C083C082C085C044
:101EC0008475D00875920012001AD084D085D08213
:101ED000D083D092D0F0D0E0D0D03232C000C0E079
:101EE000C0D0D0D0D0E0D0003232328F2D8D2E8AAB
:101EF0002F8B30E530452F70030220167838E2FB37
:101F0000AD2EAF2D121C867846E2FE08E28E1AF541
:101F10001BE4F51CF51D7842E2FE08E22530F530A1
:101F2000EE352FF52FE51B451A6038851B82851A83
:101F300083A3A3E0FEA3E0FFC39530EE952F5023CB
:101F4000C3E5309FF530E52F9EF52F851A1C851BC4
:101F50001D851B82851A83E0FEA3E08E1AF51B8087
:101F6000C480C27840E2FE08E2FFF5828E83A3A31C
:101F7000E52FF0A3E530F07838E2FDEF2404F58298
:101F8000E43EF583EDF07840E2FE08E2FF2405F53B
:101F900082E43EF583E52DF0EF2406F582E43EF57C
:101FA00083E52EF0E51D451C70097846EEF208EF3A
:101FB000F2800B851D82851C83EEF0A3EFF0784044
:101FC000E2FE08E2FFF5828E83E0FCA3E08C1CF5C4
:101FD0001D8F828E83E51AF0A3E51BF0451A60265B
:101FE000851B82851A83A3A3C083C082C3A3E09507
:101FF00030FF0582D5820215831582E0952FD082AD
:10200000D083F0A3EFF07840E51CF208E51DF2451F
:102010001C7003120016228E438F448F828E83E53C
:10202000822404F582E43583F583E0600302213ADB
:102030007846E2FE08E2F5828E83A3A3E0FEA3E0E9
:10204000FF7842E2FC08E2FDD3EF9DEE9C400302E4
:1020500020FB1222788E438F447846E2FE08E2FF8E
:102060002405F582E43EF583E0FDE5442404F58291
:10207000E43543F583EDF0EF2406F582E43EF58385
:10208000E0FFE5442405F582E43543F583EFF018DD
:10209000E2FE08E22404F582E43EF583E0FFAD446D
:1020A000AC431222457846E2FE08E2FFF5828E83B9
:1020B000A3A3E0FCA3E0FDC37843E29DF218E29CF9
:1020C000F28F828E83E0FEA3E0FF7840E2FC08E21C
:1020D000FD7846E2FA08E2FBF5828A83ECF0A3ED94
:1020E000F07840EAF208EBF27846EEF208EFF2EF11
:1020F0004E60030220307842F208F27842E2FE0895
:10210000E2FF4E602E7846E2FC08E2F5828C83A363
:10211000A3C083C082C3A3E09FFF0582D5820215BE
:10212000831582E09ED082D083F0A3EFF0E4784262
:10213000F208F2E4783FF212225622C2AFE518709C
:102140000302223C9038DD93F521300A4C7832E2CC
:10215000FE08E2FFF5828E83A3A3A3E07838F2E4C1
:10216000783CF2D2AF7838E2FD33333354F8FD9047
:102170002AD993F5A574D52DF582E4342AF583E4A4
:1021800093740193FA740293F5828A831208F775A7
:10219000A501C2AF1222BC80A430094D7839E2FEFD
:1021A00008E2FFF5828E83A3A3A3E07838F2E478F7
:1021B00028F2D2AF7838E2FD33333354F8FD902A59
:1021C000D993F5A574D52DF582E4342AF583E493EB
:1021D000740193FA740293F5828A831208F775A545
:1021E00001C2AF1222CD02213D20080302213D7819
:1021F00029E2FE08E2FFF5828E83A3A3A3E07838EC
:10220000F2E4782FF2D2AF7838E2FD33333354F86A
:10221000FD902AD993F5A574D52DF582E4342AF5DD
:1022200083E493740193FA740293F5828A8312080B
:10223000F775A501C2AF1222DE02213DE47838F223
:10224000F521D2AF22748055A87003022443C2AF97
:10225000122443D2AF22748055A87003022A2AC2E6
:10226000AF122A2AD2AF22748055A870030228FF29
:10227000C2AF1228FFD2AF22748055A87003022E7D
:1022800070C2AF122E70D2AF22748055A8700302B4
:102290002E9AC2AF122E9AD2AF22748055A8700324
:1022A000022EC4C2AF122EC4D2AF22748055A870C1
:1022B00003022EEEC2AF122EEED2AF22748055A8CA
:1022C0007003022CE4C2AF122CE4D2AF227480550A
:1022D000A87003022D1AC2AF122D1AD2AF22748039
:1022E00055A87003022D50C2AF122D50D2AF2274E8
:1022F0008055A87003021EEBC2AF121EEBD2AF22B4
:10230000748055A87003021C86C2AF121C86D2AF1F
:1023100022748055A8700302272AC2AF12272AD23E
:10232000AF22748055A87003022CA3C2AF122CA355
:10233000D2AF22748055A87003023038C2AF123079
:1023400038D2AF2290BD147401F0E4F00000000018
:1023500000000000000090BD10E05407781FF675E3
:10236000200090BD18740FF090BD007401F090BF74
:10237000007403F075A50075D00078FF79DFE4F6EE
:1023800018D9FC781EE87600181470FA75A40C753C
:10239000A70078007F00E4F208DFFC9001007F00D6
:1023A0007E5DE4F0A3DFFCDEFA7576007574D87507
:1023B000750090000078107455F0A3D8FC7581FF6B
:1023C0000223FE023902E493A3F8E493A34003F648
:1023D0008001F208DFF48029E493A3F85407240C69
:1023E000C8C333C4540F4420C8834004F45680014A
:1023F00046F6DFE4800B010204081020408090269E
:1024000011E47E019360BCA3FF543F30E509541FE3
:10241000FEE493A360010ECF54C025E060A840B84D
:10242000E493A3FAE493A3F8E493A3C8C582C8CACB
:10243000C583CAF0A3C8C582C8CAC583CADFE9DE9E
:10244000E780BE8D828C83A3A3A3EFF03333335494
:10245000F8902AD8931460541470030224F32402D1
:102460006003022539E51670107832ECF208EDF2BF
:102470007834ECF208EDF280257834E2FE08E2F5DB
:10248000828E83ECF0A3EDF018ECF208EDF2783CCC
:10249000E2B4010A7402F27836ECF208EDF20516A5
:1024A0004318048D828C83E4F0A3F022E5177010AA
:1024B0007839ECF208EDF2783DECF208EDF2802587
:1024C000783DE2FE08E2F5828E83ECF0A3EDF01891
:1024D000ECF208EDF27828E2B4010A7402F27826F0
:1024E000ECF208EDF205174318028D828C83E4F0BC
:1024F000A3F022E51970107829ECF208EDF2782BA0
:10250000ECF208EDF28025782BE2FE08E2F5828EEF
:1025100083ECF0A3EDF018ECF208EDF2782FE2B4C2
:10252000010A7402F2782DECF208EDF20519431855
:10253000018D828C83E4F0A3F022C2AF7838E27878
:1025400025F27831E521F2E518D3940150030226F3
:10255000037E00E51854FE24DDF582EE3438F58361
:10256000E493F521300A4C7832E2FE08E2FFF5826E
:102570008E83A3A3A3E07838F2E4783CF2D2AF785C
:1025800038E2FD33333354F8FD902AD993F5A5741E
:10259000D52DF582E4342AF583E493740193FA741B
:1025A0000293F5828A831208F775A501C2AF122241
:1025B000BC80943009917839E2FE08E2FFF5828E02
:1025C00083A3A3A3E07838F2E47828F2D2AF783876
:1025D000E2FD33333354F8FD902AD993F5A574D531
:1025E0002DF582E4342AF583E493740193FA74029E
:1025F00093F5828A831208F775A501C2AF1222CD26
:102600000225477825E27838F27831E2F521D2AF19
:1026100022424741FFFF4346FE000000414578FF4C
:10262000414621FF46461800C9C4BFBAB5434622F9
:1026300080808043461E01010146462501020408B0
:1026400010204246F6D0004247490000602444A9C9
:10265000A446A444A44AA448A44EA44CA452A45002
:10266000A456A454A45AA458A45EA45CA462A46072
:10267000A466A46448467401020408102040804CFB
:102680004525B653B652B651B650B657B6564C4518
:1026900031B655B654B65BB65AB659B65800902BFB
:1026A0009BEEF0A3EFF0A312028AE4902BA0F0A31C
:1026B000F0902B9BE0FEA3E0FF902BA0E0FCA3E0BA
:1026C000FDC39FEC9E5062902B9D1202538D828C15
:1026D000831203A2FDFF904741A3E0122D9FE493D4
:1026E000FA740193FB904741E0122DB3A3E0C45468
:1026F0000F48FFEA6EFEEB6F122D8CEDC4540FFFF6
:10270000122D96ED122D9FEC122DB3EDC4540F48EF
:10271000FFE4936EFE7401936F122D8C902BA0E456
:1027200075F0011204D30226B1227843E22FF21889
:10273000E23EF2783FE2706F7846E2FE08E2FF4E3A
:10274000605F8F828E83A3A3E0FEA3E0FF7842E266
:10275000FC08E2FDD3EF9DEE9C501108E2FC08E27C
:10276000FD7F01122443783F7401F2227846E2FE95
:1027700008E2F5828E83A3A3C083C0827842E2FE82
:1027800008E2FFC3A3E09FFF0582D58202158315EF
:1027900082E09ED082D083F0A3EFF0E418F208F23A
:1027A00022E47842F208F2228E858F848C838D8217
:1027B000EB22E0FFA3E0FEA3E0FDA3E0FCA3759203
:1027C00001221227A8601F1227B2F0A3DB02801695
:1027D000EDF0A3DB02800FEEF0A3DB028008EFF048
:1027E000A3759200DBE1759200221227A8602B12DC
:1027F00027B2EBC394044002ECF0A3EBC394034074
:1028000002EDF0A3EBC394024002EEF0A3EFF0A3BD
:10281000759200EBC39404FB50D575920022C2AFB1
:102820007838E27830F2783BE521F2E518D394036A
:10283000404F7521C77832E2FE08E2FFF5828E83B1
:10284000A3A3A3E07838F2E4783CF2D2AF7838E280
:10285000FD33333354F8FD902AD993F5A574D52D63
:10286000F582E4342AF583E493740193FA740293B5
:10287000F5828A831208F775A501C2AF1222BC80C7
:10288000AA7830E27838F2783BE2F521D2AF228F95
:102890003CE53C7003FEFF229018D5E0F53D853CF9
:1028A0003EE53DC3946050507475253DF582E43497
:1028B00018F583E0703B153EE53E7038C3E53D9565
:1028C0003C04F53D2475F582E43418AF82FEAB3C40
:1028D000AD3C1200439018D5E0B53D03253CF075A2
:1028E000F020E53DA424D6F582E5F03418AF82FE51
:1028F00022853C3E053D80A9120018E4FEFF228F90
:10290000828E83A3A3E024FE60201460331460460B
:10291000240370577823E2FD08E28F828E83CDF086
:10292000A3EDF018EEF208EFF222781FE2FD08E2C4
:102930008F828E83CDF0A3EDF018EEF208EFF22235
:10294000781DE2FD08E28F828E83CDF0A3EDF018B2
:10295000EEF208EFF2227821E2FD08E28F828E8308
:10296000CDF0A3EDF018EEF208EFF2228F668D673E
:102970008A688B69E569456860541222899041E450
:10298000EEF0FCA3EFF0FD9041E4E0FEA3E0FF24B5
:1029900004F582E43EF5837403F0EF2406FFE43E81
:1029A000FE8F82F583E56AF0AA06A9077B019000F5
:1029B00001E566120414900002E567120414900009
:1029C00003E5688569F01205CE7F0612224522E4F0
:1029D000FFEF75F007A424EFF582E43441AD82FCEB
:1029E000EF75F007A424E8F582E43441F583ECF0B8
:1029F000A3EDF00FBF1DDAE49042B3F0A3F07840EE
:102A00007441F20874E8F2E47846F208F2783FF292
:102A10007842F208F21222787844EEF208EFF224BB
:102A200004F582E43EF583E4F022300A1B783CE5AD
:102A300016F27832E2FE08E2F5828E83E0FFA3E030
:102A40007836CFF208EFF22230091B7828E517F22A
:102A50007839E2FE08E2F5828E83E0FFA3E0782673
:102A6000CFF208EFF22230081A782FE519F2782910
:102A7000E2FE08E2F5828E83E0FFA3E0782DCFF23C
:102A800008EFF222EF4E604CC3EF94D6FFEE94189D
:102A9000FEEF7805CEC313CE13D8F9F53C8E3BC3B9
:102AA0009460E53B9400502CAD3C74752DF582E4A8
:102AB0003418AF82FE74752DF582E43418F583E086
:102AC000FBE4FD120043AF3C9018D5E0FEEFC39E3F
:102AD0005002EFF022FF00120201000000FF201759
:102AE0000001000000FFE5C40001000000FFB11973
:102AF0000103000000FFC3C50104000000FF80BE09
:102B00000101000000FF184E0101000000FFEA0370
:102B10000202000000FF51EF0203000000FF00125C
:102B200002010000008F668D678B68122289904138
:102B3000E4EEF0FCA3EFF0FD9041E4E0FEA3E0FF43
:102B40002404F582E43EF5837404F0EF2406FFE4E8
:102B50003EFE8F82F583E568F0AA06A9077B019007
:102B60000001E566120414900002E5671204147F68
:102B70000612224522E4902617F0902617E0FF75F2
:102B8000F007A4240BF582E43441AD82FCEF75F02C
:102B900007A42404F582E43441F583ECF0A3EDF0BE
:102BA000902617E004F0E0B41FD0E49041DDF0A3DC
:102BB000F09041E67441F0A37404F0E4904102F017
:102BC000A3F022AC70AD71AE72AF737810EC4D4EC5
:102BD0004F70047CA57DA5C3EC13FCED13FDEE1333
:102BE000FEEF13FF5010EC64CCFCED644CFDEE6482
:102BF0004EFEEF64CEFFD8DF8C708D718E728F73B6
:102C0000EE547FFE228E708F7174A5F572F57322DB
:102C100078EFE6FC08E6FDF5828C83A3A3A3E0FE33
:102C2000A3E0FF78ABEEF2FE08EFF2FFC2AF8D82B9
:102C30008C837405F078EFE6FC08E68C832409F5B4
:102C400082E43583F583E0FCA3E018A60408F6D2FD
:102C5000AFC2AF9042CBE004F0D2AF22904728E55C
:102C6000A5F075A50390457FEEF0A3EFF022904705
:102C700026EEF0A3EFF0A3E0F5A522904728E5A506
:102C8000F075A50390457FEFF0AF05A3ECF0A3EF3F
:102C9000F022904728E5A5F075A50322904728E08B
:102CA000F5A5228E2D8F2E8F828E83E0FEA3E0FF6E
:102CB0004E700D852E82852D83ECF0A3EDF0801BE8
:102CC0008F828E83E0FAA3E0FB4A6006AE02AF0378
:102CD00080EE8F828E83ECF0A3EDF08D828C83E406
:102CE000F0A3F022D516035318FB783CE270197854
:102CF00032E2FE08E2FFF5828E83E0FDA3E0783643
:102D0000CDF208EDF21228FFE4783CF27836E2FFCB
:102D100008E27832CFF208EFF222D517035318FDFC
:102D20007828E270197839E2FE08E2FFF5828E8396
:102D3000E0FDA3E07826CDF208EDF21228FFE4785A
:102D400028F27826E2FF08E27839CFF208EFF22283
:102D5000D519035318FE782FE270197829E2FE087E
:102D6000E2FFF5828E83E0FDA3E0782DCDF208ED41
:102D7000F21228FFE4782FF2782DE2FF08E278299A
:102D8000CFF208EFF222FFEE4AFEEF4BFF904741F1
:102D9000EEF0A3EFF022904741E0FCA3E0FD226FAC
:102DA000540F25E0FFE433FE74302FF58274313E7A
:102DB000F58322C4F854F0C868FE22D310AF01C3D3
:102DC000C0D0EDF5E9ECF5EAEFF5EBEEF5ECEBF55F
:102DD000EDEAF5EE7404140070FCE5E9E5EAE5EBD4
:102DE000E5ECE5EDFFE5EEFED0D092AF22EF541F0B
:102DF000D39400E49400400FEF7805CEC313CE13B4
:102E0000D8F904F56C800CEF7805CEC313CE13D837
:102E1000F9F56CAF6C12333922902A6912345CAA2E
:102E200006A9077B01C003C002C00190446F1202D3
:102E30005389828A83D001D002D0031208F7902AE6
:102E400069E0F5A522D310AF01C3C0D0EFF5E9EDDD
:102E5000F5EDEEF5EAECF5EE7402140070FC00E519
:102E6000E9FFE5EAFEE5EBFDE5ECFCD0D092AF2210
:102E70007821E2FE08E2FF8E2DF52E452D60168F9B
:102E8000828E83E0FEA3E0FF18EEF2FE08EFF24E22
:102E90007003120017AE2DAF2E22781DE2FE08E25D
:102EA000FF8E2DF52E452D60168F828E83E0FEA3BA
:102EB000E0FF18EEF2FE08EFF24E7003120017AEBC
:102EC0002DAF2E22781FE2FE08E2FF8E2DF52E4553
:102ED0002D60168F828E83E0FEA3E0FF18EEF2FED7
:102EE00008EFF24E7003120017AE2DAF2E2278239A
:102EF000E2FE08E2FF8E2DF52E452D60168F828EA4
:102F000083E0FEA3E0FF18EEF2FE08EFF24E70033E
:102F1000120017AE2DAF2E228E858F848C838D826A
:102F2000EB601EE0FFA3E0FEA3E0FDA3E0A375922B
:102F300001F0A3EDF0A3EEF0A3EFF0A3759200DB98
:102F4000E222AB07902AC5E5A5F075A502AE04AF55
:102F50000575F004EB90411A1207ED12080B8982F7
:102F60008A831208F7902AC5E0F5A522AB07902ABC
:102F7000BEE5A5F075A502AE04AF0575F004EB90B3
:102F800041461207ED12080B89828A831208F790D6
:102F90002ABEE0F5A522AB07902D8EE5A5F075A51C
:102FA00002AE04AF0575F004EB90416A1207ED1212
:102FB000080B89828A831208F7902D8EE0F5A522EE
:102FC000D310AF01C3C0D0EFF5E9EEF5EAEDF5EDB2
:102FD000ECF5EE7402140070FCE5E9FFE5EAFEE5AD
:102FE000EDE5EED0D092AF22D310AF01C3C0D0EF49
:102FF000F5E9EEF5EAEDF5EDECF5EE74021400708E
:10300000FCE5E9E5EAE5EDFFE5EEFED0D092AF2282
:1030100090CAEDEFF0AF05A3ECF0A3EFF0AF03A380
:10302000EAF0A3EFF0902A6AE5A5F075A504127204
:1030300088902A6AE0F5A5228F828E83E0FCA3E0C7
:10304000FDFBAA044A60118D828C83E0FDA3E08F12
:10305000828E83CDF0A3EDF0AE02AF0322F08F821B
:103060008E83E5822407F582E43583F58322F08F91
:10307000828E83E582227E397F637BE27A027D0045
:10308000228E858F848C838D82EA7003EB6015EB32
:103090006003EA04FAE493A3759201F0A375920029
:1030A000DBF3DAF122904729EEF0A3EFF0A3E0F58D
:1030B000A5229045B5EFF0AF05A3ECF0A3EFF0909B
:1030C000472BE5A5F075A503221222789024D6EEB1
:1030D000F0A3EFF09024D6E0FCA3E0FD2404F582F9
:1030E000E43CF5837407F07F08122245228E858F19
:1030F000848C838D82EA7003EB6014EB6003EA0436
:10310000FAE0A3759201F0A3759200DBF4DAF222E3
:103110008E858F848C838D82AF031BEF6010E0A3BC
:10312000FF759201E0A37592006F60ECD322C32279
:1031300000001081210231834204528563067387A7
:1031400084089489A50AB58BC60CD68DE70EF78F37
:10315000E5A5F075A5049046BAEEF0A3EFF0AF0533
:10316000A3ECF0A3EFF022904749EEF0A3EFF0229A
:103170008E858F848C838D82EB60121BE493A3FF7A
:10318000759201E0A37592006F60EDD322C3229087
:103190002AACE5A5F08FA5AE02AF03AA04A9057B72
:1031A000FF12269E120066902AACE0F5A522902B15
:1031B0009EE5A5F075A5059035F512025389828A22
:1031C000831208F7902B9EE0F5A5228E858F848CC4
:1031D000838D827F00EB600EE0A3759201F0A375F2
:1031E00092002FFFDBF222902A6A123150AF03A324
:1031F000EAF0A3EFF012C4AB123167902A6AE0F54F
:10320000A522902ABF123150AF03A3EAF0A3EFF03A
:1032100012AC09123167902ABFE0F5A522904765EC
:10322000E5A5F075A5037B007A047D007C40123093
:1032300081904765E0F5A5228E858F848C838D82F1
:10324000EB600DE493A3759201F0A3759200DBF39C
:1032500022902DA0E5A5F075A505123081902DA036
:10326000E0F5A5A3E0FEA3E0FF228E838F82EA7043
:1032700003EB600DEB6003EA04FAEDF0A3DBFBDA8D
:10328000F9228E858F848C838D82EB600CE0A37590
:103290009201F0A3759200DBF4220000000200040A
:1032A00000100022001F002A003F0054007F00FF92
:1032B000020090472CEEF0A3EFF0A3E0F5A52290DA
:1032C000472EE5A5F075A503221232ED904454EF88
:1032D000F0AF05A3ECF0A3EFF012BF001232E02232
:1032E00090472FEEF0A3EFF0A3E0F5A52290473131
:1032F000E5A5F075A5032290BF17E0F52890BF164D
:10330000E0F52930E7041230C92212362322902B2F
:103310009BE5A5F08FA57ED07F00123081902B9B7E
:10332000E0F5A5221232ED904454EEF0A3EFF01236
:10333000C675904731E0F5A522D20E12288FC20E35
:1033400022D20E122A84C20E220223C0902613E536
:10335000A5F075A50112F4DF902613E0F5A52290E3
:103360002613E5A5F075A502126036902613E0F548
:10337000A522902617E5A5F075A50212E5919026E5
:1033800017E0F5A522902678E5A5F075A50312FDB6
:103390006B902678E0F5A522902678E5A5F075A536
:1033A0000312FD74902678E0F5A522902ABE12340F
:1033B0005C904589123452902ABEE0F5A522902AED
:1033C0006912345C90459C123452902A69E0F5A54C
:1033D00022902A6912345C904699123452902A69DC
:1033E000E0F5A522902A6912345C904732123452DB
:1033F000902A69E0F5A522902ABE12345C904735E8
:10340000123452902ABEE0F5A522902ABF12315004
:1034100012B05D123167902ABFE0F5A522122C92FE
:1034200090457FEFF0A3EDF012E959122C6E2212B5
:1034300032ED904454EEF0A3EFF012FA5F1232E056
:1034400022E49018D5F0FF7F60901875E4F0A3DFB8
:10345000FC2212025389828A830208F7E5A5F075DF
:10346000A50522902A6912345C124100902A69E075
:10347000F5A522902A6BE5A5F012F4EA902A6BE0FC
:10348000F5A522902A6B1238F412F13E902A6BE0D7
:10349000F5A522902A6B1238F412F571902A6BE090
:1034A000F5A522902A6B1238F41240FD902A6BE0A9
:1034B000F5A522902A6B1238F412C19D902A6BE078
:1034C000F5A522902A6B1238F41296A7902A6BE089
:1034D000F5A52202F0041305360659077C089F095A
:1034E000C20AE59047581238FB128BFF904758E00C
:1034F000F5A5229047591238FB12C854904759E05D
:10350000F5A52290475A1238FB12C83F90475AE05F
:10351000F5A52290475B1238FB12843090475BE0A0
:10352000F5A522902ABE1238FB12A8A2902ABEE06E
:10353000F5A52290475C1238FB12C6D590475CE097
:10354000F5A52290475D1238FB12B63890475DE032
:10355000F5A52290475E1238FB12AFAF90475EE0B0
:10356000F5A52290475F1238FB12B93E90475FE005
:10357000F5A5229047601238FB12B743904760E0F0
:10358000F5A5229047611238FB129242904761E004
:10359000F5A5229047621238FB12C86E904762E090
:1035A000F5A5229047631238FB12A4DF904763E031
:1035B000F5A5229047641238FB12C76A904764E071
:1035C000F5A52244B54E51F1F2122CE90DCBAF2AEC
:1035D000DF564E1232ED904454EFF012FB211232BE
:1035E000E02285A54075A50112F2938540A522121F
:1035F0002C5C122C8912F229122C9C229045B512B7
:1036000030BD12F3161230A5228D1EEF7007C2AF27
:10361000120050D2AF220104070A0C0F1215181B1A
:103620001E212485A52A75A50112848A852AA52232
:10363000E4903962F0120EF1E4FEFF22C2AFE49092
:103640004701F0A3F0D2AF228F828E83740FF0E493
:10365000FEFF2275A50412C87175A5012275A50388
:1036600012CB3375A5012275A50112FC6675A50163
:103670002275A50112DC1D75A5012275A502128E09
:103680003675A5012275A50212EA5375A5012275AA
:10369000A50212EECA75A5012275A502127F547506
:1036A000A5022275A5021295C775A5022275A5036C
:1036B00012E1FB75A50122122C7B12EEE2122C6E98
:1036C00022122C5C12F2DB122C6E22122C5C12FAEB
:1036D0000D122C9C22122C5C12F56B122C6E2212F5
:1036E0002C5C12C04B122C6E22122C5C12D60A12C9
:1036F0002C6E22122C5C12F173122C6E22122C5C96
:1037000012C53D122C6E22122C9212F82B122C6E26
:1037100022122C5C12F59E122C6E22122C5C12CE00
:1037200063122C6E22122C9212F855122C6E221259
:103730002C5C12FBBD122C9C22122C5C12FC4C1235
:103740002C9C22122C7B12E837122C6E22122C5C3D
:1037500012E019122C6E22122C9212F34E122C6EC1
:1037600022122C5C12F5D1122C6E22122C5C12A7A4
:1037700079122C6E22122C9212F940122C6E221207
:103780002C7B12A98C122C6E22122C7B12F3861227
:103790002C6E22122C5C12F0F6122C6E22122C923D
:1037A00012FAAB122C6E22122C5C12E6F7122C6E5F
:1037B00022122C5C12E763122C6E2290459C12029E
:1037C0008AE4FEFF221230BF12FC3F1230A5221203
:1037D00030BF12FD111230A5221230BF12FD1A1295
:1037E00030A5221230BF12F6C91230A5221230BF06
:1037F00012FC961230A5221230BF12FCA21230A584
:10380000221230BF12FD231230A5221230BF12FB4C
:10381000AB1230A5221230B212EFB11230A5221233
:1038200030BF12F8CE1230A5221230BF12FD2C127A
:1038300030A5221230B212F2A01230A5221230BFEF
:1038400012F9F01230A5221230BF12FD351230A548
:10385000221230BF12FD3E1230A5221230BF12FCE0
:10386000AE1230A5221230BF12FCBA1230A52212BD
:1038700030BF12F7801230A5221230BF12FCC612E0
:1038800030A5221232BF12ED761232B2221232BFAE
:1038900012FADC1232B2221232BF12FD501232B2D0
:1038A000221232BF12FB5E1232B2221232BF12FC5F
:1038B000591232B2221232BF12FD591232B2221202
:1038C00032ED12FA291232E0221232ED12FCDE122F
:1038D00032E0221232ED12FBCF1232E0220001431D
:1038E00043C7C7C7C706000206390000027574D86F
:1038F00075750022E5A5F075A50522E5A5F075A56D
:103900000422120EF102400090458902028A90467C
:103910009902028A90446F02028A90473202028A18
:0C39200090473502028A00000000000001
:1040000003020504070609080B0A0D0C0F0EE478DD
:104010009AF208F208F208F208F208F208F208F23E
:1040200008F208F208F278A9F208F275F010EFA48D
:1040300024CEF582E5F0342EF5832FAD82F55D8D2B
:104040005EEF75F00DA4248678DDF67859E2640100
:1040500070030256A178DDE6FF2407F8860308E620
:10406000FA08E64A4B6042A807E8240AF8860308E3
:10407000E6FA08E64A4B703178DDE6FF2407F808D7
:10408000E608E678BEF67B007A007900C003C0023D
:10409000C001A807E82407F8860308E6FA08E6F94D
:1040A00090000A12084702416178DDE6FF2407F814
:1040B000860308E6FA08E64A4B7033A807E8240AA4
:1040C000F8860308E6FA08E64A4B60227B007A008D
:1040D0007900C003C002C001A807E8240AF88603DB
:1040E00008E6FA08E6F9900007120847807378DDC1
:1040F000E6FF2407F8860308E6FA08E64A4B606103
:10410000A807E8240AF8860308E6FA08E64A4B609E
:1041100050A807E8240AF8860308E6FA08E6F9C07A
:1041200003C002C001A807E82407F8860308E6FADE
:1041300008E6F990000A120847A807E82407F8865D
:104140000308E6FA08E6F9C003C002C001A807E8C0
:10415000240AF8860308E6FA08E6F9900007120830
:1041600047789CE260030256A178BEE6F978DE76D5
:104170000008760008A601E4789EF278DE8603083F
:10418000E6FA08E6F9900007120817E94A4B7010A2
:10419000789A04F278E17600087600087600801AB2
:1041A00078DE860308E6FA08E6F990000712081799
:1041B00078E1A60308A60208A601789AE270517871
:1041C000E1860308E6FA08E6F99000061203A2FF6A
:1041D00075F010A424F5F582E5F0342EF5832FF563
:1041E00083E0FEA3E0FF78DDE62406F8E6FD75F047
:1041F00010A424F5F582E5F0342EF5832DF583E047
:10420000FCA3E0FDC3EF9D78A4F2EE9C18F28008B9
:1042100078A3E4F20874FFF278DE860308E6FA0871
:10422000E6F99000061203A2FF75F010A424F5F53C
:1042300082E5F0342EF5832FF583E0FEA3E0FF78CE
:10424000DDE62406F8E6FD75F010A424F5F582E518
:10425000F0342EF5832DF583E0FCA3E0FDC39FFF32
:10426000EC9EFE78A1F208EFF2C3EE9400407BE2F0
:1042700094FF18E2947F407278A3E2FE08E2FFD335
:104280009400EE94004063EF94FFEE947F505B78CF
:10429000DE860308E6FA08E6F9C0038A8389827895
:1042A000BEE6F97A007B00D0E07007E96582700213
:1042B000E5837004789E04F278DE860308E6FA0847
:1042C000E6F99000061203A2FF75F010A424F5F59C
:1042D00082E5F0342EF5832FF583E0FEA3E0C39D45
:1042E00078A4F2EE9C18F202436D78A1E2FE08E297
:1042F000FFC3EE9400401CEF94FFEE947F5014082F
:10430000E2FE08E2FFC3EE94004008EF94FFEE9453
:104310007F405A789AE26401605378DE860308E6AB
:10432000FA08E6F990000712081778DEA60308A637
:104330000208A601900007120817E94A4B7011788D
:104340009A04F278E176000876000876000241BA15
:1043500078DE860308E6FA08E6F9900007120817E7
:1043600078E1A60308A60208A6010241BA789AE2FB
:104370007003024895789EE2600302489578DE86D5
:104380000308E6FA08E6F99000051203A2FF7E0092
:1043900078A1E2FC08E2FDD39FEC9E400302455663
:1043A000C3EF9DFDEE9CFC78DDE62406F8E6FB7588
:1043B000F010A424EFF582E5F0342EF5832BF5837D
:1043C000A3E025E0FF0582D5820215831582E03344
:1043D000FEC3ED9FEC9E400302448575F010EBA4F4
:1043E00024F9F582E5F0342EF5832BF583E030E2F5
:1043F0004A78DDE62406F8E6FF75F010A424EBF514
:1044000082E5F0342EF5832FF583E0FCA3E0FD7800
:10441000A0E2FB7A00ED2BFDEA3CFC75F010EFA466
:104420002403F582E5F0342FF5832FF583E0FEA316
:10443000E06D7002EE6C700302455678A0E204F263
:1044400078DDE62406F8E6FD75F010A424EFF58289
:10445000E5F0342EF5832DF583A3E025E0FF0582FA
:10446000D5820215831582E033FE75F010EDA42489
:10447000F5F582E5F0342EF5832DF583EE8FF012FD
:1044800004D302455678DE860308E6FA08E6F9907A
:1044900000051203A2FF78A1E2FC08E2FDC3EF9D34
:1044A00078AAF2E49C18F29000061203A2FF75F0BD
:1044B00010A424EFF582E5F0342EF5832FF583E088
:1044C000FCA3E0FD78A9E2FE08E2FF122FC0789F6E
:1044D000EFF278DE860308E6FA08E6F990000612A5
:1044E00003A2FF75F010A424EFF582E5F0342EF559
:1044F000832FF583E0FCA3E0FD78A9E2FE08E2FF4C
:10450000122FE8EF4E6005789FE204F2789FE2FFF9
:1045100008E22FF278DDE62406F8E6FB75F010A439
:1045200024EFF582E5F0342EF5832BF583E0FCA330
:10453000E0FD7E00120436EF25E0FFEE33FE75F05D
:1045400010EBA424F5F582E5F0342EF5832BF583EA
:10455000EE8FF01204D378DDE6FB2406F8E6FA7558
:10456000F010A424EFF582E5F0342EF5832AF583CC
:10457000E0FCA3E0FD78A0E2F9FF7E00120436EF34
:1045800025E0FFEE33FE75F010EAA424F3F582E592
:10459000F0342EF5832AF583EE8FF01204D3E9FF71
:1045A000A803E82406F8E6FD75F010A424EBF582D4
:1045B000E5F0342EF5832DF583E48FF01204D378E3
:1045C0009BE2700302484678DDE62406F8E6FF75B4
:1045D000F010A4240EF582E5F0342FF5832FF58337
:1045E000E0FCA3E0FD78A0E2FBC3ED9BEC9400505F
:1045F0000302469B75F010EFA4240EF582E5F0341B
:104600002FF5832FF583C083C082E2FF7E00C3A312
:10461000E09FFF0582D5820215831582E09ED0823D
:10462000D083F0A3EFF078DDE6FF2406F8E6FE7510
:10463000F010A4240EF582E5F0342FF5832EF583D7
:10464000E0FCA3E0FD75F010EEA4240CF582E5F08B
:10465000342FF5832EF583E0FAA3E0C39DFDEA9C99
:10466000FCA807E82402F8E67E002DFFEE3CFE7869
:10467000DDE62406F8E6FD75F010A424EFF582E5EA
:10468000F0342EF5832DF583E0FCA3E0FD122E45DA
:1046900078DDE6F8A60608A607801D78DDE6240684
:1046A000F8E6FF75F010A4240EF582E5F0342FF53E
:1046B000832FF583E4F0A3F078DDE62406F8E6FF27
:1046C00075F010A4240EF582E5F0342FF5832FF554
:1046D00083E0FEA3E04E60030247711222788E5FF2
:1046E0008F608F828E83E5822404F582E43583F522
:1046F000837402F078DDE62406F8E64480FFE56086
:104700002405F582E4355FF583EFF08E83E56024C0
:1047100006F582E43583F5837405F0E55E2442F501
:1047200082E4355DF583E07021C23C8E83E5602430
:1047300007F582E43583F583E4F0E55E2417F5821E
:10474000E4355DF583743EF0801BE5602407F58257
:10475000E4355FF583E4F0E55E2417F582E4355D2A
:10476000F5837408F0AD60AC5F7F03122245024808
:104770004678DDE6FB2406F8E6FA75F010A424CFAF
:10478000F582E5F0342EF5832AF583E0644060037A
:1047900002484690BE17E04403F075F010EAA424E6
:1047A000EFF582E5F0342EF5832AF583E0FCA3E0F3
:1047B000FD78A0E2FF7E00120436A80308EF26F67B
:1047C00018EE36F690BE08E0FCA3E0FDA3E0FEA3E1
:1047D000E0FF780112076778A7EEF208EFF278DDC4
:1047E000E62406F8E6FD75F010A424F5F582E5F060
:1047F000342EF5832DF583E0FEA3E0FF78A7E2FADF
:1048000008E2FBC3EF9BFFEE9AFE7855E2FBC3EF95
:104810009BFFEE9400FE78A5F208EFF2C3EE94F051
:104820005024903560E0FF90BE2BE0C39FF55FC33E
:1048300013F55FFFE22FF218E23400F2E2FA08E229
:10484000FB7F161222EF789C7401F27B007A0079CC
:104850000078DDE6FF2407F8A60308A60208A601F3
:1048600078DE860308E6FA08E6F9A807E8240AF8DD
:10487000A60308A60208A6017A00A9077B00C003C8
:10488000C002C00178DE860308E6FA08E6F9900067
:10489000071208472278DDE62406F8E6FF75F010D7
:1048A000A424F9F582E5F0342EF5832FF583E0306A
:1048B000E243E675F010A424EBF582E5F0342EF522
:1048C000832FF583E0FCA3E0FD78A0E2FB7A00ED06
:1048D0002BFDEA3CFC75F010EFA42403F582E5F013
:1048E000342FF5832FF583E0FEA3E06D7002EE6CAC
:1048F0007003024D6F78DE860308E6FA08E6F99049
:1049000000051203A2FFD378A2E29F18E2940040B0
:1049100003024D5778DDE6FB2406F8E6FA75F01041
:10492000A424EFF582E5F0342EF5832AF583A3E085
:1049300025E0FF0582D5820215831582E033FEEF64
:104940002403FFE43EFED378A4E29F18E29E5003C6
:10495000024D52789C7401F278A0E204F275F010D6
:10496000EAA424EFF582E5F0342EF5832AF583E0FE
:10497000FCA3E0FDE2F9FF7E00120436EF25E0FF24
:10498000EE33FE75F010EAA424F3F582E5F0342E40
:10499000F5832AF583EE8FF01204D3A803E82406EA
:1049A000F8E6FD75F010A424EFF582E5F0342EF55D
:1049B000832DF583A3E025E0FF0582D582021583D0
:1049C0001582E033FE75F010EDA424F5F582E5F0D4
:1049D000342EF5832DF583EE8FF01204D3E9FF78A2
:1049E000DDE6FD2406F8E6FC75F010A424EBF58264
:1049F000E5F0342EF5832CF583E48FF01204D3E434
:104A000078A0F2789BE27003024CCAA805E824065D
:104A1000F8E6FF75F010A4240EF582E5F0342FF5CA
:104A2000832FF583E0FCA3E0FD78A0E2FBC3ED9BC0
:104A3000EC94005003024ADF75F010EFA4240EF549
:104A400082E5F0342FF5832FF583C083C082E2FF27
:104A50007E00C3A3E09FFF0582D5820215831582E5
:104A6000E09ED082D083F0A3EFF078DDE6FF24064D
:104A7000F8E6FE75F010A4240EF582E5F0342FF56B
:104A8000832EF583E0FCA3E0FD75F010EEA4240C6A
:104A9000F582E5F0342FF5832EF583E0FAA3E0C329
:104AA0009DFDEA9CFCA807E82402F8E67E002DFFA5
:104AB000EE3CFE78DDE62406F8E6FD75F010A42451
:104AC000EFF582E5F0342EF5832DF583E0FCA3E0CD
:104AD000FD122E4578DDE6F8A60608A607801D78AB
:104AE000DDE62406F8E6FF75F010A4240EF582E555
:104AF000F0342FF5832FF583E4F0A3F078DDE6247E
:104B000006F8E6FF75F010A4240EF582E5F0342FC8
:104B1000F5832FF583E0FEA3E04E6003024BB51250
:104B200022788E5F8F608F828E83E5822404F582E7
:104B3000E43583F5837402F078DDE62406F8E64474
:104B400080FFE5602405F582E4355FF583EFF08EA4
:104B500083E5602406F582E43583F5837405F0E58A
:104B60005E2442F582E4355DF583E07021C23C8E1F
:104B700083E5602407F582E43583F583E4F0E55EA0
:104B80002417F582E4355DF583743EF0801BE56003
:104B90002407F582E4355FF583E4F0E55E2417F53C
:104BA00082E4355DF5837408F0AD60AC5F7F03127D
:104BB0002245024CCA78DDE6FA2406F8E6FE75F0D6
:104BC00010A424CFF582E5F0342EF5832EF583E092
:104BD00064406003024CCA90BE17E04403F078DDE5
:104BE000E6FB75F010EEA424EFF582E5F0342EF527
:104BF000832EF583E0FCA3E0FD78A0E2FF7E0012A7
:104C00000436A80308EF26F618EE36F6A802E824C4
:104C100006F8E6FB75F010A424CDF582E5F0342FFC
:104C2000F5832BF583E0B4011C90BE00E0FCA3E00B
:104C3000FDA3E0FEA3E0FF780112076778A7EEF27C
:104C400008EFF2801A90BE08E0FCA3E0FDA3E0FEAE
:104C5000A3E0FF780112076778A7EEF208EFF2757C
:104C6000F010EBA424F3F582E5F0342EF5832BF558
:104C700083E0FEA3E0FF78A7E2FC08E2FDC3EF9D1E
:104C8000FFEE9CFE7855E2FDC3EF9DFFEE9400FE23
:104C900078A5F208EFF2C3EE94F0502E903560E064
:104CA000FF90BE2BE0C39FF55FC313F55FFFE22FBC
:104CB000F218E23400F278DDE62406F8E6FD78A585
:104CC000E2FA08E2FB7F161222EF78DE860308E69E
:104CD000FA08E6F990000712081778DDE6FF2407C6
:104CE000F8A60308A60208A60178DE860308E6FAFD
:104CF00008E6F9A807E8240AF8A60308A60208A609
:104D0000017A00A9077B00C003C002C00178DE86DB
:104D10000308E6FA08E6F9900007120847A807E832
:104D20002407F8860308E6FA08E64A4B70030256A1
:104D3000A17A00A9077B00C003C002C001A807E850
:104D40002407F8860308E6FA08E6F990000A120834
:104D50004722789D7401F278DDE62405F8E6FFD35A
:104D600078A4E29F18E294005005789D7402F278CE
:104D70009DE2FF700302529DB4011678DE8603089F
:104D8000E6FA08E6F978E4A60308A60208A6018078
:104D900045EF6402704078E1860308E6FA08E6F918
:104DA00008A60308A60208A60178E4860308E6FA26
:104DB00008E64A4B7020789EE2B4011A789AE2B471
:104DC000011478DE860308E6FA08E6F978E4A6031B
:104DD00008A60208A60178DDE6FB2406F8E6FF75C2
:104DE000F010A424EFF582E5F0342EF5832FF5833F
:104DF000E0FCA3E0FD78A0E2FF7E001204368E5FA7
:104E00008F60A80308E62560FF18E6355FFE78E4AA
:104E1000860308E6FA08E6F91204FFFDD3EF9DEEDB
:104E200095F0500302524DE56025E0FFE55F33FE4B
:104E300078DDE6FD2406F8E6FC75F010A424F3F511
:104E400082E5F0342EF5832CF583EE8FF01204D337
:104E500078A0E2FFA805E82406F8E6FD75F010A4A6
:104E600024EBF582E5F0342EF5832DF583E48FF005
:104E70001204D390000274031203CF789BE27003F4
:104E800002512478DDE62406F8E6FF75F010A4242C
:104E90000EF582E5F0342FF5832FF583E0FCA3E0D7
:104EA000FD78A0E2FBC3ED9BEC94005003024F574A
:104EB00075F010EFA4240EF582E5F0342FF5832F62
:104EC000F583C083C082E2FF7E00C3A3E09FFF059D
:104ED00082D5820215831582E09ED082D083F0A312
:104EE000EFF078DDE6FF2406F8E6FE75F010A42466
:104EF0000EF582E5F0342FF5832EF583E0FCA3E078
:104F0000FD75F010EEA4240CF582E5F0342FF58346
:104F10002EF583E0FAA3E0C39DFDEA9CFCA807E818
:104F20002402F8E67E002DFFEE3CFE78DDE6240646
:104F3000F8E6FD75F010A424EFF582E5F0342EF5C7
:104F4000832DF583E0FCA3E0FD122E4578DDE6F825
:104F5000A60608A607801D78DDE62406F8E6FF759C
:104F6000F010A4240EF582E5F0342FF5832FF5839D
:104F7000E4F0A3F078DDE62406F8E6FF75F010A46F
:104F8000240EF582E5F0342FF5832FF583E0FEA3A0
:104F9000E04E600302502D1222788E618F628F8264
:104FA0008E83E5822404F582E43583F5837402F070
:104FB00078DDE62406F8E64480FFE5622405F58204
:104FC000E43561F583EFF08E83E5622406F582E433
:104FD0003583F5837405F0E55E2442F582E4355DA2
:104FE000F583E07021C23C8E83E5622407F582E4FC
:104FF0003583F583E4F0E55E2417F582E4355DF54D
:1050000083743EF0801BE5622407F582E43561F588
:1050100083E4F0E55E2417F582E4355DF5837408DA
:10502000F0AD62AC617F0312224502512478DDE6C7
:105030002406F8E6FF75F010A424CFF582E5F034DD
:105040002EF5832FF583E06440600302512490BE67
:1050500017E04403F0000078DDE6FFF808E560267D
:10506000F618E55F36F6A807E82406F8E6FB75F0C3
:1050700010A424CDF582E5F0342FF5832BF583E0E1
:10508000B4011C90BE00E0FCA3E0FDA3E0FEA3E0A1
:10509000FF780112076778A7EEF208EFF2801A9006
:1050A000BE08E0FCA3E0FDA3E0FEA3E0FF78011250
:1050B000076778A7EEF208EFF275F010EBA424F37F
:1050C000F582E5F0342EF5832BF583E0FEA3E0FFB7
:1050D00078A7E2FC08E2FDC3EF9DFFEE9CFE785549
:1050E000E2FDC3EF9DFFEE9400FE78A5F208EFF21B
:1050F000C3EE94F0502E903560E0FF90BE2BE0C3DD
:105100009FF561C313F561FFE22FF218E23400F25C
:1051100078DDE62406F8E6FD78A5E2FA08E2FB7FF2
:10512000161222EF78E4860308E6FA08E6F9C003CF
:105130008A83898278BEE6F97A007B00D0E0700726
:10514000E965827002E583700678DDE678BEF67860
:10515000DDE6F978E7760008760008A60178E486AF
:105160000308E6FA08E6F990000A120817C003C01F
:1051700002C00178E7860308E6FA08E6F990000A1B
:1051800012084778E4860308E6FA08E6F990000773
:10519000120817C003C002C00178E7860308E6FAC8
:1051A00008E6F990000712084778E7860308E6FA50
:1051B00008E6F9900007120817E94A4B602678E7DD
:1051C000860308E6FA08E6F9C003C002C00178E7E2
:1051D000860308E6FA08E6F990000712081790001F
:1051E0000A12084778E7860308E6FA08E6F990000D
:1051F0000A120817E94A4B602678E7860308E6FAA0
:1052000008E6F9C003C002C00178E7860308E6FAA1
:1052100008E6F990000A120817900007120847786C
:10522000E408E608E6FF78DDF6FF240AF8760008D1
:105230007600087600A807E82407F87600087600CC
:10524000087600E478A0F2789B04F2804778A0E228
:1052500004F278DDE62406F8E6FD75F010A424EFEC
:10526000F582E5F0342EF5832DF583A3E025E0FFEC
:105270000582D5820215831582E033FE75F010EDAC
:10528000A424F5F582E5F0342EF5832DF583EE8F19
:10529000F01204D3E4789EF218F202416178DDE660
:1052A000FB2406F8E6FA75F010A424EFF582E5F089
:1052B000342EF5832AF583E0FCA3E0FD78A0E2F923
:1052C000FF7E00120436EF25E0FFEE33FE75F0108E
:1052D000EAA424F3F582E5F0342EF5832AF583EE73
:1052E0008FF01204D3E9FFA803E82406F8E6FD7561
:1052F000F010A424EBF582E5F0342EF5832DF58330
:10530000E48FF01204D3789BE270030255CD78DD70
:10531000E62406F8E6FF75F010A4240EF582E5F009
:10532000342FF5832FF583E0FCA3E0FD78A0E2FBAA
:10533000C3ED9BEC940050030253E275F010EFA410
:10534000240EF582E5F0342FF5832FF583C083C05A
:1053500082E2FF7E00C3A3E09FFF0582D582021593
:10536000831582E09ED082D083F0A3EFF078DDE653
:10537000FF2406F8E6FE75F010A4240EF582E5F091
:10538000342FF5832EF583E0FCA3E0FD75F010EEDD
:10539000A4240CF582E5F0342FF5832EF583E0FA92
:1053A000A3E0C39DFDEA9CFCA807E82402F8E67E82
:1053B000002DFFEE3CFE78DDE62406F8E6FD75F0F4
:1053C00010A424EFF582E5F0342EF5832DF583E06B
:1053D000FCA3E0FD122E4578DDE6F8A60608A60738
:1053E000801D78DDE62406F8E6FF75F010A4240E93
:1053F000F582E5F0342FF5832FF583E4F0A3F07800
:10540000DDE62406F8E6FF75F010A4240EF582E52B
:10541000F0342FF5832FF583E0FEA3E04E60030206
:1054200054B81222788E5F8F608F828E83E582243B
:1054300004F582E43583F5837402F078DDE6240612
:10544000F8E64480FFE5602405F582E4355FF583E6
:10545000EFF08E83E5602406F582E43583F58374EE
:1054600005F0E55E2442F582E4355DF583E07021C8
:10547000C23C8E83E5602407F582E43583F583E43E
:10548000F0E55E2417F582E4355DF583743EF08027
:105490001BE5602407F582E4355FF583E4F0E55E03
:1054A0002417F582E4355DF5837408F0AD60AC5FD8
:1054B0007F031222450255CD78DDE6FA2406F8E690
:1054C000FE75F010A424CFF582E5F0342EF5832E7E
:1054D000F583E0644060030255CD90BE17E04403BD
:1054E000F078DDE6FB75F010EEA424EFF582E5F030
:1054F000342EF5832EF583E0FCA3E0FD78A0E2FFD7
:105500007E00120436A80308EF26F618EE36F6A839
:1055100002E82406F8E6FB75F010A424CDF582E538
:10552000F0342FF5832BF583E0B4011C90BE00E02E
:10553000FCA3E0FDA3E0FEA3E0FF7801120767787B
:10554000A7EEF208EFF2801A90BE08E0FCA3E0FD9F
:10555000A3E0FEA3E0FF780112076778A7EEF20848
:10556000EFF275F010EBA424F3F582E5F0342EF59C
:10557000832BF583E0FEA3E0FF78A7E2FC08E2FDC1
:10558000C3EF9DFFEE9CFE7855E2FDC3EF9DFFEE5D
:105590009400FE78A5F208EFF2C3EE94F0502E903E
:1055A0003560E0FF90BE2BE0C39FF55FC313F55F4E
:1055B000FFE22FF218E23400F278DDE62406F8E686
:1055C000FD78A5E2FA08E2FB7F161222EF789EE250
:1055D000604F7B007A00790078DDE6FF240AF8A6A8
:1055E0000308A60208A60178DE860308E6FA08E6A4
:1055F000F9A807E82407F8A60308A60208A6017A76
:1056000000A9077B00C003C002C00178DE86030842
:10561000E6FA08E6F990000A12084778BEA6078065
:105620007878DDE6FF7A00F97B00C003C002C00194
:1056300008860308E6FA08E6F9900007120847789A
:10564000E1860308E6FA08E6F9A807E82407F8A6C1
:105650000308A60208A60178DE860308E6FA08E633
:10566000F978DDE6FF240AF8A60308A60208A601D9
:1056700078E1860308E6FA08E64A4B601C7A00A93E
:10568000077B00C003C002C00178E1860308E6FA88
:1056900008E6F990000A120847E478A0F2789C0422
:1056A000F222E4F548F549F54AF54B78BEE678DC98
:1056B000F6E4F545F5477859E2FFE547C39F5021E9
:1056C00078DCE6FF2406F8E6FE744C2547F8A606CB
:1056D000A807E82407F808E608E678DCF60547801E
:1056E000D5E4F5477859E2FFE547C39F4003025EE2
:1056F00064744C2547F8E6F546FF75F010A424CEF7
:10570000F582E5F0342EF5832FF583E020E70302E0
:105710005E5F75F010EFA424CEF582E5F0342EF52F
:10572000832FAF82F5528F53054990BE17E0440294
:10573000F00000000090BE00E0FCA3E0FDA3E0FE4E
:10574000A3E0FF78011207678E508F518553828541
:105750005283A3E0F545B40218E55324B8F582E47A
:105760003552F583E0600AAF46129290AF46124080
:105770000E90457CE07003025A3FE55324FFF5820A
:10578000E43552F583E0702012FD5690BE08E0FC2F
:10579000A3E0FDA3E0FEA3E0FF78011207679026D7
:1057A00000EEF0A3EFF0804190BE177402F000000D
:1057B000000090BE00E0FCA3E0FDA3E0FEA3E0FF3C
:1057C0007801120767902600EEF0A3EFF0E553246E
:1057D000B8F582E43552F583E0700E902601E004BE
:1057E000F07006902600E004F0E5532425F582E4ED
:1057F0003552F583E0FEA3E0FFC3902601E09FFF52
:10580000902600E09EFE902604F0A3EFF0EE54F008
:1058100060030259B69025FEF0A3F0E55324FFF58E
:1058200082E43552F583E064016003025914E553C4
:1058300024B9F582E43552F583E06401600302592E
:1058400014E55324B8F582E43552F583E070030281
:105850005914E5532421F582E43552F583A3E0255C
:10586000E0FD0582D5820215831582E033FCE55305
:105870002423F582E43552F583E0FEA3E02401FF02
:10588000E43EFE120436AA06AB07902604E0FEA30F
:10589000E0FFAD03AC02120448EF2401FFE43EFE3A
:1058A0009025FEF0FCA3EFF0FDAF03AE021204362C
:1058B000E5532425F582E43552F583EE8FF012048A
:1058C000D3E5532421F582E43552F583A3E025E0A6
:1058D000FD0582D5820215831582E033FCE5532451
:1058E00023F582E43552F583E0FEA3E02401FFE4D2
:1058F0003EFE1204369025FEE0FCA3E0FD120436C5
:10590000E5532427F582E43552F583EE8FF0120437
:10591000D302599DE5532421F582E43552F583A342
:10592000E025E0FB0582D5820215831582E033FA7B
:10593000902604E0FEA3E0FFAD03AC02120448EFA2
:105940002401FFE43EFE9025FEF0A3EFF0AD03AC92
:1059500002120436E5532425F582E43552F583EE30
:105960008FF01204D3E5532421F582E43552F583F8
:10597000A3E025E0FF0582D5820215831582E0337E
:10598000FE9025FEE0FCA3E0FD120436E55324273B
:10599000F582E43552F583EE8FF01204D39025FEA4
:1059A000E0FEA3E0FFE553241DF582E43552F583C4
:1059B000EE8FF01204D3E5532425F582E43552F539
:1059C00083E0FEA3E0FF902600E0FCA3E0FDC3EF30
:1059D0009DFFEE9CFE7855E2FDC3EF9DFFEE940027
:1059E000FEA3F0A3EFF04E600CD3E094FF902602EC
:1059F000E0947F40361222788E548F558F828E83AA
:105A0000E5822404F582E43583F5837416F08F82F1
:105A10008E83E5822405F582E43583F583E546F03F
:105A2000AD55AC547F02122245800F902602E0FA59
:105A3000A3E0FBAD467F161222EFE490457CF0E533
:105A40004524F87003025AE424F87003025AF02443
:105A5000D0604A243E6003025E5FE55324B8F582BD
:105A6000E43552F583E0700AAF46129290AF4612C9
:105A7000400E05487875E254EFF2AF4612C65F1249
:105A8000F96975F010E546A424DCF582E5F0342FC1
:105A9000F5832546F583E054FEF0025E5FE553246E
:105AA000FFF582E43552F583E064017024E5532468
:105AB00048F582E43552F583E0FF54076013EF2088
:105AC000E40FE55324B9F582E43552F583E020E094
:105AD0000B903FE3E054037003025E5FAF46128F0A
:105AE00045025E5F855382855283A37410F0D23ED7
:105AF000E55324B7F582E43552F583E0F4600EE512
:105B00005324B7F582E43552F583E014F0E55324CD
:105B100025F582E43552F583E0FEA3E0655170037C
:105B2000EE65506003025DBBE55324B7F582E435B2
:105B300052F58374FFF0E553242BF582E43552F5DA
:105B400083E020E203025D1CE553241DF582E43569
:105B500052F583E0FEA3E0FFE5532435F582E435FA
:105B600052F583E0FCA3E06F7002EC6E6003025D0F
:105B70001CE5532438F582E43552F583E0FEA3E0BA
:105B8000FFE553243EF582E43552F583EEF0A3EFB2
:105B9000F0E553242BF582E43552F583E054FBF015
:105BA000855382855283E04410F0E58224B9F58262
:105BB000E43583F583E0B4041DE55324FFF582E466
:105BC0003552F583E0B4010EE55324B9F582E4358E
:105BD00052F5837401F0E553242FF582E43552F534
:105BE00083E0FEA3E0FFE5532421F582E43552F57E
:105BF00083E0FCA3E06F7002EC6E601EE55324218D
:105C0000F582E43552F583EEF0A3EFF0E553243747
:105C1000F582E43552F5837401F0E5532431F582C1
:105C2000E43552F583E0FEA3E0FFE5532423F5823B
:105C3000E43552F583E0FCA3E06F7002EC6E601E69
:105C4000E5532423F582E43552F583EEF0A3EFF01B
:105C5000E5532437F582E43552F5837401F0E553BA
:105C60002433F582E43552F583E0FEA3E0FFE553EB
:105C7000243CF582E43552F583E0FCA3E06F70022A
:105C8000EC6E6050E553243CF582E43552F583EE2A
:105C9000F0A3EFF0E5532438F582E43552F583E0C4
:105CA000FEA3E0FFE553243EF582E43552F583EE92
:105CB000F0FEA3EFF0FFE5532440F582E43552F502
:105CC00083EEF0A3EFF0E5532437F582E43552F587
:105CD000837401F0E553242DF582E43552F583C039
:105CE00083C082A3E025E0FF0582D58202158315DB
:105CF00082E033D082D083F0A3EFF0E55324BBF5EC
:105D000082E43552F583E0FF64016008EF640860C7
:105D100003025E5FAF4612F240025E5FE55324214C
:105D2000F582E43552F583A3E025E0FF0582D582B4
:105D30000215831582E033FEE5532425F582E43510
:105D400052F583EE8FF01204D3E5532421F582E45B
:105D50003552F583A3E025E0FF0582D58202158345
:105D60001582E033FEE5532427F582E43552F583AE
:105D7000EE8FF01204D3E55324EEF582E43552F5AC
:105D800083E0601985538285528374C0F0E58224D4
:105D9000EEF582E43583F583E4F0025E5F8553829D
:105DA000855283E0FF549064907003025E5F8553D8
:105DB00082855283EF44C0F0025E5FE55324B7F55D
:105DC00082E43552F583E06003025E5FE553241DF3
:105DD000F582E43552F583E475F0011204D3E553FE
:105DE0002421F582E43552F583A3E025E0FF058206
:105DF000D5820215831582E033FEE5532425F58212
:105E0000E43552F583EE8FF01204D3E5532421F5E7
:105E100082E43552F583A3E025E0FF0582D58202B6
:105E200015831582E033FEE5532427F582E43552CD
:105E3000F583EE8FF01204D305487875E254EFF243
:105E40007852E2547FF2904572E054FEF0700312F3
:105E5000F93DAF4612400EAF4612C65F12F9690512
:105E6000470256E4228F38E5381208A05EB2005F80
:105E7000B101603102605403607E0460880560C82F
:105E80000661D40761D70861DA09623D0A627A0BBC
:105E900062C80C63560D61D70E64370F6437106308
:105EA0002411656812656B13657F14657F1500000A
:105EB00065E912E46A12E7CFFF24ED12E7AEE05481
:105EC000FBF0EF241F12E7AEE0FEA31812E80D244A
:105ED0003512E7DDFCA3E0FDC39FFFEC9EFEC3EFA0
:105EE00094FFEE947F400302602418E2FE08E2244F
:105EF0001F12E7AEE0FEA3E0FFED6F7002EC6E70E4
:105F00000302602418E2FE08E2FF242B12E7AEE051
:105F10004404F0EF243712E7AEE4F01812E7D6FE9F
:105F2000A3E07803C333CE33CED8F9FFED242F128C
:105F3000E7DDFCA3E0FD122FC08E398F3A786B129B
:105F4000E7D6FEA3E07803C333CE33CED8F9FFED16
:105F5000242F12E7DDFCA3E0FD122FE8EF4E6008CE
:105F6000053AE53A7002053912E7CF243812E7AE58
:105F7000E539F0A3E53AF0902FCD12E7B9E0B4018E
:105F80001D75F010EF902F8712E7C0E05431600EBE
:105F9000E6FF75F010902F8712E7C07402F0787753
:105FA000E6FF75F010902FDC1207EDEF25830260FD
:105FB0001D7860E2FC08E2FD240712E7DDFEED2417
:105FC0000612E7DD7C002400F53AEC3EF53912E7D5
:105FD000CFFF241F12E7AEE0FCA3E0FDC3E53A9D2E
:105FE000FDE5399CFCC3ED94FFEC947F5036EF2423
:105FF00009FFEE340112660112E7CFFF243A12E7DF
:10600000AEE539F0A3E53AF0EF242B12E7AEE04419
:1060100001F018E2FE08E2242BF582E43EF583E06D
:106020004402F02212E7CF241712E7AE7428F08062
:106030001012E800FD12E820ED24FF12E7DDB401A4
:1060400007E4FD7F0502FBD712E7CF24B612E7AEC7
:106050007402F02212E7A6E0441012E7B5E0441003
:10606000F012F1EBE4FD7F0512FAAF12E83512E70A
:10607000A6E030E3030265EE7877E602626912E794
:10608000A6E04480F002FA6612E7CFFF12E7ACE028
:10609000FD54C070030265EEEF12E7ACED547FF0E3
:1060A000EF12E7ACE04420F012DF5412E7E512E70C
:1060B000C012E81412E7C0E054EFF012E7E712E76D
:1060C000C0E04402F002FD867877E6FF75F010909C
:1060D0002F6412E7C07401F0EF4480FD7B057FFF61
:1060E0001216BB12E7CFFF12E7ACE0FD30E132EF52
:1060F00012E7ACED54FDF0EF12E7ACE04404F0120F
:10610000E7E512E7C012E81412E7C0E054EFF0121E
:10611000FD8612E7CF24BB12E7AEE0B4030312669C
:106120001F12E7A6E030E31720E607E4FD7F081220
:10613000FBD712E7A6E054BFF0E4FD7F30800B12DE
:10614000E7A6E020E607E4FD7F0812FBD712E7CFC1
:10615000FF24B112E7AEE0B4010BEF24B112E7AEB9
:10616000E4F012FA4012E7CFFF12E7ACE0FD30E5B1
:1061700021EF12E7ACED54DFF0EF12E7ACE044089A
:10618000F018E2FE08E224BB12E7AEE0B40303120B
:10619000661F12E7C924EF12E7AEA3E0C4F8540F5C
:1061A000C868FB0582D5820215831582E0C454F0CD
