:020000040020DA
:1000000002200D6E9000F63F12000D747810EC4D3A
:100010004E4F70047CA57DA5C3EC13FCED13FDEEE3
:1000200013FEEF13FF5010EC64CCFCED644CFDEEBE
:10003000644EFEEF64CEFFD8DF9000F63F12000D55
:10004000B5EE547FFE229000F63FEEF0EFA3F0A352
:1000500074A5F0A3F0223030303000000000000022
:10006000000000000000000000000000000007FF8A
:10007000022736480000000002277AC602277A5E6F
:100080000223576502265323222A2B22022238916B
:100090000221669102242799C0E0F5E0C0E09000BB
:1000A000F6DBE06401700975E00215E070FC802465
:1000B0009000F6DBE06402700975E01415E070FC56
:1000C00080129000F6DBE06403700975E03015E003
:1000D00070FC8000D0E0E5E0D0E0220000000000ED
:1000E00000000000000000000000002202245BB8B5
:1000F00000000000220000000000000000000000DE
:1001000000000000000000000000000000000000EF
:1001100000000000000000000000000000000000DF
:1001200000000000000000000000000000000000CF
:10013000000000000000000000000006FF0227058C
:100140000103222202277D24E09028FE00F103090A
:100150000000F3010AF40401000004F203090001A5
:10016000F3023506F40619110E19110FF2030900F6
:1001700004F3023510F41035061901000900173593
:1001800006190017090104F203090006F3023509F4
:10019000F40909656E09006A090100F20309000902
:1001A000F3023508F408350619110E090106F203A9
:1001B000090100F3022508F4084156524350204338
:1001C00054F203090102F3022504F4044D4348509C
:1001D000F203090311F30109F4020001FFE08D2885
:1001E000FE90F103090000F3010AF4040100000588
:1001F000F203090001F3023503F40319110CF203B1
:10020000090004F3023510F4103506190100090045
:10021000173506190017090104F203090006F30255
:100220003509F40909656E09006A090100F203093C
:100230000009F3023508F408350619110E09010604
:10024000F203090100F3022508F408415652435015
:10025000205447F203090102F3022504F4044D433C
:100260004850F203090311F30109F4020002FF50A0
:10027000DDA155E405D2AF9FA98FE54A7DFE43532A
:10028000534942DC5B001053DD0C18A20016962483
:1002900047C62361BAD94B4D1E4353534942DD9D96
:1002A000001350DC2C16962447C62361BAD94B4D57
:1002B0001E4353534941DDA00042DC2A000142DDC8
:1002C0001F000042DDB1000253DC900CA500B39B7F
:1002D0007234BEECD4A8F44341884353534942DD01
:1002E0009B001350DC1AB39B7234BEECD4A8F443C9
:1002F00041884353534941DD9F0042DC18000153BC
:10030000DC481CA7007E3B07FF1C51492FB3398AEC
:100310004C4353534942DC6C001350DD2B7E3B07AA
:10032000FF1C51492FB3398A4C4353534941DC6E6A
:100330000042DD29000142DC67000042DC6F000260
:10034000605ADCB2F0FFDDA1DC5B00100001F0DFE1
:10035000DD0CDD9D00130001DC2CDDA0DC2A00F7A4
:100360000D10F0DDDD1FDDB100022111F0DFDC90AA
:10037000DD9B00130001DC1ADD9FDC1800F70D1077
:10038000F0DFDC48DC6C00130001DD2BDC6EDD29C6
:1003900000F70D10F0DDDC67DC6F0002211148DD95
:1003A000210000DCB200A000A841EEB10044EEAB99
:1003B0000000000047EEB520434C43433A2041EE95
:1003C000BC8241EEB2006042EEBDFF00FF010202BE
:1003D00003030404050506060707080809090A0AB5
:1003E0000B0B0C0C0D0D0E0E260F290F10101711F4
:1003F0001A121D1323142415FF16FF17FF18FF19D7
:10040000FF1AFF1BFF1CFF1DFF1EFF1F58C4A60085
:10041000A3000100A8000100C5000100F3000100D5
:10042000F7000100FA000141EE040041EE2B00410B
:10043000F3BB0042F3B9000041F3B80041F3B70049
:1004400043F5FB00000042F1CF000043F2830000BF
:100450000043F28600000041F35F0141D18E00416C
:10046000D1910141D2C60041D2C70041D2C2004160
:10047000D1823341CC610042CC67000042E14C0A9A
:100480001842E160000245E17102D200292A42E1EE
:1004900095000542E282292A44E1A14D4348504299
:1004A000E280000445E17F02D400242A42E1AB004F
:1004B0000542E150242A44E1AD424D383342E14E39
:1004C000000445E16C02D600252A42E19300054272
:1004D000E27E252A44E19D3030303042E27C000447
:1004E00045E16702D800272A42E186000542E27210
:1004F000272A46E1974254424D383342E2700006C3
:1005000045E16202DA00262A42E184000542E26EF9
:10051000262A46E18D31303030303342E26C00061D
:1005200045E17A02DC00282A42E1A5000542E14AC1
:10053000282A44E1A73030303042E148000445E148
:100540008802DE00232A42E26A000542E15E232A95
:1005500048E274000000000000000042E15C000876
:1005600045E26302E0002A2A42E152000542E178B6
:100570002A2A48E154000000000100000042E17610
:10058000000860AAE1B1F0FFE14CE1600002000167
:10059000F0DFE171E19500050001E282E1A1E28076
:1005A00000F70A01F0DFE17FE1AB00050001E15057
:1005B000E1ADE14E00F70A01F0DFE16CE1930005E7
:1005C0000001E27EE19DE27C00F70A01F0DFE167D5
:1005D000E18600050001E272E197E2700006000189
:1005E000F0DFE162E18400050001E26EE18DE26C82
:1005F00000060001F0DFE17AE1A500050001E14A13
:10060000E1A7E14800F70A01F0DFE188E26A0005AE
:100610000001E15EE274E15C00080001F0DFE263EA
:10062000E15200050001E178E154E17600080001A3
:1006300048E25B0000E1B100D000E050E400C2EA13
:100640003379AFA9CD83244CE0874353534942E427
:1006500052001053E4289AF20045106CF2B71621AC
:100660009670445CB74353534942E4C4001350E3CB
:10067000BF45106CF2B716219670445CB7435353D4
:100680004941E4D90042E4C2025842E44E0000422B
:10069000E4DA000244E3FC0100002942E4500004D3
:1006A00053E4C618F6003F6A776644F021B57749EF
:1006B000B64B4353534942E3BD001350E3EB3F6A4B
:1006C000776644F021B57749B64B4353534941E32C
:1006D000E20042E3BB000142E4DC000042E3E3004D
:1006E0000253E3CF1AF900786D43F61088DE94A325
:1006F00045D12D4353534942E3E9001350E43E787A
:100700006D43F61088DE94A345D12D4353534941E0
:10071000E3FB0042E3E7000142E3E5000042E410AE
:100720000002606EE454F0FFE400E45200100001A7
:10073000F0DFE428E4C400130001E3BFE4D9E4C21D
:1007400000F71F11F0DDE44EE4DA00022111F0FDA4
:10075000E3FCE45000040011F0DFE4C6E3BD001345
:100760000001E3EBE3E2E3BB00F70D10F0DDE4DCB6
:10077000E3E300022110F0DFE3CFE3E9001300011F
:10078000E43EE3FBE3E700F70D10F0DDE3E5E41002
:100790000002211148E3B30000E45400F000FA50D5
:1007A000E8DDE4A581502997F0FC1A44D5044353B1
:1007B000534942E910001053E96002C20032A23EE0
:1007C000F5B468DFDB483927984353534942E8DAE8
:1007D000001350E90032A23EF5B468DFDB48392748
:1007E000984353534941E8DC0042E8FE000153E9D5
:1007F0007318C400EDFDAD23D3EEDAE5276CE39565
:100800004353534942E8ED001350E914EDFDAD2385
:10081000D3EEDAE5276CE3954353534941E8EF0003
:1008200042E912000142E98E000042E8F000026055
:100830003CE924F0FFE8DDE91000100001F0DFE9F9
:1008400060E8DA00130001E900E8DCE8FE00F70EDA
:1008500001F0DFE973E8ED00130001E914E8EFE9C6
:100860001200F70D10F0DDE98EE8F00002211148CA
:10087000E9860000E92400C000C541F6DB0041DB49
:1008800052006030DB55A894A0A89456A89490A874
:100890009442A8947DA8942BA89467A89411A89436
:1008A00004A893BAA893F4A893A6A893E1A8938F59
:1008B000A893CBA8937541DA530041DA540041DA8A
:1008C000550041DA560141DA570041DA580041F04B
:1008D000CB0041EEFF0044EF000000000042F0F3C7
:1008E000001842F0EF011842F0FF002842F1010128
:1008F0002842F0EB022842F0DF032842F0FD0029F5
:1009000042F0E9012942F0DD022942F0E3032942E5
:10091000F0E1042942F0DB052942F0F7002A42F019
:10092000E5012A42F0ED042A42F0F5052A42F0E7FB
:10093000A62A42F103C92A42F0F1292B42F0FB2AF0
:100940002B42F0F93A2B50F22F000000000000007B
:1009500000000000000000008742E5F2000245E4CC
:10096000F00A0300002A42E5A000056020E5AA4243
:1009700054353531315F53444B0000000000000016
:100980000000000000000000000000000000004225
:10099000E5E3000A45E5D4020500012A42E5EE0040
:1009A0000542E5F0000042E4EE000245E5230207BF
:1009B00000042A42E5CA000548E5CC0800000A0206
:1009C000010D0042E5EC000845E5DE020900A62A1B
:1009D00042E5F9000541E4DE0042E4F9000145E5A5
:1009E000D9020B00C92A42E5F6000541E5F80042AC
:1009F000E4F70001606EE528F0FFF0F3E5F2000295
:100A00000001F0DFE4F0E5A000050001F0F7E5AA41
:100A1000E5E300201B11F0DFE5D4E5EE0005000161
:100A2000F0E5E5F0E4EE00020001F0DFE523E5CAC1
:100A300000050001F0EDE5CCE5EC00080001F0DF79
:100A4000E5DEE5F900050001F0E7E4DEE4F9000188
:100A50000001F0DFE5D9E5F600050001F103E5F856
:100A6000E4F70001000148E5A20000E528000100CC
:100A70000B42E5EA000245E5E5201200052A42E4C2
:100A8000DF000544E4E10100FFFF42E59600044277
:100A9000E5F4000042E4F500026028E4FBF0FFF01A
:100AA000EFE5EA00020001F0DFE5E5E4DF00050024
:100AB00001F0F5E4E1E59600040000F0DDE5F4E482
:100AC000F50002201148E5980000E4FB0010001337
:100AD00041F3BF0043F3C400010341F3BC0041F301
:100AE000BD0041F3BE0041F1770050EAB5666DD01C
:100AF00038E26F4AA483CCD0C94343534942EA4009
:100B0000001053EA451832001803A6285ED8EC916D
:100B10001C48A3AC4353534942EAB0001350EADAED
:100B20001803A6285ED8EC911C48A3AC4353534944
:100B300041EAB20042EAD8000142EAA6000042EAD5
:100B4000B3000253EAC50435004F84F610761AD478
:100B5000BD4941E4184353534942EA42001350EA65
:100B6000964F84F610761AD4BD4941E41843535386
:100B70004941EA440042EA940001603CEA58F0FF2F
:100B8000EAB5EA4000100001F0DFEA45EAB00013E0
:100B90000001EADAEAB2EAD800F70D10F0DDEAA6C1
:100BA000EAB300022111F0DFEAC5EA4200130001B6
:100BB000EA96EA44EA9400F70D1048EAA80000EA31
:100BC000580030003544E385003300010041F6EB66
:100BD00000C2D530F707B2D563F0FF05F030E70D5E
:100BE000B2D5F404008463F0FF05F080018430D5B1
:100BF00002F40422BC000BBE0029EF8DF084FFAD8F
:100C0000F022E4CCF875F008EF2FFFEE33FEEC3362
:100C1000FCEE9DEC984005FCEE9DFE0FD5F0E9E45E
:100C2000CEFD22EDF8F5F0EE008420D21CFEADF0F2
:100C300075F008EF2FFFED33FD4007985006D5F013
:100C4000F222C398FD0FD5F0EA22C2D5EC30E709B5
:100C5000B2D5E4C39DFDE49CFCEE30E716B2D5E4CA
:100C6000C39FFFE49EFE12200BF4C3E49DFDE49CB1
:100C7000FC800412200BF430D507C3E49FFFE49EF0
:100C8000FE22F8EB700C09E5F027C7F5F019E837FC
:100C9000C72289828A831410E707F593E802000BC4
:100CA0001FF593E4740193F5F0E49322BB000B0964
:100CB000C5F027F7C5F01937F722F8EB89828A8348
:100CC0001410E707F593E802000B09F593740193FC
:100CD00025F0F5F0E4933822EB7006E9F802200DD8
:100CE0001289828A831410E706F59302000D9CF5A1
:100CF0009302200D1FEB7006E9F802200D2F898268
:100D00008A831410E706F59302000DD9F5930220AB
:100D10000D38E6FB08E6F908E6FA08E6CBF822E427
:100D200093F8740193F9740293FA740393FB22E627
:100D3000FB08E6FA08E6F922E493FB740193FA74DF
:100D40000293F922022754BEE493A3F85407240C1B
:100D5000C8C333C4540F4420C8834004F4568001F0
:100D600046F6DFE4800C0102040810204080902049
:100D70000148E47E019360CCA3FF543F30E5095461
:100D80001FFEE493A360010ECF54E0B4E029E49386
:100D9000FBA3E493FAA3E493F9A3E493C083C08292
:100DA00012000AE3759320D082D083A309E9700171
:100DB0000ADFE7DEE580BB54C025E0602B4089E414
:100DC00093A3FAE493A3F8E493A3C8C582C8CAC561
:100DD00083CA759300F0759320A3C8C582C8CAC59D
:100DE00083CADFE3DEE1808AE493A3F8E493A340BF
:100DF00003F68001F208DFF402200D72A849030017
:100E000004D104A862640001B701A844C400019E93
:100E100047A86B3E00019E69A86B5500019EBAA8C9
:100E200044EB00019ED1A83AC30001587DA84512A9
:100E30000002BA8CA7D1B60003D495A8474D000193
:100E400040AEA76C9200032D73A7F7680003EBF781
:100E5000A67AB200047A35A8745D000324C2A862A1
:100E6000800000100FA7DCB00002830BA8746E0096
:100E70000396B6A8747F00039797A8681B000486A2
:100E8000D1A8721000044D67A809990001B5AAA85D
:100E900005D800017A0AA7C3C200036114A8776CC1
:100EA00000008D66A76165000288E1A8282B000379
:100EB000B920A7E7FC000151A2A841D80004E0999D
:100EC000A7A68000026772A6AC7D0001BE52A7A251
:100ED00032000320A2A870910002CB013F65098671
:100EE00001000A0004781D35330D0D1305447F50B1
:100EF00024405030000220404014080016200A1000
:100F000016201E0F0F5555160A540B041200001020
:100F1000120700000319FF40F07F40000077015ED8
:100F200000F001E000C8204E0000483930242018AD
:100F300012600000000000001000800000805F9B35
:100F400034FB0000FFFF0000000000000000000074
:100F50000000FFFF00000000000000000000000093
:100F600000000000222222222222222222222222E9
:100F70002222222200000000000000000000424D5A
:100F800038335F4D53504B323000000000000000FA
:100F90000000000000000000000000000000000051
:100FA000000000424D38335F4D53504B323000004B
:100FB0000000C10300000020011001130114C10151
:100FC000000000000000000000000000424C455FEF
:100FD000424D383353444B0000000D0A0D0A4D4179
:100FE000474943AE07EE1222006112220035FBF49E
:100FF0007004FE7F0322122200FCAD82FCAF0312BC
:10100000263FA122022506A502263F289000EB7963
:1010100002000DF902276F00022719E1022615458B
:101020000225D5230226A4B80226740D0224DA3440
:10103000022110EA022248ED02273A6B0225669F40
:101040000223D7F302239EEB0226B7000221A84415
:101050000226BAA80223889402264AE00226F971E1
:1010600002267FBE022723F2022659740227367514
:10107000022626CD0225E440022650690226712D63
:10108000022565D502254C26022740140224A153CF
:10109000E49000C515F09000C511F0A3F0A3F09006
:1010A00000DC10E0640160101223525E701EA290FA
:1010B0004003D38001C340149000D563E07002A3C5
:1010C000E06006E4FF12228DA67FFF22122351D09A
:1010D000C39000D5797005E094108003E09411FF6F
:1010E0009000D578E09400FE9000D599E0FDC3EF24
:1010F0009DFFEE94009000C50FF0A3EFF09000620A
:101100004EE0FF64067003011E49EF640C7003019A
:101110001E499000C50FE07002A3E07003011E4954
:101120009000DB0CE0600764016003011E49122798
:101130005FA5EF6003011E499000D54E122351496F
:10114000240C122350EFE0FEA3E0122351231223BC
:1011500050EFE06003011E3E9000D59AE030E0655C
:101160009000EA0CE0705E1223525E9000C5187089
:10117000057409F080037412F012201ECFEFF09076
:1011800000C5191223511E122350EFE4F0A37499E5
:10119000F09000C5181223513BE58224071223501A
:1011A000EFEDF09000C51912235159240812235075
:1011B000EF740DF07F0712000451E49000DA6BF039
:1011C0009000DAEFF09000D58EE0600301132E124C
:1011D0002350FA7AC57B167D1012201EF49000D59C
:1011E00088E0700301132B9000C516E0649C600337
:1011F00001132B9000C51204F0122350FA7AC57B1C
:10120000167D117C0012201E947AC57B177D121268
:10121000201EF49000C516E0FF9000DA6BE06F60CE
:10122000221223527670079000C512F08029900098
:10123000DA6BEFF09000C517E09000D5A6122352AC
:101240006580149000C517E0FF9000D5A6E06F60A0
:1012500006EFF01224BE789000C512E0640160032E
:101260000113ACA3E060030113AC9000C518122376
:10127000527E9000C518F012235221C39F400301F3
:101280001315E4A3F09000C519E0FD122352975006
:1012900063122350FA9000C51BE02410FB9000C598
:1012A0001AE03400FA7C00EB2DFDEC3A12201E7699
:1012B0009000D5E7E02410FDE433FC9000C51BE06E
:1012C0002DFD9000C51AE03CFC9000C519E07A00A5
:1012D0002DFDEA3CFC7AC57B171227390B9000C51F
:1012E00017E0FF9000C516E0B507099000C519E0AA
:1012F00004F080919000C519E0640370189000D547
:10130000E7E0FF9000C51A1223524A9000C518E08A
:1013100004F0011277122352216F70030113ACE421
:101320009000C512F09000C51580297FFF2212237E
:1013300051D070259000C51204122351DD70111296
:1013400023527670079000C512F080041223526673
:101350009000DA6B74FFF080539000D588E0604C09
:10136000122350FA7AC57B187D117C001227390BA5
:101370009000C518E054F8F09000C51274011223D3
:1013800051DD54F812235229FEB507089000D59A72
:10139000E030E0181223527670079000C512F080FA
:1013A0000BEE44079000DA6B122352659000C512D1
:1013B000E07003011E49A3E060601200048A12235A
:1013C000510F122350EFE4F0A3740B122351DDFBF5
:1013D000122350E4EBF07F08120004519000D59ADC
:1013E000E054FEF0E4FF12228DA69000625CE06003
:1013F00076122351AF6005EF6409706BE49000DC56
:101400000CF01200048A122350C4741EF09000C520
:1014100018E0FCA3E0FD7F0780499000624EE0FFEA
:10142000640D6043EF6404603EEF64036039900034
:10143000DB06E0640460309000624EE0640A6027DE
:10144000EF640C60221200048A1223510F12235001
:10145000EFE4F0A3740B122351DDFB122350E4EBF5
:10146000F07F08120004519000C50FE0FEA3E09049
:1014700000D54E12235213A3A3EEF0A3EFF08D82FA
:101480008C83759300A3A3E475F01012000B0990F0
:1014900000F6C1E09000C511F06003011C52122358
:1014A00051D070089000C51404F0800C9000D588CD
:1014B000E0540F9000C514F09000E9F6E06053127C
:1014C0002351AF6005EF640970489000D57F122367
:1014D00051532409122350EFEFF09000D5751223D9
:1014E00051712408122350EFEFF09000D567E054BB
:1014F0000F6401700A9000D572E09000D550F01290
:101500002351732409122350EFE09000EA20F001E8
:1015100017A7E49000C519F09000D5AFE004F012D1
:101520002351532409122350EF122351BB9000D5AD
:10153000B7E02FF09000D582E0FBA3E09000C51A41
:10154000CBF0A3EBF09000D548E0F4607EE004F02F
:101550009000D54DE0FEEFC39E400C9000C514E016
:101560009000D54DF0801E9000D565E0FF9000C53D
:1015700014E0FEC39F40089000D565EEF080069011
:1015800000D549EEF09000D548E06414703D74FF3A
:10159000F09000D565E0700A9000D54DE09000D540
:1015A00065F09000D549E0700A9000D565E09000A4
:1015B000D549F09000D565E0FF9000D54DE02FFFB4
:1015C0009000D549E02F9000D550F09000C51AE06A
:1015D000FFA3E09000D5B4122351B89000D5BDE42C
:1015E000F0A3EFF09000D5B7122351712408122315
:1015F00050EFEFF09000C5187408F09000612AE0F9
:1016000070030116EC9000D588E0FF9000C51C1215
:101610002351CF7007122351E40116C69000C51C58
:10162000E0FD7C00C3122352884020122351E49035
:1016300000D2C8E004F01223528650030116C612ED
:101640002351E4E49000D2C8F0807BED64074C7035
:101650001F122351E49000D55FE004F0E0D3122381
:1016600052984062122351E4E49000D55FF0805616
:101670009000C51CE0FD7C0064067021122351E43B
:101680009000D560E004F0E0D3940474809480402E
:10169000351223528FE49000D560F08029D3ED9469
:1016A00005EC64809480501E1223528F9000D56206
:1016B000E004F0E0940674809480400A1223528F74
:1016C000E49000D562F09000D566E060199000C506
:1016D0001CE012235297400E9000D566E014F09063
:1016E00000C518E014F09000D5B3EFF01223519A22
:1016F000A3E0FD8F82122351042DFDED30E0149004
:1017000000C510E0240F12201E509000C510E024E8
:101710000E8016122350FA9000C510E0240E1220FD
:101720001E509000C510E0240DFD9000C50FE01282
:10173000201EDB9000C514E0FB9000D5AFE0FE2B2F
:10174000FD9000C516E02DFDA3E02D540FFDC2AFA6
:101750009000EA13E054F04401F09000D550E0907E
:1017600000EA1EF09000EA20EEF09000D5B7E0907D
:1017700000EA21F0EB540FFFA3E054F04FF0AF0567
:10178000EF540FC454F0FFE0540F4FF09000DC14FE
:10179000A3E09000EA1DF0122350FA7CEA7D137B4F
:1017A0001012001210D2AF1223525E60030119CD45
:1017B0009000C514E025E02402FF9000C51CF07ED7
:1017C00000D39410748094805055EF9404748094E6
:1017D0008050061200048A80289000C51C122352F3
:1017E0008650061200049D80189000C51CE0D3941A
:1017F00010748094805006120004B080041204EF2C
:1018000080EE122352C1EFF09000C5141223513B19
:10181000E5822408122350EFEDF0EF2409807512C1
:10182000201ECFEFF09000C51CE0FFC39401FDED3A
:10183000541FD39400E49400400AEF9401C413545D
:101840000704800C9000C51CE0C39401C413540726
:10185000FF1204875F9000C5191223515924081202
:101860002350EFEEF0A3EFF09000C5141223517156
:101870002408122350EFE0FCA3E012235219EFF0EA
:101880009000C519122351492408122350EFE0FE9D
:10189000A3E02401FFE43E9000C521F0A3EFF09007
:1018A00000C5191223511E122350EFE4F0A374292E
:1018B000F09000C51CE0C394011223513CE5822442
:1018C00007122350EFEDF09000C513E09000C5190A
:1018D000600C12235149122350EDE4F0800B1223C7
:1018E0005149122350ED7401F0E49000C51BF01231
:1018F0002351BD9000C51BE0FEC39F40030119C3E7
:10190000EE700A9000C51FF0A304F0806B12235004
:10191000FA1223517D12201E761223517DCD24010F
:10192000CD12201EDB9000C516E0FEA3E0FDEDFF0A
:101930009000C51DEEF0A3EFF09000C51DE0FEA3E2
:10194000E07802CEC313CE13D8F9FFEE5401FEEFB8
:101950002401FFE43EFE9000C51DF0A3EFF09000CF
:10196000C520E0240112235184CD2FFFED3ECF246A
:1019700002CF3400F0A3EFF09000C51BE025E0A3F8
:10198000F0FB122350FA1223517DFC7A00122352ED
:10199000B5EA38FA12201E941223517DCD2401CDD0
:1019A0003400FC9000C51CE02401FBE433FA122350
:1019B00052B5E83AFA1227390B9000C51BE004F043
:1019C0000118EF122352E67F08120004511223512E
:1019D0009AA3E0FD8F82122351042DFDED30E02605
:1019E0009000D54E1223512BE5822DF582E5833CE4
:1019F000F583759300E412235240122351A3E4753A
:101A0000F00112000B09122351AD6008EF64096068
:101A100003011B519000625CE07003011B519000B8
:101A2000E9D7E0FF7003011B519000C518E0FE12DA
:101A3000235155122350EDEEF01223517324071257
:101A40002350EFEFF09000644C7401F012235145E5
:101A5000122350EDE07004122352D2122351452478
:101A600009122350EF122351712409122350EFE081
:101A7000FED39F4004EE9F80231223514524091278
:101A80002350EFE0F404FF9000D54EE0FCA3E08C7F
:101A9000837593002409122350EFE02F0490006F08
:101AA00051F09000F135E0FD600C122351BD900023
:101AB000D5C11223524A9000D5B8E025E0FEE433A8
:101AC000122352C1CE122351CF70109000DC0CE0D3
:101AD0006017122352C0740FF0800E9000DC0CE0EF
:101AE0006007122352C07464F0ED60659000D54E1B
:101AF000122351492409122350EFE0FF60531223AF
:101B000052E6C39000D5C2E09D9000D5C1E09C4054
:101B1000409000D58CEFF01200048A9000C51B1293
:101B20002350C8741F12201EADE49000D5C1F0A34D
:101B3000F09000DC0CE0601914F0E0640670121202
:101B400000048A9000C51B122350C8740B12201E7B
:101B5000AD9000DFDEE0FF7E0064036005EF640906
:101B60007008E49000DBDFF0800AEF4E7006900012
:101B7000DBDF04F09000D54E1223511E122350EFEC
:101B80007401F09000C5141223513BE58224051224
:101B90002350EFED12235240122351A3E0FEA3E0A5
:101BA000FF9000D563EE1223524B9000D563E0FE08
:101BB000A3E0FF7DB17C00120011589000D5B2EF78
:101BC00012235240FFF5828E831223513312235287
:101BD000F012235155240C122350EFE0FAA3E0F544
:101BE000828A83759300EEF0A3EFF01223517324E1
:101BF0000C122350EFE0FFA3E09000D54E122351CA
:101C0000B89000D5531223524A9000F0B612000D3E
:101C100074E4FFED5402FDE4FCED60321223525EE9
:101C2000602C9000D58DE060259000E9F6E0701EF4
:101C30009000D5B6E06402700F9000624EE0640D33
:101C40007006122314738006E49000D5C3F0D2AF5F
:101C5000805112201EE7122351AF6005EF64097016
:101C60003F9000625CE060261200048A9000C51874
:101C7000EEF0A3EFF012235123122350EFE4F0A370
:101C80007494122350E3740C12201EBE8012900034
:101C9000612AE0600B9000683BE0600412275FC29D
:101CA0007FFF229000D5B6E06003011E06C2AF9010
:101CB00000D54C04F09000D2C9E004122351BC902E
:101CC00000D546E02FF0D2AF9000D542E0FEA3E071
:101CD000FF8E83759300240C122350EF1223512B97
:101CE000A3A3122352F07DB17C0012001158900082
:101CF000D5BBEFF09000624EE0640D6011C2AF9072
:101D000000625AE4F0A374C8F0D2AF011DFE900047
:101D1000D58EE0FF7E00F4700F9000D5B8E0FD9006
:101D200000D546E0C39D5028EFF44E7003011DD34B
:101D30009000D2C9E0C39416748094805012900031
:101D4000D5B8E0FF9000D546E0C39F5003011DD3F6
:101D5000122351AF6005EF640970449000DC0CE081
:101D600060079000E9F6E070369000625CE0601079
:101D70001200048A122350C4740112201EBE800770
:101D80009000E9F6E06077C2AF9000625A740CF000
:101D9000A37480F0D2AF9000D5B67401F0805FC21A
:101DA000AFE49000625AF0A3F0D2AF9000DC0CE0F8
:101DB000600E9000E9F6E060079000DC0C7402F021
:101DC0009000D5B2E09000D55AF09000D5B67402DC
:101DD000F0802B122351AD6005EF64097014900060
:101DE000612AE09000625A600D7401F0A3742CF037
:101DF000800A9000625AE4F0A374C8F0D2AFE49075
:101E000000D54CF080439000D5B6E0FF7E00640121
:101E1000701AC2AF9000D2C9E004F09000C514E07F
:101E2000FD9000D546E02DF0D2AF801DEF64024E4C
:101E300070179000D546F09000D2C9F0800B1220A8
:101E40001EE79000C51574FFF09000C515E0FF2255
:101E5000FD9000C50FE03400FC7AC57B16122739CF
:101E60000B9000D54EE0FEA3E0F5828E83759300C3
:101E7000E0FEA3E0FF22FC7AC57B161227390B9007
:101E800000D54EE0FEA3E0F5828E83759300E0FE60
:101E9000A3E0FF221227390B9000D54EE0FEA3E00D
:101EA000F5828E83759300E0FEA3E0FF22F09000A0
:101EB000C51BE0FCA3E0FD7F071200045122F09057
:101EC00000C518E0FCA3E0FD7F07120004512212B8
:101ED00000048A9000C519EEF0A3223400FC7AC5F4
:101EE0007B171227390B22E4FF12228DA6E4900003
:101EF000DA6BF0227C001227390B229000F3B3E05A
:101F00006003011FFF7EC67FB2122731899000F364
:101F1000B2E030E13A9000F3B5E0FF7CC67DB1124B
:101F200020212C9000F3B2E01313540170109000A4
:101F3000C6B1E064019000F3B17011F0801190001F
:101F4000C6B1E09000F3B17003F080037401F0902B
:101F500000C6AD74BEF0E0FF7E0012253FABAA06BE
:101F6000A9077B019000C6AE12000DF9122722309E
:101F7000E94A4B606E7EC67FAD12272230AC02ADBF
:101F80000112275DC89000C6ADE0604B9000F3B130
:101F9000E070131227224C7004A3F0801C9000C63E
:101FA000B37401F080131227224C7006A37403F05F
:101FB00080079000C6B37402F012272230AE02AF41
:101FC000019000C6B3E0FD12271F0512272230AE94
:101FD00002AF011225A37A12272230AE02AF0112FE
:101FE000263232E4FF12276C1D7BA87A5279C17C1D
:101FF000F37DB61226A9AC12272238122727FA221F
:10200000227F0122229000C640EDF0AD03A3EAF04A
:10201000A3EDF0EF24F060030120FE9000C6401213
:102020002505EC1225062FFE9000C643F0A3EFF025
:10203000122505BEE0C3940A74809480505F122577
:1020400006159000C645122506489000C645122583
:1020500005D48005C333CE33CED8F9122506057CCE
:1020600000EF5D60079000C64574FFF09000C64623
:10207000122505D48005C333CE33CED8F9FFEE5CEC
:10208000FEEF5D4E60079000C64674FFF09000C6FC
:1020900045E0FF1225EB5E9000C64680281225061B
:1020A000159000C645122505D38005C333CE33CE27
:1020B000D8F912250605EF5D60079000C64574FF4C
:1020C000F09000C645E0FF1225EB5E9000F475121B
:1020D000000DD9EA494B6026E49000C645F0900017
:1020E000C640E09000C646F07EC67F459000F4757D
:1020F00012000DD989828A838B9312000F0122224C
:102100000226937402277BEA020404FD020407F509
:10211000022777B502274A3F02277A350224D06189
:102120000225C0B6022622C502245FC89000C6B4AC
:10213000EFF0C374809480400612267F1540057E20
:10214000007F03229000C6B4E0FF12267F0D501BD3
:1021500012267F3612267F02558012267F47FEF810
:10216000EF088002C313D8FC0121F09000C6B4121E
:10217000267F094021D3EF12267F23501912267E95
:10218000F2559012267F47C39408FEF8EF088002AC
:10219000C313D8FC805A9000C6B412267F1E402577
:1021A000D3EF12267F2F501DE0C3941012267EF627
:1021B00055A012267F47C39410FEF8EF088002C393
:1021C00013D8FC802B9000C6B412267F2A40291217
:1021D000267F155023E0C3941812267EF655B012C0
:1021E000267F47C39418FEF8EF088002C313D8FC7B
:1021F0008D828C83759300F0E4FEFF2201000100C4
:102200000E12010A4254353531315F303032030449
:10221000010100019000C858EEF0A3EFF07EC87FE6
:102220005A7B06E4FD1200004F1222980DFF122285
:102230009845FCA3E08CF012000E9022DB000128F0
:1022400080000230A500032C4300042D0000052D62
:102250004D000636E900072D5100082D9900092D83
:10226000B8000A2E08000B2E35000C2E66000D302B
:1022700019000E3129100131351002318A10033155
:102280009D100432C8100536E9100732431008319A
:10229000B6100A3125100B320A100C36E9100D3237
:1022A00008100F36E9101536E9101636E9101D33FF
:1022B00015101E3334200133D2300136E930023399
:1022C000F0300336E93004344830053508300C3539
:1022D00060300D35C4300E000036B2122298B224A0
:1022E00004122297E4122298AC2405122297E4E00B
:1022F0009000C861122297C2A3E0FF9000C877F057
:10230000122037D71226C9BA9000C876EFF0900095
:10231000C860E060046401703A9000C861E0640243
:10232000702274051222979BA3E0122298C5FD1219
:1023300025D02512229A509000C864600301246CB5
:10234000F001248C9000C861E0600301248CA37428
:1023500007807E12229AC464027045A3E064027072
:102360001074061222979BA3E0FF1225D0250124AA
:102370008C9000C861E0600301248CA374081222D1
:1023800099759000C863F09000F3B3E060030124F6
:102390008C1220377E122299F8122727FA01248CFA
:1023A00012229ACB64037030A3E0FD7C00640270BB
:1023B00013A3740B1222997512229856FBEE540F38
:1023C0004B012487ED4C600301248C9000C862749B
:1023D0000C12229975012487EF6404705F9000C885
:1023E00061E0FB7A006402702B740D1222984E1289
:1023F000229A07FFA3E054FC4FF054FB122297FAF5
:102400001222999B9000C864F0543F12229AD27411
:1024100011F08058EB4A70741222996F5403FF90A8
:1024200000C863E054FC4FF054FB122297FA1222CA
:10243000999B9000C863F0543FF080509000C860B2
:10244000E064057047A3E0FB7A0064027023741017
:102450001222984E12229A07A3122297EF12229963
:10246000AC9000C86412229AD27411F07401F0800A
:102470001BEB4A70171222996F54039000C8631225
:102480002297EF122299AC9000C863F09000C861C7
:10249000E0FF64026003EF70159000C860E064061E
:1024A000600C7EC87F62122290FB1225157F90007F
:1024B000C861E0640260030127AE9000C87CF0A30D
:1024C000F07F0912262EC31224E5E29000C87C1288
:1024D000229A236030122297C3A3E075F010A4FF64
:1024E000AEF012229AC4EF4D9000C87E122298F0EE
:1024F000FD12229968AB05E49000C97FF0A3F07D3E
:10250000180226294E7EC87F5A12229AC47B0112D5
:10251000232A38122297C3A3E0FF7CC87D5A90007B
:10252000C860E0FB9000C9647401F012221F44905F
:1025300000C860E060076401600301260C9000C4DD
:102540006EE05407601512229968122297FC12223D
:10255000995C7402F07D0A122719757D017F0512BE
:1025600025277F7EC87F791227334B9000C879E0FA
:1025700030E515122299CE122685A7EF6402700865
:10258000122299CE122644CF9000C879E030E32D74
:10259000122299CE7CC87D7E1226E06E7EC87F8096
:1025A0001227496D9000C881E030E0119000C87E8C
:1025B000A3E030E108122299CE1227213612229987
:1025C000CE7D0112267CF49000C860E060030127F4
:1025D000AE7EC87F7A122733787EC87F7B1227337E
:1025E000D29000C87AE020E5030127AEA3E020E303
:1025F0000912229AA270030127AE122297C3A312D6
:1026000022986E7D011223D0B00127AE122299D5F7
:1026100060030127897EC87F78122737D79000C8CA
:1026200078E030E7067F021226AD297D017F061291
:1026300025277F9000F3B3E060030127AE12203717
:10264000E41222987F12274CA69000C87EEFF01269
:10265000203816D3EF9401EE9400402EE49000C889
:102660007FF07EC87F7F122037F59000C87FE0544E
:102670000470139000C87EE09000C49D7005740241
:10268000F080037401F0122038001222987F122784
:102690007B6FEF702A1222987F7D3C7C001226D639
:1026A000829000C87E12229AB35014EF75F007A4EE
:1026B0002460F582E434C4F583759300743CF09093
:1026C00000F3B8E070030127AE9000F3B7E004F028
:1026D0007EC87F7F122757CE9000C87FE0FF900012
:1026E000F3BBE0FEC39F50069000C87FEEF01222BD
:1026F0009A58B50714E49000F3B8F09000C4A0E035
:1027000054FDF07F01122675AE12229A58C39F40E5
:10271000030127AEE49000C880F09000F3BBE0FF17
:102720009000C880E0FEC39F504AEE1222997C358B
:10273000F0FE7CC87D5A7B06120011CD402D900022
:10274000F3B9E0FEA3E0F5828E83C083C082759367
:10275000009000C880E0759300D082D08312229A46
:102760002A2407122297E4E4F080099000C880E050
:1027700004F080A61220374012229960740AF0E417
:10278000FB7D211227197580259000C860E0640345
:10279000701C9000C46EE030E4141222996812227A
:1027A00097FC1222995C04F07D0B1227197590009A
:1027B000C861E060030136E9122299D5600301285F
:1027C000419000F3B3E0704E9000C878F0A3F0128F
:1027D0002037E412203816EF64014E70541222980C
:1027E0007F7CC87D78E4FBFA1225C5E91222987F28
:1027F0007AC87B797D02122504C59000C879E0640F
:1028000002702E9000C878E0640260251222987F42
:10281000122548DA801B122297C3A3E012229AD90C
:10282000B5070E9000C46AE07007FD7F0112248C8A
:10283000467F021220381D60030136E9FD7F0680C5
:102840003B12229ACB640470030136E9EF640570F1
:10285000030136E9EF6007640160030136E91220E5
:1028600037ADFF1220381D60030136E97F011226C3
:10287000E220EF4E60030136E9FD7F050225277F48
:102880001222980D122299DD240C122297E41222B2
:1028900098AC2409122297E412229A8764016003FB
:1028A0000136E99000C87C7408F09000C885E4F017
:1028B000A37404F0122299D56003012A921222997E
:1028C000051226C9BA9000C877EF122297D4E0FF0C
:1028D00012274CA69000C876EFF064026058E075AD
:1028E000F007A4245DF582E434C412229ABD640387
:1028F00070449000C889F0A37402122297D4E05467
:102900000FFF9000C88BE054F04FFFF09000C877A5
:1029100012229867FEEF540F4E9000C88BF078603B
:102920007CC97D017B017AC879897E007F03120012
:102930000A33122687FD9000C877E0640860697E3C
:10294000C87F7C7CC87D7D122755769000C877E0D3
:10295000247DF582E434C812229ABDFF540F900002
:10296000C87AF0EF54F0C4540F9000C879F0A3E097
:10297000FF12276FDD9000C87BEFF012277B4CEF32
:102980007EC87F787006122755D080041227326ADD
:10299000122297D5E0FF7CC87D781225F00F9000B9
:1029A000C878E0FF1226AB6C122297D5E0FF122701
:1029B00029DC12229A64700F9000C46AE070081239
:1029C0002297D5122037EC9000C862741512229716
:1029D000D4E09000C863122037C412229A647010A9
:1029E0001222980D1222990BE4FB7D0712232A383C
:1029F0001222980D122299DD240F122297E4E07022
:102A00001C9000C889F0EF1222990B7CC87D8912B6
:102A10002714B99000C889E030E736803012229838
:102A20000D122299DD240F122297E4E0541F640155
:102A3000701F122298B22410122297E4E0544064CE
:102A400040600E122299057D8012269EEA1222987D
:102A5000E27EC87F88122738039000C888E030E4FF
:102A600004122298E27EC87F87122770F39000C874
:102A700087122298D78C83759300240A122297E438
:102A8000E0FCA3E0FD9000C885E0FAA3E0FB02268D
:102A9000781E9000C860E06003012C359000C86289
:102AA00074111222980C8E83759300240D122297B4
:102AB000E4E0640870079000C86304801212229753
:102AC000D5E0FF1227315CEF6009E49000C8631283
:102AD0002037C49000C46B122298D78C831222979F
:102AE000DFE0FB7D1F122746DB122037AD12274F98
:102AF00055EF70659000C459E06405702E1222985D
:102B00000D1222990B1226C9BA9000C889122037DB
:102B1000557D071220372F7D051220372F1222985E
:102B2000D98C83122297DF122037CE7F0C12262EEB
:102B3000C39000F3B3E070219000C889F07EC87F95
:102B400089122037F59000C889E05404700790007E
:102B5000C49D7402F0122038001222980D1222999E
:102B6000DD240D122297E4E012000E682C31022BB6
:102B700088042B99082B88102B881F2B88222B88E0
:102B8000232B882A00002C0E122298B2122297E2E0
:102B9000E0FF122712BA012C319000C889E4F0A39B
:102BA00004F07EC87F891226D9779000F3B3E070D5
:102BB00012122297D5E0FF12264B577F0B12262EBA
:102BC000C380369000C889E0FAA3E0FB4A9000C8B1
:102BD00058601AE0FCA3E0FD8C83122297DFE0FF2F
:102BE000ED2402FDE43CFC1225A2C8800C122297C1
:102BF000D9E0FDE4FF122695B49000C459E060319D
:102C00006402602D9000C488122037BB80231222FA
:102C100097D5E0FF12264B579000C459E0600C6432
:102C20000260089000C487122037BB7F0B12262E4B
:102C3000C30224322912229A5060030136E97F0E22
:102C4000012E04122297C3A3A3122298416003010C
:102C500036E99000C864F0A3F0A3F09000C864F0D7
:102C60009000C864E0FFC3942074809480502D12BB
:102C70002297FCA3A3A3122299912407122297E47E
:102C8000E5822F122297E4E070099000C864E00406
:102C9000F080099000C864E004F080C49000C8642B
:102CA000E0FF2402FCE433A3F0A3CC122297FB1232
:102CB000229A6CE4A3F0FE12253FAB9000C862128A
:102CC000229A2370030136E99000C862E0FEA3E077
:102CD000FF122297FCA3A3A3E0FCA3E02407FDE4DA
:102CE0003CFC1220380B9000C865E0FEA3E0FF7B9F
:102CF000017AC8796012243C809000C8620136A92C
:102D0000E412229A341222980CFF122297CB12223C
:102D10009A6C8F82122297CD12229A8670121222FA
:102D20009ACB64016005EF640370057F04012E04F3
:102D30009000C861E060030136E99000C860E0607F
:102D400007640260030136E97F05012E040224D9DD
:102D50001F78607CC87D017BA17A0079567E007F58
:102D60001012000A339000C8707404F07EC87F709F
:102D70007CC87D60122760341222980D2402FDE485
:102D80003EFC9000C870E0FB9000C96474C8F0A3DA
:102D90007460F07F01022718319000C474E0FFE4F2
:102DA000FD1226E2B012276308EF70067F0F12268D
:102DB0002EC37F01022772471222980D2404FFE4DC
:102DC0003EFE1226C9BA9000C86012203755900006
:102DD000C860E0FB7D07122746DB9000C46BE01261
:102DE0002298C5FB7D05122746DB12229968122224
:102DF00097FCA3A3122037CE12276308EF600301CC
:102E000036E97F0F02262EC312229918600301367D
:102E1000E97F1312262EC3122297C3A3E0FF1226C6
:102E2000C73C9000F3B8E070030136E9E49000F38A
:102E3000B7F0012FFC1222991260030136E9122229
:102E400097C3122298BCFEC39F40030136E9E4A356
:102E5000122036EA12229827240A7EC87F687B0354
:102E60001220379380D81222991260030136E9129A
:102E70002297C3122298BCFEC39F40030136E9A3E8
:102E80007401122036EA122298271220376B122280
:102E900097C312229827122299E49000C86BF07E03
:102EA000C87F61122404EE9000F3B8E07003013093
:102EB0000FE49000C95DF07EC97F5C12275828900E
:102EC00000C86AE0FF542060099000C869E054041B
:102ED00070099000C95D7401F08034EF5404702FC4
:102EE0009000C95D04F09000C868E0FF64046019B8
:102EF000EF64086014EF6414600FEF6418600AEF69
:102F0000641C6005EF64207006E49000C95DF090D9
:102F100000C95CE030E3267EC97F5E1227584690E8
:102F200000C95EE0FF9000C86BE0FEC3EF6480F86C
:102F3000EE64809850079000C95D7401F09000C95C
:102F40005DE06003012FCE9000F3BBE0FFC394145B
:102F50007480948050789000C86BE0FE9000F3B9C4
:102F6000E0FCA3E0FDF5828C83C083C082759300F2
:102F70009000F3BBE0FB759300D082D08312229ABD
:102F80002A2406122297E4EEF01222993D7593004E
:102F900075F008EB12229A2D2407122297E474018F
:102FA000F0EF1222997C35F0FEC006C0071222977E
:102FB000C3122298272401F9E43AFCAD01D007D0CE
:102FC000067B06120012109000F3BBE004F09000A4
:102FD000C95CE030E1397EC97F5F122757CE90008F
:102FE000C95FE0FF9000F3BBE06F702312277550BC
:102FF000E49000F3B7F07F1312262EC3122037405F
:1030000012229960740AF0E4FB7D21022719759061
:1030100000C860E004F0012E6F12229912600301D3
:1030200036E9122297C3122298BCC39F400301368F
:10303000E9A37402F09000C858122297C9A31200A5
:103040000DD975F0FE1222982F2401F9E43AFCAD57
:10305000017EC87F627B0612001210122297C312F3
:10306000229A15122298341220376B122297C3121B
:10307000229A15A4FFAEF029F9EA3EFAE912229944
:10308000E49000C86B122297FBA3A312000DD9E9AC
:103090002FF9EA3EFAE9240F7EC87F6C7BF01220FC
:1030A00037930130221222980D8E83759300240EDF
:1030B000122297E4E09000C874F0E4FD7F0212242D
:1030C0008C461222987F7CC87D75122680EF900076
:1030D000C874E064019000C86070187409122297E7
:1030E000D4E09000C861F07D017F0112271A177D9E
:1030F000018022740A122297D4E09000C861F0E4A3
:10310000FDFF12271FD1E49000C46CF07D01FF1277
:10311000271A17E4FD7F011225277F7EC87F6012E2
:103120002290FB80000225DC771222980D12229952
:103130000B02245D14122298D9FD12229804A3A335
:10314000A3E0640770181222993DA3A3E01222980D
:103150001C2404122297E4A3E0FD02269A241222E2
:1031600098D9FD12229804A3A3A3E064056003018B
:1031700036E91222993DA3A3E01222981C240412DE
:103180002297E4A3E0FD02269B3E122297C3A3A34D
:10319000E0FEA3E0AA06F97B010224217612229721
:1031A000C3122299BD122297CBE09000C862F0FDB5
:1031B000E4FF02276A2A122297C3A3E0FF7AC87BA2
:1031C000607D01122504C5122299D570041225DCF8
:1031D00077122297C3A3A3122297C7E0700C900026
:1031E000C475E0FFE4FD1226E2B07EC87F611227BD
:1031F000334B9000C861E020E4030136E9122297C6
:10320000C3A3E0FF022644CF80001222980DFF12D4
:103210002297CBA3A3E0FDA3E0CD12229932122284
:1032200097CDA3E09000C864F01222992012229852
:10323000459000C863F08F82122297CDE09000C8BD
:1032400062F022122297C3122299BD122297CBE07C
:103250006401701C9000C860122297C7A3E0FF9021
:1032600000C46DE06F70030136E9EFF00226AB6C2D
:103270009000C860122297C7E0640260030136E93B
:103280009000C8621222987E7CC87D621226D3D23A
:103290009000C862E06401701A12277BBCEF640CD6
:1032A00070119000C860122297C7A3E0FF7D011241
:1032B00025C5449000C86012229800E0FF75930075
:1032C000A3A3E0FD02269D141222980DFF1222975F
:1032D000CBA3E0F99000C860F08F82122297CDA3B3
:1032E000A3E0FFA3E09000C861CFF0A3EFF0AF012F
:1032F0009000C861E0FAA3E0FBF5828A8312229A6B
:10330000777C008B828A83759300A3A3E0FAA3E005
:10331000FB022639ED1222980DFF122297CB1222C2
:10332000992A122297CDA3E0FF1222993DA3E0FD36
:10333000022656C21222980D122298F79000F3B37B
:10334000E0700C1220377E122299F8022727FA1219
:10335000229920122297CBE06402701C8F821222E5
:103360009847FD1222987FED6F600D9000C46AE0CF
:1033700070067F0412248C4612229920122297CBC9
:10338000E06402701D8F8212229847FF7CC87D6224
:10339000122644579000C862E0FF1226E4A8E4FF1A
:1033A000802C9000C860122297C7E064016003017E
:1033B00036E912277B1BEF70030136E912277B29C0
:1033C000EF60030136E97F0112276C1D7F010226A1
:1033D000AABA1222980DFF122297CB1222992A1212
:1033E0002297CDA3E0FF7C00ED5402FD02270F5988
:1033F0001222980D1222990B12229A34EFF0122207
:10340000984512229AD9B5071D12277BBCEF640D8F
:1034100070149000C860122297C7E0FF12276FC98E
:10342000E4FD1225C54412229920122297CBA3E075
:10343000700B8F8212229847FFE4FD8007122298BA
:103440003DFF7D0102269E2E1222980D8E837593DC
:10345000002404122297E412229A6E1224322912B6
:10346000229A50703C122297C3A3E0FF7CC87D6A69
:10347000122644579000C86AE0FF1226E4A81222E0
:1034800097C3A3E0FF122037D77B017D0212232AC6
:10349000389000C46AE07009122297C3A312203743
:1034A000EC7EC87F677B03E4FD1200004F9000C8EC
:1034B000677418F0FF1226BBA69000C868EF1222AE
:1034C000980C122299DD2404122297E4E09000C89F
:1034D00069F08F82122297CDA312229A869000C89B
:1034E00067E0FF1225D96E9000C862EFF0A3E412E6
:1034F000229AD274C8F0A37468122297C2A3E0FF84
:103500007CC87D610224726D1222980D122298F7F8
:103510009000C8601222980012229A757B01122531
:10352000FE6B9000C8601222980012229A75122633
:103530009E8C1222983D12229AD96F60030136E9BF
:1035400012277BBCEF640D60030136E99000C86070
:10355000122297C7E0FF12276FC9E4FD0225C54478
:103560001222980D9000C864122298FBA37404F0F4
:103570009000C864E0FEA3E0FF1222984512229A50
:10358000347403F0E49000C863F09000C862F08FD8
:1035900082122297CDA3E060079000C8637401F007
:1035A0009000C864122297C7E060079000C8627458
:1035B00001F09000C866E0FF7E007B017AC8796068
:1035C00002243C809000C8647406122297C2A3A310
:1035D000122299EE2404122297E4E0FEA3E0FF9069
:1035E00000C864E0FD7C00EF2DFFEC3ECF2401CF4E
:1035F0003400FE12229A34EFF012253FAB9000C83F
:103600006212229A2370030136E99000C862E0FE3C
:10361000A3E0FFF5828E837593007420F012229848
:10362000D9FD12229804A3A3E0FB1222993DA3A383
:10363000A312229800EBF0EF2401FFE43EFE1222D9
:1036400097FCA3A3A3E0FCA3E0FD1220380B90009D
:10365000C864E02401FFE433FE9000C8621222999E
:10366000853EFE122297FCA3A3A3E0FAA3E0FB8A07
:10367000837593002406122297E4E0FCA3E0FD8BFF
:10368000828A83759300E5822404122297E4E0FA8B
:10369000A3E0FB1200112F12229920A3E0FCA3E06B
:1036A000FD122776759000C862E0FEA3E0FF0226B7
:1036B00032321222980D12229845FEA3E0FFEE143A
:1036C0007027EF24F260028020122297C3A3120019
:1036D0000DD9E92403122299E664027D0270047F69
:1036E000018002E4FF12271A1722F09000C858E068
:1036F000FCA3E0F5828C83759300A3A312000DD97F
:10370000EE75F00EA429F9EA35F0FAE92401F9E49E
:103710003AFCAD017EC87F627B0612001210900059
:10372000C858E0FEA3E0F5828E83759300A3229033
:1037300000C889E0FB122746DB9000C46BE0FF2243
:103740009000C46BE0FFE4FB7D21122746DB900074
:10375000C46BE0FF22EFF0FB9000C46BE0FF7D063E
:10376000122746DB9000C46BE0FF222409F9E43AFB
:10377000FCAD017EC87F687B03120012102290000E
:10378000C46BE0FFE4FB7D24122741869000C46BEC
:10379000E0FF22F9E43AFCAD01120012107EC87F6E
:1037A00061122404EE9000C860E004F022E4FDFF02
:1037B00012271FD1E49000C46CF022E0FFE4FD1258
:1037C00026E2B022F07EC87F62122290FB22E0FB4C
:1037D0007D09122746DB227CC87D5A1226F0197E0D
:1037E000C87F5A22FD7F0112248C4622E0FD7F040F
:1037F00012248C462212275828E49000C49DF022FF
:103800009000C49DE0FF1226F558229000C864E0A5
:10381000FB12001210227F021226E220221226E260
:1038200020EF4E229000C640EEF0A3EFF07EC67F60
:10383000437B20E4FD1200004F12220153122201AB
:103840001EE012000E6838AA01398D023A38033A98
:1038500076043AB4053AF6063BCD073CD7083EEB72
:1038600009404E0A439A0B3CD70C443F0D44F30EDB
:10387000453A0F455610459F1145D212463313461F
:103880004E1446A91546C4164970174995184A683A
:10389000194AFD1A4B371B3CD71C3EEB1D4B7C1EB7
:1038A0004B9B1F4BB34000004BE3122200256003EB
:1038B00001395F122766591222008F7003014BE312
:1038C00012220153122200531222035412220061C9
:1038D0001222039CF08F8212220055A3E0FEA3E087
:1038E000FFEC1222013C122201BE122202571222C8
:1038F0000206122203141222023A1222031490002A
:10390000C665F0A37419F09000F01CE0640190000B
:10391000C66370097411F0A3740BF080077411F082
:10392000A3740AF09000C642E01222013C12220069
:1039300035FEA3E0FF9000C663E0FCA3E0FD7BA79B
:103940007A8B79DB9000C7E312000DF99000C66511
:10395000E0FAA3E0FB122630BB9000C643800E12B3
:1039600022004B122200897003014BE3A374011261
:1039700022014812220053A3E0FD122201CACDF019
:10398000A3ED122200249000C64701453612220002
:103990004B122200897003014BE3A374021222022E
:1039A0004BF09000C6401222009C240612220030E8
:1039B000FDA3E0CD122200C7240A1222003090009D
:1039C000C64712204C08122200ED240A12220030B1
:1039D0006003014BE31222018D12220035FEA3E0A9
:1039E000FF4E60041226323212220410FFAEF01293
:1039F000204C2512220192122201BEED12220192C8
:103A000012220035FEA3E0FF4E60081222041012BD
:103A1000204C301222041A1222023B12220035706E
:103A200003014BE3EE122200611222003512220044
:103A3000FBAD82FC02263FA11222004B122200891C
:103A40007003014BE31222016F1222003512220093
:103A5000DC600612220116E4F01222004BA3E07093
:103A600008122202571226C0E074051222003C12EE
:103A70002201CA0145361222004B1222008970032E
:103A8000014BE31222016F12220035122200DC608A
:103A90000612220116E4F01222004BA3E070081275
:103AA0002202571226C0E074031222003C122201A7
:103AB000CA0145361222004B122200897003014BC5
:103AC000E31222016F12220035122200DC6006127E
:103AD000220116E4F01222004BA3E0700812220229
:103AE000571226C0E09000C6437404122200401210
:103AF0002201CA0145361222004B122200897003AE
:103B0000014BE39000F01CE030E00A741B1222022B
:103B10004712204C089000F01DE0FFA3E09000C683
:103B200087CFF0A3EFF0E4A3F0122203EB9000C6DE
:103B300089E0C39B507E9000C687E0FEA3E0FF12A1
:103B4000220053E0122203A32463F582E434C61258
:103B500022039CF01222036CFFEC25E025E0246494
:103B6000F582E434C6122201A99000C68712220011
:103B70009C240812220030122203A32465F582E45B
:103B800034C6F583759300122200CD240A12220058
:103B900030FFEC25E025E02466F582E434C61222ED
:103BA00001A99000C6871222027B9000C689E0041A
:103BB000F0013B291222006DA3E0FD9000C68D7438
:103BC000C6F0A37463F0E4A3F00224A288122200DA
:103BD0004B122200897003014BE31222015312227F
:103BE0000053122201FD122200356D6003014BE3E8
:103BF000741A122203AFF08F8212220055A31222F0
:103C000001C9122200CE242D122200309000C64697
:103C100012204C129000C6401222009C242D122229
:103C200000306003014BE38F821222005512220301
:103C300095FF9000C642E0FD1222026B122201BEE7
:103C4000ED1222025F12220314ED122201811222D0
:103C50000035FEA3E0FF4E6004122632329000C60B
:103C600042E01222026B12220035FEA3E07802C36A
:103C700033CE33CED8F9FF12204C25122201811207
:103C80002201BEED1222018112220035FEA3E04E78
:103C90007003014BE3ED1222018112220035FEA3D5
:103CA000E0FFED1222026BF583759300A3E025E09F
:103CB00025E0FB9000C641E02405FD9000C640E0F1
:103CC0003400FC120012101222025712220181F558
:103CD0008375930001401F7EC67F637B13E4FD1252
:103CE00000004F1222004B122200897003014BE3A7
:103CF0001222010D122201D1E0640C701C9000C64A
:103D0000421222007EA3A3E0FD122724889000C661
:103D100076122200E5701780001222004BA3A3E068
:103D2000FF12272BBC9000C676EEF0A3EFF09000B8
:103D3000C676E07002A3E070611222010D1222012A
:103D4000D1E0640870121222007AA3E09000C68EBF
:103D5000122203B70225B4B31222010D122201D19F
:103D6000E0641C70121222007AA3E09000C68E124A
:103D70002203B70225A42C1222010D122201D1E048
:103D8000640C6003014BE31222007AA3E0FD900073
:103D9000C68E122203B80225A4DE9000C663740109
:103DA000F012220342A3E0FF12220053A3E090008E
:103DB000C669F08F8212220055A3A3E0FFA3E09012
:103DC00000C66ACFF0A3EFF09000C6761222009EE4
:103DD0002405122200309000C675F09000C66F7462
:103DE00001122200CE2408122200309000C670F08A
:103DF0009000C676122200F3240912220030FF90B0
:103E000000C671F07E007006A37404F08022EF6497
:103E1000024E70099000C6727406F080139000C6BE
:103E200076122200F1240B122200309000C672F0AC
:103E30009000C672E0FF7E0012253FAB9000C67373
:103E4000122200E57003014BE39000C673E0FEA36D
:103E5000E0FF9000C672E012204C309000C676124F
:103E6000220222240912220030FFED240BFDE43C43
:103E7000FC9000C673E0FAA3E0FB12249EE5122238
:103E8000010D122201D1E0640870131222007A128F
:103E90002203759000C68EF01225B4B3804612221C
:103EA000010D122201D1E0641C70289000C6761228
:103EB0002200F12405122200309000C675F08D8298
:103EC00012220078122203759000C68EF01225A4EB
:103ED0002C80111222006D122203759000C68EF004
:103EE0001225A4DE9000C673014A601222004B1214
:103EF0002200897003014BE31222004BA3E0FF90E4
:103F000000C642E012220206122200356F60030151
:103F10004BE39000C6437406122202569000C6443A
:103F2000F01222018112220035FCA3E0FD122202D0
:103F30005E1222003575F004A4FFED2FFFEC35F082
:103F40009000C663F0FCA3EFF0FD7EC67F457B04C6
:103F5000120012109000C6401222009C2409122266
:103F6000003060079000C6497401F0122200CF248F
:103F7000151222003060079000C64C7401F09000CA
:103F8000C6401222009C240F12220030600F122221
:103F900000CF2411122200309000C650F0122201EE
:103FA0000D12220226241112220030122201602456
:103FB0001212220030122200EC241312220030FAD6
:103FC000A3E0FB74C6122202C87452F01224A01C93
:103FD00012204C1C122200ED241612220030600325
:103FE000014BE3122202571222025F122200350413
:103FF000F01222025E12220035FD12220257122216
:10400000026B12220035FAA3E06D7001EA601E9087
:1040100000C663E475F00412000B099000C663E06B
:10402000FCA3E0122201D2E0FD022691F41222014B
:104030007C12220035FEA3E0FF4E7003014BE31219
:104040002632321222017C12220314A3F022122201
:10405000004B122200897003014BE31222004B1225
:104060002200D9701A1222005C122200351222019D
:104070000CF58212220082122202CF7412802112C9
:10408000220116E06401701E1222005C122200352B
:104090001222010CF58212220082122202CF741326
:1040A000F0E4FB0142251222010D12220226241106
:1040B00012220030640160030141E11222016124F7
:1040C0001312220030FFC0071222016124141222B1
:1040D0000030122200EC241512220030122202C0FD
:1040E0007465F0D0071224A01C1222009824091233
:1040F0002200306003014186122200CF240B1222DD
:104100000030122202A8606012220098240C1222B1
:104110000030122204216050122200CF240D1222FE
:1041200000301222042B604012220098240E12222A
:104130000030122204356030122200CF240F1222E8
:1041400000301222043F6020122200982410122214
:104150000030122203CA5010122200CF2411122262
:104160000030122203D550791222005C1222003551
:104170001222010CF58212220082122202CF74292F
:10418000F07B0701422512220098240912220030F8
:104190006402704D122200CF240B12220030122232
:1041A00002A8602012220098240C12220030122251
:1041B00002D76010122200CF240E122200301222E9
:1041C0000449701D1222005C122200351222010CDB
:1041D000F58212220082122202CF7429F07B07801E
:1041E000449000C6401222009C240B12220030642E
:1041F0000170369000C64704122200CE240C122211
:104200000030FEA3E064024E601F1222005C122206
:1042100000351222010CF58212220082122202CFF6
:104220007429F07B040227660B1222005C12220024
:10423000351222010CF58212220082A3E0FDE490E7
:1042400000C68DF0FB1227660B9000C663E0FEA34C
:10425000E0FF1222011E7401F01222010D1222024F
:1042600026241712220030640170639000C64A04AD
:10427000122200CE240A12220030640170509000F5
:10428000C642122201F012220035FEA3E0FF6403B1
:104290007003EE64017037EF64037003EE64017025
:1042A0002D1222041A12220061122200351222005D
:1042B000FB122203098D828C8312220029FD122217
:1042C000031C12220030FAA3E0FB12262FBF740752
:1042D00012220247F09000C6401222009C122200D7
:1042E0002E9000C645F08F8212220055A3A3E090C5
:1042F00000C646F09000C640122200F3241212229B
:1043000000309000C64D122200CE2413122200303D
:104310009000C64EF07EC67F5012204BF51222014F
:104320008D12220035FEA3E0FF4E604E1222032CB8
:104330001222033CC39F50201222010DF58212224B
:1043400000821222037E7001EA600D122202779031
:1043500000C676E004F080D89000C676E06F601A60
:104360001222004B12220212122200821222034950
:104370007CC67D477B1A12001210122201531222B2
:104380000053A312220353122201701222039C1223
:10439000220024FFEC1222019E221222004B122244
:1043A00000897003014BE3A37408122202569000A7
:1043B000C644F01222010D8C837593001222002E48
:1043C0009000C645F06003014BDBEF122201701232
:1043D0002200351222035D1222011E7401F0759332
:1043E00000E582240A1222003064016003014BDBE5
:1043F0001222041A122201F112220035FCA3E064F9
:10440000037003EC64016003014BDB9000C642E0E3
:10441000FD1222006112220035FFED1222028312EA
:10442000220035FD122200FC122203091222031C75
:1044300012220030FAA3E0FB12262FBF014BDB1241
:1044400022004B122200897003014BE31222015318
:1044500012220053122201FD122200356D60030169
:104460004BE37409122203AF122200CE241612224B
:1044700000309000C660122200CE240912220030C3
:1044800060079000C6467401F09000C640122200FA
:104490009C24151222003060079000C6497401F078
:1044A000122200CF240F12220030600F122200EDE2
:1044B0002411122200309000C64DF01222010D127C
:1044C000220226241112220030122201602412122C
:1044D000220030122200EC241312220030FAA3E052
:1044E000FB9000C68E74C6F0A3744FF01224A01C7B
:1044F000014BDB1222004B122200897003014BE3B7
:104500001222004B122200D99000C640700D1222D8
:104510000071A3E0FD7B12022767D012220071A375
:10452000E0FDE4FB122767D09000C643740C122212
:104530000040122201C9F0014BDB1222004B122273
:1045400000897003014BE3A3740D12220040122274
:1045500001C9F0014BDB1222004B122200897003CB
:10456000014BE31222004B122200D9700D122200DF
:104570006DA3E0FD7B120227696C12220116E4F0A4
:104580001222006DA3E0FDE4FB1227696C9000C6C7
:1045900043741012220040122201C9F0014BDB12B9
:1045A00022004B122200897003014BE3A374111205
:1045B00022004012204BE41222004BA3A3E0600330
:1045C000014BE31222016B122200351222035D011E
:1045D0004B751222004B122200897003014BE3122B
:1045E00022004B122200D9701D1222005C12220000
:1045F00035122201DA122200BFA3A3A3E0FB900030
:10460000C68D741280289000C643740E122200409A
:1046100012204BE41222005C12220035122201DA31
:10462000122200BFA3A3A3E0FBE49000C68DF0021A
:10463000275ED61222004B122200897003014BE341
:10464000740F122200009000C646F0014BDB1222CC
:10465000004B122200897003014BE31222004B121F
:104660002200D970201222005C1222003512220191
:10467000DA122200BFA3A3A3E0FB9000C68D741240
:10468000F002275EF41222006DA3E0FDE49000C664
:104690008DF0FB12275EF49000C6437412122200C4
:1046A00040122201C9F0014BDB1222004B12220002
:1046B000897003014BE37413122200009000C64678
:1046C000F0014BDB1222004B122200897003014BD8
:1046D000E31222004B122200D9701A1222005C123F
:1046E0002200351222010CF58212220082122202CF
:1046F000EB7412801F12220116E0701E1222005C61
:10470000122200351222010CF5821222008212229E
:1047100002EB7414F0E4FB0148991222010D1222FD
:104720000226241012220030640160030148551251
:10473000220161241212220030FFC00712220161FF
:10474000241312220030122200EC24141222003012
:10475000122202C07465F0D0071224A01C1222009D
:104760009824091222003060030147FA122200CF78
:10477000240B12220030122202A86060122200983C
:10478000240C12220030122204216050122200CF89
:10479000240D122200301222042B604012220098B5
:1047A000240E12220030122204356030122200CF73
:1047B000240F122200301222043F6020122200989F
:1047C000241012220030122203CA5010122200CFED
:1047D000241112220030122203D550791222005CDB
:1047E000122200351222010CF582122200821222BE
:1047F00002EB7429F07B07014899122200982409E2
:10480000122200306402704D122200CF240B1222BB
:104810000030122202A8602012220098240C1222DA
:104820000030122202D76010122200CF240E122272
:10483000003012220449701D1222005C1222003541
:104840001222010CF58212220082122202EB74293C
:10485000F07B0780449000C6401222009C240A127C
:10486000220030640170369000C64604122200CE49
:10487000240B12220030FEA3E064024E601F1222BD
:10488000005C122200351222010CF58212220082F5
:10489000122202EB7429F07B0402276E011222001F
:1048A000ED241612220030640170069000C64904FF
:1048B000F01222005C122200351222010CF5821245
:1048C000220082A3E0FDE49000C68DF0FB12276E6B
:1048D000019000C643740A122201481222005312AA
:1048E0002201C9122200CE2411122200309000C6EB
:1048F0004CF09000C640122200F324121222003025
:104900009000C64DF07EC67F4F12204BF51222015B
:104910008D12220035FEA3E0FF4E7003014BE3121F
:1049200022032C1222033CC39F50201222010DF5BA
:1049300082122200821222037E7001EA600D12228E
:1049400002779000C676E004F080D89000C676E04A
:104950006F7003014BE31222004B1222021212224B
:104960000082122203497CC67D467B1A0200121087
:104970001222004B122200897003014BE3A3740B37
:104980001222024BF0122200ED1222002E9000C6DD
:1049900045F0014BDB1222004B122200897003010B
:1049A0004BE31222004B122200D9703B1222005C12
:1049B00012220035FFC0071222015312220053A316
:1049C000E0FD12220025FAA3E0FB9000C640A3E020
:1049D0002406FFE43E9000C83BF0A3EFF0A374125E
:1049E000F0D007022508851222015312220053122B
:1049F000220353122202B41222039CF09000C643F9
:104A00007416F0A3ECF08F8212220055122201C915
:104A1000F0122200ED1222002EFEA3E0FF9000C64D
:104A200046EEF0A3EFF012253FAB9000C6481222ED
:104A300000E57003014BE37EC67F48122204532435
:104A400006FDE43AFC122200BFE582240412220390
:104A5000E0A3E0FB1200121012204C1C9000C6488C
:104A6000E0FEA3E0FF014AF91222004B1222008966
:104A70007003014BE3A37417122201481222005362
:104A8000A3A3E0FCA3E0FDEC122200C72415122230
:104A900000309000C649F0E49000C647F0A3F0D380
:104AA000ED9400EC9400403A9000C6401222005170
:104AB00012220395FF12253FAB9000C64712220039
:104AC000E57003014BE37EC67F47122204532405A1
:104AD000FDE43AFC122200BFA3A3A3A3E0FB120053
:104AE00012107EC67F43122750E19000C647E0FEB9
:104AF000A3E0FF4E7003014BE30226323212220084
:104B00004B122200897003014BE31222004B122248
:104B100000D9600612220116E4F01222006DA3E013
:104B2000FD122769849000C64374141222004012BB
:104B30002201C9F0014BDB1222004B1222008970C6
:104B400003014BE3A3741512220040122201C91283
:104B5000204C121222004BA3A3E06003014BE3128E
:104B600022016B12220035122200DC60769000C612
:104B700063E0FEA3E01222011EE4F0221222004BA9
:104B800012220089605DA3741812220001FFA3E0C5
:104B90009000C646CFF0A3EFF080401222004B12E7
:104BA000220089603EA3741912220040122201C91A
:104BB000F080281222004B122200896026E0FF12AA
:104BC00022028312220035FD122751819000C64334
:104BD000744012220040122201CAF07EC67F4312A6
:104BE0002750E122A3A3E09000C645F07EC67F4394
:104BF000122750E1227CC67D657B11120012107EC7
:104C0000C67F43122750E122F07EC67F4312275011
:104C1000E122F07EC67F43122750E1227EC67F4309
:104C2000122750E12212253FAB9000C642E0FD2240
:104C3000FBE4FD1200004F229000C7FB1220C56864
:104C4000A3F0A3F07EC87F007B11FD1200004F127D
:104C500020C35D759300E012000E684CB0014D98C2
:104C6000024F210350520450520551B206543707E7
:104C700054F50855940955CF0A563F0B56900C56DB
:104C8000D80D57940E58570F59F6105A6811590FEE
:104C9000125960135B49145BA4155C88165E7F177C
:104CA0005CBC185CD8195CF41A5E411B00005E60A5
:104CB0008F821220C02B122707F51220C127700205
:104CC00080189000C7FFE01220C0381220C1A12434
:104CD0000C1220C014E0640370109000C7FB122077
:104CE000C025E0FF7D01022706151220C9C9122048
:104CF000C029E0FD9000C7FD1220C2CB242812205D
:104D0000C014EDF08F821220C02BE0FFE4FD1227CB
:104D100006159000F3B3E0701D9000C7FB1220C091
:104D20007024041220C014E0700C1220C3E67B0B28
:104D30007D1912205ED29000C7FB1220C07024049F
:104D40001220C014E06003015E7F1220C0542423AF
:104D50001220C014E030E203015E7F1220C0461230
:104D600020C012E030E203015E7F9000C7FD1220F8
:104D7000C07224221220C014E054FB1220C045242B
:104D8000231220C014E044041220C3E59000C8445C
:104D90007401F07B02014EAE9000C7FB1220C025CB
:104DA0001220C11F7003015E7FE01220C038122064
:104DB000C1A1240C1220C014E06403700E9000C73F
:104DC000FB1220C025E0FF022742019000C7FB1222
:104DD00020C07024041220C014E0FFF4602590006D
:104DE000C7FD1220C0EF24291220C2BBC083C0829D
:104DF0001220C7068002C333D8FC4E759300D082C0
:104E0000D083F09000C7FB1220C07024041220C091
:104E100014E06003014EB41220C05424251220C0B7
:104E200014E054FB1220C04524231220C014122089
:104E3000C05024221220C014E054FB1220C045129E
:104E400020C012E04404F07D0312205E801220C9CD
:104E500068122595FF1220C909700C1220C3E67B49
:104E6000037D1212205ED29000F3B3E0703712205F
:104E7000C0FC240B1220C014E064019000DF2670F7
:104E80000EE0FF1220C5D4E4FB12264093801612D8
:104E900020C9D31220C0EF24071220C0141220C949
:104EA000B91226781E1220C3E61220C7B2FBE4FD19
:104EB0000226A0619000C7FB1220C07024041220BB
:104EC000C014E064016003015E7F1220C0542443DB
:104ED0001220C014E064016003015E7F9000F3B310
:104EE000E0702B1220C046242A1220C014E0640176
:104EF000700A1220C3E61226FA7280121220C06CC9
:104F0000242B1220C0141220C3E402256E7212203A
:104F1000C0FC24281220C014E0FF1220C0B80156A3
:104F2000849000C7FB1220C0251220C11F7003010E
:104F30005E7F1220C036AD82AC839000C7FDECF0DE
:104F4000A3EDF09000C7FB1220C0CCA3A3E0702714
:104F500012205EB81220C00DE054FB1220C0452480
:104F6000231220C014E054FBF01220C06C24221243
:104F700020C014E054FBF09000C7FB1220C025A312
:104F8000E06004640170351220C06C24411220C01E
:104F900014E0FFF4600D1220C0EB2F1220C014E0CB
:104FA000547FF01220C05424411220C01474FF1208
:104FB00020C04524421220C01474FFF09000C800A5
:104FC000E4F0A3041220C9119000C8047402F09008
:104FD00000C7FB1220C025A3E0FFF460269000C7A5
:104FE000FD1220C0EF24291220C2BBC083C0821250
:104FF00020C7068002C333D8FCF45E759300D082CC
:10500000D083F09000C7FB1220C025A3E0702F12C0
:1050100020C05424291220C014E41220C0452425A5
:105020001220C014E054FBF0E49000C805F07EC8E4
:105030007F001226523B1220C3E612264C439000FA
:10504000C7FB1220C0251220C8606003015E7F01EB
:1050500051A61220C35D759300E0640470028004C1
:105060001220C35D759300A3E09000C811F08F82F9
:105070001220C02BA3E09000C812F09000C81112BB
:1050800020C11F7003015E7FE01220C0381220C4CF
:1050900067F09000C812E0FFF460269000C7FD1290
:1050A00020C0EF24291220C2BBC083C0821220C7B7
:1050B000068002C333D8FCF45E759300D082D0839F
:1050C000F09000C812E060030151561220C3E612AE
:1050D000205EB81220C00DE054FB1220C0452423EE
:1050E0001220C0141220C05024251220C014E054F5
:1050F000FB1220C04524221220C014E054FBF01201
:1051000020C06C24411220C014E0FFF4600D122076
:10511000C0EB2F1220C014E0547FF01220C05424A2
:10512000411220C01474FF1220C04524421220C036
:105130001474FF1220C04524291220C0141220C369
:10514000E41220C7BA7B02FD1226A0611220C3E63A
:1051500012264C4380439000F3B3E0703C9000C8AB
:1051600012E0640170331220C054242B1220C014AA
:10517000E0640170241220C04624281220C01412BA
:10518000205EFF1220C054242C1220C0141220C014
:1051900043242A1220C014E4F09000C8111220C841
:1051A000606003015E7FFD1225F2639000DF1E0147
:1051B00055909000C7FCE02401FF1220C94DFE90DD
:1051C00000C811F0A3EFF0F5828E837593001220D2
:1051D000C11F7003015E7FE49000C82FF0A3F09020
:1051E00000C7FFE01220C0381220C1A1243F1220C6
:1051F000C014E0FEA3E0FF9000C82F1220C3FC7093
:1052000003015E7F9000C82F1220C2251220C955CD
:10521000FFC39D50591220C9DAEF1220C8A21220F4
:10522000C0B824041220C0141220C693FE9000C8F7
:1052300012E024057B1A12205EAA1220C9DA12207D
:10524000C0D0A3E075F004A4FFAEF01220C230A3DA
:10525000A31220C693FE9000C812E024017B041222
:10526000205EAA9000C82F1220C025E004F0900014
:10527000C82F1220C2251220C9556D6003015E7F20
:105280009000F3B3E060030153741220C054242C47
:105290001220C014E0640160030153FC1220C046D8
:1052A000242A1220C014E060030153FC1220C7110D
:1052B0001222E7A09000C814EFF0F470030153FC31
:1052C0001220C5467CC87D1E7B11120012101220D0
:1052D000C05424331220C014E0FD1220C046243EE6
:1052E0001220C0141220C96060081220C546122482
:1052F0002DA99000C82F1220C025A31220C225C0BE
:1053000083C0821220C57BD082D0831220C0632448
:10531000281220C01412205E911220C054242A1298
:1053200020C0147401F09000C814E0FD1220C046A3
:1053300024411220C014EDF09000C82F1220C02587
:10534000A31220C225C083C0821220C57BD082D088
:105350008375F00412000DCD1220C9D31220C2CBE8
:1053600024421220C014EFF09000DF111220C07010
:105370002D0153F41220C711122121969000C81458
:10538000EFF0F460779000C82F1220C025A3122000
:10539000C225C083C0821220C57BD082D083122058
:1053A000C06324281220C01412205E919000C814FB
:1053B0001220C0FA24411220C014EFF09000C82F30
:1053C0001220C1F9A3A3E0FAA3E0F5828A83C08387
:1053D000C0821220C57BD082D08375F00412000DEC
:1053E000CDE0FE1220C0B824421220C014EEF0120C
:1053F00020C0EB2F1220C014E04480F09000C82F92
:105400001220C07024041220C01412205EC8900024
:10541000C82F1220C025A312205EC89000C82FE01C
:10542000FEA3E0FF122632321220C06C243F12206D
:10543000C014E4F0A3F0229000C7FB1220C0251294
:1054400020C11F7003015E7FE01220C0381220C40B
:10545000671220C05324431220C014E4F01220C766
:10546000CB1220C0D0A3A3A3E0C39401FB1220C0A1
:105470004624411220C014EB1220C22FA31220C0D8
:10548000F924421220C014EF1220C0B72441122088
:10549000C0141220C0E92F1220C014E04480122052
:1054A000C4E66003015E7F1220C054242A1220C08B
:1054B000147402F0EF242DFFE43EFE9000C7FCE0E0
:1054C000240DFD1220C94DFC7B1112001210122078
:1054D000C05424331220C014E0FD1220C046243EE4
:1054E0001220C0141220C9607003015E7F1220C513
:1054F0004602242DA99000C7FB1220C0251220C10E
:105500001F7003015E7FE01220C0381220C1A12469
:10551000431220C014E4F09000C7FB1220C025A362
:10552000E0703B9000F3B3E070181220C0FC242A16
:105530001220C014E064016003015E7F1220C0B835
:1055400080041220C0FC24281220C014E0FF122086
:10555000C0B824421220C014E0FD022751211220BD
:10556000C06C24411220C014E0FFF4600D1220C072
:10557000EB2F1220C014E0547FF01220C0542441BD
:105580001220C01474FF1220C04524421220C014FF
:1055900074FFF0229000C7FB1220C0251220C11F0B
:1055A0007003015E7F9000C7FB1220C070241D12A3
:1055B00020C014E06003015E7F9000C7FFE012206E
:1055C000C0381220C1A124431220C014E4F022905C
:1055D00000C7FB1220C0251220C11F7003015E7F8F
:1055E0001220C06C24431220C014E0640160030147
:1055F0005E7F9000C7FFE01220C0381220C467F021
:105600001220C0FC24431220C0147401F09000C783
:10561000FB1220C1F9A3A3E0C39401FB1220C0B880
:1056200024411220C014EB1220C04524411220C096
:10563000141220C0E92F1220C014E04480F0229000
:1056400000C7FB1220C0251220C11F7003015E7F1E
:105650009000C7FB1220C025A3E06003015E7F908D
:1056600000C7FFE01220C0381220C1A1244312203D
:10567000C0141220C04324281220C0141220C9D301
:105680001220C0EF24421220C014E0FD0227514135
:105690009000C7FB1220C0251220C11F7003015EBD
:1056A0007F1220C0361220C2721220C0141220C4F1
:1056B000E46003015C679000C7FD1220C0EF242A5C
:1056C0001220C014E064026003015C677B03FA7D72
:1056D0001A122595FF015C679000C7FB1220C025B8
:1056E0001220C11F7003015E7F9000C7FB1220C013
:1056F00025A3E06003015E7F9000C7FFE01220C099
:10570000381220C1A124431220C0141220C4E47016
:10571000431220C05424291220C014E05402700205
:1057200080411220C06C242A1220C014E064017051
:105730000A1220C3E61226FA72803A1220C06C24A4
:105740002A1220C014E0640270471220C3E612251A
:105750006E72803D1220C05424291220C014E054DF
:105760000270121220C04624281220C014E0FF123A
:10577000275FFC801C1220C0FC24281220C014E0EB
:10578000FF1220C0B824421220C014E0FD1227519D
:1057900041015C679000C7FB1220C0251220C11F89
:1057A0007003015E7FE49000C811F0A3F01220C0E6
:1057B000321220C2721220C0147402F01225B2A953
:1057C0007E009000C811EEF0A3EFF06401700301B9
:1057D0005E7F1220C90970381220C60DF460179040
:1057E00000C7FB1220C0CCA3E0FEEF6E6008900063
:1057F000DF1E12205ED99000C7FB1220C0251220A8
:105800005EF4700C9000C7FB1220C0251220C88CDB
:105810009000F3B3E0700A7D1A12205E801226FA1F
:10582000729000F3B3E070191220C06C242A122089
:10583000C014E06402700A1220C3E612256E728062
:10584000139000F3B3E0700C1220C06C242B1220D4
:10585000C014E4F0015C679000C7FB1220C0251261
:1058600020C11F7003015E7F1220C9C91220C02908
:10587000A3A3E06003015E7F9000C7FFE01220C099
:10588000381220C2721220C01474021220C4E664BE
:105890000170379000DF1EE0FDF460148F8212204B
:1058A000C02BE0FFED6F60081220C60D12205ED9FC
:1058B0009000C7FB1220C02512205EF4700C9000EF
:1058C000C7FB1220C0251220C88C9000F3B3E070F3
:1058D000081220C3E61226FA729000F3B3E07019A2
:1058E0001220C06C242A1220C014E06402700A1234
:1058F00020C3E612256E7280139000F3B3E0700CA3
:105900001220C06C242B1220C014E4F0015C6790BC
:1059100000C7FB1220C0251220C11F7003015E7F4B
:105920001220C0361220C2721220C01412205EE073
:10593000702B1220C0FC242B1220C014E0640170D4
:105940001C1220C0B824281220C014E0FF1220C06E
:10595000B824421220C014E0FD122751A1015C6757
:105960009000C7FB1220C0251220C11F7003015EEA
:105970007F9000C7FB1220C025A3A3E07040122037
:10598000C0321220C2721220C01412205EE0702BAE
:105990001220C0FC242B1220C014E06401701C12E1
:1059A00020C0B824281220C014E0FF1220C0B82460
:1059B000421220C014E0FD122751A1015C67900043
:1059C000F3B3E06003015E7F1220C0FC242B1220A1
:1059D000C014E064016003015E7F1220C0B8242877
:1059E0001220C014E0FF1220C0B824421220C014BC
:1059F000E0FD022751A19000C7FB1220C025122014
:105A0000C11F7003015E7F1220C0361220C27212C5
:105A100020C01412205EED1220C06C24411220C060
:105A200014E0FFF4600D1220C0EB2F1220C014E030
:105A3000547FF01220C05424411220C01474FF126D
:105A400020C04524421220C01474FFF09000C7FB10
:105A50001220C0251220C60BB5060AE4FD1225F25D
:105A6000631220C61C015C679000C7FB1220C02592
:105A70001220C11F7003015E7F9000C7FB1220C07F
:105A800025A3E06003015E7F1220C0321220C272A3
:105A90001220C01412205EED1220C06C244112208E
:105AA000C014E0FFF4600D1220C0EB2F1220C014D0
:105AB000E0547FF01220C05424411220C01474FF1F
:105AC0001220C04524421220C01474FF1220C4E6E4
:105AD00070551220C054242B1220C014E0640170B1
