:020000040020DA
:1000000002200D979000F5C512000D747810EC4D8C
:100010004E4F70047CA57DA5C3EC13FCED13FDEEE3
:1000200013FEEF13FF5010EC64CCFCED644CFDEEBE
:10003000644EFEEF64CEFFD8DF9000F5C512000DD0
:10004000B5EE547FFE229000F5C5EEF0EFA3F0A3CD
:1000500074A5F0A3F0220000000000001000800052
:1000600000805F9B34FB00000000000000000000E7
:1000700002277C4F000000000227C0440227BFA4D3
:1000800002239283022698832207FF220222485AE3
:10009000022171D302248206C0E0F5E0C0E09000A6
:1000A000F61EE06401700975E00215E070FC802422
:1000B0009000F61EE06402700975E01415E070FC13
:1000C00080129000F61EE06403700975E03015E0C0
:1000D00070FC8000D0E0E5E0D0E02230303030002D
:1000E0000000000000000000000000220224AD8893
:1000F0002A2B222222000000000000000000000045
:1001000000000000000000000000000000000000EF
:1001100000000000000000000000000000000000DF
:1001200000000000000000000000000000000000CF
:1001300000000000000000000000000000000000BF
:10014000000000220227C270E09028FE00F103099F
:100150000000F3010AF40401000004F203090001A5
:10016000F3023506F40619110E19110FF2030900F6
:1001700004F3023510F41035061901000900173593
:1001800006190017090104F203090006F3023509F4
:10019000F40909656E09006A090100F20309000902
:1001A000F3023508F408350619110E090106F203A9
:1001B000090100F3022508F4084156524350204338
:1001C00054F203090102F3022504F4044D4348509C
:1001D000F203090311F30109F4020001FFE08D2885
:1001E000FE90F103090000F3010AF4040100000588
:1001F000F203090001F3023503F40319110CF203B1
:10020000090004F3023510F4103506190100090045
:10021000173506190017090104F203090006F30255
:100220003509F40909656E09006A090100F203093C
:100230000009F3023508F408350619110E09010604
:10024000F203090100F3022508F408415652435015
:10025000205447F203090102F3022504F4044D433C
:100260004850F203090311F30109F4020002FF50A0
:10027000DD4855E405D2AF9FA98FE54A7DFE435383
:10028000534942DC00001053DCB118A2001696243A
:1002900047C62361BAD94B4D1E4353534942DD44EF
:1002A000001350DBD116962447C62361BAD94B4DB3
:1002B0001E4353534941DD470042DBCF000142DC7E
:1002C000C4000042DD58000253DC350CA500B39B8E
:1002D0007234BEECD4A8F44341884353534942DD01
:1002E00042001350DBBFB39B7234BEECD4A8F4437E
:1002F00041884353534941DD460042DBBD00015371
:10030000DBED1CA7007E3B07FF1C51492FB3398A48
:100310004C4353534942DC11001350DCD07E3B0761
:10032000FF1C51492FB3398A4C4353534941DC13C5
:100330000042DCCE000142DC0C000042DC14000272
:10034000605ADC57F0CEDD48DC0000100001F0AE52
:10035000DCB1DD4400130001DBD1DD47DBCF00F76A
:100360000D10F0ACDCC4DD5800022111F0AEDC351C
:10037000DD4200130001DBBFDD46DBBD00F70D10E1
:10038000F0AEDBEDDC1100130001DCD0DC13DCCEC1
:1003900000F70D10F0ACDC0CDC140002211148DC7D
:1003A000C60000DC5700A000A841EE300044EE2A51
:1003B0000000000047EE3420434C43433A2041EE16
:1003C0003B8241EE31006042EE3CFF00FF01020241
:1003D00003030404050506060707080809090A0AB5
:1003E0000B0B0C0C0D0D0E0E260F290F10101711F4
:1003F0001A121D1323142415FF16FF17FF18FF19D7
:10040000FF1AFF1BFF1CFF1DFF1EFF1F58C4A70084
:10041000A3000100A8000100C5000100F3000100D5
:10042000F7000100FA000141ED830041EDAA00420E
:10043000F19E000043F29B00000043F29E0000008A
:1004400041F3410141D13B0041D13E0141D2730012
:1004500041D2740041D26F0041D12F3341CC0E0004
:1004600042CC14000042DEA60A1842DEBA00024561
:10047000DECB02D200292A42DEEF000542DFDC2972
:100480002A44DEFB4D43485042DFDA000445DED902
:1004900002D400242A42DF05000542DEAA242A44B1
:1004A000DF07424D383342DEA8000445DEC602D6DF
:1004B00000252A42DEED000542DFD8252A44DEF77A
:1004C0003030303042DFD6000445DEC102D800278C
:1004D0002A42DEE0000542DFCC272A46DEF1425404
:1004E000424D383342DFCA000645DEBC02DA002640
:1004F0002A42DEDE000542DFC8262A46DEE731302A
:100500003030303342DFC6000645DED402DC00283E
:100510002A42DEFF000542DEA4282A44DF013030F3
:10052000303042DEA2000445DEE202DE00232A4231
:10053000DFC4000542DEB8232A48DFCE00000000F9
:100540000000000042DEB6000845DFBD02E0002AE0
:100550002A42DEAC000542DED22A2A48DEAE000086
:1005600000000100000042DED0000860AADF0BF0AE
:10057000CEDEA6DEBA00020001F0AEDECBDEEF007A
:10058000050001DFDCDEFBDFDA00F70A01F0AEDE9A
:10059000D9DF0500050001DEAADF07DEA800F70AA3
:1005A00001F0AEDEC6DEED00050001DFD8DEF7DFCC
:1005B000D600F70A01F0AEDEC1DEE000050001DF83
:1005C000CCDEF1DFCA00060001F0AEDEBCDEDE00EC
:1005D000050001DFC8DEE7DFC600060001F0AEDE81
:1005E000D4DEFF00050001DEA4DF01DEA200F70A71
:1005F00001F0AEDEE2DFC400050001DEB8DFCEDED2
:10060000B600080001F0AEDFBDDEAC00050001DE83
:10061000D2DEAEDED00008000148DFB50000DF0BFF
:1006200000D000E050E17CC2EA3379AFA9CD832449
:100630004CE0874353534942E1CE001053E1A49A62
:10064000F20045106CF2B716219670445CB7435324
:10065000534942E240001350E13B45106CF2B7169B
:10066000219670445CB74353534941E2550042E23E
:100670003E025842E1CA000042E256000244E178DC
:100680000100002942E1CC000453E24218F6003F89
:100690006A776644F021B57749B64B4353534942D4
:1006A000E139001350E1673F6A776644F021B5777E
:1006B00049B64B4353534941E15E0042E1370001E3
:1006C00042E258000042E15F000253E14B1AF90098
:1006D000786D43F61088DE94A345D12D43535349DA
:1006E00042E165001350E1BA786D43F61088DE945C
:1006F000A345D12D4353534941E1770042E16300C3
:100700000142E161000042E18C0002606EE1D0F044
:10071000CEE17CE1CE00100001F0AEE1A4E24000A9
:10072000130001E13BE255E23E00F71F11F0ACE19E
:10073000CAE25600022111F0CCE178E1CC000400BD
:1007400011F0AEE242E13900130001E167E15EE140
:100750003700F70D10F0ACE258E15F00022110F015
:10076000AEE14BE16500130001E1BAE177E163001E
:10077000F70D10F0ACE161E18C0002211148E12F8E
:100780000000E1D000F000FA50E783E4A581502991
:1007900097F0FC1A44D5044353534942E7B600107E
:1007A00053E80602C20032A23EF5B468DFDB4839E6
:1007B00027984353534942E780001350E7A632A2DB
:1007C0003EF5B468DFDB483927984353534941E786
:1007D000820042E7A4000153E81918C400EDFDAD02
:1007E00023D3EEDAE5276CE3954353534942E7936D
:1007F000001350E7BAEDFDAD23D3EEDAE5276CE345
:10080000954353534941E7950042E7B8000142E858
:1008100034000042E7960002603CE7CAF0CEE7836E
:10082000E7B600100001F0AEE806E7800013000113
:10083000E7A6E782E7A400F70E01F0AEE819E79318
:1008400000130001E7BAE795E7B800F70D10F0AC28
:10085000E834E7960002211148E82C0000E7CA00BE
:10086000C000C541F61E006040EB21800000000082
:100870000000000000000000000000000000000078
:100880000000000000000000000000000000000068
:100890000000000000000000000000000000000058
:1008A000000000000000000000000041DAF70060D6
:1008B00030DAFAA8DA1BA8D9D1A8DA0BA8D9BDA8D2
:1008C000D9F8A8D9A6A8D9E2A8D98CA8D97FA8D93F
:1008D00035A8D96FA8D921A8D95CA8D90AA8D94622
:1008E000A8D8F041D9F80041D9F90041D9FA00411E
:1008F000D9FB0141D9FC0041D9FD0041EE7E004405
:10090000EE7F0000000042F0C2001842F0BE011865
:1009100042F0CE002842F0D0012842F0BA0228422C
:10092000F0AE032842F0CC002942F0B8012942F091
:10093000AC022942F0B2032942F0B0042942F0AAE5
:10094000052942F0C6002A42F0B4012A42F0BC0454
:100950002A42F0C4052A42F0B6A62A42F0D2C92A99
:1009600042F0C0292B42F0CA2A2B42F0C83A2B5041
:10097000F23700000000000000000000000000004E
:10098000008742E498000245E3960A0300002A42E9
:10099000E44600056020E4504254353531315F5360
:1009A000444B0000000000000000000000000000B8
:1009B000000000000000000042E489000A45E47ADB
:1009C000020500012A42E494000542E49600004238
:1009D000E394000245E3C9020700042A42E47000E0
:1009E0000548E4720800000A02010D0042E492008A
:1009F0000845E484020900A62A42E49F000541E379
:100A0000840042E39F000145E47F020B00C92A42B3
:100A1000E49C000541E49E0042E39D0001606EE31A
:100A2000CEF0CEF0C2E49800020001F0AEE396E40E
:100A30004600050001F0C6E450E48900201B11F0D7
:100A4000AEE47AE49400050001F0B4E496E3940087
:100A5000020001F0AEE3C9E47000050001F0BCE45F
:100A600072E49200080001F0AEE484E49F00050007
:100A700001F0B6E384E39F00010001F0AEE47FE4FF
:100A80009C00050001F0D2E49EE39D0001000148B6
:100A9000E4480000E3CE0001000B42E49000024570
:100AA000E48B201200052A42E385000544E3870118
:100AB00000FFFF42E43C000442E49A000042E39B52
:100AC00000026028E3A1F0CEF0BEE4900002000135
:100AD000F0AEE48BE38500050001F0C4E387E43C5D
:100AE00000040000F0ACE49AE39B0002201148E40B
:100AF0003E0000E3A10010001341F38B0043F3908C
:100B000000010341F3880041F3890041F38A004169
:100B1000F1460050EA10666DD038E26F4AA483CCEB
:100B2000D0C94343534942E99B001053E9A018320E
:100B3000001803A6285ED8EC911C48A3AC4353537D
:100B40004942EA0B001350EA351803A6285ED8EC98
:100B5000911C48A3AC4353534941EA0D0042EA3388
:100B6000000142EA01000042EA0E000253EA2004BA
:100B700035004F84F610761AD4BD4941E41843532A
:100B8000534942E99D001350E9F14F84F610761A5B
:100B9000D4BD4941E4184353534941E99F0042E918
:100BA000EF0001603CE9B3F0CEEA10E99B001000D1
:100BB00001F0AEE9A0EA0B00130001EA35EA0DEA04
:100BC0003300F70D10F0ACEA01EA0E00022111F03B
:100BD000AEEA20E99D00130001E9F1E99FE9EF0089
:100BE000F70D1048EA030000E9B30030003544E196
:100BF00001003300010041F62E00C2D530F707B2E4
:100C0000D563F0FF05F030E70DB2D5F4040084633E
:100C1000F0FF05F080018430D502F40422BC000B03
:100C2000BE0029EF8DF084FFADF022E4CCF875F022
:100C300008EF2FFFEE33FEEC33FCEE9DEC98400501
:100C4000FCEE9DFE0FD5F0E9E4CEFD22EDF8F5F0C7
:100C5000EE008420D21CFEADF075F008EF2FFFED02
:100C600033FD4007985006D5F0F222C398FD0FD50A
:100C7000F0EA22C2D5EC30E709B2D5E4C39DFDE429
:100C80009CFCEE30E716B2D5E4C39FFFE49EFE1253
:100C9000200C1DC3E49DFDE49CFC800412200C1D6F
:100CA00030D507C3E49FFFE49EFE22F8EB700C09E9
:100CB000E5F027C7F5F019E837C72289828A83143F
:100CC00010E707F593E802000B1FF593E474019316
:100CD000F5F0E49322BB000B09C5F027F7C5F01926
:100CE00037F722F8EB89828A831410E707F593E837
:100CF00002000B09F59374019325F0F5F0E49338A5
:100D000022EB7006E9F802200D3B89828A831410D9
:100D1000E706F59302000D9CF59302200D48EB7059
:100D200006E9F802200D5889828A831410E706F537
:100D30009302000DD9F59302200D61E6FB08E6F958
:100D400008E6FA08E6CBF822E493F8740193F97404
:100D50000293FA740393FB22E6FB08E6FA08E6F92D
:100D600022E493FB740193FA740293F92202279C04
:100D70007CE493A3F85407240CC8C333C4540F4431
:100D800020C8834004F456800146F6DFE4800C015D
:100D90000204081020408090200148E47E01936006
:100DA000CCA3FF543F30E509541FFEE493A3600138
:100DB0000ECF54E0B4E029E493FBA3E493FAA3E458
:100DC00093F9A3E493C083C08212000AE3759320D1
:100DD000D082D083A309E970010ADFE7DEE580BB9A
:100DE00054C025E0602B4089E493A3FAE493A3F870
:100DF000E493A3C8C582C8CAC583CA759300F075B9
:100E00009320A3C8C582C8CAC583CADFE3DEE180D8
:100E10008AE493A3F8E493A34003F68001F208DF89
:100E2000F402200D9BA88FC40004D104A8A7E700FA
:100E300001B701A88A1600019E47A8B0A100019E33
:100E400069A8B0B800019EBAA88A3D00019ED1A849
:100E500080440001587DA88A640002BA8CA7FD2155
:100E60000003D495A88CEB000140AEA7B34D00035E
:100E70002D73A840A00003EBF7A6D88B00047A35A9
:100E8000A8BA70000324C2A8A8030000100FA82667
:100E90009D0002830BA8BA81000396B6A8BA9200FF
:100EA000039797A8AD1F000486D1A8B78300044D0F
:100EB00067A85C5D0001B5AAA84CEA00017A0AA8FF
:100EC0000D6400036114A8BD2000008D66A7A81C56
:100ED000000288E1A8710B0003B920A82FA6000129
:100EE00051A2A887020004E099A7F76A000267727E
:100EF000A6FC140001BE52A8103E000320A2A8B513
:100F0000CB0002CB013F65098601000A0004781D71
:100F100035330D0D1305447F50244050300002201E
:100F2000404014080016200A1016201E0F0F5555B9
:100F3000160A540B0412000010120700000319FFD8
:100F400040F07F40000077015E00F001E000C82023
:100F50004E000048393024201812600000000000C4
:100F60000000000000504241424D38335F4D535065
:100F70004B323000000000000000000000000000C4
:100F800000000000000000000000000000222222FB
:100F90002222222222222222222222222200000097
:100FA0000000000000000000000000000000000041
:100FB00000000000000000000000000000424D386A
:100FC000335F4D53504B323000000000C10300002E
:100FD0000020011001130114C101000000010000F4
:100FE00000010000000100000000000000000000FF
:100FF0000000424C455F424D383353444B000000E3
:101000000D0A0D0A02255B43022686E106FF022730
:10101000050103220227B3CF02275EEC02265D748E
:10102000022622B80226E7B50226B9F80225245284
:1010300002212B35022271D502277EB80225B5790F
:10104000022427140223E6E60226FB1D0221CBF42C
:101050000227029E0223D08702268EDD022741A5A9
:101060000226C2DE0227687602269D7C02277B418B
:1010700002266B6B02262E470226921B0226B853CD
:101080000225B4AF02259C80022782F30224F46576
:101090004D414749433A30303030E49000C516F0B6
:1010A0009000C512F0A3F0A3F09000DBB5E064015E
:1010B000601012238466701EA2904003D38001C387
:1010C00040149000D508E07002A3E06006E4FF122F
:1010D00022BA897FFF22122383F6C39000D51E70A7
:1010E00005E094108003E09411FF9000D51DE0947A
:1010F00000FE9000D53EE0FDC3EF9DFFEE94009012
:1011000000C510F0A3EFF09000624EE0FF6406709F
:1011100003011E7EEF640C7003011E7E9000C5105B
:10112000E07002A3E07003011E7E9000DAB1E0607F
:101130000764016003011E7E1227A560EF600301B2
:101140001E7E9000D4F51223836E240C1223831488
:10115000E0FEA3E01223834812238314E06003011E
:101160001E739000D53FE020E0030111F79000E9E5
:1011700067E060030111F7122384669000C51970BF
:10118000057409F080037412F012201F04EFF09030
:1011900000C51A1223834312238314E4F0A3749925
:1011A000F09000C51912238360E58224071223837F
:1011B00014EDF09000C51A122384E324081223834F
:1011C00014740DF09000D53212238360E582240957
:1011D00012238314EDF09000C51A1223837E240A93
:1011E00012238314E4F07F0712000451E49000DA24
:1011F00010F09000DA94F09000D533E06003011312
:10120000601223831F7AC57B177D1012201F29903F
:1012100000D52DE0700301135D9000C517E0649CBC
:10122000600301135D9000C51304F01223831F7A3D
:10123000C57B177D117C0012201EC97AC57B187DE5
:101240001212201F299000C517E0FF9000DA10E06D
:101250006F6022122384A470079000C513F08029C8
:101260009000DA10EFF09000C518E09000D54B1216
:1012700023848B80149000C518E0FF9000D54BE0CC
:101280006F6006EFF01225114C9000C513E0640169
:1012900060030113DEA3E060030113DE9000C519B3
:1012A000122384AC9000C519F012238447C39F40D9
:1012B00003011347E4A3F09000C51AE0FD12238454
:1012C000C550631223831F9000C51CE02410FB90BF
:1012D00000C51BE03400FA7C00EB2DFDEC3A122037
:1012E0001EAB9000D58CE02410FDE433FC9000C5CB
:1012F0001CE02DFD9000C51BE03CFC9000C51AE0F1
:101300007A002DFDEA3CFC7AC57B1812277E8C9072
:1013100000C518E0FF9000C517E0B507099000C5AB
:101320001AE004F080919000C51AE06403701890F0
:1013300000D58CE0FF9000C51B122384779000C578
:1013400019E004F00112A9122384476F70030113FE
:10135000DEE49000C513F09000C51680297FFF22BF
:10136000122383F670259000C513041223840370A2
:1013700011122384A470079000C513F08004122377
:10138000848C9000DA1074FFF080539000D52DE02B
:10139000604C1223831F7AC57B197D117C001227B4
:1013A0007E8C9000C519E054F8F09000C5137401CC
:1013B0001223840354F81223844FFEB507089000CB
:1013C000D53FE030E018122384A470079000C513C5
:1013D000F0800BEE44079000DA101223848B90000B
:1013E000C513E07003011E7EA3E060601200048A52
:1013F0001223833412238314E4F0A3740B12238486
:1014000003FB12238309EBF07F08120004519000C4
:10141000D53FE054FEF0E4FF1222BA899000625CEE
:10142000E06076122383E16005EF6409706BE4905D
:1014300000DBB1F01200048A122382E9741EF090DE
:1014400000C519E0FCA3E0FD7F0780499000624ED3
:10145000E0FF640D6043EF6404603EEF64036039B5
:101460009000DAABE0640460309000624EE0640A01
:101470006027EF640C60221200048A122383341266
:10148000238314E4F0A3740B12238403FB1223833D
:1014900009EBF07F08120004519000C510E0FEA394
:1014A000E09000D4F512238439A3A312238396A3DA
:1014B000A3E475F01012000B099000F606E090000E
:1014C000C512F06003011C8D122383F67008900092
:1014D000C51504F0800C9000D52DE0540F9000C588
:1014E00015F09000E951E06059122383E16005EFA7
:1014F0006409704E9000D5241223837824091223A6
:101500008314EFF09000D51AE0FF1223839BE5824D
:10151000240812238314EFF09000D50CE0540F64DC
:1015200001700A9000D517E09000D4F7F0122383E1
:101530009BE582240912238314E09000E97BF001EB
:1015400017DBE49000C51AF09000D554E004F012C7
:10155000238378240912238314122383C39000D594
:101560005CE02FF09000D527E0FBA3E09000C51BC6
:10157000CBF0A3EBF09000D4F1E0F4607EE004F057
:101580009000D4F4E0FEEFC39E400C9000C515E03F
:101590009000D4F4F0801E9000D50AE0FF9000C5C2
:1015A00015E0FEC39F40089000D50AEEF08006903B
:1015B00000D4F2EEF09000D4F1E06414703D74FFBA
:1015C000F09000D50AE0700A9000D4F4E09000D5C5
:1015D0000AF09000D4F2E0700A9000D50AE0900082
:1015E000D4F2F09000D50AE0FF9000D4F4E02FFF91
:1015F0009000D4F2E02F9000D4F7F09000C51BE0EB
:10160000FFA3E09000D559122383C09000D562E477
:10161000F0A3EFF09000D55CE0FF1223839BE582FE
:10162000240812238314EFF09000C5197408F09079
:1016300000612AE070030117209000D52DE0FF9093
:1016400000C51D122383F570071223840A0116FAC0
:101650009000C51DE0FD7C00C3122384B64020121B
:1016600023840A9000D275E004F0122384B450035E
:101670000116FA1223840AE49000D275F0807BED03
:1016800064074C701F1223840A9000D504E004F014
:10169000E0D3122384C640621223840AE49000D56A
:1016A00004F080569000C51DE0FD7C0064067021AA
:1016B0001223840A9000D505E004F0E0D39404746A
:1016C0008094804035122384BDE49000D505F080DD
:1016D00029D3ED9405EC64809480501E122384BDC0
:1016E0009000D507E004F0E0940674809480400AEE
:1016F000122384BDE49000D507F09000D50BE06084
:10170000199000C51DE0122384C5400E9000D50B32
:10171000E014F09000C519E014F09000D558EFF0F7
:10172000122383CCA3E0FD8F82122383292DFDEDAC
:1017300030E0149000C511E0240F12201E859000A7
:10174000C511E0240E80161223831F9000C511E0FE
:10175000240E12201E859000C511E0240DFD90007E
:10176000C510E012201F109000C515E0FB9000D5B9
:1017700054E0FE2BFD9000C517E02DFDA3E02D5495
:101780000FFDC2AF9000E96EE054F04401F090000C
:10179000D4F7E09000E979F09000E97BEEF090005A
:1017A000D55CE09000E97CF0EB540FFFA3E054F02F
:1017B0004FF0AF05EF540FC454F0FFE0540F4FF05B
:1017C0009000DBB9A3E09000E978F01223831F7C3E
:1017D000E97D6E7B1012001210D2AF122384666076
:1017E00003011A019000C515E025E02402FF9000D6
:1017F000C51DF07E00D39410748094805055EF94F2
:10180000047480948050061200048A80289000C5D9
:101810001D122384B450061200049D80189000C548
:101820001DE0D39410748094805006120004B080A0
:10183000041204EF80EE122384FAEFF09000C51535
:1018400012238360E582240812238314EDF0EF2431
:1018500009807312201F04EFF09000C51DE0FFC344
:101860009401FDED541FD39400E49400400AEF94DA
:1018700001C413540704800C9000C51DE0C39401FB
:10188000C4135407FF1204875F9000C51A12238304
:101890007E240812238314EE122383C11223839B18
:1018A000E582240812238314E0FCA3E01223843F82
:1018B000EFF09000C51A1223836E240812238314BC
:1018C000E0FEA3E02401FFE43E9000C522F0A3EF78
:1018D000F09000C51A1223834312238314E4F0A36B
:1018E0007429F09000C51DE0C3940112238361E5C3
:1018F00082240712238314EDF09000C514E09000B9
:10190000C51A600C1223836E12238312E4F0800B3D
:101910001223836E122383127401F0E49000C51C1D
:10192000F0122383C59000C51CE0FEC39F40030155
:1019300019F5EE700A9000C520F0A304F0806B1238
:1019400023831F122383A312201EAB122383A3CD54
:101950002401CD12201F109000C517E0FEA3E0FD6A
:10196000EDFF9000C51EEEF0A3EFF09000C51EE065
:10197000FEA3E07802CEC313CE13D8F9FFEE5401D4
:10198000FEEF2401FFE43EFE9000C51EF0A3EFF041
:101990009000C521E02401122383AACD2FFFED3E44
:1019A000CF2402CF3400F0A3EFF09000C51CE02557
:1019B000E0A3F0FB1223831F122383A3FC7A0012FF
:1019C0002384EEEA38FA12201EC9122383A3CD2401
:1019D00001CD3400FC9000C51DE02401FBE433FA86
:1019E000122384EEE83AFA12277E8C9000C51CE0A0
:1019F00004F00119219000C51A12238494120004E6
:101A000051122383CCA3E0FD8F82122383292DFD65
:101A1000ED30E0269000D4F512238350E5822DF5B9
:101A200082E5833CF583759300E41223846D1223D1
:101A300083D5E475F00112000B09122383DF6008DF
:101A4000EF64096003011B8F9000625CE07003018A
:101A50001B8F9000E932E0FF7003011B8F9000C5DF
:101A600019E0FE1223837A12238312EE1223839A43
:101A7000E582240712238314EFF09000644C740174
:101A8000F01223836A12238312E070041223850B61
:101A90001223836A240912238314E0FF1223839BF9
:101AA000E582240912238314E0FED39F4004EE9FB5
:101AB00080231223836A240912238314E0F404FF91
:101AC0009000D4F5E0FCA3E08C8375930024091208
:101AD000238314E02F0490006F51F09000F104E094
:101AE000FD600C122383C59000D566122384779085
:101AF00000D55DE025E0FEE433122384FACE122304
:101B000083F570109000DBB1E06017122384F97444
:101B10000FF0800E9000DBB1E06007122384F974AF
:101B200064F0ED606A9000D4F51223836E240912EC
:101B3000238314E0FF60589000C51AE0FCA3E0FD89
:101B4000C39000D567E09D9000D566E09C40409032
:101B500000D531EFF01200048A9000C51C122382D8
:101B6000ED741F12201EE2E49000D566F0A3F09001
:101B700000DBB1E0601914F0E0640670121200049A
:101B80008A9000C51C122382ED740B12201EE29075
:101B900000E8E9E0FF7E0064036005EF6409700877
:101BA000E49000DB84F0800AEF4E70069000DB8446
:101BB00004F09000D4F5122383431223831474019C
:101BC000F09000C51512238360E58224051223835B
:101BD00014ED1223846D122383D5E0FEA3E0FF9061
:101BE00000D508EE122384789000D508E0FEA3E02B
:101BF000FF7DB17C00120011589000D557EF1223E1
:101C0000846DFFF5828E83122383581223851F1261
:101C100023837A240C12238314E0FAA3E0F5828A4A
:101C20008375930012238396E582240C1223831478
:101C3000E0FFA3E09000D4F5122383C09000D4FA13
:101C4000122384779000F08512000D74E4FFED54A8
:101C500002FDE4FCED603212238466602C9000D516
:101C600032E060259000E951E0701E9000D55BE005
:101C70006402700F9000624EE0640D700612234AF9
:101C8000CE8006E49000D568F0D2AF805112201FBC
:101C90001C122383E16005EF6409703F9000625CD1
:101CA000E060261200048A9000C519EEF0A3EFF060
:101CB0001223834812238314E4F0A3749412238321
:101CC00008740C12201EF380129000612AE0600B51
:101CD0009000683BE060041227A57D7FFF22900002
:101CE000D55BE06003011E3BC2AF9000D4F304F06B
:101CF0009000D276E004122383C49000D4EFE02F4A
:101D0000F0D2AF9000D4ED122384E3240C1223838D
:101D10001412238350A3A31223851F7DB17C0012CC
:101D20000011589000D560EFF09000624EE0640D15
:101D30006011C2AF9000625AE4F0A374C8F0D2AF51
:101D4000011E339000D533E0FF7E00F4700F900049
:101D5000D55DE0FD9000D4EFE0C39D5028EFF44E38
:101D60007003011E089000D276E0C394167480942C
:101D70008050129000D55DE0FF9000D4EFE0C39F4B
:101D80005003011E08122383E16005EF64097044CB
:101D90009000DBB1E060079000E951E07036900000
:101DA000625CE060101200048A122382E97401125E
:101DB000201EF380079000E951E06077C2AF9000E9
:101DC000625A740CF0A37480F0D2AF9000D55B74AB
:101DD00001F0805FC2AFE49000625AF0A3F0D2AF8E
:101DE0009000DBB1E0600E9000E951E060079000E8
:101DF000DBB17402F09000D557E09000D4FFF09072
:101E000000D55B7402F0802B122383DF6005EF6442
:101E10000970149000612AE09000625A600D74010C
:101E2000F0A3742CF0800A9000625AE4F0A374C806
:101E3000F0D2AFE49000D4F3F080439000D55BE0A3
:101E4000FF7E006401701AC2AF9000D276E004F009
:101E50009000C515E0FD9000D4EFE02DF0D2AF80EA
:101E60001DEF64024E70179000D4EFF09000D27610
:101E7000F0800B12201F1C9000C51674FFF090001C
:101E8000C516E0FF22FD9000C510E03400FC7AC5C5
:101E90007B1712277E8C9000D4F5E0FEA3E0F5823C
:101EA0008E83759300E0FEA3E0FF22FC7AC57B17CA
:101EB00012277E8C9000D4F5E0FEA3E0F5828E839D
:101EC000759300E0FEA3E0FF2212277E8C9000D4E1
:101ED000F5E0FEA3E0F5828E83759300E0FEA3E0BB
:101EE000FF22F09000C51CE0FCA3E0FD7F0712007C
:101EF000045122F09000C519E0FCA3E0FD7F071219
:101F0000000451221200048A9000C51AEEF0A322A8
:101F10003400FC7AC57B1812277E8C22E4FF122243
:101F2000BA89E49000DA10F0227C0012277E8C221D
:101F30009000C8521220E7284003011FFFE0FF1263
:101F400020E9521220EAAAA3F01220EB071220E89F
:101F500003A3F0EF1220E8A91220E803A3F0EF1288
:101F600020E9161220EB5C1220E80CE41220E74670
:101F70001220E97B1220E803EF1220E6E7E4F0A349
:101F8000F01220E5B3E94A4B60141220E5B3AE022B
:101F9000AF0112267C529000C8521220E79990009F
:101FA000C8521220E7F6EF1220E87F1220E8031251
:101FB00020E98A1220EAAAEF1220E9E11220EAAA17
:101FC000A31220E8951220EAAAEF1220E7DC1220E3
:101FD000EAAA1220E8B51220E8031220EA501220E3
:101FE000E803FBFAF91220EB141220E7AB9000EBA8
:101FF00020E0FF9000C852E0FBE4FD12278C79221C
:1020000022E4FF22229000C7B81226134A9000C78C
:10201000B7EFF004FF9000C7BDF07E001204CF4C74
:102020009000C7BEEEF0A3EFF01200048A9000C744
:10203000BBEEF0A3EFF08E83759300122612C7E477
:10204000F07422122612F62406122612C9E4F09029
:1020500000C7BAE014601914601F14602514602BC7
:1020600014603124057034122612E67413F0802BAC
:10207000122612E67412F08022122612E67415F06F
:102080008019122612E67414F08010122612E674DB
:1020900017F08007122612E67416F09000C7B7E01A
:1020A000FB601D9000C7BFE02401FF9000C7BEE0A9
:1020B0003400FE9000C7B8E0FCA3E0FD120012104F
:1020C0009000C7BDE0FF9000C7BBE0FCA3E0FD8C23
:1020D000837593002407122612C9EFF09000C7BE43
:1020E000E0FEA3E0FF1226131EE58224081226124A
:1020F000C9EEF0A3EFF07F0812000451E4FEFF22C6
:102100000226DA120227C13C020404FD020407F58C
:102110000227BD69022791230227BF73022516EF0C
:102120000226121702266BEC0224B2F29000C5348C
:10213000EFF0C37480948040061226C43340057EBD
:10214000007F03229000C534E0FF1226C42B501BF1
:102150001226C4541226C42055801226C465FEF8E7
:10216000EF088002C313D8FC0121F09000C534129F
:1021700026C4274021D3EF1226C44150191226C489
:102180001055901226C465C39408FEF8EF0880022B
:10219000C313D8FC805A9000C5341226C43C402595
:1021A000D3EF1226C44D501DE0C394101226C41460
:1021B00055A01226C465C39410FEF8EF088002C330
:1021C00013D8FC802B9000C5341226C44840291235
:1021D00026C4335023E0C394181226C41455B012F9
:1021E00026C465C39418FEF8EF088002C313D8FC18
:1021F0008D828C83759300F0E4FEFF2201030008BA
:102200000E12010A4254353531315F303032030449
:10221000010100029000C9031220EA059000C903E1
:102220001220EC821220EA139000C9071220E9A7BD
:1022300024041220E76512000D741220ECF4122021
:10224000E8E875930024081220E76512000D7490E9
:1022500000C90F1220E9A7240C1220E76512000D17
:10226000749000C9131220E6D2C000C001C002C0A1
:10227000031220E6451220E671C004C005C006C066
:10228000071220E6599000C90B1220E679D003D03E
:1022900002D001D0001220E93F1220E58CEF247813
:1022A000FFEE34A4FEED346AFDEC34D7FCD003D04D
:1022B00002D001D0001220E6111220ED01C004C0AE
:1022C00005C006C0071220E61D1220ED07D003D07E
:1022D00002D001D00012000CBA1220E6159000C9FD
:1022E0000B1220E58F1220E6AEC000C001C002C074
:1022F000031220E61D1220EA2A1220E679C004C04B
:1023000005C006C0071220E6459000C9071220E666
:1023100079D003D002D001D00012000CBA1220E50F
:10232000EC24041220E585EF2456FFEE34B7FEEDD1
:1023300034C7FDEC34E8FCD003D002D001D0001249
:1023400020E6251220ED0DC004C005C006C007120E
:1023500020E6311220ED13D003D002D001D00012BC
:10236000000CBA1220E6299000C9071220E58F124E
:1023700020E681C000C001C002C0031220E6311275
:1023800020EA331220E679C004C005C006C0071257
:1023900020E61D1220E675D003D002D001D0001235
:1023A000000CBA1220E5EC24081220E585EF24DBAE
:1023B000FFEE3470FEED3420FDEC3424FCD003D06D
:1023C00002D001D0001220E64D1220ED19C004C049
:1023D00005C006C0071220E6591220ED1FD003D019
:1023E00002D001D00012000CBA1220E6519000C9B0
:1023F000131220E58F1220E6BEC000C001C002C04B
:10240000031220E6591220EA3C1220E679C004C0EB
:1024100005C006C0071220E6319000C90F1220E661
:1024200079D003D002D001D00012000CBA1220E5FE
:10243000EC240C1220E585EF24EEFFEE34CEFEED09
:1024400034BDFDEC34C1FCD003D002D001D0001269
:1024500020E6391220ED25C004C005C006C00712D1
:1024600020E6451220ED2BD003D002D001D000127F
:10247000000CBA1220E63D9000C90F1220E58F1221
:1024800020E6CEC000C001C002C0031220E6451203
:1024900020E671C004C005C006C0071220E65990AE
:1024A00000C90B1220E679D003D002D001D000126F
:1024B000000CBA1220E576EF24AFFFEE340FFEEDEC
:1024C000347CFDEC34F5FCD003D002D001D00012F6
:1024D00020E6111220ED01C004C005C006C007129D
:1024E00020E61D1220ED07D003D002D001D000124B
:1024F000000CBA1220E6159000C90B1220E58F12CD
:1025000020E6AEC000C001C002C0031220E61D12CA
:1025100020EA2A1220E679C004C005C006C00712CE
:1025200020E6459000C9071220E679D003D002D0FA
:1025300001D00012000CBA1220E5EC24141220E5A0
:1025400085EF242AFFEE34C6FEED3487FDEC3447D8
:10255000FCD003D002D001D0001220E6251220EDDD
:102560000DC004C005C006C0071220E6311220EDE0
:1025700013D003D002D001D00012000CBA1220E612
:10258000299000C9071220E58F1220E681C000C003
:1025900001C002C0031220E6311220EA331220E605
:1025A00079C004C005C006C0071220E61D1220E64F
:1025B00075D003D002D001D00012000CBA1220E571
:1025C000EC24181220E585EF2413FFEE3446FEEDCF
:1025D0003430FDEC34A8FCD003D002D001D000127E
:1025E00020E64D1220ED19C004C005C006C0071238
:1025F00020E6591220ED1FD003D002D001D00012E6
:10260000000CBA1220E6519000C9131220E58F1277
:1026100020E6BEC000C001C002C0031220E659126D
:1026200020EA3C1220E679C004C005C006C00712AB
:1026300020E6319000C90F1220E679D003D002D0F5
:1026400001D00012000CBA1220E5EC241C1220E587
:1026500085EF2401FFEE3495FEED3446FDEC34FDAC
:10266000FCD003D002D001D0001220E6391220EDB8
:1026700025C004C005C006C0071220E6451220EDA3
:102680002BD003D002D001D00012000CBA1220E6E9
:102690003D9000C90F1220E58F1220E6CEC000C089
:1026A00001C002C0031220E6451220E671C004C03A
:1026B00005C006C0071220E6599000C90B1220E69B
:1026C00079D003D002D001D00012000CBA1220E55C
:1026D000EC24201220E585EF24D8FFEE3498FEED9F
:1026E0003480FDEC3469FCD003D002D001D000125C
:1026F00020E6111220ED01C004C005C006C007127B
:1027000020E61D1220ED07D003D002D001D0001228
:10271000000CBA1220E6159000C90B1220E58F12AA
:1027200020E6AEC000C001C002C0031220E61D12A8
:1027300020EA2A1220E679C004C005C006C00712AC
:1027400020E6459000C9071220E679D003D002D0D8
:1027500001D00012000CBA1220E5EC24241220E56E
:1027600085EF24AFFFEE34F7FEED3444FDEC348BFF
:10277000FCD003D002D001D0001220E6251220EDBB
:102780000DC004C005C006C0071220E6311220EDBE
:1027900013D003D002D001D00012000CBA1220E6F0
:1027A000299000C9071220E58F1220E681C000C0E1
:1027B00001C002C0031220E6311220EA331220E6E3
:1027C00079C004C005C006C0071220E61D1220E62D
:1027D00075D003D002D001D00012000CBA1220E54F
:1027E000EC24281220E585EF24B1FFEE345BFEEDEA
:1027F00034FFFDEC34FFFCD003D002D001D0001236
:1028000020E64D1220ED19C004C005C006C0071215
:1028100020E6591220ED1FD003D002D001D00012C3
:10282000000CBA1220E6519000C9131220E58F1255
:1028300020E6BEC000C001C002C0031220E659124B
:1028400020EA3C1220E679C004C005C006C0071289
:1028500020E6319000C90F1220E679D003D002D0D3
:1028600001D00012000CBA1220E5EC242C1220E555
:1028700085EF24BEFFEE34D7FEED345CFDEC3489E9
:10288000FCD003D002D001D0001220E6391220ED96
:1028900025C004C005C006C0071220E6451220ED81
:1028A0002BD003D002D001D00012000CBA1220E6C7
:1028B0003D9000C90F1220E58F1220E6CEC000C067
:1028C00001C002C0031220E6451220E671C004C018
:1028D00005C006C0071220E6599000C90B1220E679
:1028E00079D003D002D001D00012000CBA1220E53A
:1028F000EC24301220E585EF2422FFEE3411FEEDAA
:102900003490FDEC346BFCD003D002D001D0001227
:1029100020E6111220ED01C004C005C006C0071258
:1029200020E61D1220ED07D003D002D001D0001206
:10293000000CBA1220E6159000C90B1220E58F1288
:1029400020E6AEC000C001C002C0031220E61D1286
:1029500020EA2A1220E679C004C005C006C007128A
:1029600020E6459000C9071220E679D003D002D0B6
:1029700001D00012000CBA1220E5EC24341220E53C
:1029800085EF2493FFEE3471FEED3498FDEC34FDB9
:10299000FCD003D002D001D0001220E6251220ED99
:1029A0000DC004C005C006C0071220E6311220ED9C
:1029B00013D003D002D001D00012000CBA1220E6CE
:1029C000299000C9071220E58F1220E681C000C0BF
:1029D00001C002C0031220E6311220EA331220E6C1
:1029E00079C004C005C006C0071220E61D1220E60B
:1029F00075D003D002D001D00012000CBA1220E52D
:102A0000EC24381220E585EF248EFFEE3443FEEDF2
:102A10003479FDEC34A6FCD003D002D001D00012F2
:102A200020E64D1220ED19C004C005C006C00712F3
:102A300020E6591220ED1FD003D002D001D00012A1
:102A4000000CBA1220E6519000C9131220E58F1233
:102A500020E6BEC000C001C002C0031220E6591229
:102A600020EA3C1220E679C004C005C006C0071267
:102A700020E6319000C90F1220E679D003D002D0B1
:102A800001D00012000CBA1220E5EC243C1220E523
:102A900085EF2421FFEE3408FEED34B4FDEC34491B
:102AA000FCD003D002D001D0001220E6391220ED74
:102AB00025C004C005C006C0071220E6451220ED5F
:102AC0002BD003D002D001D00012000CBA1220E6A5
:102AD0003D9000C90F1220E58F1220E6CEC000C045
:102AE00001C002C0031220E6311220EA2A1220E6B9
:102AF00079C004C005C006C0071220E6319000C9A5
:102B00000B1220E679D003D002D001D00012000CC5
:102B1000BA1220E5EC24041220E585EF2462FFEED2
:102B20003425FEED341EFDEC34F6FCD003D002D08B
:102B300001D0001220E6111220ED31C004C005C002
:102B400006C0071220E61D1220ED37D003D002D0B8
:102B500001D00012000CBA1220E6159000C90B1229
:102B600020E58F1220E6AEC000C001C002C00312F3
:102B700020E6591220EA331220E679C004C005C0CD
:102B800006C0071220E6599000C9071220E679D046
:102B900003D002D001D00012000CBA1220E5EC24C0
:102BA000181220E585EF2440FFEE34B3FEED3440EB
:102BB000FDEC34C0FCD003D002D001D0001220E6DE
:102BC000251220ED3DC004C005C006C0071220E656
:102BD000311220ED43D003D002D001D00012000CFE
:102BE000BA1220E6299000C9071220E58F1220E6CC
:102BF00081C000C001C002C0031220E6451220EAD5
:102C00003C1220E679C004C005C006C0071220E6C9
:102C1000451220E675D003D002D001D00012000C7E
:102C2000BA1220E5EC242C1220E585EF2451FFEEAA
:102C3000345AFEED345EFDEC3426FCD003D002D0D5
:102C400001D0001220E64D1220ED49C004C005C09D
:102C500006C0071220E6591220ED4FD003D002D053
:102C600001D00012000CBA1220E6519000C91312D4
:102C700020E58F1220E6BEC000C001C002C00312D2
:102C800020E61D1220E671C004C005C006C0071270
:102C900020E61D9000C90F1220E679D003D002D0A3
:102CA00001D0001220E93F1220E58CEF24AAFFEEAC
:102CB00034C7FEED34B6FDEC34E9FCD003D002D0CD
:102CC00001D0001220E6391220ED55C004C005C025
:102CD00006C0071220E6451220ED5BD003D002D0DB
:102CE00001D00012000CBA1220E63D9000C90F126C
:102CF00020E58F1220E6CEC000C001C002C0031242
:102D000020E6311220EA2A1220E679C004C005C06C
:102D100006C0071220E6319000C90B1220E679D0D8
:102D200003D002D001D00012000CBA1220E5EC242E
:102D3000141220E585EF245DFFEE3410FEED342FF4
:102D4000FDEC34D6FCD003D002D001D0001220E636
:102D5000111220ED31C004C005C006C0071220E6E4
:102D60001D1220ED37D003D002D001D00012000C8C
:102D7000BA1220E6159000C90B1220E58F1220E64A
:102D8000AEC000C001C002C0031220E6591220EA02
:102D9000331220E679C004C005C006C0071220E641
:102DA000599000C9071220E679D003D002D001D093
:102DB0000012000CBA1220E5EC24281220E585EF61
:102DC0002453FFEE3414FEED3444FDEC3402FCD009
:102DD00003D002D001D0001220E6251220ED3DC024
:102DE00004C005C006C0071220E6311220ED43D012
:102DF00003D002D001D00012000CBA1220E62990B4
:102E000000C9071220E58F1220E681C000C001C072
:102E100002C0031220E6451220EA3C1220E679C0E7
:102E200004C005C006C0071220E6451220E675D092
:102E300003D002D001D00012000CBA1220E5EC241D
:102E40003C1220E585EF2481FFEE34E6FEED34A14F
:102E5000FDEC34D8FCD003D002D001D0001220E623
:102E60004D1220ED49C004C005C006C0071220E67F
:102E7000591220ED4FD003D002D001D00012000C27
:102E8000BA1220E6519000C9131220E58F1220E6F5
:102E9000BEC000C001C002C0031220E61D1220E621
:102EA00071C004C005C006C0071220E61D9000C90D
:102EB0000F1220E679D003D002D001D00012000C0E
:102EC000BA1220E576EF24C8FFEE34FBFEED34D3D2
:102ED000FDEC34E7FCD003D002D001D0001220E694
:102EE000391220ED55C004C005C006C0071220E607
:102EF000451220ED5BD003D002D001D00012000CAF
:102F0000BA1220E63D9000C90F1220E58F1220E68C
:102F1000CEC000C001C002C0031220E6311220EA78
:102F20002A1220E679C004C005C006C0071220E6B8
:102F3000319000C90B1220E679D003D002D001D025
:102F40000012000CBA1220E5EC24241220E585EFD3
:102F500024E6FFEE34CDFEED34E1FDEC3421FCD06F
:102F600003D002D001D0001220E6111220ED31C0B2
:102F700004C005C006C0071220E61D1220ED37D0A0
:102F800003D002D001D00012000CBA1220E6159036
:102F900000C90B1220E58F1220E6AEC000C001C0B0
:102FA00002C0031220E6591220EA331220E679C04B
:102FB00004C005C006C0071220E6599000C90712D8
:102FC00020E679D003D002D001D00012000CBA1252
:102FD00020E5EC24381220E585EF24D6FFEE3407F7
:102FE000FEED3437FDEC34C3FCD003D002D001D069
:102FF000001220E6251220ED3DC004C005C006C029
:10300000071220E6311220ED43D003D002D001D0C8
:103010000012000CBA1220E6299000C9071220E520
:103020008F1220E681C000C001C002C0031220E65A
:10303000451220EA3C1220E679C004C005C006C053
:10304000071220E6451220E675D003D002D001D049
:103050000012000CBA1220E5EC240C1220E585EFDA
:103060002487FFEE340DFEED34D5FDEC34F4FCD0B6
:1030700003D002D001D0001220E64D1220ED49C04D
:1030800004C005C006C0071220E6591220ED4FD03B
:1030900003D002D001D00012000CBA1220E65190E9
:1030A00000C9131220E58F1220E6BEC000C001C087
:1030B00002C0031220E61D1220E671C004C005C044
:1030C00006C0071220E61D9000C90F1220E679D035
:1030D00003D002D001D00012000CBA1220E5EC247B
:1030E000201220E585EF24EDFFEE3414FEED345A76
:1030F000FDEC3445FCD003D002D001D0001220E614
:10310000391220ED55C004C005C006C0071220E6E4
:10311000451220ED5BD003D002D001D00012000C8C
:10312000BA1220E63D9000C90F1220E58F1220E66A
:10313000CEC000C001C002C0031220E6311220EA56
:103140002A1220E679C004C005C006C0071220E696
:10315000319000C90B1220E679D003D002D001D003
:103160000012000CBA1220E5EC24341220E585EFA1
:103170002405FFEE34E9FEED34E3FDEC34A9FCD088
:1031800003D002D001D0001220E6111220ED31C090
:1031900004C005C006C0071220E61D1220ED37D07E
:1031A00003D002D001D00012000CBA1220E6159014
:1031B00000C90B1220E58F1220E6AEC000C001C08E
:1031C00002C0031220E6591220EA331220E679C029
:1031D00004C005C006C0071220E6599000C90712B6
:1031E00020E679D003D002D001D00012000CBA1230
:1031F00020E5EC24081220E585EF24F8FFEE34A347
:103200001220EE6434FCFCD003D002D001D00012B6
:1032100020E6251220ED3DC004C005C006C00712FF
:1032200020E6311220ED43D003D002D001D00012AD
:10323000000CBA1220E6299000C9071220E58F126F
:1032400020E681C000C001C002C0031220E6451282
:1032500020EA3C1220E679C004C005C006C007126F
:1032600020E6451220E675D003D002D001D000122E
:10327000000CBA1220E5EC241C1220E585EF24D9BD
:10328000FFEE3402FEED346FFDEC3467FCD003D06A
:1032900002D001D0001220E64D1220ED49C004C03A
:1032A00005C006C0071220E6591220ED4FD003D00A
:1032B00002D001D00012000CBA1220E6519000C9D1
:1032C000131220E58F1220E6BEC000C001C002C06C
:1032D000031220E61D1220E671C004C005C006C01E
:1032E000071220E61D9000C90F1220E679D003D006
:1032F00002D001D00012000CBA1220E5EC243012EA
:1033000020E585EF248AFFEE344CFEED342AFDECF7
:10331000348DFCD003D002D001D0001220E6391247
:1033200020ED55C004C005C006C0071220E64512B6
:1033300020ED5BD003D002D001D00012000CBA12F5
:1033400020E63D9000C90F1220E58F1220E6CEC086
:1033500000C001C002C0031220E6591220E6C612C6
:1033600020EBC41220E5E424141220E585EF24426A
:10337000FFEE3439FEED34FAFDEC34FFFCD003D01F
:1033800002D001D0001220E6111220ED61C004C06D
:1033900005C006C0071220E61D1220ED67D003D03D
:1033A00002D001D00012000CBA1220E6159000C91C
:1033B0000B1220E58F1220E6AEC000C001C002C093
:1033C000031220E6451220E6D612000CC79000C971
:1033D0000F1220E5E424201220E585EF2481FFEE82
:1033E00034F6FEED3471FDEC3487FCD003D002D00E
:1033F00001D0001220E6251220ED6DC004C005C0EA
:1034000006C0071220E6311220ED73D003D002D09F
:1034100001D00012000CBA1220E6299000C9071250
:1034200020E58F1220E681C000C001C002C0031257
:1034300020E61D1220E6B612000CC71220E5E0249B
:103440002C1220E585EF2422FFEE3461FEED349D41
:10345000FDEC346DFCD003D002D001D0001220E688
:103460004D1220ED79C004C005C006C0071220E649
:10347000591220EC8CD003D002D001D00012000CE5
:10348000BA1220E6519000C9131220E58F1220E6EF
:10349000BEC000C001C002C0031220E6311220E607
:1034A000891220EBCD1220E5E424381220E585EFC7
:1034B000240CFFEE3438FEED34E5FDEC34FDFCD099
:1034C00003D002D001D0001220E6391220ED7FC0D7
:1034D00004C005C006C0071220E6451220ED85D0C5
:1034E00003D002D001D00012000CBA1220E63D90A9
:1034F00000C90F1220E58F1220E6CEC000C001C027
:1035000002C0031220E6591220E6C61220EBC412B4
:1035100020E5E424041220E585EF2444FFEE34EA9C
:10352000FEED34BEFDEC34A4FCD003D002D001D0BB
:10353000001220E6111220ED61C004C005C006C0D3
:10354000071220E61D1220ED67D003D002D001D073
:103550000012000CBA1220E6159000C90B1220E5EB
:103560008F1220E6AEC000C001C002C0031220E6E8
:10357000451220E6D612000CC71220E56AEF24A9F6
:10358000FFEE34CFFEED34DEFDEC344BFCD003D047
:1035900002D001D0001220E6251220ED6DC004C03B
:1035A00005C006C0071220E6311220ED73D003D00B
:1035B00002D001D00012000CBA1220E6299000C9F6
:1035C000071220E58F1220E681C000C001C002C0B2
:1035D000031220E61D1220E6B612000CC71220E5E9
:1035E000E0241C1220E585EF2460FFEE344BFEED55
:1035F00034BBFDEC34F6FCD003D002D001D0001275
:1036000020E64D1220ED79C004C005C006C00712A7
:1036100020E6591220EC8CD003D002D001D0001249
:10362000000CBA1220E6519000C9131220E58F1247
:1036300020E6BEC000C001C002C0031220E6311265
:1036400020E6891220EBCD1220E5E424281220E5A3
:1036500085EF2470FFEE34BCFEED34BFFDEC34BECC
:10366000FCD003D002D001D0001220E6391220EDA8
:103670007FC004C005C006C0071220E6451220ED39
:1036800085D003D002D001D00012000CBA1220E67F
:103690003D9000C90F1220E58F1220E6CEC000C079
:1036A00001C002C0031220E6591220E6C61220EB28
:1036B000C41220E5E424341220E585EF24C612204C
:1036C000EE6B349BFDEC3428FCD003D002D001D04B
:1036D000001220E6111220ED61C004C005C006C032
:1036E000071220E61D1220ED67D003D002D001D0D2
:1036F0000012000CBA1220E6159000C90B1220E54A
:103700008F1220E6AEC000C001C002C0031220E646
:10371000451220E6D612000CC71220E68912000CD2
:10372000C71220E9431220E58CEF24FAFFEE34277C
:10373000FEED34A1FDEC34EAFCD003D002D001D080
:10374000001220E6251220ED6DC004C005C006C0A1
:10375000071220E6311220ED73D003D002D001D041
:103760000012000CBA1220E6299000C9071220E5C9
:103770008F1220E681C000C001C002C0031220E603
:103780001D1220E6B612000CC71220E5E0240C1230
:1037900020E585EF2485FFEE34301220EE6434D42A
:1037A000FCD003D002D001D0001220E64D1220ED53
:1037B00079C004C005C006C0071220E6591220ECEB
:1037C0008CD003D002D001D00012000CBA1220E637
:1037D000519000C9131220E58F1220E6BEC000C030
:1037E00001C002C0031220E6311220E6891220EB4C
:1037F000CD1220E5E424181220E585EF2405FFEE24
:10380000341DFEED3488FDEC3404FCD003D002D02E
:1038100001D0001220E6391220ED7FC004C005C09F
:1038200006C0071220E6451220ED85D003D002D055
:1038300001D00012000CBA1220E63D9000C90F1210
:1038400020E58F1220E6CEC000C001C002C00312E6
:1038500020E6591220E6C61220EBC41220E5E4242B
:10386000241220E585EF2439FFEE34D0FEED34D468
:10387000FDEC34D9FCD003D002D001D0001220E6F8
:10388000111220ED61C004C005C006C0071220E679
:103890001D1220ED67D003D002D001D00012000C21
:1038A000BA1220E6159000C90B1220E58F1220E60F
:1038B000AEC000C001C002C0031220E6451220E6DF
:1038C000D612000CC79000C90F1220E5E424301274
:1038D00020E585EF24E5FFEE3499FEED34DBFDECC9
:1038E00034E6FCD003D002D001D0001220E625122D
:1038F00020ED6DC004C005C006C0071220E63112DD
:1039000020ED73D003D002D001D00012000CBA1207
:1039100020E6299000C9071220E58F1220E681C019
:1039200000C001C002C0031220E61D1220E6B6123C
:10393000000CC71220E5E0243C1220E585EF24F8B6
:10394000FFEE347CFEED34A2FDEC341FFCD003D03E
:1039500002D001D0001220E64D1220ED79C004C043
:1039600005C006C0071220E6591220EC8CD003D007
:1039700002D001D00012000CBA1220E6519000C90A
:10398000131220E58F1220E6BEC000C001C002C0A5
:10399000031220E6311220E6891220EBCD1220E539
:1039A000E424081220E585EF2465FFEE3456FEED91
:1039B00034ACFDEC34C4FCD003D002D001D00012F2
:1039C00020E6391220ED7FC004C005C006C00712F2
:1039D00020E6451220ED85D003D002D001D00012A0
:1039E000000CBA1220E63D9000C90F1220E58F129C
:1039F00020E6CEC000C001C002C0031220E6311292
:103A0000000CD41220E6C612000CBA1220E689126D
:103A1000000CC71220E9431220E58CEF2444FFEE8E
:103A20003422FEED3429FDEC34F4FCD003D002D076
:103A300001D0001220E6111220ED8BC004C005C099
:103A400006C0071220E61D1220ED91D003D002D04F
:103A500001D00012000CBA1220E6159000C90B121A
:103A600020E58F1220E6AEC000C001C002C00312E4
:103A700020E5C8241C1220E585EF2497FFEE34FFD3
:103A8000FEED342AFDEC3443FCD003D002D001D04B
:103A9000001220E6251220ED97C004C005C006C024
:103AA000071220E6311220ED9DD003D002D001D0C4
:103AB0000012000CBA1220E6299000C9071220E576
:103AC0008F1220E681C000C001C002C0031220E6B0
:103AD0004512000CD41220E6B61220EBD61220E5D7
:103AE000E424381220E585EF24A7FFEE3423FEED11
:103AF0003494FDEC34ABFCD003D002D001D00012E2
:103B000020E64D1220EDA3C004C005C006C0071278
:103B100020E6591220EDA9D003D002D001D0001226
:103B2000000CBA1220E6519000C9131220E58F1242
:103B300020E6BEC000C001C002C0031220E61D1274
:103B4000000CD41220E6891220EBDF1220E5E424D9
:103B5000141220E585EF2439FFEE34A0FEED3493F6
:103B6000FDEC34FCFCD003D002D001D0001220E6E2
:103B7000391220EDAFC004C005C006C0071220E610
:103B8000451220EDB5D003D002D001D00012000CB8
:103B9000BA1220E63D9000C90F1220E58F1220E6F0
:103BA000CEC000C001C002C0031220E63112000CDA
:103BB000D41220E6C612000CBA9000C90F1220E5FC
:103BC000E424301220E585EF24C3FFEE3459FEEDE6
:103BD000345BFDEC3465FCD003D002D001D0001280
:103BE00020E6111220ED8BC004C005C006C00712EC
:103BF00020E61D1220ED91D003D002D001D000129A
:103C0000000CBA1220E6159000C90B1220E58F12A5
:103C100020E6AEC000C001C002C0031220E5C824E7
:103C20000C1220E585EF2492FFEE34CCFEED340C2F
:103C3000FDEC348FFCD003D002D001D0001220E67E
:103C4000251220ED97C004C005C006C0071220E66B
:103C5000311220ED9DD003D002D001D00012000C13
:103C6000BA1220E6299000C9071220E58F1220E63B
:103C700081C000C001C002C0031220E64512000C42
:103C8000D41220E6B61220EBD61220E5E424281246
:103C900020E585EF247DFFEE34F41220EE6434FF3E
:103CA000FCD003D002D001D0001220E64D1220ED4E
:103CB000A3C004C005C006C0071220E6591220EDBB
:103CC000A9D003D002D001D00012000CBA1220E615
:103CD000519000C9131220E58F1220E6BEC000C02B
:103CE00001C002C0031220E61D12000CD41220E60F
:103CF000891220EBDF1220E5E424041220E585EF91
:103D000024D1FFEE345DFEED3484FDEC3485FCD02F
:103D100003D002D001D0001220E6391220EDAFC04E
:103D200004C005C006C0071220E6451220EDB5D03C
:103D300003D002D001D00012000CBA1220E63D9050
:103D400000C90F1220E58F1220E6CEC000C001C0CE
:103D500002C0031220E63112000CD41220E6C61273
:103D6000000CBA9000C90F1220E5E424201220E5CF
:103D700085EF244F1220EE6B34A8FDEC346FFCD09D
:103D800003D002D001D0001220E6111220ED8BC02A
:103D900004C005C006C0071220E61D1220ED91D018
:103DA00003D002D001D00012000CBA1220E6159008
:103DB00000C90B1220E58F1220E6AEC000C001C082
:103DC00002C0031220E5C8243C1220E585EF24E060
:103DD000FFEE34E6FEED342CFDEC34FEFCD003D0D7
:103DE00002D001D0001220E6251220ED97C004C0B9
:103DF00005C006C0071220E6311220ED9DD003D089
:103E000002D001D00012000CBA1220E6299000C99D
:103E1000071220E58F1220E681C000C001C002C059
:103E2000031220E64512000CD41220E6B61220EB55
:103E3000D61220E5E424181220E585EF2414FFEEC5
:103E40003443FEED3401FDEC34A3FCD003D002D0AA
:103E500001D0001220E64D1220EDA3C004C005C021
:103E600006C0071220E6591220EDA9D003D002D0D7
:103E700001D00012000CBA1220E6519000C91312B2
:103E800020E58F1220E6BEC000C001C002C00312B0
:103E900020E61D12000CD41220E6891220EBDF125E
:103EA00020E5E424341220E585EF24A1FFEE34114F
:103EB000FEED3408FDEC344EFCD003D002D001D02E
:103EC000001220E6391220EDAFC004C005C006C0C4
:103ED000071220E6451220EDB5D003D002D001D064
:103EE0000012000CBA1220E63D9000C90F1220E526
:103EF0008F1220E6CEC000C001C002C0031220E62F
:103F00003112000CD41220E6C612000CBA1220E5C1
:103F10006AEF24821220EE6B3453FDEC34F7FCD0B0
:103F200003D002D001D0001220E6111220ED8BC088
:103F300004C005C006C0071220E61D1220ED91D076
:103F400003D002D001D00012000CBA1220E6159066
:103F500000C90B1220E58F1220E6AEC000C001C0E0
:103F600002C0031220E5C8242C1220E585EF243579
:103F7000FFEE34F2FEED343AFDEC34BDFCD003D05C
:103F800002D001D0001220E6251220ED97C004C017
:103F900005C006C0071220E6311220ED9DD003D0E7
:103FA00002D001D00012000CBA1220E6299000C9FC
:103FB000071220E58F1220E681C000C001C002C0B8
:103FC000031220E64512000CD41220E6B61220EBB4
:103FD000D61220E5E424081220E585EF24BBFFEE8D
:103FE00034D2FEED34D7FDEC342AFCD003D002D01D
:103FF00001D0001220E64D1220EDA3C004C005C080
:1040000006C0071220E6591220EDA9D003D002D035
:1040100001D00012000CBA1220E6519000C9131210
:1040200020E58F1220E6BEC000C001C002C003120E
:1040300020E61D12000CD41220E6891220EBDF12BC
:1040400020E5E424241220E585EF2491FFEE34D30B
:10405000FEED3486FDEC34EBFCD003D002D001D071
:10406000001220E6391220EDAFC004C005C006C022
:10407000071220E6451220EDB5D003D002D001D0C2
:104080000012000CBA1220E63D9000C90F1220E584
:104090008F1220ECF4E0FEA3E0F5828E83C083C093
:1040A000821220EA139000C9071220E58F75930051
:1040B000D082D0831220E92D24041220E90CC08381
:1040C000C0821220EA139000C90B1220E58F75936D
:1040D00000D082D0831220E92D24081220E90CC0E0
:1040E00083C0821220EA139000C90F1220E58F7559
:1040F0009300D082D0831220E92D240C1220E90CE9
:10410000C083C0821220EA139000C9131220E58FE9
:10411000759300D082D08302000DB59000C8DDEE0B
:10412000F0A3EFF07EC87FDF7B06E4FD1200004FB6
:104130001222C5AAFD1222C4ECE0FEA3E08EF0120A
:10414000000E904217000146E200024C2800034A8C
:104150005C00044B1C00054B650006575F00074BD5
:104160006900084BB100094BD0000A4CC210014C49
:10417000CE10024D2910034D4010044E4710055734
:104180005F10074DB410084D56100A4CBE100B5767
:104190005F100C575F100D575F100F575F101557CA
:1041A0005F10164E8E101D4EBE101E4EE120014FA8
:1041B000883001575F30024FAC3003575F300450F6
:1041C0000630055073300C50D1300D5131300E5146
:1041D000CC300F51EF301051EF301151EF30125100
:1041E000EF301351EF301451EF301551EF301651BD
:1041F000EF301751EF301851EF301951EF301A519D
:10420000EF301B51EF301C51EF301D51EF301E5479
:10421000A26001000057201222C4F51222C6DF243A
:10422000041222C4911222C66924051222C49112DA
:1042300022C77A1222C50CA3A3E0FF9000C8FCF0AD
:104240001222C50CA3A3A3E09000C8FDF012205CCD
:104250000F122713FC9000C8FBEFF09000C8E5E0B8
:104260006004640170381222C71C70237405122286
:10427000C5141222C6A61222C78112261EF51222CA
:10428000C7249000C8E960030143A1F00144739082
:1042900000C8E6E06003014473A37407807B9000CC
:1042A000C8E5E0FC64027041A3E06402702C74066F
:1042B0001222C746FD540FFF9000C8E8E054F04FAB
:1042C000FF1222C528FEEF540F4E9000C8E8F0AF51
:1042D00005AD0412261EF50144739000C8E6E060A7
:1042E00003014473A3740880301222C70964037069
:1042F0002FA3E0FD7C0064027012740B1222C746EB
:104300001222C51CFBEE540F4B0143B6ED4C60036B
:104310000144739000C8E7740C1222C7470143B6EA
:10432000EF640470499000C8E6E0FB7A0064027014
:1043300023740D1222C5141222C6A6EF5403A31231
:1043400022C5D31222C6889000C8E9F0543F122239
:10435000C788804DEB4A60030144731222C5C11225
:1043600022C6889000C8E8F0543FF00144739000E2
:10437000C8E5E0F964057046A3E0FB7A00640270CA
:1043800026A374101222C5151222C6A6EF5403FFED
:10439000A31222C5D41222C6529000C8E91222C725
:1043A000887401F0014473EB4A60030144731222E4
:1043B000C5C11222C6529000C8E8F0014473E964F6
:1043C0000660030144739000C8FEF0A3F09000C99A
:1043D000047405F01222C71C704A9000C904E0243E
:1043E0000312205B9860699000C904E09000C8FE49
:1043F0001222C485E41222C4FE1222C5989000C97C
:1044000004E02402FFE433FE9000C8FEE0FCA3E0D9
:104410008C837593002FF582E5833EF583759300B9
:10442000E4F0802C9000C8E6E070259000C904E01C
:10443000240212205B9860189000C904E0FF9000ED
:10444000C8FE1222C48674011222C4FE1222C5982C
:104450009000C8FEE0FCA3E0FD4C6017A3E0FEA3C3
:10446000E0FF122543F89000C8FEE0FEA3E0FF1233
:10447000267C521222C62264026003EF701590005F
:10448000C8E5E06406600C7EC87FE71222C13012E6
:10449000257F811222C71C60030146269000C902B5
:1044A000F0A3F07F09122676ED122530529000C954
:1044B000021222C6D8602F9000C8FCE075F010A44C
:1044C000FFAEF01222C781EF4D9000C9041222C640
:1044D0003FFD1222C5F9AB05E49000C92EF0A3F010
:1044E0007D17022672747EC87FDF1222C7817B018E
:1044F0001223653F1222C6797CC87DDF9000C8E593
:10450000E0FB9000C9157401F01222CB0F9000C897
:10451000E5E06007640160030145D29000C470E0EB
:10452000540760111222C5F91222C6BA7402F07D36
:104530000912275FFA7D017F0512257A3A7EC87F2E
:10454000FF122779529000C8FFE030E5151222C60D
:10455000791226F60EEF640270081222C67912262E
:10456000D0F89000C8FFE030E31D1222C6797CC964
:104570007D0412274E8F9000C904A3E030E1081299
:1045800022C679122766E61222C6797D0112271803
:104590004E9000C8E5E0600301575F7EC97F0012BE
:1045A00027797F7EC97F01122779D99000C900E061
:1045B00020E50301575FA3E020E3091222C76270E0
:1045C0000301575F9000C8FC1222C5887D010224B8
:1045D0001C2F1222C6E6701B7EC87FFE12277D8428
:1045E0009000C8FEE030E7067F021226F1997D01B7
:1045F00001469F9000C8E5E06403701B9000C47002
:10460000E020E40301575F1222C5F91222C6BA0462
:10461000F07D0A02275FFA1222C7096404700301C1
:10462000575FEF6405229000C8E6E0600301575F22
:104630001222C6E6706D1222C6799000C45AE06F4D
:1046400070519000C46CE0704A9000C459E0FF645F
:10465000056040EF603DE4FD7F011224DB9F900088
:10466000C8FE1222C6D8602B7EC97F00122754CA0A
:104670009000C900E0FF131313540170161227C0F5
:1046800061EF6401700D1227C06FEF70067F011299
:1046900027B1547F0212205C1C600301575FFD7F2D
:1046A00006803B1222C7096404700301575FEF6460
:1046B00005700301575FEF60076401600301575FF6
:1046C00012205BD1FF12205C1C600301575F7F0149
:1046D0001226C1ACEF4E600301575FFD7F05022536
:1046E0007A3A1222C4F51222C6DF240C1222C49197
:1046F0001222C66924081222C4911222C77A90009D
:10470000C8DD1222C57524091222C491E06401603B
:104710000301575F9000C9017408F09000C90AE4D2
:10472000F0A37404F01222C6E660030148FD1222D1
:10473000C60B122713FC9000C8FCEFF01222C62211
:10474000122793AE9000C8FBEFF064046059E02597
:10475000E025E0245DF582E434C41222C7736403CB
:1047600070459000C90EF0A37402F09000C8E6E016
:10477000540FFF9000C910E054F04FFFF09000C8B4
:10478000FC1222C52DFEEF540F4E9000C910F07898
:10479000117CC97D017B017AC9790E7E007F0312ED
:1047A000000A331226CD1D9000C8FCE06408606743
:1047B0007EC97F017CC97D0212279CD89000C8FC6D
:1047C000E02402F582E434C91222C773FF540F902B
:1047D00000C8FFF0EF54F0C4540F9000C8FEF0A3DF
:1047E000E0FF1227B5179000C900EFF01227C0991B
:1047F000EF7EC87FFD700612279D32800412277855
:10480000711222C6227CC87DFD12267DC79000C889
:10481000FDE0FF1226F5B71222C62212277226905B
:1048200000C46CE0700C9000C8E6E0FD7F04122428
:10483000DB9F9000C8E77415F09000C8E6E0900098
:10484000C8E812205BF11222C4F51222C60CE4FB68
:104850007D071223653F1222C4F51222C6DF240F02
:104860001222C491E0701B9000C90EF01222C60BF8
:104870007CC97D0E122742E99000C90EE030E73C6A
:1048800080361222C4F51222C6DF240F1222C491F0
:10489000E0541F640170251222C66F24101222C436
:1048A00091E05440644060149000C8DDA3E01222FF
:1048B000C60C7D801226E9DC1222C6317EC97F0D2E
:1048C00012277DB09000C90DE030E4041222C631F9
:1048D0007EC97F0C1227B62D9000C90C1222C5A8E4
:1048E0008C83759300240A1222C491E0FCA3E0FD9E
:1048F0009000C90AE0FAA3E0FB0226BDA39000C81D
:10490000E5E06003014A4E9000C8E774111222C42A
:10491000F48E83759300240D1222C491E064087014
:10492000079000C8E80480101222C6221227779050
:10493000EF6009E49000C8E812205BF19000C46DBC
:104940001222C5A88C8375930024081222C4917D7D
:104950001E12205C2312205BD112278D5BEF704169
:104960009000C459E0640570321222C4F51222C6C8
:104970000C122713FC9000C90E1222C5F67D0612F8
:10498000278C791222C5F97D0712205B2A7D05123A
:10499000205B2A9000C8E612205BE87F0C12267686
:1049A000ED1222C4F58E83759300240D1222C4915A
:1049B000E012000E684A4A0249D10449DB0849D195
:1049C0001049D11F49D12249D12349D12A00004A97
:1049D000291222C6221227582B806F9000C90EE49C
:1049E000F0A304F07EC97F0E122722CE9000C90EDC
:1049F000E0FAA3E0FB4A9000C8E660101222C5A8C6
:104A00002402FDE43CFC1225F1AE8008E0FDE4FF49
:104A10001226EA379000C459E0602F6402602B90A0
:104A200000C48A12205BDF80211222C6221226B720
:104A30007F9000C459E0600C640260089000C48953
:104A400012205BDF7F0B122676ED022488101222E3
:104A5000C724600301575F7F0E014C249000C8DD1E
:104A60001222C4C4A3A31222C562600301575F903F
:104A700000C8E9F0A3F0A3F09000C8E9F09000C8E6
:104A8000E9E0FFC3942074809480502E1222C4E485
:104A90001222C6298C8375930024071222C491E543
:104AA000821222C490E070099000C8E9E004F0800E
:104AB000099000C8E9E004F080C39000C8E9E0FF75
:104AC0002402FCE433A3F0A3CCF01222C4E41222AB
:104AD000C72CE4A3F0FE122595CF9000C8E7122260
:104AE000C6D8700301575F9000C8E7E0FEA3E0FF5F
:104AF0001222C4E41222C6292407FDE43CFC122041
:104B00005BFB9000C8EAE0FEA3E0FF7B017AC87976
:104B1000E5122499C09000C8E70157171222C4F586
:104B2000FF1222C4C81222C72C8F821222C4CAA329
:104B30001222C77A70121222C70964016005EF645D
:104B40000370057F04014C249000C8E6E060030177
:104B5000575F9000C8E5E060076402600301575F9B
:104B60007F05014C2402252E2878E57CC87D017B39
:104B7000A17A0079DB7E007F1012000A339000C812
:104B8000F57404F07EC87FF57CC87DE51227A5EF9B
:104B90001222C4F52402FDE43EFC9000C8F5E0FBBF
:104BA0009000C91574C8F0A374E5F07F0102275D79
:104BB000DE9000C476E0FFE4FD12272B2F12279B26
:104BC00065EF70067F0F122676ED7F010227B7BAD8
:104BD0001222C4F52404FFE43EFE122713FC9000C9
:104BE000C8E51222C5F67D0612278C799000C46DA7
:104BF0001222C5817D0712205C239000C46D122211
:104C0000C581E0FB7D0512278C791222C5F912229D
:104C1000C4E4A3A312205BE812279B65EF600301A5
:104C2000575F7F0F022676ED1222C4F58E837593AF
:104C300000240E1222C491E09000C8F9F0E4FD7F38
:104C4000021224DB9F1222C6817CC87DFA1227053E
:104C5000469000C8F9E064019000C8E5702374092B
:104C60001222C4F48E8375930024081222C491E0AA
:104C70009000C8E6F07D017F0112275F227D018050
:104C80002D740A1222C4F48E837593002408122214
:104C9000C491E09000C8E6F0E4FDFF12276581E4CE
:104CA0009000C46EF07D01FF12275F22E4FD7F01BA
:104CB00012257A3A7EC87FE51222C1308000022692
:104CC0002BE01222C4F51222C60C0224AEE41222FA
:104CD000C5AAFD1222C4ECA3A3A3E06407701B12B3
:104CE00022C50CA3A3E0FF1222C50CE58224041206
:104CF00022C491A3E0FD0226E0C01222C5AAFD1243
:104D000022C4ECA3A3A3E06405600301575F122251
:104D1000C50CA3A3E0FF1222C50CE58224041222D5
:104D2000C491A3E0FD0226E1DA9000C8DD1222C49E
:104D3000C4A3A3E0FEA3E0AA06F97B0102247BE35F
:104D40009000C8DD1222C4C4A3A31222C4C4E0FD93
:104D5000E4FF0227AF8D9000C8DD1222C4C4A3E097
:104D6000FF7AC87BE57D011225E1551222C6E67067
:104D70000412262BE09000C8DD1222C4C4A3A312A3
:104D800022C4C4E0700C9000C477E0FFE4FD122759
:104D90002B2F7EC87FE6122779529000C8E6E020CC
:104DA000E40301575F9000C8DD1222C4C4A3E0FFF2
:104DB0000226D0F89000C8DD1222C4C4A3A3E0FEEE
:104DC000A31222C581EEF0A3EFF01222C4C8E06462
:104DD00001701C9000C8E51222C4C4A3E0FF90003B
:104DE000C46FE06F700301575FEFF00226F5B790D4
:104DF00000C8E51222C4C4E06402600301575F905A
:104E000000C8E71222C6807CC87DE712275E149096
:104E100000C8E7E06401701A1227C109EF640C7042
:104E2000119000C8E51222C4C4A3E0FF7D01122541
:104E3000EB5E9000C8E51222C4E8E0FF759300A382
:104E4000A3E0FD0226E3B01222C4F5FF1222C4C87B
:104E5000A3E0F99000C8E5F08F821222C4CAA3A390
:104E6000E0FFA3E09000C8E6CFF0A3EFF0AF019021
:104E700000C8E6E0FAA3E0FBF5828A831222C73776
:104E80007C001222C5561222C6B202267CCF122204
:104E9000C4F5FF1222C4C81222C62AFD9000C8E53C
:104EA000ECF0FAA3EDF0FB8F821222C4CAA3E0FF5C
:104EB0008B821222C54B1222C6B102267D4B1222D2
:104EC000C4F5FF1222C4C81222C62A1222C6EE124C
:104ED00022C4CAA3E0FF1222C50CA3E0FD02269C57
:104EE000961222C4F51222C60C1222C792EFF012BB
:104EF00022C4C8E06402701A1222C55EFD1222C6E6
:104F000081ED6F600D9000C46CE070067F04122488
:104F1000DB9F1222C7991222C4C8E0640270398F45
:104F2000821222C568FF7CC87DE71226C60C90005D
:104F3000C8E7E0FF12272D6E7EC87FE8122754CA0B
:104F40009000C8E8E030E30C1227C06FEF640170F6
:104F50000301575FE4FF802C9000C8E51222C4C40F
:104F6000E06401600301575F1227C061EF70030125
:104F7000575F1227C06FEF600301575F7F01122751
:104F8000B1547F0102271EF51222C4F5FF1222C47C
:104F9000C81222C62A1222C6EE1222C4CAA3E0FFF9
:104FA000EC541EFCED5402FD02274B7C1222C4F58A
:104FB0001222C60C1222C792EFF01222C566FF9091
:104FC00000C45AE0B5071D1227C109EF640D701423
:104FD0009000C8E51222C4C4E0FF1227B503E4FD27
:104FE0001225EB5E1222C7991222C4C8A3E0700BEF
:104FF0008F821222C568FFE4FD80071222C55EFF82
:105000007D010226E4CA1222C4F58E837593002422
:10501000041222C4911222C72E122488101222C711
:1050200024600301575F9000C8DD1222C4C4A3E0CE
:10503000FF7CC87DE61226C60C1222C62212272D3E
:105040006E9000C8DD1222C4C4A3E0FF12205C0FE2
:105050007B017D021223653F9000C46CE060030178
:10506000575F9000C8DD1222C4C4A3E0FD7F040294
:1050700024DB9F1222C4F59000C8E51222C69C9042
:1050800000C8E51222C4E81222C7357B0112268B24
:105090001E9000C8E51222C4E81222C7351226E588
:1050A000281222C55EFF9000C45AE06F60030157CA
:1050B0005F1227C109EF640D600301575F9000C8BC
:1050C000E51222C4C4E0FF1227B503E4FD0225EB7C
:1050D0005E1222C4F59000C8E91222C69CA3740493
:1050E000F09000C8E9E0FEA3E0FF1222C56612229C
:1050F000C7927403F0E49000C8E8F09000C8E7F0AD
:105100008F821222C4CAA3E060079000C8E874012D
:10511000F01222C4C0E060079000C8E77401F0906C
:1051200000C8EBE0FF7E007B017AC879E502249994
:10513000C09000C8E97406F09000C8DD1222C4C413
:10514000A3A31222C57324041222C491E0FEA3E09B
:10515000FF9000C8E9E0FD7C00EF2D12205AF070AE
:105160000301575F1222C7A3F5828E8375930074E3
:1051700020F01222C5AAFD1222C4ECA3A3E0FB1268
:1051800022C50CA3A3A31222C4E8EBF0EF2401FF75
:10519000E41222C4E21222C629FD12205BFB900019
:1051A000C8E9E01222C4D11222C5B324061222C4D7
:1051B000911222C551E58224041222C49112205B6F
:1051C000111227BC379000C8E70157171222C5AA51
:1051D000FD1222C4ECA3A3E0FF1222C50C1222C6CA
:1051E000B1F5821222C54B1222C6B10226776B900E
:1051F00000C8EB74051222C4F4FF1222C566FCA39A
:10520000E08CF012000E9052AD3010544E3011541C
:1052100064301253E8301353FE30145414301554D4
:105220002A3016524730175297301852C33019534C
:105230000D301A5323301B53BC301C53D2301D5435
:105240008C301E0000575F9000C8EC7408F08F820D
:105250001222C4CAA3A31222C57324061222C49127
:105260001220588E700301575F1222C6131222C4F7
:105270008BE4122057981222C5B724081222C49139
:105280001222C551E58224061222C49112205B111C
:1052900012205C060157171220595D700301575FF9
:1052A0001222C47C7401122058C5015717122058CD
:1052B000FD700301575F1222C47C74021220582E25
:1052C000015717740D1222C7AD1222C4C4A3A31232
:1052D00022C573240B1222C4911220588E70030130
:1052E000575F1222C6131222C48B740312205798E0
:1052F0001222C5B7240D1222C4911222C551E58293
:10530000240B1222C49112205B77015717122059E7
:1053100085700301575F1222C47C74041220592542
:1053200001571774051222C7AD1222C4C4A3A312D9
:1053300022C4C4A3A3E0FEA3E0FF9000C8EBE0FDFD
:105340007C00EF2DFFEC3EFEA3E02F12205AF07000
:105350000301575F1222C6131222C48B7405F01288
:1053600022C5AAFD1222C4ECA3A3E0FE1222C50CA2
:10537000A3A3A31222C4E8EEF0EF1222C4D112229A
:10538000C629FD9000C8ECE0FB120012109000C886
:10539000EBE02401FFE433FEA3E07C002FFFEC3EB2
:1053A0001222C4D61222C5B324051222C49112229D
:1053B000C551A3A3A312205B770157171220595D93
:1053C000700301575F1222C47C7406122058C50175
:1053D000571712205866700301575F1222C47C745D
:1053E00009122057600157171220586670030157A1
:1053F0005F1222C47C740A122057600157171220D2
:105400005A79700301575F1222C47C740B12205921
:10541000AD01571712205985700301575F1222C43E
:105420007C740C122059250157179000C8EBE0241A
:105430000412205B56700301575F1222C47C740D66
:10544000F07B0412205AC312205C06015717122069
:1054500058FD700301575F1222C47C740712205854
:105460002E0157179000C8EBE0240312205B567002
:105470000301575F1222C47C7408F07B0312205A88
:10548000C3122542F79000C8E701571712205A7936
:10549000700301575F1222C47C740E122059AD01B3
:1054A00057171222C4F51222C6DF24041222C49117
:1054B000E0FDA3E09000C8E9CD1222C6F41222C498
:1054C000CAA3A3E0FF9000C8EBF01222C4E4A3A398
:1054D000E09000C8ECF09000C8EF7405F0EF120007
:1054E0000E6856790354FB04564105551A0655C3F8
:1054F0000756560856B409000056F41222C56F2408
:10550000381222C49112205A4C70030156FC122208
:10551000C57D1222C4867402801D1222C56F2438F4
:105520001222C49112205A4C70030156FC1222C55B
:105530007D1222C48674031222C49C122059E57B7A
:105540000212205BC31222C56F24071222C491E00D
:10555000FF9000C8EFE0FE2407FDE433FC9000C894
:10556000E51222C5B61222C6FBEE2408FFE433CFB3
:105570002BCF3A1222C544FCA3E0240812205BB3CF
:1055800024181222C534FCA3E0241812205BB32493
:10559000281222C534FCA3E02428FDE43CFC7B1047
:1055A000120012109000C8EFE024381222C5341205
:1055B00022C5B7243A1222C4911222C551E5822491
:1055C00038806E1222C56F24171222C491E0FEA308
:1055D000E02415FFE43EFE9000C8EFE07C002FFFC2
:1055E000EC3EFE9000C8E7F0A3EFF0122595CF90B7
:1055F00000C8E51222C6D870030156FC1222C57DF0
:105600001222C48674041222C49C122059E57B1015
:1056100012205BC39000C8EFE024151222C534129B
:1056200022C5B724191222C4911222C551E5822441
:10563000171222C491E0FAA3E0FB1200112F0156C9
:10564000FC12205AA170030156FC1222C57D1222C1
:10565000C4867405801312205AA170030156FC12EF
:1056600022C57D1222C4867406F09000C8EC122276
:10567000C5031222C5980156FC9000C8EFE0240330
:1056800012205B3B60761222C57D1222C48674070D
:105690001222C49CE0FF9000C8EFE02402FDE43336
:1056A000FC9000C8E5E0FAA3E08A8375930012221B
:1056B000C6FB80489000C8EFE0240912205B3B60E5
:1056C0003B1222C57D1222C4867408F09000C8ECFB
:1056D0001222C5031222C5989000C8EFE0240212DE
:1056E00022C534FCA3E02401FDE43CFC7B0712004E
:1056F00012108008E49000C8E7F0A3F01222C7A3BC
:105700004E605C9000C8E5E0FCA3E0FD4C605012E8
:105710002543F89000C8E5E0FEA3E0FF02267C5296
:105720001222C4F51222C566FEA3E0FFEE14702F0C
:10573000EF24F2600280289000C8DD1222C4C4A3C6
:1057400012000DD9E92403F9E43AFA12000AB1640F
:10575000027D0270047F018002E4FF12275F222293
:10576000F0EF2401FFE433CF2DCF3CFE9000C8DDE5
:10577000E0FCA3E02402FDE43CFC7B0212001210DA
:105780009000C8E5E0FEA3E0FFA3E0FCA3E0FD126B
:105790002542F79000C8E722F09000C8DDE0FCA3A6
:1057A000E0FDF5828C83759300A3A3E0FE8D828CCF
:1057B00083759300A3A3A3E0FCA3E0F5828C83751B
:1057C0009300EEF0EF2401FFE433FE9000C8E7E021
:1057D000FCA3E02FFFEC3EFE9000C8DDE0FCA3E060
:1057E000F5828C83759300A3A3A3E0FCA3E0FD9056
:1057F00000C8ECE0FB120012109000C8EBE024019E
:10580000FFE433FEA3E07C002FFFEC3EFE9000C8D7
:10581000E7E0FCA3E02FFFEC3EFE9000C8DDE0FCDB
:10582000A3E0F5828C83759300A3A3A3E022F0EF9D
:105830002401FFE433CF2DCF3CFE9000C8DDE0FC17
:10584000A3E02402FDE43CFC7B0312001210900054
:10585000C8E5E0FEA3E0FFA3E0FCA3E0FD122542C3
:10586000F79000C8E7229000C8EBE02402FFE43381
:10587000CF2401CF3400FE9000C8E5F0A3EFF01272
:105880002595CF9000C8E7EEF0A3EFF04E22E0FEA2
:10589000A3E0FF9000C8EBE0FD7C00EF2DFFEC3EA5
:1058A000FEA3E02FFFEC3ECF2401CF3400FE90009A
:1058B000C8E5F0A3EFF0122595CF9000C8E7EEF011
:1058C000A3EFF04E22F0EF2401FFE433CF2DCF3CC5
:1058D000FE9000C8DDE0FCA3E02402FDE43CFC7B7C
:1058E00008120012109000C8E5E0FEA3E0FFA3E05C
:1058F000FCA3E0FD122542F79000C8E7229000C803
:10590000EBE02403FFE433CF2401CF3400FE90000A
:10591000C8E5F0A3EFF0122595CF9000C8E7EEF0B0
:10592000A3EFF04E22F0EF2401FFE433CF2DCF3C64
:10593000FE9000C8DDE0FCA3E02402FDE43CFC7B1B
:1059400006120012109000C8E5E0FEA3E0FFA3E0FD
:10595000FCA3E0FD122542F79000C8E7229000C8A2
:10596000EBE02408FFE433CF2401CF3400FE9000A5
:10597000C8E5F0A3EFF0122595CF9000C8E7EEF050
:10598000A3EFF04E229000C8EBE02406FFE433CFF3
:105990002401CF3400FE9000C8E5F0A3EFF01225FB
:1059A00095CF9000C8E7EEF0A3EFF04E22F0EF2481
:1059B00001FFE433CF2DCF3CFE9000C8DDE0FCA317
:1059C000E02402FDE43CFC7B02120012109000C8AF
:1059D000E5E0FEA3E0FFA3E0FCA3E0FD122542F713
:1059E0009000C8E722A3E0FF9000C8EFE0FE240289
:1059F000FDE433FC9000C8E5E0FAA3E0FB8A837580
:105A000093002DF582E5833CF583759300EFF0EE6E
:105A10002403FFE433CF2BCF3AFE9000C8E9E0FC2B
:105A2000A3E02403FDE43CFC7B0212001210900072
:105A3000C8EFE02405FFE433FE9000C8E5E0FCA3D6
:105A4000E02FFFEC3EFE9000C8E9E022E0FEA3E07C
:105A50002438FFE43EFE9000C8EFE07C002FFFEC0E
:105A60003EFE9000C8E7F0A3EFF0122595CF90001E
:105A7000C8E5EEF0A3EFF04E229000C8EBE0240260
:105A8000FFE433CF2401CF3400FE9000C8E5F0A33B
:105A9000EFF0122595CF9000C8E7EEF0A3EFF04E9F
:105AA000229000C8EFE02402FFE433FE9000C8E734
:105AB000F0A3EFF0122595CF9000C8E5EEF0A3EF2C
:105AC000F04E22EF2401FFE433CF2DCF3CFE9000B7
:105AD000C8DDE0FCA3E02402FDE43CFC120012104F
