:020000040020DA
:1000000002200A1D9000F42312000D747810EC4DAC
:100010004E4F70047CA57DA5C3EC13FCED13FDEEE3
:1000200013FEEF13FF5010EC64CCFCED644CFDEEBE
:10003000644EFEEF64CEFFD8DF9000F42312000D73
:10004000B5EE547FFE229000F423EEF0EFA3F0A370
:1000500074A5F0A3F0220000000000001000800052
:1000600000805F9B34FB00000000000000000000E7
:10007000022775660000FFFF0227C1DC0227C1745A
:10008000022359D302268103227F01220220A4E900
:100090000221840D0224C983C0E0F5E0C0E0900095
:1000A000F48FE06401700975E00215E070FC8024B3
:1000B0009000F48FE06402700975E01415E070FCA4
:1000C00080129000F48FE06403700975E03015E051
:1000D00070FC8000D0E0E5E0D0E02230303030002D
:1000E0000000000000000000000000220224A761C0
:1000F0000227C17C224D43485020424D38333030D6
:10010000303000000000000000000000000000008F
:1001100000000000000000000000000000000000DF
:1001200000000000000000000000000000000000CF
:1001300000000000000000000000000000000000BF
:100140000000009E0227C33AE09028FE00F1030958
:100150000000F3010AF40401000004F203090001A5
:10016000F3023506F40619110E19110FF2030900F6
:1001700004F3023510F41035061901000900173593
:1001800006190017090104F203090006F3023509F4
:10019000F40909656E09006A090100F20309000902
:1001A000F3023508F408350619110E090106F203A9
:1001B000090100F3022508F4084156524350204338
:1001C00054F203090102F3022504F4044D4348509C
:1001D000F203090311F30109F4020001FFE08D2885
:1001E000FE90F103090000F3010AF4040100000588
:1001F000F203090001F3023503F40319110CF203B1
:10020000090004F3023510F4103506190100090045
:10021000173506190017090104F203090006F30255
:100220003509F40909656E09006A090100F203093C
:100230000009F3023508F408350619110E09010604
:10024000F203090100F3022508F408415652435015
:10025000205447F203090102F3022504F4044D433C
:100260004850F203090311F30109F4020002FF6090
:10027000BCDAF31600000002280049535343FE7D08
:100280004AE58FA99FAFD205E45519000000022866
:1002900003380000495353431E4D4BD9BA6123C65E
:1002A000472496161600000010495353431E4D4B29
:1002B000D9BA6123C647249616010008020000023D
:1002C00029020000190000000228030C0000495315
:1002D0005343884143F4A8D4ECBE34729BB3160058
:1002E00000001049535343884143F4A8D4ECBE3472
:1002F000729BB30100190000000228031C00004992
:100300005353434C8A39B32F49511CFF073B7E1688
:1003100000000010495353434C8A39B32F49511CF4
:10032000FF073B7E01000802000002290200004195
:10033000ECD60044ECD00000000047ECD820434C41
:1003400043433A2041ECCF0041ECDF8241ECD7003F
:100350006042ECE0FF00FF01020203030404050514
:1003600006060707080809090A0A0B0B0C0C0D0DF5
:100370000E0E260F290F101017111A121D13231419
:100380002415FF16FF17FF18FF19FF1AFF1BFF1C8C
:10039000FF1DFF1EFF1F41EBD30041EBFA0042F2AD
:1003A000BC00F041F2BA0041F2B90041F2B800419C
:1003B000F2B70041F2B60042EF9B000043EFC100EC
:1003C000000043F0BB00000043F0BE00000041F11C
:1003D000E30141D1090041D10C0141D2410041D298
:1003E000420041D23D0041D0FD3341CBDC0042CB45
:1003F000E200006161DC5608000000022800180AD3
:100400000B0000000228030200002A291E800000C1
:10041000022A29044D43485000000000000000005B
:1004200000000000000000000000000B00000002BF
:1004300028030200002A241E800000022A2404420D
:100440004D383300000000000000000000000000F4
:100450000000000000000B00000002280302000062
:100460002A251E800000022A25043030303000008A
:10047000000000000000000000000000000000007C
:10048000000B0000000228030200002A271E0000C3
:1004900000022A27064254424D3833000000000073
:1004A0000000000000000000000000000B00000041
:1004B0000228030200002A261E000000022A260647
:1004C0003039313030300000000000000000000002
:1004D000000000000000000B0000000228030200E2
:1004E000002A281E800000022A2804303030300004
:1004F00000000000000000000000000000000000FC
:1005000000000B0000000228030200002A231E0046
:100510000000022A23080000000000000000000084
:10052000000000000000000000000000000B0000C0
:10053000000228030200002A2A1E000000022A2AC4
:1005400008000000000100000000000000000000A2
:10055000000000000000000060CEE4201600000053
:100560000228004953534387E04C2483CDA9AF7937
:1005700033EAC2190000000228039A0000495353CD
:1005800043B75C4470962116B7F26C104516C00054
:10059000001049535343B75C4470962116B7F26C70
:1005A00010450100080200000229020000080000B6
:1005B00000022900000119000000022803180000B1
:1005C000495353434BB64977B521F04466776A3FA8
:1005D0001600000010495353434BB64977B521F03C
:1005E0004466776A3F010008020000022902000009
:1005F000190000000228031A0000495353432DD16B
:1006000045A394DE8810F6436D78168000001049EB
:100610005353432DD145A394DE8810F6436D7801E2
:10062000000802000002290200006082E90C1600A6
:1006300000000228004953534304D5441AFCF097A4
:10064000295081A5E4190000000228030200004996
:1006500053534398273948DBDF68B4F53EA232167E
:10066000800000104953534398273948DBDF68B4B2
:10067000F53EA23201001900000002280318000014
:100680004953534395E36C27E5DAEED323ADFDEDF3
:1006900016000000104953534395E36C27E5DAEE4A
:1006A000D323ADFDED010008020000022902000085
:1006B00041F48F0041DA2B006030DA2EA8DA19A855
:1006C000D9CFA8DA09A8D9BBA8D9F6A8D9A4A8D99E
:1006D000E0A8D98AA8D97DA8D933A8D96DA8D91FEF
:1006E000A8D95AA8D908A8D944A8D8EE41D9310028
:1006F00041D9320041D9330041D9340141EC79006C
:1007000044EC7A000000006090E5FA080000010265
:10071000280018000B0000020228030A00032A0028
:100720001E000003022A0007424C452D53444B0093
:100730000000000000000000000000000000000BAE
:100740000000040228030200052A01090000050236
:100750002A0102000000000000000000000000006C
:100760000000000000000000000000000000000089
:100770000000000000000000000000000000000079
:100780000000000000000000000000000000000069
:100790000000000000000000000000602AE5D00812
:1007A00000001002280018010B000011022803208D
:1007B00000122A050B000012022A050400000000A6
:1007C00008020013022902000042EEF8000042EE87
:1007D000FA000041EEFCFF41EEFD0141F1F2004361
:1007E000F1F700010341F1EF0041F1F00041F1F1B7
:1007F000006082E51E1600000002280049535343A2
:10080000C9D0CC83A44A6FE238D06D6619000000CD
:1008100002280318000049535343ACA3481C91EC31
:10082000D85E28A60318164000001049535343AC65
:10083000A3481C91ECD85E28A603180100084200CA
:100840000002290200001900000002280304000031
:100850004953534318E44149BDD41A7610F6844FE6
:1008600016000000104953534318E44149BDD41AFF
:100870007610F6844F010041EF45000041F49800E6
:10088000C2D530F707B2D563F0FF05F030E70DB2FF
:10089000D5F404008463F0FF05F080018430D502B4
:1008A000F40422BC000BBE0029EF8DF084FFADF0F4
:1008B00022E4CCF875F008EF2FFFEE33FEEC33FCAA
:1008C000EE9DEC984005FCEE9DFE0FD5F0E9E4CEE0
:1008D000FD22EDF8F5F0EE008420D21CFEADF0759F
:1008E000F008EF2FFFED33FD4007985006D5F0F2EA
:1008F00022C398FD0FD5F0EA22C2D5EC30E709B249
:10090000D5E4C39DFDE49CFCEE30E716B2D5E4C30C
:100910009FFFE49EFE122008A3C3E49DFDE49CFC1F
:100920008004122008A330D507C3E49FFFE49EFE95
:1009300022F8EB700C09E5F027C7F5F019E837C786
:100940002289828A831410E707F593E802000B1FBF
:10095000F593E4740193F5F0E49322BB000B09C511
:10096000F027F7C5F01937F722F8EB89828A83144C
:1009700010E707F593E802000B09F593740193253E
:10098000F0F5F0E4933822EB7006E9F8022009C193
:1009900089828A831410E706F59302000D9CF59373
:1009A000022009CEEB7006E9F8022009DE89828A6E
:1009B000831410E706F59302000DD9F59302200980
:1009C000E7E6FB08E6F908E6FA08E6CBF822E49346
:1009D000F8740193F9740293FA740393FB22E6FB13
:1009E00008E6FA08E6F922E493FB740193FA74022C
:1009F00093F9220227A55EE493A3F85407240CC8B8
:100A0000C333C4540F4420C8834004F456800146C5
:100A1000F6DFE4800C0102040810204080902001E1
:100A200048E47E019360CCA3FF543F30E509541F96
:100A3000FEE493A360010ECF54E0B4E029E493FBFD
:100A4000A3E493FAA3E493F9A3E493C083C08212CE
:100A5000000AE3759320D082D083A309E970010ACC
:100A6000DFE7DEE580BB54C025E0602B4089E493DE
:100A7000A3FAE493A3F8E493A3C8C582C8CAC583C4
:100A8000CA759300F0759320A3C8C582C8CAC583F0
:100A9000CADFE3DEE1808AE493A3F8E493A3400392
:100AA000F68001F208DFF402200A210000000001B4
:100AB000010D040A5D000B0B00040500060600068C
:100AC0000D00060D00060D00060D00060D00060DBA
:100AD000000400000000011904323300000000008F
:100AE0000000000000000000000000000000000006
:100AF000000000000000000800000000011904359B
:100B0000370000000000000000000000120000128A
:100B1000000012000012000E12000E12000200006F
:100B2000000001190434360000000000000000003D
:100B30000000110000110000110000110000110060
:100B4000001100200000000001190431FB003100F9
:100B50000031000031000031080031080031080088
:100B60003108003108003108000000800000011940
:100B70000430FC003000003000003000003009007C
:100B80003009003009003009003009003009002127
:100B9000212100210021002100210021002100212C
:100BA000000100001F2D5BEB5F0001000000010051
:100BB00000101008600100001F162DEB5F000100FF
:100BC0000000010000101008600100001F070FEB7B
:100BD0005F0001000000010000101008600100002B
:100BE0001F050BEB5F000100000001000010100862
:100BF000600100001F0707EB5F000100000001001B
:100C000000101008600100001F0505EB5F000100E7
:100C10000000010000101008601203A01A781203EF
:100C2000A01A781103F41E781203E906401103F4A8
:100C30001E781203E906400100001F070FEB5F005A
:100C400001000000010000101008600100001F05F5
:100C50000BEB5F0001000000010000101008609025
:100C60002935028FF915C31F211120051E251409EE
:100C7000FF00A89AB60004D104A8A9F70001B701A3
:100C8000A895C900019E47A8B31700019E69A8B3A3
:100C90002E00019EBAA895F000019ED1A88BA1005C
:100CA00001587DA896170002BA8CA81E660003D4CE
:100CB00095A89806000140AEA7B38400032D73A841
:100CC00049550003EBF7A6A48000047A35A8BC9E22
:100CD000000324C2A8AA130000100FA82A50000283
:100CE000830BA8BCAF000396B6A8BCC000039797BF
:100CF000A8AFAD000486D1A8B95C00044D67A85A1E
:100D0000B30001B5AAA87B8900017A0AA85256004F
:100D1000036114A8BF1400008D66A7A4E400028834
:100D2000E1A875970003B920A83704000151A2A8D3
:100D3000928D0004E099A7EC08000267721E1F1D47
:100D400002001C001B1A000016000000000000003A
:100D50000C0C001B000F000000000601000000004A
:100D60000000000000000000000000000000000083
:100D70000000000000000000000000000000000073
:100D80000000000000000000000000000000000063
:100D90000000000000000000000000000000000053
:100DA0000000000000000000000000000000000043
:100DB000000000000000000000000000000104012D
:100DC000640501040264050104033C080A0A0000EA
:100DD00009020203080202030802020A05020202D3
:100DE00004020201640801030364050103010A050A
:100DF00001040264040104033C0802020164FF02CE
:100E00000202FF0303032505030303250401040273
:100E10000502030300000501040264051010000030
:100E20000510100000031010000003020203084D1B
:100E300038425A323847535837636F6D2E6973738F
:100E4000632E6461746170617468636F6D2E697381
:100E500073632E646174617061746832636F6D2EA8
:100E60006D6963726F636869702E42744368617460
:100E70002D4475616C4D6F646543686174626F6188
:100E80007264312E302E30312E302E304D4348508A
:100E9000424D3833563200000000000000004D4340
:100EA000485000424D3833000000000000000000B0
:100EB0000000000000000000000000000000000032
:100EC000000000000000000049535343FE7D4AE546
:100ED0008FA99FAFD205E455495353431E4D4BD9BB
:100EE000BA6123C64724961649535343884143F4B5
:100EF000A8D4ECBE34729BB30006EA020007EA00F5
:100F0000EA0100080000090000000A0005000000D6
:100F1000000A00050000010005000201000C656EDA
:100F200000000D656E00001100060000AABB000E57
:100F3000000143686174626F617264000004000222
:100F4000000A000300000000000000000000DECAEC
:100F5000FADEDECADEAFDECACAFE3F6509860100E0
:100F60000A0004781D35330D0D1305447F502440CD
:100F70005030000220404014080016200A101620AD
:100F80001E0F0F5555160A540B04120000101207BD
:100F900000000319FF40F07F40000077015E00F081
:100FA00001E000C8204E483930242018126049530F
:100FB0005343FE7D4AE58FA99FAFD205E4554953BF
:100FC00053431E4D4BD9BA6123C647249616495345
:100FD0005343884143F4A8D4ECBE34729BB34953C5
:100FE00053434C8A39B32F49511CFF073B7E000005
:100FF00000000000000000000000000000000000F1
:101000000D0A0D0A022538CF022689287B360000FA
:10101000000000000227B62E0227675F022618DEB6
:10102000022615200226DDD70226B535022507A5A2
:10103000022100000222757602278A1502259737C1
:101040000224143C0223D9CA0226FB390221CD0016
:101050000226FF3A0223C37302268F4102274A5A0F
:101060000226C5F9022772B102269B99022784E85D
:1010700002266FB1022629E90226936A0226B96286
:101080000225966D02257E3602278EFA0224D6E1CD
:101090000000000000000000000000000000000050
:1010A0000000000000000000000000000000000040
:1010B0000000000000000000000000000000000030
:1010C0000000000000000000000000000000000020
:1010D00000000000000042542D353531312D4241D1
:1010E000434B55503111101803200320000000001D
:1010F00014042400000000000000000000000000B4
:101100000000002222222222222222222222222225
:1011100022222299999999999999990100000000A0
:101120007F000700010007FF00A2A5C2C5E2E5E8B5
:10113000EBEEF1F4F7FAFBFC00A2A5C2C5E2E5E88C
:10114000EBEEF1F4F7FAFBFC0000000000000000F9
:10115000000000000000000022222222222222227F
:10116000222222222222222200000000000000006F
:101170000000424D38335F4D53504B323000000079
:10118000000000000000000000000000000000005F
:10119000000000000000000000000000000000004F
:1011A00000000000000000424D38335F4D53504BAB
:1011B000323000000000C1030000002001100113C4
:1011C0000114C10100000000000000000000000048
:1011D000424C455F424D383353444B0006FF0227D3
:1011E0000501034D41474943E49000C4F4F09000E9
:1011F000C4F0F0A3F0A3F09000DAE9E0640160101D
:1012000012236971701EA2904003D38001C3401461
:101210009000D4D5E07002A3E06006E4FF1222C182
:10122000687FFF2212236905C39000D4EC7005E0AB
:1012300094108003E09411FF9000D4EBE09400FE42
:101240009000D509E0FDC3EF9DFFEE94009000C42F
:10125000EEF0A3EFF09000624EE0FF640670030131
:101260001F03EF640C7003011F039000C4EEE070D5
:1012700002A3E07003011F039000D9E5E06007645A
:10128000016003011F031227B7C4EF6003011F03AE
:101290009000D4C21223683F240C12236801122349
:1012A000683F240412236801E06003011EF89000E7
:1012B000D50AE030E04D122369719000C4F7700543
:1012C0007409F080037412F012201FC2122368AE5A
:1012D00012236801E4F0A37499F09000C4F712237C
:1012E0006831E582240712236801EDF09000C4F80C
:1012F0001223684F240812236801740DF07F07122F
:101300000004519000D4FEE06003011487122368AA
:101310000C7AC47BF57D1012201FDC9000D4FBE01A
:1013200070030114849000C4F5E0649C6003011410
:10133000849000C4F104F09000E3D5E0700C9000BC
:10134000D4D8E030E104122369891223680C7AC4EE
:101350007BF57D117C0012201F4E7AC47BF67D1236
:1013600012201FDC9000C4F5E0FB9000D945E06B33
:10137000602A1223699570079000C4F1F0803190C3
:1013800000D4D8E054FDF09000D945EBF09000C4B3
:10139000F6E09000D5161223697880149000C4F608
:1013A000E0FF9000D516E06F6006EFF01224F42BFA
:1013B0009000C4F1E06401600301152EA3E0600316
:1013C00001152E9000C4F71223699D9000C4F7F018
:1013D00012236955C39F400301146EE4A3F09000EB
:1013E000C4F8E0FD122369B650631223680C900024
:1013F000C4FAE02410FB9000C4F9E03400FA7C0049
:10140000EB2DFDEC3A12201F309000D554E0241053
:10141000FDE433FC9000C4FAE02DFD9000C4F9E037
:101420003CFC9000C4F8E07A002DFDEA3CFC7AC454
:101430007BF6122789E99000C4F6E0FF9000C4F51E
:10144000E0B507099000C4F8E004F080919000C472
:10145000F8E0640370189000D554E0FF9000C4F9E0
:10146000122369D49000C4F7E004F00113D01223D2
:1014700069556F700301152EE49000C4F1F09000DF
:10148000C4F480417FFF2212236905703D041223BA
:101490006929B507179000D4D8E020E00F9000D953
:1014A00045E060089000D50AE030E0151223699508
:1014B00070079000C4F1F080081223693A12236982
:1014C000799000D94574FFF080649000D4FBE0600F
:1014D0005D1223680C7AC47BF77D117C001227898A
:1014E000E99000C4F7E054F8F0740112236929B5BB
:1014F00007109000D4D8E020E0089000D50AE03032
:10150000E004122369899000C4F7E0FB9000D945FC
:10151000E06B601A1223699570079000C4F1F080A7
:101520000D1223693A9000D945EB12236978900097
:10153000C4F1E07003011F03A3E0606012201F6785
:1015400012236801E4F0A3740B12236912FB122327
:1015500067F6EBF07F08120004519000D4FDE09094
:1015600000D553F0E4FF1222C1689000625CE06095
:1015700074122368A56005EF6409706912201F8743
:1015800012236801E4F07485122367F4741EF0904E
:1015900000C4F7E0FCA3E0FD7F0780459000624EA9
:1015A000E0FF640D603FEF6404603AEF6403603570
:1015B0009000D9DFE06404602C9000624EE0640A81
:1015C0006023EF640C601E12201F6712236801E481
:1015D000F0A3740B12236912FB122367F6EBF07F62
:1015E00008120004519000C4EEE0FEA3E012236A4A
:1015F00004FDF5828C83759300A3A3EEF0A3EFF0B6
:101600008D828C83759300A3A3E475F01012000BF8
:10161000099000F474E09000C4F0F06003011D151F
:101620001223690570089000C4F304F0800C900048
:10163000D4FBE0540F9000C4F3F09000E3C3E060EB
:1016400053122368A56005EF640970489000D4F236
:1016500012236849240912236801EFF09000D4E8AE
:1016600012236867240812236801EFF09000D4DA8F
:10167000E0540F6401700A9000D4E5E09000D4C4F7
:10168000F012236869240912236801E09000E3E75F
:10169000F001192AE49000C4F8F09000D51FE0048E
:1016A000F012236849240912236801122368CD909F
:1016B00000D527E02FF09000D4F5E0FBA3E09000E8
:1016C000C4F9CBF0A3EBF09000D4BFE0F4607EE06F
:1016D00004F09000D4C1E0FEEFC39E400C9000C423
:1016E000F3E09000D4C1F0801E9000D4D7E0FF90CA
:1016F00000C4F3E0FEC39F40089000D4D7EEF08012
:10170000069000D4C0EEF09000D4BFE06414703DA9
:1017100074FFF09000D4D7E0700A9000D4C1E0903C
:1017200000D4D7F09000D4C0E0700A9000D4D7E085
:101730009000D4C0F09000D4D7E0FF9000D4C1E076
:101740002FFF9000D4C0E02F9000D4C4F09000C4CC
:10175000F9E0FFA3E09000D524122368CA9000D5D9
:101760002BE4F0A3EFF09000D5271223686724083C
:1017700012236801EFF09000C4F77408F090006144
:101780002AE0700301186F9000D4FBE0FF9000C4C2
:10179000FBF0122369057007122368D601184990DF
:1017A00000C4FBE0FD7C00C3122369A74020122384
:1017B00068D69000D243E004F0122369A5500301DB
:1017C0001849122368D6E49000D243F0807BED6480
:1017D000074C701F122368D69000D4D1E004F0E0CB
:1017E000D3122369B74062122368D6E49000D4D1A3
:1017F000F080569000C4FBE0FD7C0064067021126E
:101800002368D69000D4D2E004F0E0D3940474802E
:1018100094804035122369AEE49000D4D2F0802940
:10182000D3ED9405EC64809480501E122369AE9031
:1018300000D4D4E004F0E0940674809480400A124E
:101840002369AEE49000D4D4F09000D4D9E06019BC
:101850009000C4FBE0122369B6400E9000D4D9E09A
:1018600014F09000C4F7E014F09000D523EFF012CC
:10187000236890A3E0FD8F82122368162DFDED30C2
:10188000E0149000C4EFE0240F12201F0A9000C45F
:10189000EFE0240E80161223680C9000C4EFE024C1
:1018A0000E12201F0A9000C4EFE0240DFD9000C42A
:1018B000EEE012201FD09000C4F3E0FB9000D51F93
:1018C000E0FE2BFD9000C4F5E02DFDA3E02D540FAC
:1018D000FDC2AF9000E3DAE054F04401F09000D490
:1018E000C4E09000E3E5F09000E3E7EEF09000D56F
:1018F00027E09000E3E8F0EB540FFFA3E054F04F33
:10190000F0AF05EF540FC454F0FFE0540F4FF090C8
:1019100000DAEFA3E09000E3E4F01223680C7CE32C
:101920007DDA7B1012001210D2AF122369716003AE
:10193000011B4A9000C4F3E025E02402FF9000C49C
:10194000FBF07E00D39410748094805052EF940486
:101950007480948050061200048A80289000C4FB92
:10196000122369A550061200049D80189000C4FB44
:10197000E0D39410748094805006120004B0800468
:101980001204EF809000C4F812236A0E122368310B
:10199000E582240812236801EDF0EF24098071121A
:1019A000201FC29000C4FBE0FFC39401FDED541F53
:1019B000D39400E49400400AEF9401C41354070444
:1019C000800C9000C4FBE0C39401C4135407FF12C1
:1019D00004875F9000C4F81223684F24081223681C
:1019E0000112236A0E12236867240812236801E09B
:1019F000FCA3E0F5828C83759300EFF09000C4F8AF
:101A00001223683F240812236801E0FEA3E02401AA
:101A1000FFE43E9000C500F0A3EFF0122368AE1281
:101A2000236801E4F0A37429F09000C4FBE0C394A0
:101A30000112236832E582240712236801EDF09039
:101A400000C4F2E09000C4F8600C1223683F122337
:101A500067FFE4F0800B1223683F122367FF7401D5
:101A6000F0E49000C4FAF0122368CF9000C4FAE0CA
:101A7000FEC39F4003011B3BEE700A9000C4FEF0C2
:101A8000A304F0806B1223680C1223687312201FCA
:101A90003012236873CD2401CD12201FD09000C4D2
:101AA000F5E0FEA3E0FDEDFF9000C4FCEEF0A3EF37
:101AB000F09000C4FCE0FEA3E07802CEC313CE1386
:101AC000D8F9FFEE5401FEEF2401FFE43EFE900042
:101AD000C4FCF0A3EFF09000C4FFE02401122368DF
:101AE0007ACD2FFFED3ECF2402CF3400F0A3EFF0EC
:101AF0009000C4FAE025E0A3F0FB1223680C122347
:101B00006873FC7A00122369DBEA38FA12201F4E50
:101B100012236873CD2401CD3400FC9000C4FBE097
:101B20002401FBE433FA122369DBE83AFA1227892D
:101B3000E99000C4FAE004F0011A679000C4F8E0EC
:101B4000FCA3E0FD7F081200045112236890A3E07B
:101B5000FD8F82122368162DFDED30E0269000D413
:101B6000C212236821E5822DF582E5833CF5837559
:101B70009300E41223694B12236899E475F0011273
:101B8000000B09122368A36008EF64096003011CBD
:101B9000149000625CE0607C9000E35DE0FF6074A4
:101BA0009000C4F7E0FE1223684B122367FFEEF0AB
:101BB00012236869240712236801EFF09000644C37
:101BC0007401F01223683B122367FFE070041223B4
:101BD00069F01223683B2409122368011223686705
:101BE000240912236801E0FED39F4004EE9F801E6B
:101BF0001223683B240912236801E0F40412236ACB
:101C0000048C83759300240912236801E02F04904B
:101C1000006F51F09000E73DE0FF7E006403600537
:101C2000EF64097008E49000DAB8F0800AEF4E70B3
:101C3000069000DAB804F09000D4C2122368B21201
:101C40002368017401F09000C4F312236831E58227
:101C5000240512236801ED1223694B12236899E0D1
:101C6000FEA3E0FF9000D4D5EE122369D59000D4F6
:101C7000D5E0FEA3E0FF7DB17C001200115890007A
:101C8000D522EF1223694BFFF5828E831223682938
:101C900012236A181223684B240C12236801E0FAFD
:101CA000A3E0F5828A83759300EEF0A3EFF0122390
:101CB0006869240C12236801E0FFA3E09000D4C2FD
:101CC000122368CA9000D4C7122369D49000EED6BC
:101CD00012000D74E4FFED5402FDE4FCED603212DD
:101CE000236971602C9000D4FDE060259000E3C36F
:101CF000E0701E9000D526E06402700F9000624EE6
:101D0000E0640D7006122377C88006E49000D52F9A
:101D1000F0D2AF804412201FAD122368A56005EFFA
:101D2000640970329000625CE0601912201F871213
:101D3000236801E4F0A37494122367F5740C122055
:101D40001F9C80129000612AE0600B9000683BE0CD
:101D500060041227A8C17FFF229000D526E060030F
:101D6000011EC0C2AF9000D244E004122368CE909E
:101D700000D4BDE02FF0D2AF9000D4BBE0FEA3E0D2
:101D8000FF8E83759300240C1223680112236821AF
:101D9000A3A312236A187DB17C0012001158900091
:101DA000D52AEFF09000624EE0640D6011C2AF9052
:101DB00000625AE4F0A374C8F0D2AF011EAD9000E7
:101DC000D4FEE0FF7E00F4700F9000D528E0FD9077
:101DD00000D4BDE0C39D5028EFF44E7003011E8275
:101DE0009000D244E0C39416748094805012900006
:101DF000D528E0FF9000D4BDE0C39F5003011E82B0
:101E0000122368A56011EF6409600CEF640270533F
:101E10009000E35DE0604C9000625CE060261200A0
:101E2000048A9000C4F7EEF0A3EFF0122368B71213
:101E3000236801E4F0A37485122367F5740112206E
:101E40001F9C80079000E3C3E06062C2AF90006215
:101E50005A740CF0A37480F0D2AF9000D5267401B0
:101E6000F0804AC2AFE49000625AF0A3F0D2AF9083
:101E700000D522E09000D4CCF09000D5267402F07A
:101E8000802B122368A36005EF6409701490006131
:101E90002AE09000625A600D7401F0A3742CF08067
:101EA0000A9000625AE4F0A374C8F0D2AF9000C464
:101EB000EEE0FFA3E09000D555CFF0A3EFF0804314
:101EC0009000D526E0FF7E006401701AC2AF90003A
:101ED000D244E004F09000C4F3E0FD9000D4BDE0F3
:101EE0002DF0D2AF801DEF64024E70179000D4BD6C
:101EF000F09000D244F0800B12201FAD9000C4F48B
:101F000074FFF09000C4F4E0FF22FD9000C4EEE006
:101F10003400FC7AC47BF5122789E99000D4C2E032
:101F2000FEA3E0F5828E83759300E0FEA3E0FF221E
:101F3000FC7AC47BF5122789E99000D4C2E0FEA3A5
:101F4000E0F5828E83759300E0FEA3E0FF22122766
:101F500089E99000D4C2E0FEA3E0F5828E837593F8
:101F600000E0FEA3E0FF221200048A9000C4F7EE16
:101F7000F0FCA3EFF0FD9000C4F7E0FEA3E0FF8EBD
:101F8000837593002404221200048A9000C4F7EEA3
:101F9000F0A3EFF08E83759300240422F09000C428
:101FA000F7E0FCA3E0FD7F071200045122E4FF12DA
:101FB00022C168E49000D945F09000D4D8E04401F3
:101FC000F0221200048A9000C4F8EEF0A3EFF02291
:101FD0003400FC7AC47BF6122789E9227C001227A0
:101FE00089E92212213E61122678AE9000C8107451
:101FF00021F0A3E9F0A3EFF07EC87F100227A187AC
:10200000227F1C22229000F14B1221F7089000F150
:1020100052ECF0A3EDF09000F14CE09000F1501282
:1020200021F5E69000F149EEF0A3EFF09000F149C0
:102030001221F6C870030120FF9000F14C1221F428
:102040005C9000F14B1221F497401A9000F14EEC95
:10205000F0ED1221F712700404F080289000F14D89
:102060007402F0801F9000F149E0FFA3E09000F1BE
:102070004ECFF0EF1221F7127003F080079000F1BD
:102080004D7403F09000F152E0FEA3E0FF9000F1E8
:1020900047EEF0FAA3EFF0FB9000F14DE0FF900067
:1020A000F1471221F281EFF09000F150E0FFA3E040
:1020B0001221F2741221F5649000F14EE0FFA3E0CA
:1020C0001221F2741221F5621221F2741221F5F438
:1020D0009000F14C1221F5257F431224714E90009F
:1020E000F14EE0FEA3E09000F1521221F59F900026
:1020F000F14AE09FF09000F149E09EF001202C228F
:102100000226DADB0227C2FD020404FD020407F501
:102110000227BF4502279BAC0227C1430224EFA23E
:1021200002259E470226703202248D029000C511BE
:10213000EFF0C37480948040061226C6E840057E06
:10214000007F03229000C511E0FF1226C6E0501B5D
:102150001226C7091226C6D555801226C71AFEF8C0
:10216000EF088002C313D8FC0121F09000C51112C2
:1021700026C6DC4021D3EF1226C6F650191226C619
:10218000C555901226C71AC39408FEF8EF088002BE
:10219000C313D8FC805A9000C5111226C6F1402501
:1021A000D3EF1226C702501DE0C394101226C6C9F1
:1021B00055A01226C71AC39410FEF8EF088002C378
:1021C00013D8FC802B9000C5111226C6FD402912A1
:1021D00026C6E85023E0C394181226C6C955B0128B
:1021E00026C71AC39418FEF8EF088002C313D8FC60
:1021F0008D828C83759300F0E4FEFF2201000301C1
:102200000E12010A4254353531315F303032030449
:10221000010000019000C858EEF0A3EFF07EC87FE7
:102220005A7B06E4FD1200004F122339E8FF122307
:102230003A08FCA3E08CF012000E90230300012664
:10224000FA00022CD100032AC400042B8500052BC0
:10225000D200062BD600072C2300082C6B00092C7B
:1022600095000A2D6510012D7110022DCA10032D45
:10227000DB10042F151005351010072E8E10082DB9
:10228000F6100A2D61100B2E55100C3510100D2E66
:1022900053100F35101015351010163510101D2F56
:1022A0005F101E2F7D20012FD73001351030022FF7
:1022B000F730033510300430473005310A300C3127
:1022C0006D300D31E5300E31E5300F31E530103134
:1022D000E5301131E5301231E5301331E53014319C
:1022E000E5301531E5301631E5301731E53018317C
:1022F000E5301931E5301A31E5301B31E5301C008D
:102300000034D512233A6C240412233982E01223BC
:102310003A67240512233982E09000C861122339FC
:10232000B4A3E0FF9000C877F0122038841227127F
:102330007C9000C876EFF09000C860E06004640113
:10234000703B12233B89702574051223398DA3E05D
:10235000FF12233B6F1226115C9000C860E06401FD
:102360009000C86460030124A0F00124C09000C85C
:1023700061E060030124C0A3740701240512233B1C
:102380006F6402704FA3E064027010740612233968
:102390008DA3E0FF1226115C0124C09000C861E00B
:1023A00060030124C0A3740812233AD89000C863C4
:1023B000F01227A887EF60030124C012233AC190CE
:1023C00000C90BE4F0A37410F0E4FB7D0E1227703B
:1023D000BB0124C012233BE864037030A3E0FD7C02
:1023E0000064027013A3740B12233AD812233A1913
:1023F000FBEE540F4B0124BBED4C60030124C09055
:1024000000C862740C12233AD80124BBEF64047034
:102410005F9000C861E0FB7A006402702B740D12BB
:10242000233A1112233B61FFA3E054FC4FF054FB0D
:10243000122339D112233AFD9000C864F0543F12A0
:10244000233BEF7411F08058EB4A707412233AD298
:102450005403FF9000C863E054FC4FF054FB122378
:1024600039D112233AFD9000C863F0543FF08050F8
:102470009000C860E064057047A3E0FB7A00640246
:102480007023741012233A1112233B61A3122339D3
:10249000C612233B0E9000C86412233BEF7411F068
:1024A0007401F0801BEB4A701712233AD254039048
:1024B00000C863122339C612233B0E9000C863F094
:1024C0009000C861E0FF64026003EF70159000C8DF
:1024D00060E06406600C7EC87F621222B7A11224FD
:1024E000758A12233B8960030126809000C87BF027
:1024F000A3F07F0912267A28122526819000C87B36
:1025000012233B2C6032122339B5A3E075F010A4DE
:10251000FFAEF012233B6FEF4DFF9000C87DEEF051
:10252000A3EFF0FD12233AC1AB05E49000C8ABF075
:10253000A3F07D170226F72A1226BB737EC87F5AA6
:1025400012233B6F7B011223CBA7122339B5A3E0E3
:10255000FF7CC87D5A9000C860E0FB9000C8907472
:1025600001F01222BAE99000C860E06007640160DF
:10257000030126269000C46DE05407601512233A2B
:10258000C1122339D312233B557402F07D0912275F
:102590005DB47D017F05122551849000C860E07014
:1025A0001F7EC87F7A122781BE9000C87AE030E58E
:1025B0000F122339B5A312233A317D01122453B5EA
:1025C0007EC87F79122781919000C879E030E515A7
:1025D00012233B33122468A3EF6402700812233BDA
:1025E0003312268DDC9000C879E030E32D12233BB6
:1025F000337CC87D7D122738A97EC87F7F12270AC9
:10260000F29000C880E030E0119000C87DA3E03077
:10261000E10812233B331227712112233B337D0142
:102620001226C7F6805A12233B91702F7EC87F78FE
:102630001227885D9000C878E030E7067F021226F6
:10264000F30A7D017F06122551841227A887EF60C7
:102650002F7D027F011224DE1480259000C860E0E7
:102660006403701C9000C46DE030E41412233AC17E
:10267000122339D312233B5504F07D0A12275DB48F
:102680009000C861E0600301351012233B91702B6C
:10269000122339B5A3E012233BF6B5070E9000C410
:1026A00069E07007FD7F011224B06B7F02122038B1
:1026B000B06003013510FD7F06803B12233BE864C8
:1026C000047003013510EF64057003013510EF60ED
:1026D00007640160030135101220386DFF122038A5
:1026E000B060030135107F011227431DEF4E6003D8
:1026F000013510FD7F0502255184122339E812238C
:102700003B3A240912233982E0FD12233A67240C54
:102710001223398212233BBCA3EDF0640160030154
:1027200035109000C87D7408F09000C886E4F0A3CE
:102730007404F012233B8960030129359000C858C6
:10274000A3E012233A901227127C9000C878EF126F
:102750002339E712233A5012233982E0FF12279ED1
:10276000199000C877EFF064046060E025E025E090
:10277000245AF582E434C412233BE16403704C9084
:1027800000C889F0A37402122339E712233A5012C9
:10279000233982E0540FFF9000C88BE054F04FFFC4
:1027A000F09000C87812233A2AFEEF540F4E9000A2
:1027B000C88BF0788C7CC87D017B017AC879897ED2
:1027C000007F0312000A331226CF039000C878E07E
:1027D000640860717EC87F7D7CC87D7E1226014CB6
:1027E0009000C878E0247EF582E434C812233BE1EF
:1027F000FF540F9000C87BF0EF54F0C4540F9000CA
:10280000C87AF0A3E0FF1227B7749000C87CEFF0FD
:102810001227C238EF7EC87F797006122771858033
:1028200004122771B7122339E812233A50122339C0
:1028300082E0FF7CC87D791226335F9000C879E082
:10284000FF1226F0F4122339E812233A50122339EA
:1028500082E0FF12276B849000C469E0701012239D
:1028600039E812233A50122339821220389E741507
:10287000122339E312233A5012233982E09000C820
:1028800064122038B7122339E812233A90E4FB7D12
:10289000071223CBA7122339E812233B3A240F1245
:1028A000233982E0701B9000C889F012233A8F7C94
:1028B000C87D8912274C619000C889E030E73580D7
:1028C0001F122339E812233B3A240F12233982E0E6
:1028D000541F6401701E12233A8F7D801226E98BEB
:1028E0009000C886E0FEA3E04401FF9000C886EE99
:1028F000F0A3EFF07EC87F881227B89E12233A41DA
:102900008C83759300240A12233982E0FCA3E0FD36
:102910009000C886E0FAA3E0FB12269C7F12233ABF
:10292000418C83759300240A12233982E0FCA3E0D2
:10293000FD02271D7C9000C861E06003012AB3748A
:1029400011122339E38E83759300240D12233982EB
:10295000E0640870079000C86404801A122339E804
:1029600012233A5012233982E0FF12277F1BEF60B7
:1029700009E49000C864122038B79000C46A12239A
:102980003A4512233B9912233982E0FB7D1E122720
:102990008E271220386D1227994EEF703F9000C499
:1029A00056E064057030122339E812233A9012275A
:1029B000127C9000C889122038467D07122037F318
:1029C0007D05122037F312233A4712233B99122335
:1029D0003982122038A77F0C12267A28122339E870
:1029E00012233B3A240D12233982E012000E682A8A
:1029F000AF022A0B042A1E082A0B102A0B1F2A0BCF
:102A0000222A0B232A0B2A00002A8412233A6C2440
:102A10000812233982E0FF12276115012AAF9000C6
:102A2000C889E4F0A304F07EC87F891227095A9070
:102A300000C889E0FAA3E0FB4A9000C858601CE097
:102A4000FCA3E0FD12233B9912233982E0FFED2421
:102A500002FDE43CFC1225AE758014E0FEA3E012FA
:102A6000233A5012233982E0FDE4FF1226DCBA90AB
:102A700000C456E06039640260359000C4871220BB
:102A8000387B802B122339E812233A5012233982E3
:102A9000E0FF1226B88E9000C456E0600C6402601D
:102AA000089000C4861220387B7F0B12267A2802F9
:102AB000247F569000C861E0640160030135107FF7
:102AC0000E012CCD122339B5A3A312233A046003BF
:102AD0000135109000C864F0A3F0A3F09000C86422
:102AE000F09000C864E0FFC3942074809480502E5E
:102AF000122339D312233BA18C8375930024071230
:102B0000233982E58212233981E070099000C8647C
:102B1000E004F080099000C864E004F080C39000F5
:102B2000C864E0FF2402FCE433A3F0A3CC122339F1
:102B3000D212233BA9E4A3F0FE122574339000C8FF
:102B40006212233B2C70030135109000C862E0FE36
:102B5000A3E0FF122339D312233BA12407FDE43C59
:102B6000FC9000C864E0FB120012109000C865E001
:102B7000FEA3E0FF7B017AC879601224672D9000E4
:102B8000C8620134CCE412233A88122339E7FF12D9
:102B90002339BD12233BA98F82122339BF12233B55
:102BA000BB701212233BE864016005EF64037005FB
:102BB0007F04012CCD9000C861E0600301351090C6
:102BC00000C860E06007640260030135107F050102
:102BD0002CCD022508BAE4FF12279972EF64037026
:102BE00003013510122339E8FF12233A501223391A
:102BF00082E0600301351012233A6C240912233954
:102C000082E070030135107EC87F601227B89E9065
:102C100000C86012233A452402FDE43CFCE4FB02B8
:102C200026A0F178607CC87D017BA17A0079DB7EEB
:102C3000007F1012000A339000C8707404F07EC840
:102C40007F707CC87D601226510A122339E8240265
:102C5000FDE43EFC9000C870E0FB9000C89074C892
:102C6000F0A37460F07F01022766F39000C473E064
:102C7000FFE4FD1227312B1227A6A9EF70067F0F64
:102C800012267A28740412233A887401F07EC87FD1
:102C9000600222B7A1122339E82404FFE43EFE12A9
:102CA00027127C9000C860122038467D0712203819
:102CB0005C7D051220385C122339D3A3A31220387F
:102CC000A71227A6A9EF60030135107F0F02267A0D
:102CD00028122339E88E83759300240E122339823B
:102CE000E09000C874F0E4FD7F021224B06B122360
:102CF0003AEA7CC87D751226C52D9000C874E06440
:102D0000019000C86070207409122339E712233A39
:102D10005012233982E09000C861F07D017F0112DA
:102D20002767957D01802A740A122339E712233A16
:102D30005012233982E09000C861F0E4FDFF1227B1
:102D40006F89E49000C46BF07D01FF12276795E462
:102D5000FD7F01122551847EC87F601222B7A180B9
:102D6000000226264D122339E812233A90022483CA
:102D70007C12233A47FD122339DBA3A3A3E06407A7
:102D8000701A122339F8A3A3E0122339F7E582243D
:102D90000412233982A3E0FD0226E00F12233A47F2
:102DA000FD122339DBA3A3A3E06405600301351002
:102DB000122339F8A3A3E0122339F7E58224041281
:102DC000233982A3E0FD0226E129122339B512231B
:102DD0003B76AA06F97B0102245541122339B5122C
:102DE000233A80EFF0122339BDE09000C862F0FD75
:102DF000E4FF0227B203122339B5A3E0FF7AC87BB0
:102E0000607D0112252D5612233B91700412262657
:102E10004D122339B5A3E0FF7CC87D62122738A983
:102E20009000C862A3E020E30C9000C474E0FFE4CB
:102E3000FD1227312B7EC87F61122781919000C837
:102E400061E020E403013510122339B5A3E0FF024D
:102E5000268DDC8000122339E8FF122339BDA3A39D
:102E6000E0FDA3E0CD12233A9F122339BFA3E090E7
:102E700000C864F012233ADF12233A089000C863B6
:102E8000F08F82122339BFE09000C862F022122333
:102E900039B512233A80EFF0122339BDE064017096
:102EA0001C9000C860122339B9A3E0FF9000C46CE5
:102EB000E06F7003013510EFF00226F0F49000C8C7
:102EC00060122339B9E0640260030135109000C834
:102ED0006212233AE97CC87D6212272E0D9000C849
:102EE00062E06401701A1227C2CBEF640C7011907B
:102EF00000C860122339B9A3E0FF7D01122607C67E
:102F00009000C860122339D7E0FF759300A3A3E0B7
:102F1000FD0226E2FF122339E8FF122339BDA3E0A8
:102F2000F99000C860F08F82122339BFA3A3E0FF9D
:102F3000A3E09000C861CFF0A3EFF0AF019000C80C
:102F400061E0FAA3E0FBF5828A8312233BB47C00A4
:102F500012233B24A3A3E0FAA3E0FB02266F301266
:102F60002339E8FF122339BD12233A97122339BFC0
:102F7000A3E0122339F7A3E0FD022699CD122339ED
:102F8000E812233A9012233A88EFF0122339BDE079
:102F90006402701A12233A00FD12233AEAED6F60C0
:102FA0000D9000C469E070067F041224B06B1223F8
:102FB0003ADF122339BDE0640260030135108F82CD
:102FC00012233A0AFF7CC87D62122695B89000C889
:102FD00062E0FF02270F0E122339E8FF122339BDEA
:102FE00012233A97122339BFA3E0FFEC541EFCEDE5
:102FF0005402FD02276576122339E812233A901213
:10300000233A88EFF012233A0812233BF6B507154E
:103010001227C2CBEF640D700C9000C860122339E8
:10302000B91220389112233ADF122339BDA3E07080
:103030000B8F8212233A0AFFE4FD800712233A0025
:10304000FF7D010226E419122339E88E837593006F
:1030500024041223398212233BAB12247F569000A2
:10306000C860E06401703C122339B5A3E0FF7CC85E
:103070007D6A122695B89000C86AE0FF12270F0EED
:10308000122339B5A3E0FF122038847B017D0212A0
:1030900023CBA79000C469E07009122339B5A312AD
:1030A00020389E7EC87F677B03E4FD1200004F90AE
:1030B00000C8677418F0FF122702379000C868EF45
:1030C000122339E712233B3A240412233982E09079
:1030D00000C869F08F82122339BFA312233BBB9033
:1030E00000C867E0FF1226203D9000C862EFF0A301
:1030F000E412233BEF74C8F0A37468122339B4A31D
:10310000E0FF7CC87D610224A4C9122339E82402AF
:10311000FFE43E12233A88EFF09000C86012233992
:10312000D712233BB27B0112264ED39000C8601207
:103130002339D712233BB21226E47712233A001226
:10314000233BF6B507151227C2CBEF640D700C9028
:1031500000C860122339B9122038911227A887EFCE
:1031600070030135107D027F010224DE1412233921
:10317000E82402FFE43E9000C864F0A3EFF0A374DB
:1031800004F09000C864E0FEA3E0FF12233A0812A6
:10319000233A887403F0E49000C863F09000C8629A
:1031A000F08F82122339BFA3E060169000C86374C9
:1031B00001F01227A887EF60087D027F011224DE4C
:1031C000149000C864122339B9E060079000C86207
:1031D0007401F09000C866E0FF7E007B017AC87938
:1031E000600224672D9000C8667405122339E7FF3A
:1031F00012233A08FCA3E08CF012000E9032A230A9
:103200000E348E300F34A03010342F30113445304E
:1032100012345A3013346F3014323D3015328C3042
:103220001632B8301733053018331B3019340330D9
:103230001A3419301B34BC301C000035109000C803
:10324000677408F08F82122339BF12233B768E8376
:1032500075930024061223398212203677700301F9
:10326000351012233A581223397CE41220354912C2
:10327000233B4124081223398212233B1FE5822479
:103280000612233982122038250134CC1220370E41
:1032900070030135101223396D74011220363F017D
:1032A00034CC122036E670030135101223396D74C8
:1032B00002122035DF0134CC9000C867740D122350
:1032C00039B412233B768E83759300240B12233975
:1032D0008212203677700301351012233A581223D8
:1032E000397C74031220354912233B41240D1223EB
:1032F000398212233B1FE582240B122339821220CC
:1033000038250134CC1220376E700301351012239A
:10331000396D7404122036AE0134CC9000C8677445
:1033200005122339B4A3A3122339B912233B76FF24
:103330009000C866E0FD7C00EF2DFFEC3EFEA3E0B0
:103340002FFFEC3ECF2401CF3400FE12233A88EF4A
:10335000F0122574339000C86212233B2C700301D5
:10336000351012233A581223397C7405F012233A8F
:1033700047FD122339DBA3A3E0FE122339F8A3A3F0
:10338000A3122339D7EEF0EF2401FFE433FE12231A
:103390003A5E2FFFEC3EFE122339D312233BA1FDF0
:1033A0009000C867E0FB120012109000C866E0248D
:1033B00001FFE433FEA3E07C002FFFEC3EFE12236E
:1033C0003A5E2FFFEC3EFE122339D3A3A3A3E012F3
:1033D000233B41240512233982E0FCA3E0FD8B82CC
:1033E0008A8312233A78FAA3E0FB1200112F1223EA
:1033F0003ADFA3E0FCA3E0FD122521919000C86212
:103400000134CC1220370E70030135101223396DB0
:1034100074061220363F0134CC1220361770030197
:1034200035101223396D7409122035110134CC1274
:1034300020361770030135101223396D740A1220DB
:1034400035110134CC122037967003013510122348
:10345000396D740B1220373680721220376E70036C
:103460000135101223396D740C122036AE805D9038
:1034700000C866E0240412203804700301351012DD
:1034800023396D740DF07B04122037BE803E12206C
:1034900036E6607C1223396D7407122035DF802CEC
:1034A0009000C866E02403122038046063122339B8
:1034B0006D7408F07B03122037BE801012203796FF
:1034C000604E1223396D740E12203736E0FEA3E0F1
:1034D000FF02267E96122339E812233A08FEA3E063
:1034E000FFEE14702BEF24F260028024122339B512
:1034F000A312000DD9E92403F9E43AFA12000AB143
:1035000064027D0270047F018002E4FF1227679548
:1035100022F0EF2401FFE433CF2DCF3CFE9000C812
:1035200058E0FCA3E02402FDE43CFC7B0212001204
:10353000109000C860E0FEA3E0FFA3E0FCA3E0FD64
:10354000122521919000C86222F09000C858E0FC3A
:10355000A3E0FDF5828C83759300A3A3E0FE8D822A
:103560008C83759300A3A3A3E0FCA3E0F5828C8376
:10357000759300EEF0EF2401FFE433FE9000C86283
:10358000E0FCA3E02FFFEC3EFE9000C858E0FCA357
:10359000E0F5828C83759300A3A3A3E0FCA3E0FD78
:1035A0009000C867E0FB120012109000C866E0248B
:1035B00001FFE433FEA3E07C002FFFEC3EFE900011
:1035C000C862E0FCA3E02FFFEC3EFE9000C858E08C
:1035D000FCA3E0F5828C83759300A3A3A3E022F003
:1035E000EF2401FFE433CF2DCF3CFE9000C858E01C
:1035F000FCA3E02402FDE43CFC7B031200121090CB
:1036000000C860E0FEA3E0FFA3E0FCA3E0FD1225FC
:1036100021919000C862229000C866E02402FFE475
:1036200033CF2401CF3400FE9000C860F0A3EFF048
:10363000122574339000C862EEF0A3EFF04E22F032
:10364000EF2401FFE433CF2DCF3CFE9000C858E0BB
:10365000FCA3E02402FDE43CFC7B08120012109065
:1036600000C860E0FEA3E0FFA3E0FCA3E0FD12259C
:1036700021919000C86222E0FEA3E0FF9000C8669E
:10368000E0FD7C00EF2DFFEC3EFEA3E02FFFEC3EC3
:10369000CF2401CF3400FE9000C860F0A3EFF012F9
:1036A0002574339000C862EEF0A3EFF04E22F0EFE5
:1036B0002401FFE433CF2DCF3CFE9000C858E0FC3E
:1036C000A3E02402FDE43CFC7B06120012109000F3
:1036D000C860E0FEA3E0FFA3E0FCA3E0FD1225210B
:1036E000919000C862229000C866E02403FFE43392
:1036F000CF2401CF3400FE9000C860F0A3EFF01299
:103700002574339000C862EEF0A3EFF04E229000D3
:10371000C866E02408FFE433CF2401CF3400FE90D4
:1037200000C860F0A3EFF0122574339000C862EE79
:10373000F0A3EFF04E22F0EF2401FFE433CF2DCFC2
:103740003CFE9000C858E0FCA3E02402FDE43CFCF1
:103750007B02120012109000C860E0FEA3E0FFA3FD
:10376000E0FCA3E0FD122521919000C862229000A8
:10377000C866E02406FFE433CF2401CF3400FE9076
:1037800000C860F0A3EFF0122574339000C862EE19
:10379000F0A3EFF04E229000C866E02402FFE4336D
:1037A000CF2401CF3400FE9000C860F0A3EFF012E8
:1037B0002574339000C862EEF0A3EFF04E22EF24A0
:1037C00001FFE433CF2DCF3CFE9000C858E0FCA3AE
:1037D000E02402FDE43CFC120012109000C860E0FE
:1037E000FEA3E0FFA3E0FCA3E0FD122521919000E1
:1037F000C862229000C889E0FB12278E279000C47F
:103800006AE0FF22FFE433CF2401CF3400FE9000B2
:10381000C860F0A3EFF0122574339000C862EEF098
:10382000A3EFF04E22E0FAA3E0FB1200112F90006C
:10383000C860E0FEA3E0FFA3E0FCA3E0FD122521A9
:10384000919000C86222EFF0FB9000C46AE0FF7D17
:103850000612278E279000C46AE0FF229000C860FD
:10386000E0FB12278E279000C46AE0FF22E4FDFFF0
:1038700012276F89E49000C46BF022E0FFE4FD1290
:1038800027312B227CC87D5A122753117EC87F5ABC
:1038900022E0FF1227B760E4FD122607C622E0FDF2
:1038A0007F041224B06B22E0FB7D0812278E2722B2
:1038B0001227431DEF4E22F07EC87F631222B7A16C
:1038C000229000C623EEF0A3EFF07EC67F267B2079
:1038D000E4FD1200004F12224CF212224C4FE01273
:1038E000000E6839470139CF023A7E033ABC043AE8
:1038F000FA053B3C063C08073D15083F3B0940A73D
:103900000A442D0B3D150C44CA0D45900E45D70FAA
:1039100045F310463C11466F1246D81346F3144740
:103920005215476D164A28174A47184B1F194BC0A6
:103930001A4BFA1B3D151C3F3B1D4C3F1E4C5E1F96
:103940004C764000004CA612224B5570511227AE07
:103950000412224BBF7003014CA612224CF2122219
:103960004B8312224E8B12224B9112224EBAF08FB1
:103970008212224B8512224E83EC12224C771222A5
:103980004D2412224DC412224D3812224E531222BF
:103990004D6D12224E530412224EC1EF801312229B
:1039A0004B7B12224BB97003014CA6740112224DBD
:1039B000AB12224CF112224B83A3E0FD12224D09DF
:1039C000CDF0A3ED12224B549000C62A0145D3122C
:1039D000224B7B12224BB97003014CA674021222B7
:1039E0004DABF09000C62312224BCC240612224B82
:1039F00060FDA3E0CD12224C24240A12224B6090D9
:103A000000C62A12204CD412224BE3240A12224B65
:103A1000606003014CA69000C625E012224CFC1207
:103A2000224B65FEA3E0FF4E600412267E96122212
:103A30004F2AFFAEF012204CF112224CFC12224D04
:103A400024ED12224CFC12224B65FEA3E0FF4E60D7
:103A50000812224F2A12204CFC12224F3412224DFF
:103A60006E12224B657003014CA6EE12224B91128E
:103A7000224B6512224C36AD82FC02268A1A122293
:103A80004B7B12224BB97003014CA612224C8712B9
:103A9000224B6512224C14600612224C47E4F012AD
:103AA000224B7BA3E0700812224DC41227071C741E
:103AB0000512224B6C12224D090145D312224B7B79
:103AC00012224BB97003014CA612224C8712224BD2
:103AD0006512224C14600612224C47E4F012224B6D
:103AE0007BA3E0700812224DC41227071C74031236
:103AF000224B6C12224D090145D312224B7B12221C
:103B00004BB97003014CA612224C8712224B65124E
:103B1000224C14600612224C47E4F012224B7BA385
:103B2000E0700812224DC41227071C9000C62674AC
:103B30000412224B7012224D090145D312224B7BF5
:103B400012224BB97003014CA69000EDE9E0FFA3EF
:103B5000E09000C66ACFF0A3EFF0E4A3F012224F8A
:103B6000059000C66CE0C39B4003013BEF9000C68C
:103B70006AE0FEA3E0FF12224B83E012224EC8242B
:103B800046F582E434C612224EBAF08F828E8375D7
:103B90009300E0FFEC25E025E02447F582E434C6FD
:103BA00012224CDC9000C66A12224BCC240812224E
:103BB0004B6012224EC82448F582E434C6F5837562
:103BC000930012224C2A240A12224B60FFEC25E0BB
:103BD00025E02449F582E434C612224CDC9000C66C
:103BE0006A12224D979000C66CE004F0013B5D1212
:103BF000224B9DA3E0FD9000C67074C6F0A37446EE
:103C0000F0E4A3F00224D94A12224B7B12224BB9D2
:103C10007003014CA612224CF212224B8312224D49
:103C20002F12224B656D6003014CA6741A12224EAE
:103C3000C1ECF08F8212224B85A312224D08122272
:103C40004C2B240712224B609000C62912204CD422
:103C50009000C62312224BCC240712224B60600333
:103C6000014CA68F8212224B8512224E829000C6F2
:103C700025E0FD12224D8712224D24ED12224D7BAC
:103C800012224E53ED12224CA712224B65FEA3E0E6
:103C9000FF4E600412267E969000C625E012224D4B
:103CA0008712224B65FEA3E07802C333CE33CED811
:103CB000F9FF12204CF112224CA712224D24ED12D2
:103CC000224CA712224B65FEA3E04E7003014CA6C6
:103CD000ED12224CA712224B65FEA3E0FFED12224B
:103CE0004D87F583759300A3E025E025E0FB1222C4
:103CF0004C588C83759300240512224B60FCA3E082
:103D0000FD1200121012224DC412224CA7F5837529
:103D100093000140787EC67F467B13E4FD120000CD
:103D20004F12224B7B12224BB97003014CA6E0FFCD
:103D300012224CE5F5837593007401F0A37403F02F
:103D400012224C5812224D1CE0640C70187593001E
:103D5000A3A3A3E0FD1227740F9000C65912224CB2
:103D60001D7017800012224B7BA3A3E0FF1227785F
:103D7000C89000C659EEF0A3EFF09000C659E0706D
:103D800002A3E0706112224C5812224D1BE064081D
:103D9000701212224BAAA3E09000C67112224ED4D8
:103DA0000225EC3312224C5812224D1BE0641C7089
:103DB0001212224BAAA3E09000C67112224ED40226
:103DC00025DF2312224C5812224D1BE0640C6003A5
:103DD000014CA612224BAAA3E0FD9000C67112224C
:103DE0004ED50225DFD59000C6467401F012224E52
:103DF00071A3E0FF12224B83A3E09000C64CF08F2A
:103E00008212224B85A3A3E0FFA3E09000C64DCF12
:103E1000F0A3EFF09000C65912224BCE24051222D7
:103E20004B609000C658F09000C652740112224CAC
:103E30002B240812224B609000C653F09000C65904
:103E400012224BE9240912224B60FF9000C654F065
:103E50007E007006A37404F08022EF64024E7009A5
:103E60009000C6557406F080139000C65912224B7C
:103E7000E7240B12224B609000C655F09000C65507
:103E8000E0FF7E00122574339000C65612224C1DAE
:103E90007003014CA69000C656E0FEA3E0FF900020
:103EA000C655E012204CFC9000C65912224CC62484
:103EB0000912224B60FFED240BFDE43CFC9000C690
:103EC00056E0FAA3E0FB1224D34012224C581222EF
:103ED0004D1BE06408701412224BAA12224EDCE43F
:103EE0009000C671F01225EC33804912224C581212
:103EF000224D1BE0641C70299000C65912224BE72A
:103F0000240512224B609000C658F08D8212224B7D
:103F1000A812224EDCE49000C671F01225DF238047
:103F20001312224B9D12224EDC9000C6717412F0C7
:103F30001225DFD59000C656014B1712224B7B127B
:103F4000224BB97003014CA612224B7BA3E0FF90D9
:103F500000C625E012224D3812224B656F60030126
:103F60004CA69000C6267406F012224DC49000C6DE
:103F700027F012224CA712224B65FCA3E0FD12226F
:103F80004D7A12224B6575F004A4FFED2FFFEC353E
:103F9000F09000C646F0FCA3EFF0FD7EC67F287BC4
:103FA000041200121012224B7BA3A312224BCC242A
:103FB0000612224B6060079000C62C7401F012229A
:103FC0004C2C241212224B6060079000C62F740103
:103FD000F012224B7BA3A312224BCC240C12224BB7
:103FE00060600F12224C2C240E12224B609000C6EF
:103FF00033F012224CB3240E12224B6012224C9743
:10400000240F12224B60FD12224C09A3A3A31222FB
:104010004BE7241012224B60FAA3E0FB74C6122275
:104020004DEB7435F01224CD2D12204CE812224BAA
:10403000E3240712224B606003014CA612224DC4F8
:1040400012224D7B12224B6504F012224D7A12226D
:104050004B65FD12224DC412224D8712224B65FA88
:10406000A3E06D7001EA601E9000C646E475F0049E
:1040700012000B099000C646E0FCA3E012224D1C82
:10408000E0FD0226D95B12224CA212224B65FEA350
:10409000E0FF4E7003014CA612267E9612224CA21F
:1040A00012224E53A3F02212224B7B12224BB970E4
:1040B00003014CA612224B7B12224C11701A1222C1
:1040C0004B8C12224B6512224C57F58212224BB2B6
:1040D00012224DF27412802112224C47E0640170CA
:1040E0001E12224B8C12224B6512224C57F5821263
:1040F000224BB212224DF27413F0E4FB01429C12E7
:10410000224D118A83759300240512224B601222DE
:104110004CC7240C12224B6064016003014252120E
:10412000224C98240E12224B60FFC00712224C989A
:10413000240F12224B60FD12224C09E58224051245
:10414000224B6012224BE8241012224B6012224DA7
:10415000E37448F0D0071224CD2D12224BC8240955
:1041600012224B6060030141F712224C2C240B12E7
:10417000224B6012224DCB606012224BC8240C12DD
:10418000224B6012224F3B605012224C2C240D1205
:10419000224B6012224F45604012224BC8240E125F
:1041A000224B6012224F4F603012224C2C240F12EF
:1041B000224B6012224F59602012224BC824101249
:1041C000224B6012224EEF501012224C2C2411125E
:1041D000224B6012224EFA507912224B8C12224B43
:1041E0006512224C57F58212224BB212224DF27404
:1041F00029F07B0701429C12224BC8240912224B52
:10420000606402704D12224C2C240B12224B60125F
:10421000224DCB602012224BC8240C12224B60127C
:10422000224DFA601012224C2C240E12224B6012E6
:10423000224F63701D12224B8C12224B6512224CAE
:1042400057F58212224BB212224DF27429F07B07ED
:10425000804A12224BE3240512224B6012224BCDDE
:10426000240612224B60640170369000C62A0412A4
:10427000224C2B240712224B60FEA3E064024E6006
:104280001F12224B8C12224B6512224C57F58212C0
:10429000224BB212224DF27429F07B040227ADD0DA
:1042A00012224B8C12224B6512224C57F58212229D
:1042B0004BB2A3E0FDE49000C670F0FB1227ADD036
:1042C0009000C646E0FEA3E0FF12224C4F7401F0BE
:1042D00012224C5812224CCA240512224B60FAA317
:1042E000E08A83759300241212224B60640170638C
:1042F0009000C62D0412224C2B240A12224B60641B
:104300000170509000C62512224CE412224B65FE2B
:10431000A3E0FF64037003EE64017037EF64037081
:1043200003EE6401702D12224F3412224B9112229F
:104330004B6512224C3612224E488D828C831222FB
:104340004B59FD12224E0E12224B60FAA3E0FB12D3
:10435000267D9A9000C626740712224DACF090007C
:10436000C62312224BCC12224B5E9000C628F08F3F
:104370008212224B85A3A3E09000C629F09000C6CC
:104380002312224BE9240512224B6012224BCD242A
:104390000D12224B609000C63012224C2B240E12BC
:1043A000224B609000C631F07EC67F3312204CA7AE
:1043B00012224D0012224B65FEA3E0FF4E604E120A
:1043C000224E5B12224E6BC39F502012224C58F596
:1043D0008212224BB212224EA37001EA600D122209
:1043E0004D939000C659E004F080D89000C659E083
:1043F0006F601A12224B7B12224D4412224BB212D2
:10440000224E787CC67D2A7B1A1200121012224C92
:10441000F212224B83A312224E8A12224C881222BD
:104420004EBA12224B54FFEC12224CD12212224BD4
:104430007B12224BB97003014CA6740812224BD791
:1044400012224B5E9000C62812204CDE12224BE353
:1044500012224B5E6003014CA612224C8312224BA7
:104460006512224E9412224C4F7401F0759300E5B0
:1044700082240A12224B6064016003014CA61222BE
:104480004F3412224CE512224B65FCA3E06403700A
:1044900003EC64016003014CA69000C625E0FD1208
:1044A000224B9112224B65FFED12224D9F12224B9F
:1044B00065FD12224C3712224E4812224E0E122255
:1044C0004B60FAA3E0FB02267D9A12224B7B12225C
:1044D0004BB97003014CA612224CF212224B8312EC
:1044E000224D2F12224B656D6003014CA69000C631
:1044F000267409F0A3EC12224C2B240512224B60E7
:104500009000C643F08F8212224B85A3A312224B48
:10451000CC240612224B6060079000C6297401F07B
:1045200012224C2C241212224B6060079000C62CE1
:104530007401F012224B7BA3A312224BCC240C1249
:10454000224B60600F12224C2C240E12224B6090E2
:1045500000C630F012224CB3240E12224B601222FD
:104560004C97240F12224B60FD12224C09A3A3A3E7
:1045700012224BE7241012224B60FAA3E0FB9000BA
:10458000C67174C6F0A37432F01224CD2D014C9E76
:1045900012224B7B12224BB97003014CA612224B04
:1045A0007B12224C119000C623700D12224BA1A346
:1045B000E0FD7B120227AF9412224BA1A3E0FDE4A1
:1045C000FB1227AF949000C626740C12224B701277
:1045D000224D08F0014C9E12224B7B12224BB970E7
:1045E00003014CA6A3740D12224B7012224D08F049
:1045F000014C9E12224B7B12224BB97003014CA638
:1046000012224B7B12224C11700D12224B9DA3E003
:10461000FD7B120227B17612224C47E4F012224BA6
:104620009DA3E0FDE4FB1227B1769000C62674102E
:1046300012224B7012224D08F0014C9E12224B7B2D
:1046400012224BB97003014CA6A3741112224B70B5
:1046500012204CC312224B7BA3A3E06003014CA6A3
:1046600012224C8312224B6512224E94014C3812B6
:10467000224B7B12224BB97003014CA612224B7BBA
:1046800012224C11702112224B8C12224B651222E5
:104690004D1012224E1E12224C09A3A3A3E0FB9040
:1046A00000C6707412802C9000C626740E12224B25
:1046B0007012204CC312224B8C12224B6512224DD9
:1046C0001012224E1E12224C09A3A3A3E0FBE49079
:1046D00000C670F00227A81112224B7B12224BB9A0
:1046E0007003014CA6740F12224B309000C629F0C3
:1046F000014C9E12224B7B12224BB97003014CA637
:1047000012224B7B12224C11702412224B8C12224B
:104710004B6512224D1012224E1E12224C09A3A3E9
:10472000A3E0FB9000C6707412F00227A82F12229B
:104730004B9DA3E0FDE49000C670F0FB1227A82F6C
:104740009000C626741212224B7012224D08F001FE
:104750004C9E12224B7B12224BB97003014CA67463
:104760001312224B309000C629F0014C9E12224BAE
:104770007B12224BB97003014CA612224B7B1222F2
:104780004C11701A12224B8C12224B6512224C577C
:10479000F58212224BB212224E2A7412801F12226C
:1047A0004C47E0701E12224B8C12224B6512224C99
:1047B00057F58212224BB212224E2A7414F0E4FBF7
:1047C00001495812224D118A8375930012224B5EC3
:1047D00012224CC7240C12224B6064016003014971
:1047E0001012224C98240E12224B60FFC007122296
:1047F0004C98240F12224B60FD8B828A8312224B2D
:104800005912224BE8241012224B6012224DE374FD
:1048100048F0D0071224CD2D12224BC824091222B1
:104820004B6060030148B512224C2C240B12224B22
:104830006012224DCB606012224BC8240C12224B16
:104840006012224F3B605012224C2C240D12224B3E
:104850006012224F45604012224BC8240E12224B98
:104860006012224F4F603012224C2C240F12224B28
:104870006012224F59602012224BC8241012224B82
:104880006012224EEF501012224C2C241112224B97
:104890006012224EFA507912224B8C12224B651272
:1048A000224C57F58212224BB212224E2A7429F062
:1048B0007B0701495812224BC8240912224B60641D
:1048C00002704D12224C2C240B12224B6012224DEE
:1048D000CB602012224BC8240C12224B6012224DB6
:1048E000FA601012224C2C240E12224B6012224F1E
:1048F00063701D12224B8C12224B6512224C57F50D
:104900008212224BB212224E2A7429F07B07804871
:1049100012224BE312224B5E12224BCD24061222AE
:104920004B60640170369000C6290412224C2B247F
:104930000712224B60FEA3E064024E601F12224B5E
:104940008C12224B6512224C57F58212224BB21266
:10495000224E2A7429F07B040227B5D912224C5822
:1049600012224CCA12224B5E12224BE8241212224F
:104970004B60640170069000C62C04F012224B8C30
:1049800012224B6512224BAFA3E0FDE49000C670EB
:10499000F0FB1227B5D99000C626740A12224B31BB
:1049A00012224BCD240D12224B609000C62F1222F2
:1049B0004C2B240E12224B609000C630F07EC67F36
:1049C0003212204CA712224D0012224B65FEA3E0AA
:1049D000FF4E7003014CA612224E5B12224E6BC397
:1049E0009F502012224C58F58212224BB212224EB6
:1049F000A37001EA600D12224D939000C659E004A5
:104A0000F080D89000C659E06F7003014CA61222C6
:104A10004B7B12224D4412224BB212224E787CC69E
:104A20007D297B1A0200121012224B7B12224BB9F5
:104A30007003014CA6740B12224BD712224B5E90CE
:104A400000C628F0014C9E12224B7B12224BB970FB
:104A500003014CA612224B7B12224C11703A1222F7
:104A60004B8C12224B65FFC00712224CF212224BD4
:104A700083A3E0FD12224B55FAA3E0FB9000C6236E
:104A800012224BE9240612224B6012224D60A374BD
:104A900012F0D007022539BF12224CF212224B83AA
:104AA00012224E8A12224DD712224EBAF09000C620
:104AB000267416F0A3ECF08F8212224B8512224D41
:104AC0000812224BE212224B5EFEA3E0FF9000C6CA
:104AD00029EEF0A3EFF0122574339000C62B1222BA
:104AE0004C1D7003014CA67EC67F2B12224D111265
:104AF000224E1612224B60FCA3E0FD12224C09123A
:104B0000224F16F583759300A3E0FB1200121012DA
:104B1000204CE89000C62BE0FEA3E0FF014BBC1246
:104B2000224B7B12224BB97003014CA6A3741712BF
:104B3000224DAC12224CF112224B83A3A3E0FCA322
:104B4000E0FDEC12224C24240712224B609000C698
:104B50002CF0E49000C62AF0A3F0D3ED9400EC947E
:104B60000040429000C62312224B8112224E821234
:104B70002574339000C62A12224C1D7003014CA6E6
:104B80007EC67F2A12224D118A8375930024051256
:104B9000224B60FCA3E0FD12224C09A3A3A3A3E0D7
:104BA000FB120012107EC67F261227A0A79000C617
:104BB0002AE0FEA3E0FF4E7003014CA602267E967B
:104BC00012224B7B12224BB97003014CA612224BCE
:104BD0007B12224C11600612224C47E4F012224B49
:104BE0009DA3E0FD1227B18E9000C62674141222F8
:104BF0004B7012224D08F0014C9E12224B7B122268
:104C00004BB97003014CA6A3741512224B701222EB
:104C10004D0812204CDE12224B7BA3A3E06003015F
:104C20004CA612224C8312224B6512224C14607641
:104C30009000C646E0FEA3E012224C4FE4F02212A0
:104C4000224B7B12224BB9605DA3741812224B31A8
:104C5000FFA3E09000C629CFF0A3EFF0804012221E
:104C60004B7B12224BB9603EA3741912224B701277
:104C7000224D08F0802812224B7B12224BB960266D
:104C8000E0FF12224D9F12224B65FD1227A1479093
:104C900000C626744012224B7012224D09F07EC6C7
:104CA0007F261227A0A7227CC67D487B1112001206
:104CB000107EC67F261227A0A79000C625E075F0BB
:104CC00011A422A3A3E09000C628F07EC67F26127E
:104CD00027A0A722F07EC67F261227A0A722F07E5B
:104CE000C67F261227A0A7227EC67F261227A0A74E
:104CF00022122574339000C625E0FD22FBE4FD124C
:104D000000004F229000C7E61220B41B9000C7E6B7
:104D10001220B057E0FD7F031227028B9000C7EAF4
:104D2000EFF07EC77FEB7B11E4FD1200004F1220F5
:104D3000B17F1220B33CE012000E684DA5004E4D2D
:104D4000014F27024F84034F8404501C0654DB108C
:104D5000541A13580714583115585B16513A175105
:104D60008D18530E1952BB1A53661C53C01D58851B
:104D70001F58D620592721599D2254722355232488
:104D800056932556F92657A32757C3285A02295A5E
:104D90001C2A5A532B5A6D2C5AA02D5ABA2E5AED52
:104DA0002F00005B0D8F821220B05D1227463D90D0
:104DB00000C7EAEFF064047002801F9000C7EAE0C9
:104DC0001220B042AF82FE9000C7E81220B1C22488
:104DD0000C1220B031E0640370129000C7E612207C
:104DE000B057E0FF7E00E4FD0226B60D1220B17F31
:104DF0001220B05B1220B305242F1220B031EDF049
:104E00008F821220B05DE0FF7E007D011226B60D7C
:104E10009000C7E81220B0A524231220B031E03062
:104E2000E303015B2C1220B08D24221220B031E06C
:104E300054F71220B08C24231220B0311220B4B4C5
:104E40009000C8447401F07B03E4014F7F1220B14D
:104E5000114003015B2CEF1220B0421220B344EF4B
:104E60001220B17E1220B05BA3A3E070759000C742
:104E7000E81220B107240C1220B031E06403700363
:104E8000014F079000C7E81220B0A524231220B0DC
:104E900031E054F71220B08C24221220B0311220BD
:104EA000B7F5E0FEA3E01220B02A1220B4B47D04CE
:104EB000122626E71220B4B87B027A007D10122554
:104EC000CD7A1220B4B81220B7407B03E4FD12273C
:104ED000992A9000C7E61220B057E0FF7D03022612
:104EE00032331220B17F1220B05BA3A3E0640160D3
:104EF00003015B2C9000C7E81220B107240C12209C
:104F0000B031E06403700C8F821220B05DE0FF02CC
:104F10002792B69000C7EB7430F0741C1220B27860
:104F2000F0A374010157BF1220B1114003015B2CA3
:104F3000EF1220B042AD821220B346EDF09000C7D0
:104F4000E81220B5EA1220B02CE054F71220B0EDA0
:104F5000E58224231220B0311220B7F51220B14986
:104F600024221220B031E054F71220B0EDE5822463
:104F7000251220B031E054F7F01220B7487B03FD32
:104F80000227992A1220B1114003015B2CEF122055
:104F9000B0421220B3441220B3C41220B057A3E091
:104FA00070591220B4B87D0B122626E79000C7E88E
:104FB000E0FEA3E0FF1220B02AE054F71220B08CEC
:104FC00024231220B0311220B7F51220B0A52422DC
:104FD0001220B031E054F71220B08C24251220B0FA
:104FE00031E054F71220B4B71220B7487B03FD120A
:104FF00027992A1220B4B8022720CF9000C7E612C2
:1050000020B057A3E064016003015B2C1220B32A97
:10501000741C1220B279F0E4A30157BF1220B11121
:105020004003015B2C1220B4111220B12DA3A3A3C5
:10503000E064036003015B2C1220B0EEA3A3E064E4
:105040000C6003015B2CEF1220B0421220B344121B
:1050500020B3C41220B08024041220B031E09000AC
:10506000C7FDF0E49000C7FCF09000C7FDE0FF90A2
:1050700000C7FCE0FEC39F40030151149000C7E647
:105080001220B10724051220B0311220B1297593E6
:10509000002E1220B031E0D3941574809480506AB1
:1050A0009000C7E81220B08024311220B2D1C08312
:1050B000C082759300E0FCA3E0FD9000C7E61220DB
:1050C000B08024051220B0311220B1D0C083C0823C
:1050D0007593009000C7FCE0759300D082D08325C3
:1050E000821220B031E0FF7E007401A8070880051D
:1050F000C333CE33CED8F9FFEC4EFEED4FFF7593A0
:1051000000D082D083EEF0A3EFF09000C7FCE00463
:10511000F00150691220B32A74011220B279F09084
:1051200000C7E81220B08024311220B031E0FF1215
:1051300020B3A1CFF0A3EF0157BF1220B960122016
:10514000B1174003015B2C1220B17F1220B05BA38A
:10515000E0640D6003015B2CE91220B042AD82FCDB
:105160001220B346EDF08F821220B05DE0FF1220D6
:10517000B0EEE58224331220B0317C00A3E0540469
:1051800012205B9F74061220B2790157BF1220B122
:10519000114003015B2CEF1220B0421220B344EF08
:1051A0001220B17E1220B05BA3E0640D70778F8275
:1051B0001220B05DA3A3E0640170471220B4B812BE
:1051C00026D02C9000C7E81220B0A5242E1220B0C3
:1051D00031E06402702C1220B08D24281220B031EE
:1051E0001220B7FE601C7D01122638A2EF4E70120D
:1051F0009000C7E81220B08024281220B03112207D
:10520000B8299000C7E61220B0571220B83F1220EC
:10521000B10724331220B0317C00A3E05402FD1208
:10522000253227805F9000C7E61220B057A3E064C4
:105230000F70519000C7E81220B0A524261220B0AC
:1052400031E0FD5420703D1220B08D24261220B094
:1052500031ED44201220B329740D1220B279F0A34D
:1052600074011220B08C24261220B031E05440602A
:10527000099000C7EF7401F08006E49000C7EFF0DA
:1052800012205BC21220B17F1220B05B1220B30348
:1052900024301220B0311220B32874051220B279C4
:1052A000F08F821220B05D1220B3A1F09000C7E60B
:1052B0001220B0571220B6980157BF1220B96012C1
:1052C00020B1174003015B2C1220B17F1220B05B8C
:1052D000A3E0640D6003015B2CE91220B042AD82B3
:1052E000FC1220B346EDF08F821220B05DE0FF1279
:1052F00020B0EEE58224331220B0317C00A3E054CC
:105300001012205B9F74071220B2790157BF122040
:10531000B9601220B1174003015B2C1220B17F123B
:1053200020B05BA3E0640D6003015B2CE91220B0A8
:1053300042AD82FC1220B346EDF08F821220B05DA8
:10534000E0FF1220B0EEE58224331220B0317C0061
:10535000A3E05408FD122532271220B32A74081244
:1053600020B2790157BF1220B1114003015B2CEF2D
:105370001220B0421220B344EF1220B17E1220B0AE
:105380005BA3E0640D701F8F821220B05D1220B805
:105390003F1220B10724331220B0317C00A3E05427
:1053A00040FD122532271220B32A74091220B27947
:1053B000F09000C7E61220B0571220B3A00157BFEB
:1053C0001220B1114003015B2CEF1220B0421220D9
:1053D000B344EF1220B17E1220B05BA3E0640D70E5
:1053E0001F8F821220B05D1220B83F1220B1072417
:1053F000331220B0317C00A3E05480FD1225322707
:105400001220B32A74091220B279F09000C7E61274
:1054100020B0571220B3A00157BF1220B111400392
:10542000015B2C9000C7E61220B129A3A3E0640918
:105430006003015B2CEF1220B042AD82FC1220B35E
:1054400046EDF09000C7E61220B2A2A3A3A3E0FEAF
:105450001220B0EEE58224351220B031EE1220B3D6
:105460002974021220B3C21220B0571220B3A00137
:1054700057BF1220B1114003015B2CEF1220B04244
:105480001220B344EF1220B17E1220B05BA3E0647F
:105490000D701E8F821220B05D1220B83F1220B115
:1054A0000724331220B031E05420FC7D0012253255
:1054B000271220B17F1220B05B1220B303243512D3
:1054C00020B0311220B32874041220B279F08F82F8
:1054D0001220B05D1220B3A00157BF1220B11140BD
:1054E00003015B2CEF1220B0421220B344EF1220D4
:1054F000B17E1220B05BA3E0640C6003015B2C1250
:1055000020B32A740B1220B2791220B8C4FAA9076A
:105510007B0178EE7CC77D017E007F0B12000A3391
:10552000015B241220B1114003015693E49000C79F
:10553000FCF0EF1220B0421220B344EF1220B17EF3
:105540001220B05BA3E06441706F8F821220B05DC7
:10555000A3A3E0600301562F9000C7E81220B0809B
:1055600024271220B031E0C3940F7480948040034C
:1055700001562F9000C7E81220B0A724271220B0B0
:1055800031E0041220B08C24271220B03112205BAD
:10559000D21220B14924351220B0311220B26D123E
:1055A00020B0EDE58224351220B031E09000C7EE46
:1055B000F0E4A312205BB880761220B17F1220B0F5
:1055C0005BA3E06442706F8F821220B05DA3A3E002
:1055D000705D9000C7E81220B08024271220B031FF
:1055E000E0D394007480948040459000C7E8122076
:1055F000B0A724271220B031E0141220B08C242749
:105600001220B03112205BD21220B1492435122071
:10561000B0311220B26D1220B0EDE5822435122097
:10562000B031E09000C7EEF0A3740112205BB89097
:1056300000C7FC7401F09000C7FCE064019000C753
:10564000E870271220B080242F1220B0311220B42D
:105650000F1220B12DA3A3A3E0FB1220B0EEA3A351
:10566000E09000C801F0E4FD80251220B080242FD6
:105670001220B0311220B40F1220B12DA3A3A3E049
:10568000FB1220B0EEA3A3E09000C801F07D011250
:1056900026DA1B1220B1114003015B2CEF1220B05F
:1056A000421220B344EF1220B17E1220B05BA3E07F
:1056B00064096003015B2C8F821220B05DA3A3E01C
:1056C000FF64497003015B2CEF64487003015B2C9D
:1056D0009000C7E61220B059A3A3E0FB54806003FA
:1056E000015B2C9000C7E81220B080242F1220B05C
:1056F00031E0FF7D01022741CE1220B111400301AC
:105700005B2CEF1220B0421220B3441220B3C4121B
:1057100020B057A3A3E0640D6003015B2C9000C789
:10572000E81220B0A524351220B031E09000C7FC6B
:105730001220B08C24261220B031E0FF5440704675
:105740009000C7E81220B14924261220B031EF445E
:10575000401220B329740D1220B279F09000C7EFE7
:1057600074011220B0EDE58224261220B031E054FD
:105770002060099000C7EE7401F08006E49000C735
:10578000EEF012205BC29000C7E61220B057E0FF97
:105790009000C80174C7F0A374FCF07B017D0D027A
:1057A000275B2B1220B1114003015B2CA37430F056
:1057B000A3740C1220B3C21220B0571220B3A1F070
:1057C000015B241220B1114003015B2CEF1220B0C9
:1057D00042AF82FE9000C7E81220B1C2242F1220EF
:1057E000B031E0FFC0071220B17F1220B05BA3E010
:1057F000FBEF2403FFE43E9000C801F0A3EFF0D0DC
:10580000077D0C0226478A1220B1114003015B2C50
:1058100012205B2D740E1220B1741220B05B122086
:10582000B3A1F08F821220B05D1220B698F0015B18
:10583000241220B1114003015B2C12205B2D740F48
:105840001220B1741220B05B1220B3A1F08F82122B
:1058500020B05D1220B698F0015B241220B11140F7
:1058600003015B2C12205B7274101220B1731220A2
:10587000B05B1220B3A1F08F821220B05D1220B66F
:1058800098F0015B241220B1114003015B2C12201F
:105890005BAD12279B201220B17F1220B05BA3E0EA
:1058A000640D70171220B4261220B1955402FC7DAD
:1058B000008F821220B05D12205BCB1220B32A74BD
:1058C000111220B279F09000C7E61220B0571220D2
:1058D000B3A1F0015B241220B1114003015B2C1233
:1058E000205BAD12279B201220B17F1220B05BA35A
:1058F000E0640D70171220B4261220B1955404FCF8
:105900007D008F821220B05D12205BCB1220B32A63
:1059100074121220B279F09000C7E61220B057122C
:1059200020B3A1F0015B241220B1114003015B2CD4
:10593000122742DA1220B4B812279B201220B17F1E
:105940001220B05BA3E0640D70191220B42612205F
:10595000B1955408FC7D008F821220B05DE0FF12EB
:105960002532279000C7EB7430F074131220B17306
:105970001220B05B1220B3A1F08F821220B05D1212
:1059800020B3B71220B08224051220B031E0FFA36B
:10599000E09000C7F1CFF0A3EFF0015B241220B13B
:1059A000114003015B2C122742DA1220B4B81227EF
:1059B0009B201220B17F1220B05BA3E0640D701910
:1059C0001220B4261220B1955410FC7D008F821253
:1059D00020B05DE0FF122532271220B32A74141282
:1059E00020B1741220B05B1220B3A1F08F8212207C
:1059F000B05DA3A3E0FF1220B699CFF0A3EFF001B2
:105A00005B241220B1114003015B2C12205B447413
:105A1000151220B2791220B3DB015B241220B111E0
:105A20004003015B2C12205B4474161220B17412E7
:105A300020B05B1220B3A1F08F821220B05D122043
:105A4000B3B71220B08224051220B0311220B8461C
:105A5000015B241220B1114003015B2C12205B5B1F
:105A600074171220B2791220B3DB015B241220B12B
:105A7000114003015B2C12205B5B74181220B1747F
:105A80001220B05B1220B3A1F08F821220B05DA370
:105A9000A312000D749000C7EF12000DB5015B2436
:105AA0001220B1114003015B2C12205B72A3741908
:105AB0001220B2791220B3DB806A1220B111506C2F
:105AC00012205B88741A1220B1741220B05B12206D
:105AD000B3A1F08F821220B05D1220B3B71220B0B4
